{
	"data": {
		"bytecode": {
			"linkReferences": {},
			"object": "608060405234801561001057600080fd5b50610168806100206000396000f3fe60806040526004361061001e5760003560e01c8063bf15071d14610023575b600080fd5b61002b61002d565b005b60003403610070576040517fd12e540800000000000000000000000000000000000000000000000000000000815260040161006790610112565b60405180910390fd5b346000803373ffffffffffffffffffffffffffffffffffffffff1673ffffffffffffffffffffffffffffffffffffffff16815260200190815260200160002081905550565b600082825260208201905092915050565b7f6d73672e76616c7565206973206c6f776572207468616e206d696e5072696365600082015250565b60006100fc6020836100b5565b9150610107826100c6565b602082019050919050565b6000602082019050818103600083015261012b816100ef565b905091905056fea26469706673582212202d4aa727656baae1c509dac9265f3d8d26bea4c185ea59804893f225229ae57f64736f6c63430008120033",
			"opcodes": "PUSH1 0x80 PUSH1 0x40 MSTORE CALLVALUE DUP1 ISZERO PUSH2 0x10 JUMPI PUSH1 0x0 DUP1 REVERT JUMPDEST POP PUSH2 0x168 DUP1 PUSH2 0x20 PUSH1 0x0 CODECOPY PUSH1 0x0 RETURN INVALID PUSH1 0x80 PUSH1 0x40 MSTORE PUSH1 0x4 CALLDATASIZE LT PUSH2 0x1E JUMPI PUSH1 0x0 CALLDATALOAD PUSH1 0xE0 SHR DUP1 PUSH4 0xBF15071D EQ PUSH2 0x23 JUMPI JUMPDEST PUSH1 0x0 DUP1 REVERT JUMPDEST PUSH2 0x2B PUSH2 0x2D JUMP JUMPDEST STOP JUMPDEST PUSH1 0x0 CALLVALUE SUB PUSH2 0x70 JUMPI PUSH1 0x40 MLOAD PUSH32 0xD12E540800000000000000000000000000000000000000000000000000000000 DUP2 MSTORE PUSH1 0x4 ADD PUSH2 0x67 SWAP1 PUSH2 0x112 JUMP JUMPDEST PUSH1 0x40 MLOAD DUP1 SWAP2 SUB SWAP1 REVERT JUMPDEST CALLVALUE PUSH1 0x0 DUP1 CALLER PUSH20 0xFFFFFFFFFFFFFFFFFFFFFFFFFFFFFFFFFFFFFFFF AND PUSH20 0xFFFFFFFFFFFFFFFFFFFFFFFFFFFFFFFFFFFFFFFF AND DUP2 MSTORE PUSH1 0x20 ADD SWAP1 DUP2 MSTORE PUSH1 0x20 ADD PUSH1 0x0 KECCAK256 DUP2 SWAP1 SSTORE POP JUMP JUMPDEST PUSH1 0x0 DUP3 DUP3 MSTORE PUSH1 0x20 DUP3 ADD SWAP1 POP SWAP3 SWAP2 POP POP JUMP JUMPDEST PUSH32 0x6D73672E76616C7565206973206C6F776572207468616E206D696E5072696365 PUSH1 0x0 DUP3 ADD MSTORE POP JUMP JUMPDEST PUSH1 0x0 PUSH2 0xFC PUSH1 0x20 DUP4 PUSH2 0xB5 JUMP JUMPDEST SWAP2 POP PUSH2 0x107 DUP3 PUSH2 0xC6 JUMP JUMPDEST PUSH1 0x20 DUP3 ADD SWAP1 POP SWAP2 SWAP1 POP JUMP JUMPDEST PUSH1 0x0 PUSH1 0x20 DUP3 ADD SWAP1 POP DUP2 DUP2 SUB PUSH1 0x0 DUP4 ADD MSTORE PUSH2 0x12B DUP2 PUSH2 0xEF JUMP JUMPDEST SWAP1 POP SWAP2 SWAP1 POP JUMP INVALID LOG2 PUSH5 0x6970667358 0x22 SLT KECCAK256 0x2D 0x4A 0xA7 0x27 PUSH6 0x6BAAE1C509DA 0xC9 0x26 0x5F RETURNDATASIZE DUP14 0x26 0xBE LOG4 0xC1 DUP6 0xEA MSIZE DUP1 BASEFEE SWAP4 CALLCODE 0x25 0x22 SWAP11 0xE5 PUSH32 0x64736F6C63430008120033000000000000000000000000000000000000000000 "
		},
		"gasEstimates": {
			"creation": {
				"codeDepositCost": "72000",
				"executionCost": "123",
				"totalCost": "72123"
			},
			"external": {
				"order()": "22322"
			}
		},
		"methodIdentifiers": {
			"order()": "bf15071d"
		}
	},
	"abi": [
		{
			"inputs": [
				{
					"internalType": "string",
					"name": "data",
					"type": "string"
				}
			],
			"name": "ZeroCheckError",
			"type": "error"
		},
		{
			"inputs": [],
			"name": "order",
			"outputs": [],
			"stateMutability": "payable",
			"type": "function"
		}
	]
}