{
	"data": {
		"bytecode": {
			"linkReferences": {},
			"object": "608060405234801561001057600080fd5b5061020a806100206000396000f3fe6080604052600436106100295760003560e01c8063bf15071d1461002e578063f59e710014610038575b600080fd5b610036610042565b005b6100406100ca565b005b60003403610085576040517f08c379a000000000000000000000000000000000000000000000000000000000815260040161007c906101b4565b60405180910390fd5b346000803373ffffffffffffffffffffffffffffffffffffffff1673ffffffffffffffffffffffffffffffffffffffff16815260200190815260200160002081905550565b6000341461011a57346000803373ffffffffffffffffffffffffffffffffffffffff1673ffffffffffffffffffffffffffffffffffffffff16815260200190815260200160002081905550610155565b6040517f08c379a000000000000000000000000000000000000000000000000000000000815260040161014c906101b4565b60405180910390fd5b565b600082825260208201905092915050565b7f4d73672e76616c7565206d757374206e6f74206265207a65726f000000000000600082015250565b600061019e601a83610157565b91506101a982610168565b602082019050919050565b600060208201905081810360008301526101cd81610191565b905091905056fea2646970667358221220b408cb34f67d411932d5ceefda005c23157adbc3629da04aaab0dccd0b066b0564736f6c63430008120033",
			"opcodes": "PUSH1 0x80 PUSH1 0x40 MSTORE CALLVALUE DUP1 ISZERO PUSH2 0x10 JUMPI PUSH1 0x0 DUP1 REVERT JUMPDEST POP PUSH2 0x20A DUP1 PUSH2 0x20 PUSH1 0x0 CODECOPY PUSH1 0x0 RETURN INVALID PUSH1 0x80 PUSH1 0x40 MSTORE PUSH1 0x4 CALLDATASIZE LT PUSH2 0x29 JUMPI PUSH1 0x0 CALLDATALOAD PUSH1 0xE0 SHR DUP1 PUSH4 0xBF15071D EQ PUSH2 0x2E JUMPI DUP1 PUSH4 0xF59E7100 EQ PUSH2 0x38 JUMPI JUMPDEST PUSH1 0x0 DUP1 REVERT JUMPDEST PUSH2 0x36 PUSH2 0x42 JUMP JUMPDEST STOP JUMPDEST PUSH2 0x40 PUSH2 0xCA JUMP JUMPDEST STOP JUMPDEST PUSH1 0x0 CALLVALUE SUB PUSH2 0x85 JUMPI PUSH1 0x40 MLOAD PUSH32 0x8C379A000000000000000000000000000000000000000000000000000000000 DUP2 MSTORE PUSH1 0x4 ADD PUSH2 0x7C SWAP1 PUSH2 0x1B4 JUMP JUMPDEST PUSH1 0x40 MLOAD DUP1 SWAP2 SUB SWAP1 REVERT JUMPDEST CALLVALUE PUSH1 0x0 DUP1 CALLER PUSH20 0xFFFFFFFFFFFFFFFFFFFFFFFFFFFFFFFFFFFFFFFF AND PUSH20 0xFFFFFFFFFFFFFFFFFFFFFFFFFFFFFFFFFFFFFFFF AND DUP2 MSTORE PUSH1 0x20 ADD SWAP1 DUP2 MSTORE PUSH1 0x20 ADD PUSH1 0x0 KECCAK256 DUP2 SWAP1 SSTORE POP JUMP JUMPDEST PUSH1 0x0 CALLVALUE EQ PUSH2 0x11A JUMPI CALLVALUE PUSH1 0x0 DUP1 CALLER PUSH20 0xFFFFFFFFFFFFFFFFFFFFFFFFFFFFFFFFFFFFFFFF AND PUSH20 0xFFFFFFFFFFFFFFFFFFFFFFFFFFFFFFFFFFFFFFFF AND DUP2 MSTORE PUSH1 0x20 ADD SWAP1 DUP2 MSTORE PUSH1 0x20 ADD PUSH1 0x0 KECCAK256 DUP2 SWAP1 SSTORE POP PUSH2 0x155 JUMP JUMPDEST PUSH1 0x40 MLOAD PUSH32 0x8C379A000000000000000000000000000000000000000000000000000000000 DUP2 MSTORE PUSH1 0x4 ADD PUSH2 0x14C SWAP1 PUSH2 0x1B4 JUMP JUMPDEST PUSH1 0x40 MLOAD DUP1 SWAP2 SUB SWAP1 REVERT JUMPDEST JUMP JUMPDEST PUSH1 0x0 DUP3 DUP3 MSTORE PUSH1 0x20 DUP3 ADD SWAP1 POP SWAP3 SWAP2 POP POP JUMP JUMPDEST PUSH32 0x4D73672E76616C7565206D757374206E6F74206265207A65726F000000000000 PUSH1 0x0 DUP3 ADD MSTORE POP JUMP JUMPDEST PUSH1 0x0 PUSH2 0x19E PUSH1 0x1A DUP4 PUSH2 0x157 JUMP JUMPDEST SWAP2 POP PUSH2 0x1A9 DUP3 PUSH2 0x168 JUMP JUMPDEST PUSH1 0x20 DUP3 ADD SWAP1 POP SWAP2 SWAP1 POP JUMP JUMPDEST PUSH1 0x0 PUSH1 0x20 DUP3 ADD SWAP1 POP DUP2 DUP2 SUB PUSH1 0x0 DUP4 ADD MSTORE PUSH2 0x1CD DUP2 PUSH2 0x191 JUMP JUMPDEST SWAP1 POP SWAP2 SWAP1 POP JUMP INVALID LOG2 PUSH5 0x6970667358 0x22 SLT KECCAK256 0xB4 ADDMOD 0xCB CALLVALUE 0xF6 PUSH30 0x411932D5CEEFDA005C23157ADBC3629DA04AAAB0DCCD0B066B0564736F6C PUSH4 0x43000812 STOP CALLER "
		},
		"gasEstimates": {
			"creation": {
				"codeDepositCost": "104400",
				"executionCost": "153",
				"totalCost": "104553"
			},
			"external": {
				"order()": "22322",
				"order2()": "22355"
			}
		},
		"methodIdentifiers": {
			"order()": "bf15071d",
			"order2()": "f59e7100"
		}
	},
	"abi": [
		{
			"inputs": [],
			"name": "order",
			"outputs": [],
			"stateMutability": "payable",
			"type": "function"
		},
		{
			"inputs": [],
			"name": "order2",
			"outputs": [],
			"stateMutability": "payable",
			"type": "function"
		}
	]
}