{
	"solidity-study-main/3.tutorial/ex15/contracts/Inherit_function.sol": {
		"Car": {
			"abi": [
				{
					"inputs": [
						{
							"internalType": "string",
							"name": "_type",
							"type": "string"
						},
						{
							"internalType": "uint8",
							"name": "_door",
							"type": "uint8"
						}
					],
					"stateMutability": "nonpayable",
					"type": "constructor"
				},
				{
					"inputs": [],
					"name": "getDoor",
					"outputs": [
						{
							"internalType": "uint8",
							"name": "",
							"type": "uint8"
						}
					],
					"stateMutability": "view",
					"type": "function"
				}
			],
			"devdoc": {
				"kind": "dev",
				"methods": {},
				"version": 1
			},
			"evm": {
				"assembly": "    /* \"solidity-study-main/3.tutorial/ex15/contracts/Inherit_function.sol\":57:311  contract Car {... */\n  mstore(0x40, 0x80)\n    /* \"solidity-study-main/3.tutorial/ex15/contracts/Inherit_function.sol\":127:225  constructor(string memory _type, uint8 _door) {... */\n  callvalue\n  dup1\n  iszero\n  tag_1\n  jumpi\n  0x00\n  dup1\n  revert\ntag_1:\n  pop\n  mload(0x40)\n  sub(codesize, bytecodeSize)\n  dup1\n  bytecodeSize\n  dup4\n  codecopy\n  dup2\n  dup2\n  add\n  0x40\n  mstore\n  dup2\n  add\n  swap1\n  tag_2\n  swap2\n  swap1\n  tag_3\n  jump\t// in\ntag_2:\n    /* \"solidity-study-main/3.tutorial/ex15/contracts/Inherit_function.sol\":191:196  _type */\n  dup2\n    /* \"solidity-study-main/3.tutorial/ex15/contracts/Inherit_function.sol\":183:188  type_ */\n  0x00\n    /* \"solidity-study-main/3.tutorial/ex15/contracts/Inherit_function.sol\":183:196  type_ = _type */\n  swap1\n  dup2\n  tag_6\n  swap2\n  swap1\n  tag_7\n  jump\t// in\ntag_6:\n  pop\n    /* \"solidity-study-main/3.tutorial/ex15/contracts/Inherit_function.sol\":213:218  _door */\n  dup1\n    /* \"solidity-study-main/3.tutorial/ex15/contracts/Inherit_function.sol\":206:210  door */\n  0x01\n  0x00\n    /* \"solidity-study-main/3.tutorial/ex15/contracts/Inherit_function.sol\":206:218  door = _door */\n  0x0100\n  exp\n  dup2\n  sload\n  dup2\n  0xff\n  mul\n  not\n  and\n  swap1\n  dup4\n  0xff\n  and\n  mul\n  or\n  swap1\n  sstore\n  pop\n    /* \"solidity-study-main/3.tutorial/ex15/contracts/Inherit_function.sol\":127:225  constructor(string memory _type, uint8 _door) {... */\n  pop\n  pop\n    /* \"solidity-study-main/3.tutorial/ex15/contracts/Inherit_function.sol\":57:311  contract Car {... */\n  jump(tag_8)\n    /* \"#utility.yul\":7:82   */\ntag_9:\n    /* \"#utility.yul\":40:46   */\n  0x00\n    /* \"#utility.yul\":73:75   */\n  0x40\n    /* \"#utility.yul\":67:76   */\n  mload\n    /* \"#utility.yul\":57:76   */\n  swap1\n  pop\n    /* \"#utility.yul\":7:82   */\n  swap1\n  jump\t// out\n    /* \"#utility.yul\":88:205   */\ntag_10:\n    /* \"#utility.yul\":197:198   */\n  0x00\n    /* \"#utility.yul\":194:195   */\n  dup1\n    /* \"#utility.yul\":187:199   */\n  revert\n    /* \"#utility.yul\":211:328   */\ntag_11:\n    /* \"#utility.yul\":320:321   */\n  0x00\n    /* \"#utility.yul\":317:318   */\n  dup1\n    /* \"#utility.yul\":310:322   */\n  revert\n    /* \"#utility.yul\":334:451   */\ntag_12:\n    /* \"#utility.yul\":443:444   */\n  0x00\n    /* \"#utility.yul\":440:441   */\n  dup1\n    /* \"#utility.yul\":433:445   */\n  revert\n    /* \"#utility.yul\":457:574   */\ntag_13:\n    /* \"#utility.yul\":566:567   */\n  0x00\n    /* \"#utility.yul\":563:564   */\n  dup1\n    /* \"#utility.yul\":556:568   */\n  revert\n    /* \"#utility.yul\":580:682   */\ntag_14:\n    /* \"#utility.yul\":621:627   */\n  0x00\n    /* \"#utility.yul\":672:674   */\n  0x1f\n    /* \"#utility.yul\":668:675   */\n  not\n    /* \"#utility.yul\":663:665   */\n  0x1f\n    /* \"#utility.yul\":656:661   */\n  dup4\n    /* \"#utility.yul\":652:666   */\n  add\n    /* \"#utility.yul\":648:676   */\n  and\n    /* \"#utility.yul\":638:676   */\n  swap1\n  pop\n    /* \"#utility.yul\":580:682   */\n  swap2\n  swap1\n  pop\n  jump\t// out\n    /* \"#utility.yul\":688:868   */\ntag_15:\n    /* \"#utility.yul\":736:813   */\n  0x4e487b7100000000000000000000000000000000000000000000000000000000\n    /* \"#utility.yul\":733:734   */\n  0x00\n    /* \"#utility.yul\":726:814   */\n  mstore\n    /* \"#utility.yul\":833:837   */\n  0x41\n    /* \"#utility.yul\":830:831   */\n  0x04\n    /* \"#utility.yul\":823:838   */\n  mstore\n    /* \"#utility.yul\":857:861   */\n  0x24\n    /* \"#utility.yul\":854:855   */\n  0x00\n    /* \"#utility.yul\":847:862   */\n  revert\n    /* \"#utility.yul\":874:1155   */\ntag_16:\n    /* \"#utility.yul\":957:984   */\n  tag_53\n    /* \"#utility.yul\":979:983   */\n  dup3\n    /* \"#utility.yul\":957:984   */\n  tag_14\n  jump\t// in\ntag_53:\n    /* \"#utility.yul\":949:955   */\n  dup2\n    /* \"#utility.yul\":945:985   */\n  add\n    /* \"#utility.yul\":1087:1093   */\n  dup2\n    /* \"#utility.yul\":1075:1085   */\n  dup2\n    /* \"#utility.yul\":1072:1094   */\n  lt\n    /* \"#utility.yul\":1051:1069   */\n  0xffffffffffffffff\n    /* \"#utility.yul\":1039:1049   */\n  dup3\n    /* \"#utility.yul\":1036:1070   */\n  gt\n    /* \"#utility.yul\":1033:1095   */\n  or\n    /* \"#utility.yul\":1030:1118   */\n  iszero\n  tag_54\n  jumpi\n    /* \"#utility.yul\":1098:1116   */\n  tag_55\n  tag_15\n  jump\t// in\ntag_55:\n    /* \"#utility.yul\":1030:1118   */\ntag_54:\n    /* \"#utility.yul\":1138:1148   */\n  dup1\n    /* \"#utility.yul\":1134:1136   */\n  0x40\n    /* \"#utility.yul\":1127:1149   */\n  mstore\n    /* \"#utility.yul\":917:1155   */\n  pop\n    /* \"#utility.yul\":874:1155   */\n  pop\n  pop\n  jump\t// out\n    /* \"#utility.yul\":1161:1290   */\ntag_17:\n    /* \"#utility.yul\":1195:1201   */\n  0x00\n    /* \"#utility.yul\":1222:1242   */\n  tag_57\n  tag_9\n  jump\t// in\ntag_57:\n    /* \"#utility.yul\":1212:1242   */\n  swap1\n  pop\n    /* \"#utility.yul\":1251:1284   */\n  tag_58\n    /* \"#utility.yul\":1279:1283   */\n  dup3\n    /* \"#utility.yul\":1271:1277   */\n  dup3\n    /* \"#utility.yul\":1251:1284   */\n  tag_16\n  jump\t// in\ntag_58:\n    /* \"#utility.yul\":1161:1290   */\n  swap2\n  swap1\n  pop\n  jump\t// out\n    /* \"#utility.yul\":1296:1604   */\ntag_18:\n    /* \"#utility.yul\":1358:1362   */\n  0x00\n    /* \"#utility.yul\":1448:1466   */\n  0xffffffffffffffff\n    /* \"#utility.yul\":1440:1446   */\n  dup3\n    /* \"#utility.yul\":1437:1467   */\n  gt\n    /* \"#utility.yul\":1434:1490   */\n  iszero\n  tag_60\n  jumpi\n    /* \"#utility.yul\":1470:1488   */\n  tag_61\n  tag_15\n  jump\t// in\ntag_61:\n    /* \"#utility.yul\":1434:1490   */\ntag_60:\n    /* \"#utility.yul\":1508:1537   */\n  tag_62\n    /* \"#utility.yul\":1530:1536   */\n  dup3\n    /* \"#utility.yul\":1508:1537   */\n  tag_14\n  jump\t// in\ntag_62:\n    /* \"#utility.yul\":1500:1537   */\n  swap1\n  pop\n    /* \"#utility.yul\":1592:1596   */\n  0x20\n    /* \"#utility.yul\":1586:1590   */\n  dup2\n    /* \"#utility.yul\":1582:1597   */\n  add\n    /* \"#utility.yul\":1574:1597   */\n  swap1\n  pop\n    /* \"#utility.yul\":1296:1604   */\n  swap2\n  swap1\n  pop\n  jump\t// out\n    /* \"#utility.yul\":1610:1856   */\ntag_19:\n    /* \"#utility.yul\":1691:1692   */\n  0x00\n    /* \"#utility.yul\":1701:1814   */\ntag_64:\n    /* \"#utility.yul\":1715:1721   */\n  dup4\n    /* \"#utility.yul\":1712:1713   */\n  dup2\n    /* \"#utility.yul\":1709:1722   */\n  lt\n    /* \"#utility.yul\":1701:1814   */\n  iszero\n  tag_66\n  jumpi\n    /* \"#utility.yul\":1800:1801   */\n  dup1\n    /* \"#utility.yul\":1795:1798   */\n  dup3\n    /* \"#utility.yul\":1791:1802   */\n  add\n    /* \"#utility.yul\":1785:1803   */\n  mload\n    /* \"#utility.yul\":1781:1782   */\n  dup2\n    /* \"#utility.yul\":1776:1779   */\n  dup5\n    /* \"#utility.yul\":1772:1783   */\n  add\n    /* \"#utility.yul\":1765:1804   */\n  mstore\n    /* \"#utility.yul\":1737:1739   */\n  0x20\n    /* \"#utility.yul\":1734:1735   */\n  dup2\n    /* \"#utility.yul\":1730:1740   */\n  add\n    /* \"#utility.yul\":1725:1740   */\n  swap1\n  pop\n    /* \"#utility.yul\":1701:1814   */\n  jump(tag_64)\ntag_66:\n    /* \"#utility.yul\":1848:1849   */\n  0x00\n    /* \"#utility.yul\":1839:1845   */\n  dup5\n    /* \"#utility.yul\":1834:1837   */\n  dup5\n    /* \"#utility.yul\":1830:1846   */\n  add\n    /* \"#utility.yul\":1823:1850   */\n  mstore\n    /* \"#utility.yul\":1672:1856   */\n  pop\n    /* \"#utility.yul\":1610:1856   */\n  pop\n  pop\n  pop\n  jump\t// out\n    /* \"#utility.yul\":1862:2296   */\ntag_20:\n    /* \"#utility.yul\":1951:1956   */\n  0x00\n    /* \"#utility.yul\":1976:2042   */\n  tag_68\n    /* \"#utility.yul\":1992:2041   */\n  tag_69\n    /* \"#utility.yul\":2034:2040   */\n  dup5\n    /* \"#utility.yul\":1992:2041   */\n  tag_18\n  jump\t// in\ntag_69:\n    /* \"#utility.yul\":1976:2042   */\n  tag_17\n  jump\t// in\ntag_68:\n    /* \"#utility.yul\":1967:2042   */\n  swap1\n  pop\n    /* \"#utility.yul\":2065:2071   */\n  dup3\n    /* \"#utility.yul\":2058:2063   */\n  dup2\n    /* \"#utility.yul\":2051:2072   */\n  mstore\n    /* \"#utility.yul\":2103:2107   */\n  0x20\n    /* \"#utility.yul\":2096:2101   */\n  dup2\n    /* \"#utility.yul\":2092:2108   */\n  add\n    /* \"#utility.yul\":2141:2144   */\n  dup5\n    /* \"#utility.yul\":2132:2138   */\n  dup5\n    /* \"#utility.yul\":2127:2130   */\n  dup5\n    /* \"#utility.yul\":2123:2139   */\n  add\n    /* \"#utility.yul\":2120:2145   */\n  gt\n    /* \"#utility.yul\":2117:2229   */\n  iszero\n  tag_70\n  jumpi\n    /* \"#utility.yul\":2148:2227   */\n  tag_71\n  tag_13\n  jump\t// in\ntag_71:\n    /* \"#utility.yul\":2117:2229   */\ntag_70:\n    /* \"#utility.yul\":2238:2290   */\n  tag_72\n    /* \"#utility.yul\":2283:2289   */\n  dup5\n    /* \"#utility.yul\":2278:2281   */\n  dup3\n    /* \"#utility.yul\":2273:2276   */\n  dup6\n    /* \"#utility.yul\":2238:2290   */\n  tag_19\n  jump\t// in\ntag_72:\n    /* \"#utility.yul\":1957:2296   */\n  pop\n    /* \"#utility.yul\":1862:2296   */\n  swap4\n  swap3\n  pop\n  pop\n  pop\n  jump\t// out\n    /* \"#utility.yul\":2316:2671   */\ntag_21:\n    /* \"#utility.yul\":2383:2388   */\n  0x00\n    /* \"#utility.yul\":2432:2435   */\n  dup3\n    /* \"#utility.yul\":2425:2429   */\n  0x1f\n    /* \"#utility.yul\":2417:2423   */\n  dup4\n    /* \"#utility.yul\":2413:2430   */\n  add\n    /* \"#utility.yul\":2409:2436   */\n  slt\n    /* \"#utility.yul\":2399:2521   */\n  tag_74\n  jumpi\n    /* \"#utility.yul\":2440:2519   */\n  tag_75\n  tag_12\n  jump\t// in\ntag_75:\n    /* \"#utility.yul\":2399:2521   */\ntag_74:\n    /* \"#utility.yul\":2550:2556   */\n  dup2\n    /* \"#utility.yul\":2544:2557   */\n  mload\n    /* \"#utility.yul\":2575:2665   */\n  tag_76\n    /* \"#utility.yul\":2661:2664   */\n  dup5\n    /* \"#utility.yul\":2653:2659   */\n  dup3\n    /* \"#utility.yul\":2646:2650   */\n  0x20\n    /* \"#utility.yul\":2638:2644   */\n  dup7\n    /* \"#utility.yul\":2634:2651   */\n  add\n    /* \"#utility.yul\":2575:2665   */\n  tag_20\n  jump\t// in\ntag_76:\n    /* \"#utility.yul\":2566:2665   */\n  swap2\n  pop\n    /* \"#utility.yul\":2389:2671   */\n  pop\n    /* \"#utility.yul\":2316:2671   */\n  swap3\n  swap2\n  pop\n  pop\n  jump\t// out\n    /* \"#utility.yul\":2677:2763   */\ntag_22:\n    /* \"#utility.yul\":2712:2719   */\n  0x00\n    /* \"#utility.yul\":2752:2756   */\n  0xff\n    /* \"#utility.yul\":2745:2750   */\n  dup3\n    /* \"#utility.yul\":2741:2757   */\n  and\n    /* \"#utility.yul\":2730:2757   */\n  swap1\n  pop\n    /* \"#utility.yul\":2677:2763   */\n  swap2\n  swap1\n  pop\n  jump\t// out\n    /* \"#utility.yul\":2769:2887   */\ntag_23:\n    /* \"#utility.yul\":2840:2862   */\n  tag_79\n    /* \"#utility.yul\":2856:2861   */\n  dup2\n    /* \"#utility.yul\":2840:2862   */\n  tag_22\n  jump\t// in\ntag_79:\n    /* \"#utility.yul\":2833:2838   */\n  dup2\n    /* \"#utility.yul\":2830:2863   */\n  eq\n    /* \"#utility.yul\":2820:2881   */\n  tag_80\n  jumpi\n    /* \"#utility.yul\":2877:2878   */\n  0x00\n    /* \"#utility.yul\":2874:2875   */\n  dup1\n    /* \"#utility.yul\":2867:2879   */\n  revert\n    /* \"#utility.yul\":2820:2881   */\ntag_80:\n    /* \"#utility.yul\":2769:2887   */\n  pop\n  jump\t// out\n    /* \"#utility.yul\":2893:3032   */\ntag_24:\n    /* \"#utility.yul\":2948:2953   */\n  0x00\n    /* \"#utility.yul\":2979:2985   */\n  dup2\n    /* \"#utility.yul\":2973:2986   */\n  mload\n    /* \"#utility.yul\":2964:2986   */\n  swap1\n  pop\n    /* \"#utility.yul\":2995:3026   */\n  tag_82\n    /* \"#utility.yul\":3020:3025   */\n  dup2\n    /* \"#utility.yul\":2995:3026   */\n  tag_23\n  jump\t// in\ntag_82:\n    /* \"#utility.yul\":2893:3032   */\n  swap3\n  swap2\n  pop\n  pop\n  jump\t// out\n    /* \"#utility.yul\":3038:3714   */\ntag_3:\n    /* \"#utility.yul\":3125:3131   */\n  0x00\n    /* \"#utility.yul\":3133:3139   */\n  dup1\n    /* \"#utility.yul\":3182:3184   */\n  0x40\n    /* \"#utility.yul\":3170:3179   */\n  dup4\n    /* \"#utility.yul\":3161:3168   */\n  dup6\n    /* \"#utility.yul\":3157:3180   */\n  sub\n    /* \"#utility.yul\":3153:3185   */\n  slt\n    /* \"#utility.yul\":3150:3269   */\n  iszero\n  tag_84\n  jumpi\n    /* \"#utility.yul\":3188:3267   */\n  tag_85\n  tag_10\n  jump\t// in\ntag_85:\n    /* \"#utility.yul\":3150:3269   */\ntag_84:\n    /* \"#utility.yul\":3329:3330   */\n  0x00\n    /* \"#utility.yul\":3318:3327   */\n  dup4\n    /* \"#utility.yul\":3314:3331   */\n  add\n    /* \"#utility.yul\":3308:3332   */\n  mload\n    /* \"#utility.yul\":3359:3377   */\n  0xffffffffffffffff\n    /* \"#utility.yul\":3351:3357   */\n  dup2\n    /* \"#utility.yul\":3348:3378   */\n  gt\n    /* \"#utility.yul\":3345:3462   */\n  iszero\n  tag_86\n  jumpi\n    /* \"#utility.yul\":3381:3460   */\n  tag_87\n  tag_11\n  jump\t// in\ntag_87:\n    /* \"#utility.yul\":3345:3462   */\ntag_86:\n    /* \"#utility.yul\":3486:3560   */\n  tag_88\n    /* \"#utility.yul\":3552:3559   */\n  dup6\n    /* \"#utility.yul\":3543:3549   */\n  dup3\n    /* \"#utility.yul\":3532:3541   */\n  dup7\n    /* \"#utility.yul\":3528:3550   */\n  add\n    /* \"#utility.yul\":3486:3560   */\n  tag_21\n  jump\t// in\ntag_88:\n    /* \"#utility.yul\":3476:3560   */\n  swap3\n  pop\n    /* \"#utility.yul\":3279:3570   */\n  pop\n    /* \"#utility.yul\":3609:3611   */\n  0x20\n    /* \"#utility.yul\":3635:3697   */\n  tag_89\n    /* \"#utility.yul\":3689:3696   */\n  dup6\n    /* \"#utility.yul\":3680:3686   */\n  dup3\n    /* \"#utility.yul\":3669:3678   */\n  dup7\n    /* \"#utility.yul\":3665:3687   */\n  add\n    /* \"#utility.yul\":3635:3697   */\n  tag_24\n  jump\t// in\ntag_89:\n    /* \"#utility.yul\":3625:3697   */\n  swap2\n  pop\n    /* \"#utility.yul\":3580:3707   */\n  pop\n    /* \"#utility.yul\":3038:3714   */\n  swap3\n  pop\n  swap3\n  swap1\n  pop\n  jump\t// out\n    /* \"#utility.yul\":3720:3819   */\ntag_25:\n    /* \"#utility.yul\":3772:3778   */\n  0x00\n    /* \"#utility.yul\":3806:3811   */\n  dup2\n    /* \"#utility.yul\":3800:3812   */\n  mload\n    /* \"#utility.yul\":3790:3812   */\n  swap1\n  pop\n    /* \"#utility.yul\":3720:3819   */\n  swap2\n  swap1\n  pop\n  jump\t// out\n    /* \"#utility.yul\":3825:4005   */\ntag_26:\n    /* \"#utility.yul\":3873:3950   */\n  0x4e487b7100000000000000000000000000000000000000000000000000000000\n    /* \"#utility.yul\":3870:3871   */\n  0x00\n    /* \"#utility.yul\":3863:3951   */\n  mstore\n    /* \"#utility.yul\":3970:3974   */\n  0x22\n    /* \"#utility.yul\":3967:3968   */\n  0x04\n    /* \"#utility.yul\":3960:3975   */\n  mstore\n    /* \"#utility.yul\":3994:3998   */\n  0x24\n    /* \"#utility.yul\":3991:3992   */\n  0x00\n    /* \"#utility.yul\":3984:3999   */\n  revert\n    /* \"#utility.yul\":4011:4331   */\ntag_27:\n    /* \"#utility.yul\":4055:4061   */\n  0x00\n    /* \"#utility.yul\":4092:4093   */\n  0x02\n    /* \"#utility.yul\":4086:4090   */\n  dup3\n    /* \"#utility.yul\":4082:4094   */\n  div\n    /* \"#utility.yul\":4072:4094   */\n  swap1\n  pop\n    /* \"#utility.yul\":4139:4140   */\n  0x01\n    /* \"#utility.yul\":4133:4137   */\n  dup3\n    /* \"#utility.yul\":4129:4141   */\n  and\n    /* \"#utility.yul\":4160:4178   */\n  dup1\n    /* \"#utility.yul\":4150:4231   */\n  tag_93\n  jumpi\n    /* \"#utility.yul\":4216:4220   */\n  0x7f\n    /* \"#utility.yul\":4208:4214   */\n  dup3\n    /* \"#utility.yul\":4204:4221   */\n  and\n    /* \"#utility.yul\":4194:4221   */\n  swap2\n  pop\n    /* \"#utility.yul\":4150:4231   */\ntag_93:\n    /* \"#utility.yul\":4278:4280   */\n  0x20\n    /* \"#utility.yul\":4270:4276   */\n  dup3\n    /* \"#utility.yul\":4267:4281   */\n  lt\n    /* \"#utility.yul\":4247:4265   */\n  dup2\n    /* \"#utility.yul\":4244:4282   */\n  sub\n    /* \"#utility.yul\":4241:4325   */\n  tag_94\n  jumpi\n    /* \"#utility.yul\":4297:4315   */\n  tag_95\n  tag_26\n  jump\t// in\ntag_95:\n    /* \"#utility.yul\":4241:4325   */\ntag_94:\n    /* \"#utility.yul\":4062:4331   */\n  pop\n    /* \"#utility.yul\":4011:4331   */\n  swap2\n  swap1\n  pop\n  jump\t// out\n    /* \"#utility.yul\":4337:4478   */\ntag_28:\n    /* \"#utility.yul\":4386:4390   */\n  0x00\n    /* \"#utility.yul\":4409:4412   */\n  dup2\n    /* \"#utility.yul\":4401:4412   */\n  swap1\n  pop\n    /* \"#utility.yul\":4432:4435   */\n  dup2\n    /* \"#utility.yul\":4429:4430   */\n  0x00\n    /* \"#utility.yul\":4422:4436   */\n  mstore\n    /* \"#utility.yul\":4466:4470   */\n  0x20\n    /* \"#utility.yul\":4463:4464   */\n  0x00\n    /* \"#utility.yul\":4453:4471   */\n  keccak256\n    /* \"#utility.yul\":4445:4471   */\n  swap1\n  pop\n    /* \"#utility.yul\":4337:4478   */\n  swap2\n  swap1\n  pop\n  jump\t// out\n    /* \"#utility.yul\":4484:4577   */\ntag_29:\n    /* \"#utility.yul\":4521:4527   */\n  0x00\n    /* \"#utility.yul\":4568:4570   */\n  0x20\n    /* \"#utility.yul\":4563:4565   */\n  0x1f\n    /* \"#utility.yul\":4556:4561   */\n  dup4\n    /* \"#utility.yul\":4552:4566   */\n  add\n    /* \"#utility.yul\":4548:4571   */\n  div\n    /* \"#utility.yul\":4538:4571   */\n  swap1\n  pop\n    /* \"#utility.yul\":4484:4577   */\n  swap2\n  swap1\n  pop\n  jump\t// out\n    /* \"#utility.yul\":4583:4690   */\ntag_30:\n    /* \"#utility.yul\":4627:4635   */\n  0x00\n    /* \"#utility.yul\":4677:4682   */\n  dup3\n    /* \"#utility.yul\":4671:4675   */\n  dup3\n    /* \"#utility.yul\":4667:4683   */\n  shl\n    /* \"#utility.yul\":4646:4683   */\n  swap1\n  pop\n    /* \"#utility.yul\":4583:4690   */\n  swap3\n  swap2\n  pop\n  pop\n  jump\t// out\n    /* \"#utility.yul\":4696:5089   */\ntag_31:\n    /* \"#utility.yul\":4765:4771   */\n  0x00\n    /* \"#utility.yul\":4815:4816   */\n  0x08\n    /* \"#utility.yul\":4803:4813   */\n  dup4\n    /* \"#utility.yul\":4799:4817   */\n  mul\n    /* \"#utility.yul\":4838:4935   */\n  tag_100\n    /* \"#utility.yul\":4868:4934   */\n  0xffffffffffffffffffffffffffffffffffffffffffffffffffffffffffffffff\n    /* \"#utility.yul\":4857:4866   */\n  dup3\n    /* \"#utility.yul\":4838:4935   */\n  tag_30\n  jump\t// in\ntag_100:\n    /* \"#utility.yul\":4956:4995   */\n  tag_101\n    /* \"#utility.yul\":4986:4994   */\n  dup7\n    /* \"#utility.yul\":4975:4984   */\n  dup4\n    /* \"#utility.yul\":4956:4995   */\n  tag_30\n  jump\t// in\ntag_101:\n    /* \"#utility.yul\":4944:4995   */\n  swap6\n  pop\n    /* \"#utility.yul\":5028:5032   */\n  dup1\n    /* \"#utility.yul\":5024:5033   */\n  not\n    /* \"#utility.yul\":5017:5022   */\n  dup5\n    /* \"#utility.yul\":5013:5034   */\n  and\n    /* \"#utility.yul\":5004:5034   */\n  swap4\n  pop\n    /* \"#utility.yul\":5077:5081   */\n  dup1\n    /* \"#utility.yul\":5067:5075   */\n  dup7\n    /* \"#utility.yul\":5063:5082   */\n  and\n    /* \"#utility.yul\":5056:5061   */\n  dup5\n    /* \"#utility.yul\":5053:5083   */\n  or\n    /* \"#utility.yul\":5043:5083   */\n  swap3\n  pop\n    /* \"#utility.yul\":4772:5089   */\n  pop\n  pop\n    /* \"#utility.yul\":4696:5089   */\n  swap4\n  swap3\n  pop\n  pop\n  pop\n  jump\t// out\n    /* \"#utility.yul\":5095:5172   */\ntag_32:\n    /* \"#utility.yul\":5132:5139   */\n  0x00\n    /* \"#utility.yul\":5161:5166   */\n  dup2\n    /* \"#utility.yul\":5150:5166   */\n  swap1\n  pop\n    /* \"#utility.yul\":5095:5172   */\n  swap2\n  swap1\n  pop\n  jump\t// out\n    /* \"#utility.yul\":5178:5238   */\ntag_33:\n    /* \"#utility.yul\":5206:5209   */\n  0x00\n    /* \"#utility.yul\":5227:5232   */\n  dup2\n    /* \"#utility.yul\":5220:5232   */\n  swap1\n  pop\n    /* \"#utility.yul\":5178:5238   */\n  swap2\n  swap1\n  pop\n  jump\t// out\n    /* \"#utility.yul\":5244:5386   */\ntag_34:\n    /* \"#utility.yul\":5294:5303   */\n  0x00\n    /* \"#utility.yul\":5327:5380   */\n  tag_105\n    /* \"#utility.yul\":5345:5379   */\n  tag_106\n    /* \"#utility.yul\":5354:5378   */\n  tag_107\n    /* \"#utility.yul\":5372:5377   */\n  dup5\n    /* \"#utility.yul\":5354:5378   */\n  tag_32\n  jump\t// in\ntag_107:\n    /* \"#utility.yul\":5345:5379   */\n  tag_33\n  jump\t// in\ntag_106:\n    /* \"#utility.yul\":5327:5380   */\n  tag_32\n  jump\t// in\ntag_105:\n    /* \"#utility.yul\":5314:5380   */\n  swap1\n  pop\n    /* \"#utility.yul\":5244:5386   */\n  swap2\n  swap1\n  pop\n  jump\t// out\n    /* \"#utility.yul\":5392:5467   */\ntag_35:\n    /* \"#utility.yul\":5435:5438   */\n  0x00\n    /* \"#utility.yul\":5456:5461   */\n  dup2\n    /* \"#utility.yul\":5449:5461   */\n  swap1\n  pop\n    /* \"#utility.yul\":5392:5467   */\n  swap2\n  swap1\n  pop\n  jump\t// out\n    /* \"#utility.yul\":5473:5742   */\ntag_36:\n    /* \"#utility.yul\":5583:5622   */\n  tag_110\n    /* \"#utility.yul\":5614:5621   */\n  dup4\n    /* \"#utility.yul\":5583:5622   */\n  tag_34\n  jump\t// in\ntag_110:\n    /* \"#utility.yul\":5644:5735   */\n  tag_111\n    /* \"#utility.yul\":5693:5734   */\n  tag_112\n    /* \"#utility.yul\":5717:5733   */\n  dup3\n    /* \"#utility.yul\":5693:5734   */\n  tag_35\n  jump\t// in\ntag_112:\n    /* \"#utility.yul\":5685:5691   */\n  dup5\n    /* \"#utility.yul\":5678:5682   */\n  dup5\n    /* \"#utility.yul\":5672:5683   */\n  sload\n    /* \"#utility.yul\":5644:5735   */\n  tag_31\n  jump\t// in\ntag_111:\n    /* \"#utility.yul\":5638:5642   */\n  dup3\n    /* \"#utility.yul\":5631:5736   */\n  sstore\n    /* \"#utility.yul\":5549:5742   */\n  pop\n    /* \"#utility.yul\":5473:5742   */\n  pop\n  pop\n  pop\n  jump\t// out\n    /* \"#utility.yul\":5748:5821   */\ntag_37:\n    /* \"#utility.yul\":5793:5796   */\n  0x00\n    /* \"#utility.yul\":5748:5821   */\n  swap1\n  jump\t// out\n    /* \"#utility.yul\":5827:6016   */\ntag_38:\n    /* \"#utility.yul\":5904:5936   */\n  tag_115\n  tag_37\n  jump\t// in\ntag_115:\n    /* \"#utility.yul\":5945:6010   */\n  tag_116\n    /* \"#utility.yul\":6003:6009   */\n  dup2\n    /* \"#utility.yul\":5995:6001   */\n  dup5\n    /* \"#utility.yul\":5989:5993   */\n  dup5\n    /* \"#utility.yul\":5945:6010   */\n  tag_36\n  jump\t// in\ntag_116:\n    /* \"#utility.yul\":5880:6016   */\n  pop\n    /* \"#utility.yul\":5827:6016   */\n  pop\n  pop\n  jump\t// out\n    /* \"#utility.yul\":6022:6208   */\ntag_39:\n    /* \"#utility.yul\":6082:6202   */\ntag_118:\n    /* \"#utility.yul\":6099:6102   */\n  dup2\n    /* \"#utility.yul\":6092:6097   */\n  dup2\n    /* \"#utility.yul\":6089:6103   */\n  lt\n    /* \"#utility.yul\":6082:6202   */\n  iszero\n  tag_120\n  jumpi\n    /* \"#utility.yul\":6153:6192   */\n  tag_121\n    /* \"#utility.yul\":6190:6191   */\n  0x00\n    /* \"#utility.yul\":6183:6188   */\n  dup3\n    /* \"#utility.yul\":6153:6192   */\n  tag_38\n  jump\t// in\ntag_121:\n    /* \"#utility.yul\":6126:6127   */\n  0x01\n    /* \"#utility.yul\":6119:6124   */\n  dup2\n    /* \"#utility.yul\":6115:6128   */\n  add\n    /* \"#utility.yul\":6106:6128   */\n  swap1\n  pop\n    /* \"#utility.yul\":6082:6202   */\n  jump(tag_118)\ntag_120:\n    /* \"#utility.yul\":6022:6208   */\n  pop\n  pop\n  jump\t// out\n    /* \"#utility.yul\":6214:6757   */\ntag_40:\n    /* \"#utility.yul\":6315:6317   */\n  0x1f\n    /* \"#utility.yul\":6310:6313   */\n  dup3\n    /* \"#utility.yul\":6307:6318   */\n  gt\n    /* \"#utility.yul\":6304:6750   */\n  iszero\n  tag_123\n  jumpi\n    /* \"#utility.yul\":6349:6387   */\n  tag_124\n    /* \"#utility.yul\":6381:6386   */\n  dup2\n    /* \"#utility.yul\":6349:6387   */\n  tag_28\n  jump\t// in\ntag_124:\n    /* \"#utility.yul\":6433:6462   */\n  tag_125\n    /* \"#utility.yul\":6451:6461   */\n  dup5\n    /* \"#utility.yul\":6433:6462   */\n  tag_29\n  jump\t// in\ntag_125:\n    /* \"#utility.yul\":6423:6431   */\n  dup2\n    /* \"#utility.yul\":6419:6463   */\n  add\n    /* \"#utility.yul\":6616:6618   */\n  0x20\n    /* \"#utility.yul\":6604:6614   */\n  dup6\n    /* \"#utility.yul\":6601:6619   */\n  lt\n    /* \"#utility.yul\":6598:6647   */\n  iszero\n  tag_126\n  jumpi\n    /* \"#utility.yul\":6637:6645   */\n  dup2\n    /* \"#utility.yul\":6622:6645   */\n  swap1\n  pop\n    /* \"#utility.yul\":6598:6647   */\ntag_126:\n    /* \"#utility.yul\":6660:6740   */\n  tag_127\n    /* \"#utility.yul\":6716:6738   */\n  tag_128\n    /* \"#utility.yul\":6734:6737   */\n  dup6\n    /* \"#utility.yul\":6716:6738   */\n  tag_29\n  jump\t// in\ntag_128:\n    /* \"#utility.yul\":6706:6714   */\n  dup4\n    /* \"#utility.yul\":6702:6739   */\n  add\n    /* \"#utility.yul\":6689:6700   */\n  dup3\n    /* \"#utility.yul\":6660:6740   */\n  tag_39\n  jump\t// in\ntag_127:\n    /* \"#utility.yul\":6319:6750   */\n  pop\n  pop\n    /* \"#utility.yul\":6304:6750   */\ntag_123:\n    /* \"#utility.yul\":6214:6757   */\n  pop\n  pop\n  pop\n  jump\t// out\n    /* \"#utility.yul\":6763:6880   */\ntag_41:\n    /* \"#utility.yul\":6817:6825   */\n  0x00\n    /* \"#utility.yul\":6867:6872   */\n  dup3\n    /* \"#utility.yul\":6861:6865   */\n  dup3\n    /* \"#utility.yul\":6857:6873   */\n  shr\n    /* \"#utility.yul\":6836:6873   */\n  swap1\n  pop\n    /* \"#utility.yul\":6763:6880   */\n  swap3\n  swap2\n  pop\n  pop\n  jump\t// out\n    /* \"#utility.yul\":6886:7055   */\ntag_42:\n    /* \"#utility.yul\":6930:6936   */\n  0x00\n    /* \"#utility.yul\":6963:7014   */\n  tag_131\n    /* \"#utility.yul\":7011:7012   */\n  0x00\n    /* \"#utility.yul\":7007:7013   */\n  not\n    /* \"#utility.yul\":6999:7004   */\n  dup5\n    /* \"#utility.yul\":6996:6997   */\n  0x08\n    /* \"#utility.yul\":6992:7005   */\n  mul\n    /* \"#utility.yul\":6963:7014   */\n  tag_41\n  jump\t// in\ntag_131:\n    /* \"#utility.yul\":6959:7015   */\n  not\n    /* \"#utility.yul\":7044:7048   */\n  dup1\n    /* \"#utility.yul\":7038:7042   */\n  dup4\n    /* \"#utility.yul\":7034:7049   */\n  and\n    /* \"#utility.yul\":7024:7049   */\n  swap2\n  pop\n    /* \"#utility.yul\":6937:7055   */\n  pop\n    /* \"#utility.yul\":6886:7055   */\n  swap3\n  swap2\n  pop\n  pop\n  jump\t// out\n    /* \"#utility.yul\":7060:7355   */\ntag_43:\n    /* \"#utility.yul\":7136:7140   */\n  0x00\n    /* \"#utility.yul\":7282:7311   */\n  tag_133\n    /* \"#utility.yul\":7307:7310   */\n  dup4\n    /* \"#utility.yul\":7301:7305   */\n  dup4\n    /* \"#utility.yul\":7282:7311   */\n  tag_42\n  jump\t// in\ntag_133:\n    /* \"#utility.yul\":7274:7311   */\n  swap2\n  pop\n    /* \"#utility.yul\":7344:7347   */\n  dup3\n    /* \"#utility.yul\":7341:7342   */\n  0x02\n    /* \"#utility.yul\":7337:7348   */\n  mul\n    /* \"#utility.yul\":7331:7335   */\n  dup3\n    /* \"#utility.yul\":7328:7349   */\n  or\n    /* \"#utility.yul\":7320:7349   */\n  swap1\n  pop\n    /* \"#utility.yul\":7060:7355   */\n  swap3\n  swap2\n  pop\n  pop\n  jump\t// out\n    /* \"#utility.yul\":7360:8755   */\ntag_7:\n    /* \"#utility.yul\":7477:7514   */\n  tag_135\n    /* \"#utility.yul\":7510:7513   */\n  dup3\n    /* \"#utility.yul\":7477:7514   */\n  tag_25\n  jump\t// in\ntag_135:\n    /* \"#utility.yul\":7579:7597   */\n  0xffffffffffffffff\n    /* \"#utility.yul\":7571:7577   */\n  dup2\n    /* \"#utility.yul\":7568:7598   */\n  gt\n    /* \"#utility.yul\":7565:7621   */\n  iszero\n  tag_136\n  jumpi\n    /* \"#utility.yul\":7601:7619   */\n  tag_137\n  tag_15\n  jump\t// in\ntag_137:\n    /* \"#utility.yul\":7565:7621   */\ntag_136:\n    /* \"#utility.yul\":7645:7683   */\n  tag_138\n    /* \"#utility.yul\":7677:7681   */\n  dup3\n    /* \"#utility.yul\":7671:7682   */\n  sload\n    /* \"#utility.yul\":7645:7683   */\n  tag_27\n  jump\t// in\ntag_138:\n    /* \"#utility.yul\":7730:7797   */\n  tag_139\n    /* \"#utility.yul\":7790:7796   */\n  dup3\n    /* \"#utility.yul\":7782:7788   */\n  dup3\n    /* \"#utility.yul\":7776:7780   */\n  dup6\n    /* \"#utility.yul\":7730:7797   */\n  tag_40\n  jump\t// in\ntag_139:\n    /* \"#utility.yul\":7824:7825   */\n  0x00\n    /* \"#utility.yul\":7848:7852   */\n  0x20\n    /* \"#utility.yul\":7835:7852   */\n  swap1\n  pop\n    /* \"#utility.yul\":7880:7882   */\n  0x1f\n    /* \"#utility.yul\":7872:7878   */\n  dup4\n    /* \"#utility.yul\":7869:7883   */\n  gt\n    /* \"#utility.yul\":7897:7898   */\n  0x01\n    /* \"#utility.yul\":7892:8510   */\n  dup2\n  eq\n  tag_141\n  jumpi\n    /* \"#utility.yul\":8554:8555   */\n  0x00\n    /* \"#utility.yul\":8571:8577   */\n  dup5\n    /* \"#utility.yul\":8568:8645   */\n  iszero\n  tag_142\n  jumpi\n    /* \"#utility.yul\":8620:8629   */\n  dup3\n    /* \"#utility.yul\":8615:8618   */\n  dup8\n    /* \"#utility.yul\":8611:8630   */\n  add\n    /* \"#utility.yul\":8605:8631   */\n  mload\n    /* \"#utility.yul\":8596:8631   */\n  swap1\n  pop\n    /* \"#utility.yul\":8568:8645   */\ntag_142:\n    /* \"#utility.yul\":8671:8738   */\n  tag_143\n    /* \"#utility.yul\":8731:8737   */\n  dup6\n    /* \"#utility.yul\":8724:8729   */\n  dup3\n    /* \"#utility.yul\":8671:8738   */\n  tag_43\n  jump\t// in\ntag_143:\n    /* \"#utility.yul\":8665:8669   */\n  dup7\n    /* \"#utility.yul\":8658:8739   */\n  sstore\n    /* \"#utility.yul\":8527:8749   */\n  pop\n    /* \"#utility.yul\":7862:8749   */\n  jump(tag_140)\n    /* \"#utility.yul\":7892:8510   */\ntag_141:\n    /* \"#utility.yul\":7944:7948   */\n  0x1f\n    /* \"#utility.yul\":7940:7949   */\n  not\n    /* \"#utility.yul\":7932:7938   */\n  dup5\n    /* \"#utility.yul\":7928:7950   */\n  and\n    /* \"#utility.yul\":7978:8015   */\n  tag_144\n    /* \"#utility.yul\":8010:8014   */\n  dup7\n    /* \"#utility.yul\":7978:8015   */\n  tag_28\n  jump\t// in\ntag_144:\n    /* \"#utility.yul\":8037:8038   */\n  0x00\n    /* \"#utility.yul\":8051:8259   */\ntag_145:\n    /* \"#utility.yul\":8065:8072   */\n  dup3\n    /* \"#utility.yul\":8062:8063   */\n  dup2\n    /* \"#utility.yul\":8059:8073   */\n  lt\n    /* \"#utility.yul\":8051:8259   */\n  iszero\n  tag_147\n  jumpi\n    /* \"#utility.yul\":8144:8153   */\n  dup5\n    /* \"#utility.yul\":8139:8142   */\n  dup10\n    /* \"#utility.yul\":8135:8154   */\n  add\n    /* \"#utility.yul\":8129:8155   */\n  mload\n    /* \"#utility.yul\":8121:8127   */\n  dup3\n    /* \"#utility.yul\":8114:8156   */\n  sstore\n    /* \"#utility.yul\":8195:8196   */\n  0x01\n    /* \"#utility.yul\":8187:8193   */\n  dup3\n    /* \"#utility.yul\":8183:8197   */\n  add\n    /* \"#utility.yul\":8173:8197   */\n  swap2\n  pop\n    /* \"#utility.yul\":8242:8244   */\n  0x20\n    /* \"#utility.yul\":8231:8240   */\n  dup6\n    /* \"#utility.yul\":8227:8245   */\n  add\n    /* \"#utility.yul\":8214:8245   */\n  swap5\n  pop\n    /* \"#utility.yul\":8088:8092   */\n  0x20\n    /* \"#utility.yul\":8085:8086   */\n  dup2\n    /* \"#utility.yul\":8081:8093   */\n  add\n    /* \"#utility.yul\":8076:8093   */\n  swap1\n  pop\n    /* \"#utility.yul\":8051:8259   */\n  jump(tag_145)\ntag_147:\n    /* \"#utility.yul\":8287:8293   */\n  dup7\n    /* \"#utility.yul\":8278:8285   */\n  dup4\n    /* \"#utility.yul\":8275:8294   */\n  lt\n    /* \"#utility.yul\":8272:8451   */\n  iszero\n  tag_148\n  jumpi\n    /* \"#utility.yul\":8345:8354   */\n  dup5\n    /* \"#utility.yul\":8340:8343   */\n  dup10\n    /* \"#utility.yul\":8336:8355   */\n  add\n    /* \"#utility.yul\":8330:8356   */\n  mload\n    /* \"#utility.yul\":8388:8436   */\n  tag_149\n    /* \"#utility.yul\":8430:8434   */\n  0x1f\n    /* \"#utility.yul\":8422:8428   */\n  dup10\n    /* \"#utility.yul\":8418:8435   */\n  and\n    /* \"#utility.yul\":8407:8416   */\n  dup3\n    /* \"#utility.yul\":8388:8436   */\n  tag_42\n  jump\t// in\ntag_149:\n    /* \"#utility.yul\":8380:8386   */\n  dup4\n    /* \"#utility.yul\":8373:8437   */\n  sstore\n    /* \"#utility.yul\":8295:8451   */\n  pop\n    /* \"#utility.yul\":8272:8451   */\ntag_148:\n    /* \"#utility.yul\":8497:8498   */\n  0x01\n    /* \"#utility.yul\":8493:8494   */\n  0x02\n    /* \"#utility.yul\":8485:8491   */\n  dup9\n    /* \"#utility.yul\":8481:8495   */\n  mul\n    /* \"#utility.yul\":8477:8499   */\n  add\n    /* \"#utility.yul\":8471:8475   */\n  dup9\n    /* \"#utility.yul\":8464:8500   */\n  sstore\n    /* \"#utility.yul\":7899:8510   */\n  pop\n  pop\n  pop\n    /* \"#utility.yul\":7862:8749   */\ntag_140:\n  pop\n    /* \"#utility.yul\":7452:8755   */\n  pop\n  pop\n  pop\n    /* \"#utility.yul\":7360:8755   */\n  pop\n  pop\n  jump\t// out\n    /* \"solidity-study-main/3.tutorial/ex15/contracts/Inherit_function.sol\":57:311  contract Car {... */\ntag_8:\n  dataSize(sub_0)\n  dup1\n  dataOffset(sub_0)\n  0x00\n  codecopy\n  0x00\n  return\nstop\n\nsub_0: assembly {\n        /* \"solidity-study-main/3.tutorial/ex15/contracts/Inherit_function.sol\":57:311  contract Car {... */\n      mstore(0x40, 0x80)\n      callvalue\n      dup1\n      iszero\n      tag_1\n      jumpi\n      0x00\n      dup1\n      revert\n    tag_1:\n      pop\n      jumpi(tag_2, lt(calldatasize, 0x04))\n      shr(0xe0, calldataload(0x00))\n      dup1\n      0x19e6f3a5\n      eq\n      tag_3\n      jumpi\n    tag_2:\n      0x00\n      dup1\n      revert\n        /* \"solidity-study-main/3.tutorial/ex15/contracts/Inherit_function.sol\":235:309  function getDoor() public view returns(uint8) {... */\n    tag_3:\n      tag_4\n      tag_5\n      jump\t// in\n    tag_4:\n      mload(0x40)\n      tag_6\n      swap2\n      swap1\n      tag_7\n      jump\t// in\n    tag_6:\n      mload(0x40)\n      dup1\n      swap2\n      sub\n      swap1\n      return\n    tag_5:\n        /* \"solidity-study-main/3.tutorial/ex15/contracts/Inherit_function.sol\":274:279  uint8 */\n      0x00\n        /* \"solidity-study-main/3.tutorial/ex15/contracts/Inherit_function.sol\":298:302  door */\n      0x01\n      0x00\n      swap1\n      sload\n      swap1\n      0x0100\n      exp\n      swap1\n      div\n      0xff\n      and\n        /* \"solidity-study-main/3.tutorial/ex15/contracts/Inherit_function.sol\":291:302  return door */\n      swap1\n      pop\n        /* \"solidity-study-main/3.tutorial/ex15/contracts/Inherit_function.sol\":235:309  function getDoor() public view returns(uint8) {... */\n      swap1\n      jump\t// out\n        /* \"#utility.yul\":7:93   */\n    tag_9:\n        /* \"#utility.yul\":42:49   */\n      0x00\n        /* \"#utility.yul\":82:86   */\n      0xff\n        /* \"#utility.yul\":75:80   */\n      dup3\n        /* \"#utility.yul\":71:87   */\n      and\n        /* \"#utility.yul\":60:87   */\n      swap1\n      pop\n        /* \"#utility.yul\":7:93   */\n      swap2\n      swap1\n      pop\n      jump\t// out\n        /* \"#utility.yul\":99:211   */\n    tag_10:\n        /* \"#utility.yul\":182:204   */\n      tag_14\n        /* \"#utility.yul\":198:203   */\n      dup2\n        /* \"#utility.yul\":182:204   */\n      tag_9\n      jump\t// in\n    tag_14:\n        /* \"#utility.yul\":177:180   */\n      dup3\n        /* \"#utility.yul\":170:205   */\n      mstore\n        /* \"#utility.yul\":99:211   */\n      pop\n      pop\n      jump\t// out\n        /* \"#utility.yul\":217:431   */\n    tag_7:\n        /* \"#utility.yul\":306:310   */\n      0x00\n        /* \"#utility.yul\":344:346   */\n      0x20\n        /* \"#utility.yul\":333:342   */\n      dup3\n        /* \"#utility.yul\":329:347   */\n      add\n        /* \"#utility.yul\":321:347   */\n      swap1\n      pop\n        /* \"#utility.yul\":357:424   */\n      tag_16\n        /* \"#utility.yul\":421:422   */\n      0x00\n        /* \"#utility.yul\":410:419   */\n      dup4\n        /* \"#utility.yul\":406:423   */\n      add\n        /* \"#utility.yul\":397:403   */\n      dup5\n        /* \"#utility.yul\":357:424   */\n      tag_10\n      jump\t// in\n    tag_16:\n        /* \"#utility.yul\":217:431   */\n      swap3\n      swap2\n      pop\n      pop\n      jump\t// out\n\n    auxdata: 0xa264697066735822122080af55b44e4117da6bab07e7acf462cfa2f621b0a0b0e8c638e20ba8a3c4ed2164736f6c63430008120033\n}\n",
				"bytecode": {
					"linkReferences": {},
					"object": "608060405234801561001057600080fd5b5060405161063638038061063683398181016040528101906100329190610212565b8160009081610041919061048f565b5080600160006101000a81548160ff021916908360ff1602179055505050610561565b6000604051905090565b600080fd5b600080fd5b600080fd5b600080fd5b6000601f19601f8301169050919050565b7f4e487b7100000000000000000000000000000000000000000000000000000000600052604160045260246000fd5b6100cb82610082565b810181811067ffffffffffffffff821117156100ea576100e9610093565b5b80604052505050565b60006100fd610064565b905061010982826100c2565b919050565b600067ffffffffffffffff82111561012957610128610093565b5b61013282610082565b9050602081019050919050565b60005b8381101561015d578082015181840152602081019050610142565b60008484015250505050565b600061017c6101778461010e565b6100f3565b9050828152602081018484840111156101985761019761007d565b5b6101a384828561013f565b509392505050565b600082601f8301126101c0576101bf610078565b5b81516101d0848260208601610169565b91505092915050565b600060ff82169050919050565b6101ef816101d9565b81146101fa57600080fd5b50565b60008151905061020c816101e6565b92915050565b600080604083850312156102295761022861006e565b5b600083015167ffffffffffffffff81111561024757610246610073565b5b610253858286016101ab565b9250506020610264858286016101fd565b9150509250929050565b600081519050919050565b7f4e487b7100000000000000000000000000000000000000000000000000000000600052602260045260246000fd5b600060028204905060018216806102c057607f821691505b6020821081036102d3576102d2610279565b5b50919050565b60008190508160005260206000209050919050565b60006020601f8301049050919050565b600082821b905092915050565b60006008830261033b7fffffffffffffffffffffffffffffffffffffffffffffffffffffffffffffffff826102fe565b61034586836102fe565b95508019841693508086168417925050509392505050565b6000819050919050565b6000819050919050565b600061038c6103876103828461035d565b610367565b61035d565b9050919050565b6000819050919050565b6103a683610371565b6103ba6103b282610393565b84845461030b565b825550505050565b600090565b6103cf6103c2565b6103da81848461039d565b505050565b5b818110156103fe576103f36000826103c7565b6001810190506103e0565b5050565b601f82111561044357610414816102d9565b61041d846102ee565b8101602085101561042c578190505b610440610438856102ee565b8301826103df565b50505b505050565b600082821c905092915050565b600061046660001984600802610448565b1980831691505092915050565b600061047f8383610455565b9150826002028217905092915050565b6104988261026e565b67ffffffffffffffff8111156104b1576104b0610093565b5b6104bb82546102a8565b6104c6828285610402565b600060209050601f8311600181146104f957600084156104e7578287015190505b6104f18582610473565b865550610559565b601f198416610507866102d9565b60005b8281101561052f5784890151825560018201915060208501945060208101905061050a565b8683101561054c5784890151610548601f891682610455565b8355505b6001600288020188555050505b505050505050565b60c78061056f6000396000f3fe6080604052348015600f57600080fd5b506004361060285760003560e01c806319e6f3a514602d575b600080fd5b60336047565b604051603e91906078565b60405180910390f35b6000600160009054906101000a900460ff16905090565b600060ff82169050919050565b607281605e565b82525050565b6000602082019050608b6000830184606b565b9291505056fea264697066735822122080af55b44e4117da6bab07e7acf462cfa2f621b0a0b0e8c638e20ba8a3c4ed2164736f6c63430008120033",
					"opcodes": "PUSH1 0x80 PUSH1 0x40 MSTORE CALLVALUE DUP1 ISZERO PUSH2 0x10 JUMPI PUSH1 0x0 DUP1 REVERT JUMPDEST POP PUSH1 0x40 MLOAD PUSH2 0x636 CODESIZE SUB DUP1 PUSH2 0x636 DUP4 CODECOPY DUP2 DUP2 ADD PUSH1 0x40 MSTORE DUP2 ADD SWAP1 PUSH2 0x32 SWAP2 SWAP1 PUSH2 0x212 JUMP JUMPDEST DUP2 PUSH1 0x0 SWAP1 DUP2 PUSH2 0x41 SWAP2 SWAP1 PUSH2 0x48F JUMP JUMPDEST POP DUP1 PUSH1 0x1 PUSH1 0x0 PUSH2 0x100 EXP DUP2 SLOAD DUP2 PUSH1 0xFF MUL NOT AND SWAP1 DUP4 PUSH1 0xFF AND MUL OR SWAP1 SSTORE POP POP POP PUSH2 0x561 JUMP JUMPDEST PUSH1 0x0 PUSH1 0x40 MLOAD SWAP1 POP SWAP1 JUMP JUMPDEST PUSH1 0x0 DUP1 REVERT JUMPDEST PUSH1 0x0 DUP1 REVERT JUMPDEST PUSH1 0x0 DUP1 REVERT JUMPDEST PUSH1 0x0 DUP1 REVERT JUMPDEST PUSH1 0x0 PUSH1 0x1F NOT PUSH1 0x1F DUP4 ADD AND SWAP1 POP SWAP2 SWAP1 POP JUMP JUMPDEST PUSH32 0x4E487B7100000000000000000000000000000000000000000000000000000000 PUSH1 0x0 MSTORE PUSH1 0x41 PUSH1 0x4 MSTORE PUSH1 0x24 PUSH1 0x0 REVERT JUMPDEST PUSH2 0xCB DUP3 PUSH2 0x82 JUMP JUMPDEST DUP2 ADD DUP2 DUP2 LT PUSH8 0xFFFFFFFFFFFFFFFF DUP3 GT OR ISZERO PUSH2 0xEA JUMPI PUSH2 0xE9 PUSH2 0x93 JUMP JUMPDEST JUMPDEST DUP1 PUSH1 0x40 MSTORE POP POP POP JUMP JUMPDEST PUSH1 0x0 PUSH2 0xFD PUSH2 0x64 JUMP JUMPDEST SWAP1 POP PUSH2 0x109 DUP3 DUP3 PUSH2 0xC2 JUMP JUMPDEST SWAP2 SWAP1 POP JUMP JUMPDEST PUSH1 0x0 PUSH8 0xFFFFFFFFFFFFFFFF DUP3 GT ISZERO PUSH2 0x129 JUMPI PUSH2 0x128 PUSH2 0x93 JUMP JUMPDEST JUMPDEST PUSH2 0x132 DUP3 PUSH2 0x82 JUMP JUMPDEST SWAP1 POP PUSH1 0x20 DUP2 ADD SWAP1 POP SWAP2 SWAP1 POP JUMP JUMPDEST PUSH1 0x0 JUMPDEST DUP4 DUP2 LT ISZERO PUSH2 0x15D JUMPI DUP1 DUP3 ADD MLOAD DUP2 DUP5 ADD MSTORE PUSH1 0x20 DUP2 ADD SWAP1 POP PUSH2 0x142 JUMP JUMPDEST PUSH1 0x0 DUP5 DUP5 ADD MSTORE POP POP POP POP JUMP JUMPDEST PUSH1 0x0 PUSH2 0x17C PUSH2 0x177 DUP5 PUSH2 0x10E JUMP JUMPDEST PUSH2 0xF3 JUMP JUMPDEST SWAP1 POP DUP3 DUP2 MSTORE PUSH1 0x20 DUP2 ADD DUP5 DUP5 DUP5 ADD GT ISZERO PUSH2 0x198 JUMPI PUSH2 0x197 PUSH2 0x7D JUMP JUMPDEST JUMPDEST PUSH2 0x1A3 DUP5 DUP3 DUP6 PUSH2 0x13F JUMP JUMPDEST POP SWAP4 SWAP3 POP POP POP JUMP JUMPDEST PUSH1 0x0 DUP3 PUSH1 0x1F DUP4 ADD SLT PUSH2 0x1C0 JUMPI PUSH2 0x1BF PUSH2 0x78 JUMP JUMPDEST JUMPDEST DUP2 MLOAD PUSH2 0x1D0 DUP5 DUP3 PUSH1 0x20 DUP7 ADD PUSH2 0x169 JUMP JUMPDEST SWAP2 POP POP SWAP3 SWAP2 POP POP JUMP JUMPDEST PUSH1 0x0 PUSH1 0xFF DUP3 AND SWAP1 POP SWAP2 SWAP1 POP JUMP JUMPDEST PUSH2 0x1EF DUP2 PUSH2 0x1D9 JUMP JUMPDEST DUP2 EQ PUSH2 0x1FA JUMPI PUSH1 0x0 DUP1 REVERT JUMPDEST POP JUMP JUMPDEST PUSH1 0x0 DUP2 MLOAD SWAP1 POP PUSH2 0x20C DUP2 PUSH2 0x1E6 JUMP JUMPDEST SWAP3 SWAP2 POP POP JUMP JUMPDEST PUSH1 0x0 DUP1 PUSH1 0x40 DUP4 DUP6 SUB SLT ISZERO PUSH2 0x229 JUMPI PUSH2 0x228 PUSH2 0x6E JUMP JUMPDEST JUMPDEST PUSH1 0x0 DUP4 ADD MLOAD PUSH8 0xFFFFFFFFFFFFFFFF DUP2 GT ISZERO PUSH2 0x247 JUMPI PUSH2 0x246 PUSH2 0x73 JUMP JUMPDEST JUMPDEST PUSH2 0x253 DUP6 DUP3 DUP7 ADD PUSH2 0x1AB JUMP JUMPDEST SWAP3 POP POP PUSH1 0x20 PUSH2 0x264 DUP6 DUP3 DUP7 ADD PUSH2 0x1FD JUMP JUMPDEST SWAP2 POP POP SWAP3 POP SWAP3 SWAP1 POP JUMP JUMPDEST PUSH1 0x0 DUP2 MLOAD SWAP1 POP SWAP2 SWAP1 POP JUMP JUMPDEST PUSH32 0x4E487B7100000000000000000000000000000000000000000000000000000000 PUSH1 0x0 MSTORE PUSH1 0x22 PUSH1 0x4 MSTORE PUSH1 0x24 PUSH1 0x0 REVERT JUMPDEST PUSH1 0x0 PUSH1 0x2 DUP3 DIV SWAP1 POP PUSH1 0x1 DUP3 AND DUP1 PUSH2 0x2C0 JUMPI PUSH1 0x7F DUP3 AND SWAP2 POP JUMPDEST PUSH1 0x20 DUP3 LT DUP2 SUB PUSH2 0x2D3 JUMPI PUSH2 0x2D2 PUSH2 0x279 JUMP JUMPDEST JUMPDEST POP SWAP2 SWAP1 POP JUMP JUMPDEST PUSH1 0x0 DUP2 SWAP1 POP DUP2 PUSH1 0x0 MSTORE PUSH1 0x20 PUSH1 0x0 KECCAK256 SWAP1 POP SWAP2 SWAP1 POP JUMP JUMPDEST PUSH1 0x0 PUSH1 0x20 PUSH1 0x1F DUP4 ADD DIV SWAP1 POP SWAP2 SWAP1 POP JUMP JUMPDEST PUSH1 0x0 DUP3 DUP3 SHL SWAP1 POP SWAP3 SWAP2 POP POP JUMP JUMPDEST PUSH1 0x0 PUSH1 0x8 DUP4 MUL PUSH2 0x33B PUSH32 0xFFFFFFFFFFFFFFFFFFFFFFFFFFFFFFFFFFFFFFFFFFFFFFFFFFFFFFFFFFFFFFFF DUP3 PUSH2 0x2FE JUMP JUMPDEST PUSH2 0x345 DUP7 DUP4 PUSH2 0x2FE JUMP JUMPDEST SWAP6 POP DUP1 NOT DUP5 AND SWAP4 POP DUP1 DUP7 AND DUP5 OR SWAP3 POP POP POP SWAP4 SWAP3 POP POP POP JUMP JUMPDEST PUSH1 0x0 DUP2 SWAP1 POP SWAP2 SWAP1 POP JUMP JUMPDEST PUSH1 0x0 DUP2 SWAP1 POP SWAP2 SWAP1 POP JUMP JUMPDEST PUSH1 0x0 PUSH2 0x38C PUSH2 0x387 PUSH2 0x382 DUP5 PUSH2 0x35D JUMP JUMPDEST PUSH2 0x367 JUMP JUMPDEST PUSH2 0x35D JUMP JUMPDEST SWAP1 POP SWAP2 SWAP1 POP JUMP JUMPDEST PUSH1 0x0 DUP2 SWAP1 POP SWAP2 SWAP1 POP JUMP JUMPDEST PUSH2 0x3A6 DUP4 PUSH2 0x371 JUMP JUMPDEST PUSH2 0x3BA PUSH2 0x3B2 DUP3 PUSH2 0x393 JUMP JUMPDEST DUP5 DUP5 SLOAD PUSH2 0x30B JUMP JUMPDEST DUP3 SSTORE POP POP POP POP JUMP JUMPDEST PUSH1 0x0 SWAP1 JUMP JUMPDEST PUSH2 0x3CF PUSH2 0x3C2 JUMP JUMPDEST PUSH2 0x3DA DUP2 DUP5 DUP5 PUSH2 0x39D JUMP JUMPDEST POP POP POP JUMP JUMPDEST JUMPDEST DUP2 DUP2 LT ISZERO PUSH2 0x3FE JUMPI PUSH2 0x3F3 PUSH1 0x0 DUP3 PUSH2 0x3C7 JUMP JUMPDEST PUSH1 0x1 DUP2 ADD SWAP1 POP PUSH2 0x3E0 JUMP JUMPDEST POP POP JUMP JUMPDEST PUSH1 0x1F DUP3 GT ISZERO PUSH2 0x443 JUMPI PUSH2 0x414 DUP2 PUSH2 0x2D9 JUMP JUMPDEST PUSH2 0x41D DUP5 PUSH2 0x2EE JUMP JUMPDEST DUP2 ADD PUSH1 0x20 DUP6 LT ISZERO PUSH2 0x42C JUMPI DUP2 SWAP1 POP JUMPDEST PUSH2 0x440 PUSH2 0x438 DUP6 PUSH2 0x2EE JUMP JUMPDEST DUP4 ADD DUP3 PUSH2 0x3DF JUMP JUMPDEST POP POP JUMPDEST POP POP POP JUMP JUMPDEST PUSH1 0x0 DUP3 DUP3 SHR SWAP1 POP SWAP3 SWAP2 POP POP JUMP JUMPDEST PUSH1 0x0 PUSH2 0x466 PUSH1 0x0 NOT DUP5 PUSH1 0x8 MUL PUSH2 0x448 JUMP JUMPDEST NOT DUP1 DUP4 AND SWAP2 POP POP SWAP3 SWAP2 POP POP JUMP JUMPDEST PUSH1 0x0 PUSH2 0x47F DUP4 DUP4 PUSH2 0x455 JUMP JUMPDEST SWAP2 POP DUP3 PUSH1 0x2 MUL DUP3 OR SWAP1 POP SWAP3 SWAP2 POP POP JUMP JUMPDEST PUSH2 0x498 DUP3 PUSH2 0x26E JUMP JUMPDEST PUSH8 0xFFFFFFFFFFFFFFFF DUP2 GT ISZERO PUSH2 0x4B1 JUMPI PUSH2 0x4B0 PUSH2 0x93 JUMP JUMPDEST JUMPDEST PUSH2 0x4BB DUP3 SLOAD PUSH2 0x2A8 JUMP JUMPDEST PUSH2 0x4C6 DUP3 DUP3 DUP6 PUSH2 0x402 JUMP JUMPDEST PUSH1 0x0 PUSH1 0x20 SWAP1 POP PUSH1 0x1F DUP4 GT PUSH1 0x1 DUP2 EQ PUSH2 0x4F9 JUMPI PUSH1 0x0 DUP5 ISZERO PUSH2 0x4E7 JUMPI DUP3 DUP8 ADD MLOAD SWAP1 POP JUMPDEST PUSH2 0x4F1 DUP6 DUP3 PUSH2 0x473 JUMP JUMPDEST DUP7 SSTORE POP PUSH2 0x559 JUMP JUMPDEST PUSH1 0x1F NOT DUP5 AND PUSH2 0x507 DUP7 PUSH2 0x2D9 JUMP JUMPDEST PUSH1 0x0 JUMPDEST DUP3 DUP2 LT ISZERO PUSH2 0x52F JUMPI DUP5 DUP10 ADD MLOAD DUP3 SSTORE PUSH1 0x1 DUP3 ADD SWAP2 POP PUSH1 0x20 DUP6 ADD SWAP5 POP PUSH1 0x20 DUP2 ADD SWAP1 POP PUSH2 0x50A JUMP JUMPDEST DUP7 DUP4 LT ISZERO PUSH2 0x54C JUMPI DUP5 DUP10 ADD MLOAD PUSH2 0x548 PUSH1 0x1F DUP10 AND DUP3 PUSH2 0x455 JUMP JUMPDEST DUP4 SSTORE POP JUMPDEST PUSH1 0x1 PUSH1 0x2 DUP9 MUL ADD DUP9 SSTORE POP POP POP JUMPDEST POP POP POP POP POP POP JUMP JUMPDEST PUSH1 0xC7 DUP1 PUSH2 0x56F PUSH1 0x0 CODECOPY PUSH1 0x0 RETURN INVALID PUSH1 0x80 PUSH1 0x40 MSTORE CALLVALUE DUP1 ISZERO PUSH1 0xF JUMPI PUSH1 0x0 DUP1 REVERT JUMPDEST POP PUSH1 0x4 CALLDATASIZE LT PUSH1 0x28 JUMPI PUSH1 0x0 CALLDATALOAD PUSH1 0xE0 SHR DUP1 PUSH4 0x19E6F3A5 EQ PUSH1 0x2D JUMPI JUMPDEST PUSH1 0x0 DUP1 REVERT JUMPDEST PUSH1 0x33 PUSH1 0x47 JUMP JUMPDEST PUSH1 0x40 MLOAD PUSH1 0x3E SWAP2 SWAP1 PUSH1 0x78 JUMP JUMPDEST PUSH1 0x40 MLOAD DUP1 SWAP2 SUB SWAP1 RETURN JUMPDEST PUSH1 0x0 PUSH1 0x1 PUSH1 0x0 SWAP1 SLOAD SWAP1 PUSH2 0x100 EXP SWAP1 DIV PUSH1 0xFF AND SWAP1 POP SWAP1 JUMP JUMPDEST PUSH1 0x0 PUSH1 0xFF DUP3 AND SWAP1 POP SWAP2 SWAP1 POP JUMP JUMPDEST PUSH1 0x72 DUP2 PUSH1 0x5E JUMP JUMPDEST DUP3 MSTORE POP POP JUMP JUMPDEST PUSH1 0x0 PUSH1 0x20 DUP3 ADD SWAP1 POP PUSH1 0x8B PUSH1 0x0 DUP4 ADD DUP5 PUSH1 0x6B JUMP JUMPDEST SWAP3 SWAP2 POP POP JUMP INVALID LOG2 PUSH5 0x6970667358 0x22 SLT KECCAK256 DUP1 0xAF SSTORE 0xB4 0x4E COINBASE OR 0xDA PUSH12 0xAB07E7ACF462CFA2F621B0A0 0xB0 0xE8 0xC6 CODESIZE 0xE2 SIGNEXTEND 0xA8 LOG3 0xC4 0xED 0x21 PUSH5 0x736F6C6343 STOP ADDMOD SLT STOP CALLER "
				},
				"gasEstimates": {
					"creation": {
						"codeDepositCost": "39800",
						"executionCost": "infinite",
						"totalCost": "infinite"
					},
					"external": {
						"getDoor()": "2457"
					}
				},
				"methodIdentifiers": {
					"getDoor()": "19e6f3a5"
				}
			},
			"storageLayout": {
				"storage": [
					{
						"astId": 3,
						"contract": "solidity-study-main/3.tutorial/ex15/contracts/Inherit_function.sol:Car",
						"label": "type_",
						"offset": 0,
						"slot": "0",
						"type": "t_string_storage"
					},
					{
						"astId": 5,
						"contract": "solidity-study-main/3.tutorial/ex15/contracts/Inherit_function.sol:Car",
						"label": "door",
						"offset": 0,
						"slot": "1",
						"type": "t_uint8"
					}
				],
				"types": {
					"t_string_storage": {
						"encoding": "bytes",
						"label": "string",
						"numberOfBytes": "32"
					},
					"t_uint8": {
						"encoding": "inplace",
						"label": "uint8",
						"numberOfBytes": "1"
					}
				}
			},
			"userdoc": {
				"kind": "user",
				"methods": {},
				"version": 1
			}
		}
	}
}