{
	"solidity-study-main/3.tutorial/ex14/contracts/Revert.sol": {
		"Revert": {
			"abi": [
				{
					"inputs": [],
					"name": "minPrice",
					"outputs": [
						{
							"internalType": "uint256",
							"name": "",
							"type": "uint256"
						}
					],
					"stateMutability": "view",
					"type": "function"
				},
				{
					"inputs": [],
					"name": "order",
					"outputs": [],
					"stateMutability": "payable",
					"type": "function"
				}
			],
			"devdoc": {
				"kind": "dev",
				"methods": {},
				"version": 1
			},
			"evm": {
				"assembly": "    /* \"solidity-study-main/3.tutorial/ex14/contracts/Revert.sol\":148:478  contract Revert{... */\n  mstore(0x40, 0x80)\n    /* \"solidity-study-main/3.tutorial/ex14/contracts/Revert.sol\":234:238  1000 */\n  0x03e8\n    /* \"solidity-study-main/3.tutorial/ex14/contracts/Revert.sol\":211:238  uint public minPrice = 1000 */\n  0x01\n  sstore\n    /* \"solidity-study-main/3.tutorial/ex14/contracts/Revert.sol\":148:478  contract Revert{... */\n  callvalue\n  dup1\n  iszero\n  tag_1\n  jumpi\n  0x00\n  dup1\n  revert\ntag_1:\n  pop\n  dataSize(sub_0)\n  dup1\n  dataOffset(sub_0)\n  0x00\n  codecopy\n  0x00\n  return\nstop\n\nsub_0: assembly {\n        /* \"solidity-study-main/3.tutorial/ex14/contracts/Revert.sol\":148:478  contract Revert{... */\n      mstore(0x40, 0x80)\n      jumpi(tag_1, lt(calldatasize, 0x04))\n      shr(0xe0, calldataload(0x00))\n      dup1\n      0xbf15071d\n      eq\n      tag_2\n      jumpi\n      dup1\n      0xe45be8eb\n      eq\n      tag_3\n      jumpi\n    tag_1:\n      0x00\n      dup1\n      revert\n        /* \"solidity-study-main/3.tutorial/ex14/contracts/Revert.sol\":243:476  function order() external payable {... */\n    tag_2:\n      tag_4\n      tag_5\n      jump\t// in\n    tag_4:\n      stop\n        /* \"solidity-study-main/3.tutorial/ex14/contracts/Revert.sol\":211:238  uint public minPrice = 1000 */\n    tag_3:\n      callvalue\n      dup1\n      iszero\n      tag_6\n      jumpi\n      0x00\n      dup1\n      revert\n    tag_6:\n      pop\n      tag_7\n      tag_8\n      jump\t// in\n    tag_7:\n      mload(0x40)\n      tag_9\n      swap2\n      swap1\n      tag_10\n      jump\t// in\n    tag_9:\n      mload(0x40)\n      dup1\n      swap2\n      sub\n      swap1\n      return\n        /* \"solidity-study-main/3.tutorial/ex14/contracts/Revert.sol\":243:476  function order() external payable {... */\n    tag_5:\n        /* \"solidity-study-main/3.tutorial/ex14/contracts/Revert.sol\":299:307  minPrice */\n      sload(0x01)\n        /* \"solidity-study-main/3.tutorial/ex14/contracts/Revert.sol\":287:296  msg.value */\n      callvalue\n        /* \"solidity-study-main/3.tutorial/ex14/contracts/Revert.sol\":287:307  msg.value < minPrice */\n      lt\n        /* \"solidity-study-main/3.tutorial/ex14/contracts/Revert.sol\":283:390  if (msg.value < minPrice) {... */\n      iszero\n      tag_12\n      jumpi\n        /* \"solidity-study-main/3.tutorial/ex14/contracts/Revert.sol\":317:353  revert(\"Msg.value must not be zero\") */\n      mload(0x40)\n      0x08c379a000000000000000000000000000000000000000000000000000000000\n      dup2\n      mstore\n      0x04\n      add\n      tag_13\n      swap1\n      tag_14\n      jump\t// in\n    tag_13:\n      mload(0x40)\n      dup1\n      swap2\n      sub\n      swap1\n      revert\n        /* \"solidity-study-main/3.tutorial/ex14/contracts/Revert.sol\":283:390  if (msg.value < minPrice) {... */\n    tag_12:\n        /* \"solidity-study-main/3.tutorial/ex14/contracts/Revert.sol\":419:428  msg.value */\n      callvalue\n        /* \"solidity-study-main/3.tutorial/ex14/contracts/Revert.sol\":395:404  orderList */\n      0x00\n        /* \"solidity-study-main/3.tutorial/ex14/contracts/Revert.sol\":395:416  orderList[msg.sender] */\n      dup1\n        /* \"solidity-study-main/3.tutorial/ex14/contracts/Revert.sol\":405:415  msg.sender */\n      caller\n        /* \"solidity-study-main/3.tutorial/ex14/contracts/Revert.sol\":395:416  orderList[msg.sender] */\n      0xffffffffffffffffffffffffffffffffffffffff\n      and\n      0xffffffffffffffffffffffffffffffffffffffff\n      and\n      dup2\n      mstore\n      0x20\n      add\n      swap1\n      dup2\n      mstore\n      0x20\n      add\n      0x00\n      keccak256\n        /* \"solidity-study-main/3.tutorial/ex14/contracts/Revert.sol\":395:428  orderList[msg.sender] = msg.value */\n      dup2\n      swap1\n      sstore\n      pop\n        /* \"solidity-study-main/3.tutorial/ex14/contracts/Revert.sol\":243:476  function order() external payable {... */\n      jump\t// out\n        /* \"solidity-study-main/3.tutorial/ex14/contracts/Revert.sol\":211:238  uint public minPrice = 1000 */\n    tag_8:\n      sload(0x01)\n      dup2\n      jump\t// out\n        /* \"#utility.yul\":7:84   */\n    tag_15:\n        /* \"#utility.yul\":44:51   */\n      0x00\n        /* \"#utility.yul\":73:78   */\n      dup2\n        /* \"#utility.yul\":62:78   */\n      swap1\n      pop\n        /* \"#utility.yul\":7:84   */\n      swap2\n      swap1\n      pop\n      jump\t// out\n        /* \"#utility.yul\":90:208   */\n    tag_16:\n        /* \"#utility.yul\":177:201   */\n      tag_23\n        /* \"#utility.yul\":195:200   */\n      dup2\n        /* \"#utility.yul\":177:201   */\n      tag_15\n      jump\t// in\n    tag_23:\n        /* \"#utility.yul\":172:175   */\n      dup3\n        /* \"#utility.yul\":165:202   */\n      mstore\n        /* \"#utility.yul\":90:208   */\n      pop\n      pop\n      jump\t// out\n        /* \"#utility.yul\":214:436   */\n    tag_10:\n        /* \"#utility.yul\":307:311   */\n      0x00\n        /* \"#utility.yul\":345:347   */\n      0x20\n        /* \"#utility.yul\":334:343   */\n      dup3\n        /* \"#utility.yul\":330:348   */\n      add\n        /* \"#utility.yul\":322:348   */\n      swap1\n      pop\n        /* \"#utility.yul\":358:429   */\n      tag_25\n        /* \"#utility.yul\":426:427   */\n      0x00\n        /* \"#utility.yul\":415:424   */\n      dup4\n        /* \"#utility.yul\":411:428   */\n      add\n        /* \"#utility.yul\":402:408   */\n      dup5\n        /* \"#utility.yul\":358:429   */\n      tag_16\n      jump\t// in\n    tag_25:\n        /* \"#utility.yul\":214:436   */\n      swap3\n      swap2\n      pop\n      pop\n      jump\t// out\n        /* \"#utility.yul\":442:611   */\n    tag_17:\n        /* \"#utility.yul\":526:537   */\n      0x00\n        /* \"#utility.yul\":560:566   */\n      dup3\n        /* \"#utility.yul\":555:558   */\n      dup3\n        /* \"#utility.yul\":548:567   */\n      mstore\n        /* \"#utility.yul\":600:604   */\n      0x20\n        /* \"#utility.yul\":595:598   */\n      dup3\n        /* \"#utility.yul\":591:605   */\n      add\n        /* \"#utility.yul\":576:605   */\n      swap1\n      pop\n        /* \"#utility.yul\":442:611   */\n      swap3\n      swap2\n      pop\n      pop\n      jump\t// out\n        /* \"#utility.yul\":617:793   */\n    tag_18:\n        /* \"#utility.yul\":757:785   */\n      0x4d73672e76616c7565206d757374206e6f74206265207a65726f000000000000\n        /* \"#utility.yul\":753:754   */\n      0x00\n        /* \"#utility.yul\":745:751   */\n      dup3\n        /* \"#utility.yul\":741:755   */\n      add\n        /* \"#utility.yul\":734:786   */\n      mstore\n        /* \"#utility.yul\":617:793   */\n      pop\n      jump\t// out\n        /* \"#utility.yul\":799:1165   */\n    tag_19:\n        /* \"#utility.yul\":941:944   */\n      0x00\n        /* \"#utility.yul\":962:1029   */\n      tag_29\n        /* \"#utility.yul\":1026:1028   */\n      0x1a\n        /* \"#utility.yul\":1021:1024   */\n      dup4\n        /* \"#utility.yul\":962:1029   */\n      tag_17\n      jump\t// in\n    tag_29:\n        /* \"#utility.yul\":955:1029   */\n      swap2\n      pop\n        /* \"#utility.yul\":1038:1131   */\n      tag_30\n        /* \"#utility.yul\":1127:1130   */\n      dup3\n        /* \"#utility.yul\":1038:1131   */\n      tag_18\n      jump\t// in\n    tag_30:\n        /* \"#utility.yul\":1156:1158   */\n      0x20\n        /* \"#utility.yul\":1151:1154   */\n      dup3\n        /* \"#utility.yul\":1147:1159   */\n      add\n        /* \"#utility.yul\":1140:1159   */\n      swap1\n      pop\n        /* \"#utility.yul\":799:1165   */\n      swap2\n      swap1\n      pop\n      jump\t// out\n        /* \"#utility.yul\":1171:1590   */\n    tag_14:\n        /* \"#utility.yul\":1337:1341   */\n      0x00\n        /* \"#utility.yul\":1375:1377   */\n      0x20\n        /* \"#utility.yul\":1364:1373   */\n      dup3\n        /* \"#utility.yul\":1360:1378   */\n      add\n        /* \"#utility.yul\":1352:1378   */\n      swap1\n      pop\n        /* \"#utility.yul\":1424:1433   */\n      dup2\n        /* \"#utility.yul\":1418:1422   */\n      dup2\n        /* \"#utility.yul\":1414:1434   */\n      sub\n        /* \"#utility.yul\":1410:1411   */\n      0x00\n        /* \"#utility.yul\":1399:1408   */\n      dup4\n        /* \"#utility.yul\":1395:1412   */\n      add\n        /* \"#utility.yul\":1388:1435   */\n      mstore\n        /* \"#utility.yul\":1452:1583   */\n      tag_32\n        /* \"#utility.yul\":1578:1582   */\n      dup2\n        /* \"#utility.yul\":1452:1583   */\n      tag_19\n      jump\t// in\n    tag_32:\n        /* \"#utility.yul\":1444:1583   */\n      swap1\n      pop\n        /* \"#utility.yul\":1171:1590   */\n      swap2\n      swap1\n      pop\n      jump\t// out\n\n    auxdata: 0xa26469706673582212209be98a6a67a7ca299d22ae9fcfcc7bfaa86fa916000adfde7a35289f7e94ad8d64736f6c63430008120033\n}\n",
				"bytecode": {
					"linkReferences": {},
					"object": "60806040526103e860015534801561001657600080fd5b506101da806100266000396000f3fe6080604052600436106100295760003560e01c8063bf15071d1461002e578063e45be8eb14610038575b600080fd5b610036610063565b005b34801561004457600080fd5b5061004d6100ed565b60405161005a919061010c565b60405180910390f35b6001543410156100a8576040517f08c379a000000000000000000000000000000000000000000000000000000000815260040161009f90610184565b60405180910390fd5b346000803373ffffffffffffffffffffffffffffffffffffffff1673ffffffffffffffffffffffffffffffffffffffff16815260200190815260200160002081905550565b60015481565b6000819050919050565b610106816100f3565b82525050565b600060208201905061012160008301846100fd565b92915050565b600082825260208201905092915050565b7f4d73672e76616c7565206d757374206e6f74206265207a65726f000000000000600082015250565b600061016e601a83610127565b915061017982610138565b602082019050919050565b6000602082019050818103600083015261019d81610161565b905091905056fea26469706673582212209be98a6a67a7ca299d22ae9fcfcc7bfaa86fa916000adfde7a35289f7e94ad8d64736f6c63430008120033",
					"opcodes": "PUSH1 0x80 PUSH1 0x40 MSTORE PUSH2 0x3E8 PUSH1 0x1 SSTORE CALLVALUE DUP1 ISZERO PUSH2 0x16 JUMPI PUSH1 0x0 DUP1 REVERT JUMPDEST POP PUSH2 0x1DA DUP1 PUSH2 0x26 PUSH1 0x0 CODECOPY PUSH1 0x0 RETURN INVALID PUSH1 0x80 PUSH1 0x40 MSTORE PUSH1 0x4 CALLDATASIZE LT PUSH2 0x29 JUMPI PUSH1 0x0 CALLDATALOAD PUSH1 0xE0 SHR DUP1 PUSH4 0xBF15071D EQ PUSH2 0x2E JUMPI DUP1 PUSH4 0xE45BE8EB EQ PUSH2 0x38 JUMPI JUMPDEST PUSH1 0x0 DUP1 REVERT JUMPDEST PUSH2 0x36 PUSH2 0x63 JUMP JUMPDEST STOP JUMPDEST CALLVALUE DUP1 ISZERO PUSH2 0x44 JUMPI PUSH1 0x0 DUP1 REVERT JUMPDEST POP PUSH2 0x4D PUSH2 0xED JUMP JUMPDEST PUSH1 0x40 MLOAD PUSH2 0x5A SWAP2 SWAP1 PUSH2 0x10C JUMP JUMPDEST PUSH1 0x40 MLOAD DUP1 SWAP2 SUB SWAP1 RETURN JUMPDEST PUSH1 0x1 SLOAD CALLVALUE LT ISZERO PUSH2 0xA8 JUMPI PUSH1 0x40 MLOAD PUSH32 0x8C379A000000000000000000000000000000000000000000000000000000000 DUP2 MSTORE PUSH1 0x4 ADD PUSH2 0x9F SWAP1 PUSH2 0x184 JUMP JUMPDEST PUSH1 0x40 MLOAD DUP1 SWAP2 SUB SWAP1 REVERT JUMPDEST CALLVALUE PUSH1 0x0 DUP1 CALLER PUSH20 0xFFFFFFFFFFFFFFFFFFFFFFFFFFFFFFFFFFFFFFFF AND PUSH20 0xFFFFFFFFFFFFFFFFFFFFFFFFFFFFFFFFFFFFFFFF AND DUP2 MSTORE PUSH1 0x20 ADD SWAP1 DUP2 MSTORE PUSH1 0x20 ADD PUSH1 0x0 KECCAK256 DUP2 SWAP1 SSTORE POP JUMP JUMPDEST PUSH1 0x1 SLOAD DUP2 JUMP JUMPDEST PUSH1 0x0 DUP2 SWAP1 POP SWAP2 SWAP1 POP JUMP JUMPDEST PUSH2 0x106 DUP2 PUSH2 0xF3 JUMP JUMPDEST DUP3 MSTORE POP POP JUMP JUMPDEST PUSH1 0x0 PUSH1 0x20 DUP3 ADD SWAP1 POP PUSH2 0x121 PUSH1 0x0 DUP4 ADD DUP5 PUSH2 0xFD JUMP JUMPDEST SWAP3 SWAP2 POP POP JUMP JUMPDEST PUSH1 0x0 DUP3 DUP3 MSTORE PUSH1 0x20 DUP3 ADD SWAP1 POP SWAP3 SWAP2 POP POP JUMP JUMPDEST PUSH32 0x4D73672E76616C7565206D757374206E6F74206265207A65726F000000000000 PUSH1 0x0 DUP3 ADD MSTORE POP JUMP JUMPDEST PUSH1 0x0 PUSH2 0x16E PUSH1 0x1A DUP4 PUSH2 0x127 JUMP JUMPDEST SWAP2 POP PUSH2 0x179 DUP3 PUSH2 0x138 JUMP JUMPDEST PUSH1 0x20 DUP3 ADD SWAP1 POP SWAP2 SWAP1 POP JUMP JUMPDEST PUSH1 0x0 PUSH1 0x20 DUP3 ADD SWAP1 POP DUP2 DUP2 SUB PUSH1 0x0 DUP4 ADD MSTORE PUSH2 0x19D DUP2 PUSH2 0x161 JUMP JUMPDEST SWAP1 POP SWAP2 SWAP1 POP JUMP INVALID LOG2 PUSH5 0x6970667358 0x22 SLT KECCAK256 SWAP12 0xE9 DUP11 PUSH11 0x67A7CA299D22AE9FCFCC7B STATICCALL 0xA8 PUSH16 0xA916000ADFDE7A35289F7E94AD8D6473 PUSH16 0x6C634300081200330000000000000000 "
				},
				"gasEstimates": {
					"creation": {
						"codeDepositCost": "94800",
						"executionCost": "22247",
						"totalCost": "117047"
					},
					"external": {
						"minPrice()": "2429",
						"order()": "24425"
					}
				},
				"methodIdentifiers": {
					"minPrice()": "e45be8eb",
					"order()": "bf15071d"
				}
			},
			"storageLayout": {
				"storage": [
					{
						"astId": 5,
						"contract": "solidity-study-main/3.tutorial/ex14/contracts/Revert.sol:Revert",
						"label": "orderList",
						"offset": 0,
						"slot": "0",
						"type": "t_mapping(t_address,t_uint256)"
					},
					{
						"astId": 8,
						"contract": "solidity-study-main/3.tutorial/ex14/contracts/Revert.sol:Revert",
						"label": "minPrice",
						"offset": 0,
						"slot": "1",
						"type": "t_uint256"
					}
				],
				"types": {
					"t_address": {
						"encoding": "inplace",
						"label": "address",
						"numberOfBytes": "20"
					},
					"t_mapping(t_address,t_uint256)": {
						"encoding": "mapping",
						"key": "t_address",
						"label": "mapping(address => uint256)",
						"numberOfBytes": "32",
						"value": "t_uint256"
					},
					"t_uint256": {
						"encoding": "inplace",
						"label": "uint256",
						"numberOfBytes": "32"
					}
				}
			},
			"userdoc": {
				"kind": "user",
				"methods": {},
				"version": 1
			}
		}
	}
}