{
	"solidity-study-main/3.tutorial/ex14/contracts/Fallback.sol": {
		"Fallback": {
			"abi": [
				{
					"inputs": [],
					"stateMutability": "nonpayable",
					"type": "constructor"
				},
				{
					"stateMutability": "payable",
					"type": "fallback"
				},
				{
					"inputs": [],
					"name": "data",
					"outputs": [
						{
							"internalType": "uint256",
							"name": "",
							"type": "uint256"
						}
					],
					"stateMutability": "view",
					"type": "function"
				},
				{
					"inputs": [],
					"name": "order",
					"outputs": [],
					"stateMutability": "payable",
					"type": "function"
				},
				{
					"stateMutability": "payable",
					"type": "receive"
				}
			],
			"devdoc": {
				"kind": "dev",
				"methods": {},
				"version": 1
			},
			"evm": {
				"assembly": "    /* \"solidity-study-main/3.tutorial/ex14/contracts/Fallback.sol\":58:634  contract Fallback{... */\n  mstore(0x40, 0x80)\n    /* \"solidity-study-main/3.tutorial/ex14/contracts/Fallback.sol\":98:99  0 */\n  0x00\n    /* \"solidity-study-main/3.tutorial/ex14/contracts/Fallback.sol\":79:99  uint public data = 0 */\n  dup1\n  sstore\n    /* \"solidity-study-main/3.tutorial/ex14/contracts/Fallback.sol\":104:139  constructor() {... */\n  callvalue\n  dup1\n  iszero\n  tag_1\n  jumpi\n  0x00\n  dup1\n  revert\ntag_1:\n  pop\n    /* \"solidity-study-main/3.tutorial/ex14/contracts/Fallback.sol\":133:134  5 */\n  0x05\n    /* \"solidity-study-main/3.tutorial/ex14/contracts/Fallback.sol\":126:130  data */\n  0x00\n    /* \"solidity-study-main/3.tutorial/ex14/contracts/Fallback.sol\":126:134  data = 5 */\n  dup2\n  swap1\n  sstore\n  pop\n    /* \"solidity-study-main/3.tutorial/ex14/contracts/Fallback.sol\":58:634  contract Fallback{... */\n  dataSize(sub_0)\n  dup1\n  dataOffset(sub_0)\n  0x00\n  codecopy\n  0x00\n  return\nstop\n\nsub_0: assembly {\n        /* \"solidity-study-main/3.tutorial/ex14/contracts/Fallback.sol\":58:634  contract Fallback{... */\n      mstore(0x40, 0x80)\n      jumpi(tag_1, lt(calldatasize, 0x04))\n      shr(0xe0, calldataload(0x00))\n      dup1\n      0x73d4a13a\n      eq\n      tag_3\n      jumpi\n      dup1\n      0xbf15071d\n      eq\n      tag_4\n      jumpi\n      jump(tag_2)\n    tag_1:\n      jumpi(tag_2, calldatasize)\n        /* \"solidity-study-main/3.tutorial/ex14/contracts/Fallback.sol\":619:627  revert() */\n      0x00\n      dup1\n      revert\n        /* \"solidity-study-main/3.tutorial/ex14/contracts/Fallback.sol\":58:634  contract Fallback{... */\n    tag_2:\n        /* \"solidity-study-main/3.tutorial/ex14/contracts/Fallback.sol\":440:448  revert() */\n      0x00\n      dup1\n      revert\n        /* \"solidity-study-main/3.tutorial/ex14/contracts/Fallback.sol\":79:99  uint public data = 0 */\n    tag_3:\n      callvalue\n      dup1\n      iszero\n      tag_9\n      jumpi\n      0x00\n      dup1\n      revert\n    tag_9:\n      pop\n      tag_10\n      tag_11\n      jump\t// in\n    tag_10:\n      mload(0x40)\n      tag_12\n      swap2\n      swap1\n      tag_13\n      jump\t// in\n    tag_12:\n      mload(0x40)\n      dup1\n      swap2\n      sub\n      swap1\n      return\n        /* \"solidity-study-main/3.tutorial/ex14/contracts/Fallback.sol\":142:197  function order() external payable {... */\n    tag_4:\n      tag_14\n      tag_15\n      jump\t// in\n    tag_14:\n      stop\n        /* \"solidity-study-main/3.tutorial/ex14/contracts/Fallback.sol\":79:99  uint public data = 0 */\n    tag_11:\n      sload(0x00)\n      dup2\n      jump\t// out\n        /* \"solidity-study-main/3.tutorial/ex14/contracts/Fallback.sol\":142:197  function order() external payable {... */\n    tag_15:\n        /* \"solidity-study-main/3.tutorial/ex14/contracts/Fallback.sol\":191:192  9 */\n      0x09\n        /* \"solidity-study-main/3.tutorial/ex14/contracts/Fallback.sol\":184:188  data */\n      0x00\n        /* \"solidity-study-main/3.tutorial/ex14/contracts/Fallback.sol\":184:192  data = 9 */\n      dup2\n      swap1\n      sstore\n      pop\n        /* \"solidity-study-main/3.tutorial/ex14/contracts/Fallback.sol\":142:197  function order() external payable {... */\n      jump\t// out\n        /* \"#utility.yul\":7:84   */\n    tag_17:\n        /* \"#utility.yul\":44:51   */\n      0x00\n        /* \"#utility.yul\":73:78   */\n      dup2\n        /* \"#utility.yul\":62:78   */\n      swap1\n      pop\n        /* \"#utility.yul\":7:84   */\n      swap2\n      swap1\n      pop\n      jump\t// out\n        /* \"#utility.yul\":90:208   */\n    tag_18:\n        /* \"#utility.yul\":177:201   */\n      tag_22\n        /* \"#utility.yul\":195:200   */\n      dup2\n        /* \"#utility.yul\":177:201   */\n      tag_17\n      jump\t// in\n    tag_22:\n        /* \"#utility.yul\":172:175   */\n      dup3\n        /* \"#utility.yul\":165:202   */\n      mstore\n        /* \"#utility.yul\":90:208   */\n      pop\n      pop\n      jump\t// out\n        /* \"#utility.yul\":214:436   */\n    tag_13:\n        /* \"#utility.yul\":307:311   */\n      0x00\n        /* \"#utility.yul\":345:347   */\n      0x20\n        /* \"#utility.yul\":334:343   */\n      dup3\n        /* \"#utility.yul\":330:348   */\n      add\n        /* \"#utility.yul\":322:348   */\n      swap1\n      pop\n        /* \"#utility.yul\":358:429   */\n      tag_24\n        /* \"#utility.yul\":426:427   */\n      0x00\n        /* \"#utility.yul\":415:424   */\n      dup4\n        /* \"#utility.yul\":411:428   */\n      add\n        /* \"#utility.yul\":402:408   */\n      dup5\n        /* \"#utility.yul\":358:429   */\n      tag_18\n      jump\t// in\n    tag_24:\n        /* \"#utility.yul\":214:436   */\n      swap3\n      swap2\n      pop\n      pop\n      jump\t// out\n\n    auxdata: 0xa2646970667358221220fd02e5bb13d2053c891f9207ae48d78135cdd66fc5cd2d9430377f690802a94764736f6c63430008120033\n}\n",
				"bytecode": {
					"linkReferences": {},
					"object": "60806040526000805534801561001457600080fd5b50600560008190555060db8061002b6000396000f3fe60806040526004361060295760003560e01c806373d4a13a146037578063bf15071d14605d576032565b36603257600080fd5b600080fd5b348015604257600080fd5b5060496065565b60405160549190608c565b60405180910390f35b6063606b565b005b60005481565b6009600081905550565b6000819050919050565b6086816075565b82525050565b6000602082019050609f6000830184607f565b9291505056fea2646970667358221220fd02e5bb13d2053c891f9207ae48d78135cdd66fc5cd2d9430377f690802a94764736f6c63430008120033",
					"opcodes": "PUSH1 0x80 PUSH1 0x40 MSTORE PUSH1 0x0 DUP1 SSTORE CALLVALUE DUP1 ISZERO PUSH2 0x14 JUMPI PUSH1 0x0 DUP1 REVERT JUMPDEST POP PUSH1 0x5 PUSH1 0x0 DUP2 SWAP1 SSTORE POP PUSH1 0xDB DUP1 PUSH2 0x2B PUSH1 0x0 CODECOPY PUSH1 0x0 RETURN INVALID PUSH1 0x80 PUSH1 0x40 MSTORE PUSH1 0x4 CALLDATASIZE LT PUSH1 0x29 JUMPI PUSH1 0x0 CALLDATALOAD PUSH1 0xE0 SHR DUP1 PUSH4 0x73D4A13A EQ PUSH1 0x37 JUMPI DUP1 PUSH4 0xBF15071D EQ PUSH1 0x5D JUMPI PUSH1 0x32 JUMP JUMPDEST CALLDATASIZE PUSH1 0x32 JUMPI PUSH1 0x0 DUP1 REVERT JUMPDEST PUSH1 0x0 DUP1 REVERT JUMPDEST CALLVALUE DUP1 ISZERO PUSH1 0x42 JUMPI PUSH1 0x0 DUP1 REVERT JUMPDEST POP PUSH1 0x49 PUSH1 0x65 JUMP JUMPDEST PUSH1 0x40 MLOAD PUSH1 0x54 SWAP2 SWAP1 PUSH1 0x8C JUMP JUMPDEST PUSH1 0x40 MLOAD DUP1 SWAP2 SUB SWAP1 RETURN JUMPDEST PUSH1 0x63 PUSH1 0x6B JUMP JUMPDEST STOP JUMPDEST PUSH1 0x0 SLOAD DUP2 JUMP JUMPDEST PUSH1 0x9 PUSH1 0x0 DUP2 SWAP1 SSTORE POP JUMP JUMPDEST PUSH1 0x0 DUP2 SWAP1 POP SWAP2 SWAP1 POP JUMP JUMPDEST PUSH1 0x86 DUP2 PUSH1 0x75 JUMP JUMPDEST DUP3 MSTORE POP POP JUMP JUMPDEST PUSH1 0x0 PUSH1 0x20 DUP3 ADD SWAP1 POP PUSH1 0x9F PUSH1 0x0 DUP4 ADD DUP5 PUSH1 0x7F JUMP JUMPDEST SWAP3 SWAP2 POP POP JUMP INVALID LOG2 PUSH5 0x6970667358 0x22 SLT KECCAK256 REVERT MUL 0xE5 0xBB SGT 0xD2 SDIV EXTCODECOPY DUP10 0x1F SWAP3 SMOD 0xAE BASEFEE 0xD7 DUP2 CALLDATALOAD 0xCD 0xD6 PUSH16 0xC5CD2D9430377F690802A94764736F6C PUSH4 0x43000812 STOP CALLER "
				},
				"gasEstimates": {
					"creation": {
						"codeDepositCost": "43800",
						"executionCost": "27213",
						"totalCost": "71013"
					},
					"external": {
						"": "113",
						"data()": "2407",
						"order()": "22234"
					}
				},
				"methodIdentifiers": {
					"data()": "73d4a13a",
					"order()": "bf15071d"
				}
			},
			"storageLayout": {
				"storage": [
					{
						"astId": 4,
						"contract": "solidity-study-main/3.tutorial/ex14/contracts/Fallback.sol:Fallback",
						"label": "data",
						"offset": 0,
						"slot": "0",
						"type": "t_uint256"
					}
				],
				"types": {
					"t_uint256": {
						"encoding": "inplace",
						"label": "uint256",
						"numberOfBytes": "32"
					}
				}
			},
			"userdoc": {
				"kind": "user",
				"methods": {},
				"version": 1
			}
		}
	}
}