{
	"solidity-study-main/3.tutorial/ex14/contracts/TryCatch.sol": {
		"TryCatch": {
			"abi": [
				{
					"inputs": [],
					"name": "callOtherContract",
					"outputs": [],
					"stateMutability": "nonpayable",
					"type": "function"
				},
				{
					"inputs": [],
					"name": "receiveEth",
					"outputs": [],
					"stateMutability": "payable",
					"type": "function"
				}
			],
			"devdoc": {
				"kind": "dev",
				"methods": {},
				"version": 1
			},
			"evm": {
				"assembly": "    /* \"solidity-study-main/3.tutorial/ex14/contracts/TryCatch.sol\":364:708  contract TryCatch{... */\n  mstore(0x40, 0x80)\n    /* \"solidity-study-main/3.tutorial/ex14/contracts/TryCatch.sol\":397:407  new Math() */\n  mload(0x40)\n  tag_1\n  swap1\n  tag_2\n  jump\t// in\ntag_1:\n  mload(0x40)\n  dup1\n  swap2\n  sub\n  swap1\n  0x00\n  create\n  dup1\n  iszero\n  dup1\n  iszero\n  tag_3\n  jumpi\n  returndatasize\n  0x00\n  dup1\n  returndatacopy\n  revert(0x00, returndatasize)\ntag_3:\n  pop\n    /* \"solidity-study-main/3.tutorial/ex14/contracts/TryCatch.sol\":385:407  Math math = new Math() */\n  0x00\n  dup1\n  0x0100\n  exp\n  dup2\n  sload\n  dup2\n  0xffffffffffffffffffffffffffffffffffffffff\n  mul\n  not\n  and\n  swap1\n  dup4\n  0xffffffffffffffffffffffffffffffffffffffff\n  and\n  mul\n  or\n  swap1\n  sstore\n  pop\n    /* \"solidity-study-main/3.tutorial/ex14/contracts/TryCatch.sol\":447:489  0xAb8483F64d9C6d1EcF9b849Ae677dD3315835cb2 */\n  0xab8483f64d9c6d1ecf9b849ae677dd3315835cb2\n    /* \"solidity-study-main/3.tutorial/ex14/contracts/TryCatch.sol\":411:490  address payable tmp_address=payable(0xAb8483F64d9C6d1EcF9b849Ae677dD3315835cb2) */\n  0x01\n  exp(0x0100, 0x00)\n  dup2\n  sload\n  dup2\n  0xffffffffffffffffffffffffffffffffffffffff\n  mul\n  not\n  and\n  swap1\n  dup4\n  0xffffffffffffffffffffffffffffffffffffffff\n  and\n  mul\n  or\n  swap1\n  sstore\n  pop\n    /* \"solidity-study-main/3.tutorial/ex14/contracts/TryCatch.sol\":364:708  contract TryCatch{... */\n  callvalue\n  dup1\n  iszero\n  tag_4\n  jumpi\n  0x00\n  dup1\n  revert\ntag_4:\n  pop\n  jump(tag_5)\ntag_2:\n  dataSize(sub_1)\n  dup1\n  dataOffset(sub_1)\n  dup4\n  codecopy\n  add\n  swap1\n  jump\t// out\ntag_5:\n  dataSize(sub_0)\n  dup1\n  dataOffset(sub_0)\n  0x00\n  codecopy\n  0x00\n  return\nstop\n\nsub_0: assembly {\n        /* \"solidity-study-main/3.tutorial/ex14/contracts/TryCatch.sol\":364:708  contract TryCatch{... */\n      mstore(0x40, 0x80)\n      jumpi(tag_1, lt(calldatasize, 0x04))\n      shr(0xe0, calldataload(0x00))\n      dup1\n      0x4185f8eb\n      eq\n      tag_2\n      jumpi\n      dup1\n      0xbf9497bc\n      eq\n      tag_3\n      jumpi\n    tag_1:\n      0x00\n      dup1\n      revert\n        /* \"solidity-study-main/3.tutorial/ex14/contracts/TryCatch.sol\":663:706  function receiveEth() public payable {... */\n    tag_2:\n      tag_4\n      tag_5\n      jump\t// in\n    tag_4:\n      stop\n        /* \"solidity-study-main/3.tutorial/ex14/contracts/TryCatch.sol\":494:659  function callOtherContract() external {... */\n    tag_3:\n      callvalue\n      dup1\n      iszero\n      tag_6\n      jumpi\n      0x00\n      dup1\n      revert\n    tag_6:\n      pop\n      tag_7\n      tag_8\n      jump\t// in\n    tag_7:\n      stop\n        /* \"solidity-study-main/3.tutorial/ex14/contracts/TryCatch.sol\":663:706  function receiveEth() public payable {... */\n    tag_5:\n      jump\t// out\n        /* \"solidity-study-main/3.tutorial/ex14/contracts/TryCatch.sol\":494:659  function callOtherContract() external {... */\n    tag_8:\n        /* \"solidity-study-main/3.tutorial/ex14/contracts/TryCatch.sol\":542:546  math */\n      0x00\n      dup1\n      sload\n      swap1\n      0x0100\n      exp\n      swap1\n      div\n      0xffffffffffffffffffffffffffffffffffffffff\n      and\n        /* \"solidity-study-main/3.tutorial/ex14/contracts/TryCatch.sol\":542:555  math.plusData */\n      0xffffffffffffffffffffffffffffffffffffffff\n      and\n      0x69280dd1\n        /* \"solidity-study-main/3.tutorial/ex14/contracts/TryCatch.sol\":556:557  6 */\n      0x06\n        /* \"solidity-study-main/3.tutorial/ex14/contracts/TryCatch.sol\":558:559  4 */\n      0x04\n        /* \"solidity-study-main/3.tutorial/ex14/contracts/TryCatch.sol\":542:560  math.plusData(6,4) */\n      mload(0x40)\n      dup4\n      0xffffffff\n      and\n      0xe0\n      shl\n      dup2\n      mstore\n      0x04\n      add\n      tag_11\n      swap3\n      swap2\n      swap1\n      tag_12\n      jump\t// in\n    tag_11:\n      0x20\n      mload(0x40)\n      dup1\n      dup4\n      sub\n      dup2\n      dup7\n      gas\n      staticcall\n      swap3\n      pop\n      pop\n      pop\n      dup1\n      iszero\n      tag_13\n      jumpi\n      pop\n      mload(0x40)\n      returndatasize\n      not(0x1f)\n      0x1f\n      dup3\n      add\n      and\n      dup3\n      add\n      dup1\n      0x40\n      mstore\n      pop\n      dup2\n      add\n      swap1\n      tag_14\n      swap2\n      swap1\n      tag_15\n      jump\t// in\n    tag_14:\n      0x01\n    tag_13:\n        /* \"solidity-study-main/3.tutorial/ex14/contracts/TryCatch.sol\":538:655  try math.plusData(6,4) returns(uint result) {... */\n      tag_16\n      jumpi\n        /* \"solidity-study-main/3.tutorial/ex14/contracts/TryCatch.sol\":640:648  revert() */\n      0x00\n      dup1\n      revert\n        /* \"solidity-study-main/3.tutorial/ex14/contracts/TryCatch.sol\":538:655  try math.plusData(6,4) returns(uint result) {... */\n    tag_16:\n        /* \"solidity-study-main/3.tutorial/ex14/contracts/TryCatch.sol\":591:602  tmp_address */\n      0x01\n      0x00\n      swap1\n      sload\n      swap1\n      0x0100\n      exp\n      swap1\n      div\n      0xffffffffffffffffffffffffffffffffffffffff\n      and\n        /* \"solidity-study-main/3.tutorial/ex14/contracts/TryCatch.sol\":590:612  (tmp_address).transfer */\n      0xffffffffffffffffffffffffffffffffffffffff\n      and\n        /* \"solidity-study-main/3.tutorial/ex14/contracts/TryCatch.sol\":590:620  (tmp_address).transfer(result) */\n      0x08fc\n        /* \"solidity-study-main/3.tutorial/ex14/contracts/TryCatch.sol\":613:619  result */\n      dup3\n        /* \"solidity-study-main/3.tutorial/ex14/contracts/TryCatch.sol\":590:620  (tmp_address).transfer(result) */\n      swap1\n      dup2\n      iszero\n      mul\n      swap1\n      mload(0x40)\n      0x00\n      mload(0x40)\n      dup1\n      dup4\n      sub\n      dup2\n      dup6\n      dup9\n      dup9\n      call\n      swap4\n      pop\n      pop\n      pop\n      pop\n      iszero\n      dup1\n      iszero\n      tag_22\n      jumpi\n      returndatasize\n      0x00\n      dup1\n      returndatacopy\n      revert(0x00, returndatasize)\n    tag_22:\n      pop\n        /* \"solidity-study-main/3.tutorial/ex14/contracts/TryCatch.sol\":561:627  returns(uint result) {... */\n      pop\n        /* \"solidity-study-main/3.tutorial/ex14/contracts/TryCatch.sol\":494:659  function callOtherContract() external {... */\n      jump\t// out\n        /* \"#utility.yul\":7:92   */\n    tag_23:\n        /* \"#utility.yul\":52:59   */\n      0x00\n        /* \"#utility.yul\":81:86   */\n      dup2\n        /* \"#utility.yul\":70:86   */\n      swap1\n      pop\n        /* \"#utility.yul\":7:92   */\n      swap2\n      swap1\n      pop\n      jump\t// out\n        /* \"#utility.yul\":98:175   */\n    tag_24:\n        /* \"#utility.yul\":135:142   */\n      0x00\n        /* \"#utility.yul\":164:169   */\n      dup2\n        /* \"#utility.yul\":153:169   */\n      swap1\n      pop\n        /* \"#utility.yul\":98:175   */\n      swap2\n      swap1\n      pop\n      jump\t// out\n        /* \"#utility.yul\":181:241   */\n    tag_25:\n        /* \"#utility.yul\":209:212   */\n      0x00\n        /* \"#utility.yul\":230:235   */\n      dup2\n        /* \"#utility.yul\":223:235   */\n      swap1\n      pop\n        /* \"#utility.yul\":181:241   */\n      swap2\n      swap1\n      pop\n      jump\t// out\n        /* \"#utility.yul\":247:405   */\n    tag_26:\n        /* \"#utility.yul\":305:314   */\n      0x00\n        /* \"#utility.yul\":338:399   */\n      tag_41\n        /* \"#utility.yul\":356:398   */\n      tag_42\n        /* \"#utility.yul\":365:397   */\n      tag_43\n        /* \"#utility.yul\":391:396   */\n      dup5\n        /* \"#utility.yul\":365:397   */\n      tag_23\n      jump\t// in\n    tag_43:\n        /* \"#utility.yul\":356:398   */\n      tag_25\n      jump\t// in\n    tag_42:\n        /* \"#utility.yul\":338:399   */\n      tag_24\n      jump\t// in\n    tag_41:\n        /* \"#utility.yul\":325:399   */\n      swap1\n      pop\n        /* \"#utility.yul\":247:405   */\n      swap2\n      swap1\n      pop\n      jump\t// out\n        /* \"#utility.yul\":411:558   */\n    tag_27:\n        /* \"#utility.yul\":506:551   */\n      tag_45\n        /* \"#utility.yul\":545:550   */\n      dup2\n        /* \"#utility.yul\":506:551   */\n      tag_26\n      jump\t// in\n    tag_45:\n        /* \"#utility.yul\":501:504   */\n      dup3\n        /* \"#utility.yul\":494:552   */\n      mstore\n        /* \"#utility.yul\":411:558   */\n      pop\n      pop\n      jump\t// out\n        /* \"#utility.yul\":564:649   */\n    tag_28:\n        /* \"#utility.yul\":609:616   */\n      0x00\n        /* \"#utility.yul\":638:643   */\n      dup2\n        /* \"#utility.yul\":627:643   */\n      swap1\n      pop\n        /* \"#utility.yul\":564:649   */\n      swap2\n      swap1\n      pop\n      jump\t// out\n        /* \"#utility.yul\":655:813   */\n    tag_29:\n        /* \"#utility.yul\":713:722   */\n      0x00\n        /* \"#utility.yul\":746:807   */\n      tag_48\n        /* \"#utility.yul\":764:806   */\n      tag_49\n        /* \"#utility.yul\":773:805   */\n      tag_50\n        /* \"#utility.yul\":799:804   */\n      dup5\n        /* \"#utility.yul\":773:805   */\n      tag_28\n      jump\t// in\n    tag_50:\n        /* \"#utility.yul\":764:806   */\n      tag_25\n      jump\t// in\n    tag_49:\n        /* \"#utility.yul\":746:807   */\n      tag_24\n      jump\t// in\n    tag_48:\n        /* \"#utility.yul\":733:807   */\n      swap1\n      pop\n        /* \"#utility.yul\":655:813   */\n      swap2\n      swap1\n      pop\n      jump\t// out\n        /* \"#utility.yul\":819:966   */\n    tag_30:\n        /* \"#utility.yul\":914:959   */\n      tag_52\n        /* \"#utility.yul\":953:958   */\n      dup2\n        /* \"#utility.yul\":914:959   */\n      tag_29\n      jump\t// in\n    tag_52:\n        /* \"#utility.yul\":909:912   */\n      dup3\n        /* \"#utility.yul\":902:960   */\n      mstore\n        /* \"#utility.yul\":819:966   */\n      pop\n      pop\n      jump\t// out\n        /* \"#utility.yul\":972:1336   */\n    tag_12:\n        /* \"#utility.yul\":1109:1113   */\n      0x00\n        /* \"#utility.yul\":1147:1149   */\n      0x40\n        /* \"#utility.yul\":1136:1145   */\n      dup3\n        /* \"#utility.yul\":1132:1150   */\n      add\n        /* \"#utility.yul\":1124:1150   */\n      swap1\n      pop\n        /* \"#utility.yul\":1160:1239   */\n      tag_54\n        /* \"#utility.yul\":1236:1237   */\n      0x00\n        /* \"#utility.yul\":1225:1234   */\n      dup4\n        /* \"#utility.yul\":1221:1238   */\n      add\n        /* \"#utility.yul\":1212:1218   */\n      dup6\n        /* \"#utility.yul\":1160:1239   */\n      tag_27\n      jump\t// in\n    tag_54:\n        /* \"#utility.yul\":1249:1329   */\n      tag_55\n        /* \"#utility.yul\":1325:1327   */\n      0x20\n        /* \"#utility.yul\":1314:1323   */\n      dup4\n        /* \"#utility.yul\":1310:1328   */\n      add\n        /* \"#utility.yul\":1301:1307   */\n      dup5\n        /* \"#utility.yul\":1249:1329   */\n      tag_30\n      jump\t// in\n    tag_55:\n        /* \"#utility.yul\":972:1336   */\n      swap4\n      swap3\n      pop\n      pop\n      pop\n      jump\t// out\n        /* \"#utility.yul\":1423:1540   */\n    tag_32:\n        /* \"#utility.yul\":1532:1533   */\n      0x00\n        /* \"#utility.yul\":1529:1530   */\n      dup1\n        /* \"#utility.yul\":1522:1534   */\n      revert\n        /* \"#utility.yul\":1669:1791   */\n    tag_34:\n        /* \"#utility.yul\":1742:1766   */\n      tag_60\n        /* \"#utility.yul\":1760:1765   */\n      dup2\n        /* \"#utility.yul\":1742:1766   */\n      tag_24\n      jump\t// in\n    tag_60:\n        /* \"#utility.yul\":1735:1740   */\n      dup2\n        /* \"#utility.yul\":1732:1767   */\n      eq\n        /* \"#utility.yul\":1722:1785   */\n      tag_61\n      jumpi\n        /* \"#utility.yul\":1781:1782   */\n      0x00\n        /* \"#utility.yul\":1778:1779   */\n      dup1\n        /* \"#utility.yul\":1771:1783   */\n      revert\n        /* \"#utility.yul\":1722:1785   */\n    tag_61:\n        /* \"#utility.yul\":1669:1791   */\n      pop\n      jump\t// out\n        /* \"#utility.yul\":1797:1940   */\n    tag_35:\n        /* \"#utility.yul\":1854:1859   */\n      0x00\n        /* \"#utility.yul\":1885:1891   */\n      dup2\n        /* \"#utility.yul\":1879:1892   */\n      mload\n        /* \"#utility.yul\":1870:1892   */\n      swap1\n      pop\n        /* \"#utility.yul\":1901:1934   */\n      tag_63\n        /* \"#utility.yul\":1928:1933   */\n      dup2\n        /* \"#utility.yul\":1901:1934   */\n      tag_34\n      jump\t// in\n    tag_63:\n        /* \"#utility.yul\":1797:1940   */\n      swap3\n      swap2\n      pop\n      pop\n      jump\t// out\n        /* \"#utility.yul\":1946:2297   */\n    tag_15:\n        /* \"#utility.yul\":2016:2022   */\n      0x00\n        /* \"#utility.yul\":2065:2067   */\n      0x20\n        /* \"#utility.yul\":2053:2062   */\n      dup3\n        /* \"#utility.yul\":2044:2051   */\n      dup5\n        /* \"#utility.yul\":2040:2063   */\n      sub\n        /* \"#utility.yul\":2036:2068   */\n      slt\n        /* \"#utility.yul\":2033:2152   */\n      iszero\n      tag_65\n      jumpi\n        /* \"#utility.yul\":2071:2150   */\n      tag_66\n      tag_32\n      jump\t// in\n    tag_66:\n        /* \"#utility.yul\":2033:2152   */\n    tag_65:\n        /* \"#utility.yul\":2191:2192   */\n      0x00\n        /* \"#utility.yul\":2216:2280   */\n      tag_67\n        /* \"#utility.yul\":2272:2279   */\n      dup5\n        /* \"#utility.yul\":2263:2269   */\n      dup3\n        /* \"#utility.yul\":2252:2261   */\n      dup6\n        /* \"#utility.yul\":2248:2270   */\n      add\n        /* \"#utility.yul\":2216:2280   */\n      tag_35\n      jump\t// in\n    tag_67:\n        /* \"#utility.yul\":2206:2280   */\n      swap2\n      pop\n        /* \"#utility.yul\":2162:2290   */\n      pop\n        /* \"#utility.yul\":1946:2297   */\n      swap3\n      swap2\n      pop\n      pop\n      jump\t// out\n\n    auxdata: 0xa264697066735822122026b09dfa81aeaf4f2727d9f2a5e1727217e3ca537b3bc6bf4aaade73f039880064736f6c63430008120033\n}\n\nsub_1: assembly {\n        /* \"solidity-study-main/3.tutorial/ex14/contracts/TryCatch.sol\":164:268  contract Math{... */\n      mstore(0x40, 0x80)\n      callvalue\n      dup1\n      iszero\n      tag_1\n      jumpi\n      0x00\n      dup1\n      revert\n    tag_1:\n      pop\n      dataSize(sub_0)\n      dup1\n      dataOffset(sub_0)\n      0x00\n      codecopy\n      0x00\n      return\n    stop\n\n    sub_0: assembly {\n            /* \"solidity-study-main/3.tutorial/ex14/contracts/TryCatch.sol\":164:268  contract Math{... */\n          mstore(0x40, 0x80)\n          callvalue\n          dup1\n          iszero\n          tag_1\n          jumpi\n          0x00\n          dup1\n          revert\n        tag_1:\n          pop\n          jumpi(tag_2, lt(calldatasize, 0x04))\n          shr(0xe0, calldataload(0x00))\n          dup1\n          0x69280dd1\n          eq\n          tag_3\n          jumpi\n        tag_2:\n          0x00\n          dup1\n          revert\n            /* \"solidity-study-main/3.tutorial/ex14/contracts/TryCatch.sol\":181:266  function plusData(uint a, uint b) external pure returns(uint) {... */\n        tag_3:\n          tag_4\n          0x04\n          dup1\n          calldatasize\n          sub\n          dup2\n          add\n          swap1\n          tag_5\n          swap2\n          swap1\n          tag_6\n          jump\t// in\n        tag_5:\n          tag_7\n          jump\t// in\n        tag_4:\n          mload(0x40)\n          tag_8\n          swap2\n          swap1\n          tag_9\n          jump\t// in\n        tag_8:\n          mload(0x40)\n          dup1\n          swap2\n          sub\n          swap1\n          return\n        tag_7:\n            /* \"solidity-study-main/3.tutorial/ex14/contracts/TryCatch.sol\":237:241  uint */\n          0x00\n            /* \"solidity-study-main/3.tutorial/ex14/contracts/TryCatch.sol\":260:261  b */\n          dup2\n            /* \"solidity-study-main/3.tutorial/ex14/contracts/TryCatch.sol\":256:257  a */\n          dup4\n            /* \"solidity-study-main/3.tutorial/ex14/contracts/TryCatch.sol\":256:261  a + b */\n          tag_11\n          swap2\n          swap1\n          tag_12\n          jump\t// in\n        tag_11:\n            /* \"solidity-study-main/3.tutorial/ex14/contracts/TryCatch.sol\":249:261  return a + b */\n          swap1\n          pop\n            /* \"solidity-study-main/3.tutorial/ex14/contracts/TryCatch.sol\":181:266  function plusData(uint a, uint b) external pure returns(uint) {... */\n          swap3\n          swap2\n          pop\n          pop\n          jump\t// out\n            /* \"#utility.yul\":88:205   */\n        tag_14:\n            /* \"#utility.yul\":197:198   */\n          0x00\n            /* \"#utility.yul\":194:195   */\n          dup1\n            /* \"#utility.yul\":187:199   */\n          revert\n            /* \"#utility.yul\":334:411   */\n        tag_16:\n            /* \"#utility.yul\":371:378   */\n          0x00\n            /* \"#utility.yul\":400:405   */\n          dup2\n            /* \"#utility.yul\":389:405   */\n          swap1\n          pop\n            /* \"#utility.yul\":334:411   */\n          swap2\n          swap1\n          pop\n          jump\t// out\n            /* \"#utility.yul\":417:539   */\n        tag_17:\n            /* \"#utility.yul\":490:514   */\n          tag_27\n            /* \"#utility.yul\":508:513   */\n          dup2\n            /* \"#utility.yul\":490:514   */\n          tag_16\n          jump\t// in\n        tag_27:\n            /* \"#utility.yul\":483:488   */\n          dup2\n            /* \"#utility.yul\":480:515   */\n          eq\n            /* \"#utility.yul\":470:533   */\n          tag_28\n          jumpi\n            /* \"#utility.yul\":529:530   */\n          0x00\n            /* \"#utility.yul\":526:527   */\n          dup1\n            /* \"#utility.yul\":519:531   */\n          revert\n            /* \"#utility.yul\":470:533   */\n        tag_28:\n            /* \"#utility.yul\":417:539   */\n          pop\n          jump\t// out\n            /* \"#utility.yul\":545:684   */\n        tag_18:\n            /* \"#utility.yul\":591:596   */\n          0x00\n            /* \"#utility.yul\":629:635   */\n          dup2\n            /* \"#utility.yul\":616:636   */\n          calldataload\n            /* \"#utility.yul\":607:636   */\n          swap1\n          pop\n            /* \"#utility.yul\":645:678   */\n          tag_30\n            /* \"#utility.yul\":672:677   */\n          dup2\n            /* \"#utility.yul\":645:678   */\n          tag_17\n          jump\t// in\n        tag_30:\n            /* \"#utility.yul\":545:684   */\n          swap3\n          swap2\n          pop\n          pop\n          jump\t// out\n            /* \"#utility.yul\":690:1164   */\n        tag_6:\n            /* \"#utility.yul\":758:764   */\n          0x00\n            /* \"#utility.yul\":766:772   */\n          dup1\n            /* \"#utility.yul\":815:817   */\n          0x40\n            /* \"#utility.yul\":803:812   */\n          dup4\n            /* \"#utility.yul\":794:801   */\n          dup6\n            /* \"#utility.yul\":790:813   */\n          sub\n            /* \"#utility.yul\":786:818   */\n          slt\n            /* \"#utility.yul\":783:902   */\n          iszero\n          tag_32\n          jumpi\n            /* \"#utility.yul\":821:900   */\n          tag_33\n          tag_14\n          jump\t// in\n        tag_33:\n            /* \"#utility.yul\":783:902   */\n        tag_32:\n            /* \"#utility.yul\":941:942   */\n          0x00\n            /* \"#utility.yul\":966:1019   */\n          tag_34\n            /* \"#utility.yul\":1011:1018   */\n          dup6\n            /* \"#utility.yul\":1002:1008   */\n          dup3\n            /* \"#utility.yul\":991:1000   */\n          dup7\n            /* \"#utility.yul\":987:1009   */\n          add\n            /* \"#utility.yul\":966:1019   */\n          tag_18\n          jump\t// in\n        tag_34:\n            /* \"#utility.yul\":956:1019   */\n          swap3\n          pop\n            /* \"#utility.yul\":912:1029   */\n          pop\n            /* \"#utility.yul\":1068:1070   */\n          0x20\n            /* \"#utility.yul\":1094:1147   */\n          tag_35\n            /* \"#utility.yul\":1139:1146   */\n          dup6\n            /* \"#utility.yul\":1130:1136   */\n          dup3\n            /* \"#utility.yul\":1119:1128   */\n          dup7\n            /* \"#utility.yul\":1115:1137   */\n          add\n            /* \"#utility.yul\":1094:1147   */\n          tag_18\n          jump\t// in\n        tag_35:\n            /* \"#utility.yul\":1084:1147   */\n          swap2\n          pop\n            /* \"#utility.yul\":1039:1157   */\n          pop\n            /* \"#utility.yul\":690:1164   */\n          swap3\n          pop\n          swap3\n          swap1\n          pop\n          jump\t// out\n            /* \"#utility.yul\":1170:1288   */\n        tag_19:\n            /* \"#utility.yul\":1257:1281   */\n          tag_37\n            /* \"#utility.yul\":1275:1280   */\n          dup2\n            /* \"#utility.yul\":1257:1281   */\n          tag_16\n          jump\t// in\n        tag_37:\n            /* \"#utility.yul\":1252:1255   */\n          dup3\n            /* \"#utility.yul\":1245:1282   */\n          mstore\n            /* \"#utility.yul\":1170:1288   */\n          pop\n          pop\n          jump\t// out\n            /* \"#utility.yul\":1294:1516   */\n        tag_9:\n            /* \"#utility.yul\":1387:1391   */\n          0x00\n            /* \"#utility.yul\":1425:1427   */\n          0x20\n            /* \"#utility.yul\":1414:1423   */\n          dup3\n            /* \"#utility.yul\":1410:1428   */\n          add\n            /* \"#utility.yul\":1402:1428   */\n          swap1\n          pop\n            /* \"#utility.yul\":1438:1509   */\n          tag_39\n            /* \"#utility.yul\":1506:1507   */\n          0x00\n            /* \"#utility.yul\":1495:1504   */\n          dup4\n            /* \"#utility.yul\":1491:1508   */\n          add\n            /* \"#utility.yul\":1482:1488   */\n          dup5\n            /* \"#utility.yul\":1438:1509   */\n          tag_19\n          jump\t// in\n        tag_39:\n            /* \"#utility.yul\":1294:1516   */\n          swap3\n          swap2\n          pop\n          pop\n          jump\t// out\n            /* \"#utility.yul\":1522:1702   */\n        tag_20:\n            /* \"#utility.yul\":1570:1647   */\n          0x4e487b7100000000000000000000000000000000000000000000000000000000\n            /* \"#utility.yul\":1567:1568   */\n          0x00\n            /* \"#utility.yul\":1560:1648   */\n          mstore\n            /* \"#utility.yul\":1667:1671   */\n          0x11\n            /* \"#utility.yul\":1664:1665   */\n          0x04\n            /* \"#utility.yul\":1657:1672   */\n          mstore\n            /* \"#utility.yul\":1691:1695   */\n          0x24\n            /* \"#utility.yul\":1688:1689   */\n          0x00\n            /* \"#utility.yul\":1681:1696   */\n          revert\n            /* \"#utility.yul\":1708:1899   */\n        tag_12:\n            /* \"#utility.yul\":1748:1751   */\n          0x00\n            /* \"#utility.yul\":1767:1787   */\n          tag_42\n            /* \"#utility.yul\":1785:1786   */\n          dup3\n            /* \"#utility.yul\":1767:1787   */\n          tag_16\n          jump\t// in\n        tag_42:\n            /* \"#utility.yul\":1762:1787   */\n          swap2\n          pop\n            /* \"#utility.yul\":1801:1821   */\n          tag_43\n            /* \"#utility.yul\":1819:1820   */\n          dup4\n            /* \"#utility.yul\":1801:1821   */\n          tag_16\n          jump\t// in\n        tag_43:\n            /* \"#utility.yul\":1796:1821   */\n          swap3\n          pop\n            /* \"#utility.yul\":1844:1845   */\n          dup3\n            /* \"#utility.yul\":1841:1842   */\n          dup3\n            /* \"#utility.yul\":1837:1846   */\n          add\n            /* \"#utility.yul\":1830:1846   */\n          swap1\n          pop\n            /* \"#utility.yul\":1865:1868   */\n          dup1\n            /* \"#utility.yul\":1862:1863   */\n          dup3\n            /* \"#utility.yul\":1859:1869   */\n          gt\n            /* \"#utility.yul\":1856:1892   */\n          iszero\n          tag_44\n          jumpi\n            /* \"#utility.yul\":1872:1890   */\n          tag_45\n          tag_20\n          jump\t// in\n        tag_45:\n            /* \"#utility.yul\":1856:1892   */\n        tag_44:\n            /* \"#utility.yul\":1708:1899   */\n          swap3\n          swap2\n          pop\n          pop\n          jump\t// out\n\n        auxdata: 0xa2646970667358221220f10fbc971c5a9aa40028a89df69bdc2cff5aea6021bc1c738bab4e1d9bab868e64736f6c63430008120033\n    }\n}\n",
				"bytecode": {
					"linkReferences": {},
					"object": "6080604052604051610010906100d3565b604051809103906000f08015801561002c573d6000803e3d6000fd5b506000806101000a81548173ffffffffffffffffffffffffffffffffffffffff021916908373ffffffffffffffffffffffffffffffffffffffff16021790555073ab8483f64d9c6d1ecf9b849ae677dd3315835cb2600160006101000a81548173ffffffffffffffffffffffffffffffffffffffff021916908373ffffffffffffffffffffffffffffffffffffffff1602179055503480156100cd57600080fd5b506100e0565b6101d48061039383390190565b6102a4806100ef6000396000f3fe6080604052600436106100295760003560e01c80634185f8eb1461002e578063bf9497bc14610038575b600080fd5b61003661004f565b005b34801561004457600080fd5b5061004d610051565b005b565b60008054906101000a900473ffffffffffffffffffffffffffffffffffffffff1673ffffffffffffffffffffffffffffffffffffffff166369280dd1600660046040518363ffffffff1660e01b81526004016100ae9291906101e7565b602060405180830381865afa9250505080156100e857506040513d601f19601f820116820180604052508101906100e59190610241565b60015b6100f157600080fd5b600160009054906101000a900473ffffffffffffffffffffffffffffffffffffffff1673ffffffffffffffffffffffffffffffffffffffff166108fc829081150290604051600060405180830381858888f19350505050158015610159573d6000803e3d6000fd5b5050565b6000819050919050565b6000819050919050565b6000819050919050565b600061019661019161018c8461015d565b610171565b610167565b9050919050565b6101a68161017b565b82525050565b6000819050919050565b60006101d16101cc6101c7846101ac565b610171565b610167565b9050919050565b6101e1816101b6565b82525050565b60006040820190506101fc600083018561019d565b61020960208301846101d8565b9392505050565b600080fd5b61021e81610167565b811461022957600080fd5b50565b60008151905061023b81610215565b92915050565b60006020828403121561025757610256610210565b5b60006102658482850161022c565b9150509291505056fea264697066735822122026b09dfa81aeaf4f2727d9f2a5e1727217e3ca537b3bc6bf4aaade73f039880064736f6c63430008120033608060405234801561001057600080fd5b506101b4806100206000396000f3fe608060405234801561001057600080fd5b506004361061002b5760003560e01c806369280dd114610030575b600080fd5b61004a600480360381019061004591906100b1565b610060565b6040516100579190610100565b60405180910390f35b6000818361006e919061014a565b905092915050565b600080fd5b6000819050919050565b61008e8161007b565b811461009957600080fd5b50565b6000813590506100ab81610085565b92915050565b600080604083850312156100c8576100c7610076565b5b60006100d68582860161009c565b92505060206100e78582860161009c565b9150509250929050565b6100fa8161007b565b82525050565b600060208201905061011560008301846100f1565b92915050565b7f4e487b7100000000000000000000000000000000000000000000000000000000600052601160045260246000fd5b60006101558261007b565b91506101608361007b565b92508282019050808211156101785761017761011b565b5b9291505056fea2646970667358221220f10fbc971c5a9aa40028a89df69bdc2cff5aea6021bc1c738bab4e1d9bab868e64736f6c63430008120033",
					"opcodes": "PUSH1 0x80 PUSH1 0x40 MSTORE PUSH1 0x40 MLOAD PUSH2 0x10 SWAP1 PUSH2 0xD3 JUMP JUMPDEST PUSH1 0x40 MLOAD DUP1 SWAP2 SUB SWAP1 PUSH1 0x0 CREATE DUP1 ISZERO DUP1 ISZERO PUSH2 0x2C JUMPI RETURNDATASIZE PUSH1 0x0 DUP1 RETURNDATACOPY RETURNDATASIZE PUSH1 0x0 REVERT JUMPDEST POP PUSH1 0x0 DUP1 PUSH2 0x100 EXP DUP2 SLOAD DUP2 PUSH20 0xFFFFFFFFFFFFFFFFFFFFFFFFFFFFFFFFFFFFFFFF MUL NOT AND SWAP1 DUP4 PUSH20 0xFFFFFFFFFFFFFFFFFFFFFFFFFFFFFFFFFFFFFFFF AND MUL OR SWAP1 SSTORE POP PUSH20 0xAB8483F64D9C6D1ECF9B849AE677DD3315835CB2 PUSH1 0x1 PUSH1 0x0 PUSH2 0x100 EXP DUP2 SLOAD DUP2 PUSH20 0xFFFFFFFFFFFFFFFFFFFFFFFFFFFFFFFFFFFFFFFF MUL NOT AND SWAP1 DUP4 PUSH20 0xFFFFFFFFFFFFFFFFFFFFFFFFFFFFFFFFFFFFFFFF AND MUL OR SWAP1 SSTORE POP CALLVALUE DUP1 ISZERO PUSH2 0xCD JUMPI PUSH1 0x0 DUP1 REVERT JUMPDEST POP PUSH2 0xE0 JUMP JUMPDEST PUSH2 0x1D4 DUP1 PUSH2 0x393 DUP4 CODECOPY ADD SWAP1 JUMP JUMPDEST PUSH2 0x2A4 DUP1 PUSH2 0xEF PUSH1 0x0 CODECOPY PUSH1 0x0 RETURN INVALID PUSH1 0x80 PUSH1 0x40 MSTORE PUSH1 0x4 CALLDATASIZE LT PUSH2 0x29 JUMPI PUSH1 0x0 CALLDATALOAD PUSH1 0xE0 SHR DUP1 PUSH4 0x4185F8EB EQ PUSH2 0x2E JUMPI DUP1 PUSH4 0xBF9497BC EQ PUSH2 0x38 JUMPI JUMPDEST PUSH1 0x0 DUP1 REVERT JUMPDEST PUSH2 0x36 PUSH2 0x4F JUMP JUMPDEST STOP JUMPDEST CALLVALUE DUP1 ISZERO PUSH2 0x44 JUMPI PUSH1 0x0 DUP1 REVERT JUMPDEST POP PUSH2 0x4D PUSH2 0x51 JUMP JUMPDEST STOP JUMPDEST JUMP JUMPDEST PUSH1 0x0 DUP1 SLOAD SWAP1 PUSH2 0x100 EXP SWAP1 DIV PUSH20 0xFFFFFFFFFFFFFFFFFFFFFFFFFFFFFFFFFFFFFFFF AND PUSH20 0xFFFFFFFFFFFFFFFFFFFFFFFFFFFFFFFFFFFFFFFF AND PUSH4 0x69280DD1 PUSH1 0x6 PUSH1 0x4 PUSH1 0x40 MLOAD DUP4 PUSH4 0xFFFFFFFF AND PUSH1 0xE0 SHL DUP2 MSTORE PUSH1 0x4 ADD PUSH2 0xAE SWAP3 SWAP2 SWAP1 PUSH2 0x1E7 JUMP JUMPDEST PUSH1 0x20 PUSH1 0x40 MLOAD DUP1 DUP4 SUB DUP2 DUP7 GAS STATICCALL SWAP3 POP POP POP DUP1 ISZERO PUSH2 0xE8 JUMPI POP PUSH1 0x40 MLOAD RETURNDATASIZE PUSH1 0x1F NOT PUSH1 0x1F DUP3 ADD AND DUP3 ADD DUP1 PUSH1 0x40 MSTORE POP DUP2 ADD SWAP1 PUSH2 0xE5 SWAP2 SWAP1 PUSH2 0x241 JUMP JUMPDEST PUSH1 0x1 JUMPDEST PUSH2 0xF1 JUMPI PUSH1 0x0 DUP1 REVERT JUMPDEST PUSH1 0x1 PUSH1 0x0 SWAP1 SLOAD SWAP1 PUSH2 0x100 EXP SWAP1 DIV PUSH20 0xFFFFFFFFFFFFFFFFFFFFFFFFFFFFFFFFFFFFFFFF AND PUSH20 0xFFFFFFFFFFFFFFFFFFFFFFFFFFFFFFFFFFFFFFFF AND PUSH2 0x8FC DUP3 SWAP1 DUP2 ISZERO MUL SWAP1 PUSH1 0x40 MLOAD PUSH1 0x0 PUSH1 0x40 MLOAD DUP1 DUP4 SUB DUP2 DUP6 DUP9 DUP9 CALL SWAP4 POP POP POP POP ISZERO DUP1 ISZERO PUSH2 0x159 JUMPI RETURNDATASIZE PUSH1 0x0 DUP1 RETURNDATACOPY RETURNDATASIZE PUSH1 0x0 REVERT JUMPDEST POP POP JUMP JUMPDEST PUSH1 0x0 DUP2 SWAP1 POP SWAP2 SWAP1 POP JUMP JUMPDEST PUSH1 0x0 DUP2 SWAP1 POP SWAP2 SWAP1 POP JUMP JUMPDEST PUSH1 0x0 DUP2 SWAP1 POP SWAP2 SWAP1 POP JUMP JUMPDEST PUSH1 0x0 PUSH2 0x196 PUSH2 0x191 PUSH2 0x18C DUP5 PUSH2 0x15D JUMP JUMPDEST PUSH2 0x171 JUMP JUMPDEST PUSH2 0x167 JUMP JUMPDEST SWAP1 POP SWAP2 SWAP1 POP JUMP JUMPDEST PUSH2 0x1A6 DUP2 PUSH2 0x17B JUMP JUMPDEST DUP3 MSTORE POP POP JUMP JUMPDEST PUSH1 0x0 DUP2 SWAP1 POP SWAP2 SWAP1 POP JUMP JUMPDEST PUSH1 0x0 PUSH2 0x1D1 PUSH2 0x1CC PUSH2 0x1C7 DUP5 PUSH2 0x1AC JUMP JUMPDEST PUSH2 0x171 JUMP JUMPDEST PUSH2 0x167 JUMP JUMPDEST SWAP1 POP SWAP2 SWAP1 POP JUMP JUMPDEST PUSH2 0x1E1 DUP2 PUSH2 0x1B6 JUMP JUMPDEST DUP3 MSTORE POP POP JUMP JUMPDEST PUSH1 0x0 PUSH1 0x40 DUP3 ADD SWAP1 POP PUSH2 0x1FC PUSH1 0x0 DUP4 ADD DUP6 PUSH2 0x19D JUMP JUMPDEST PUSH2 0x209 PUSH1 0x20 DUP4 ADD DUP5 PUSH2 0x1D8 JUMP JUMPDEST SWAP4 SWAP3 POP POP POP JUMP JUMPDEST PUSH1 0x0 DUP1 REVERT JUMPDEST PUSH2 0x21E DUP2 PUSH2 0x167 JUMP JUMPDEST DUP2 EQ PUSH2 0x229 JUMPI PUSH1 0x0 DUP1 REVERT JUMPDEST POP JUMP JUMPDEST PUSH1 0x0 DUP2 MLOAD SWAP1 POP PUSH2 0x23B DUP2 PUSH2 0x215 JUMP JUMPDEST SWAP3 SWAP2 POP POP JUMP JUMPDEST PUSH1 0x0 PUSH1 0x20 DUP3 DUP5 SUB SLT ISZERO PUSH2 0x257 JUMPI PUSH2 0x256 PUSH2 0x210 JUMP JUMPDEST JUMPDEST PUSH1 0x0 PUSH2 0x265 DUP5 DUP3 DUP6 ADD PUSH2 0x22C JUMP JUMPDEST SWAP2 POP POP SWAP3 SWAP2 POP POP JUMP INVALID LOG2 PUSH5 0x6970667358 0x22 SLT KECCAK256 0x26 0xB0 SWAP14 STATICCALL DUP2 0xAE 0xAF 0x4F 0x27 0x27 0xD9 CALLCODE 0xA5 0xE1 PUSH19 0x7217E3CA537B3BC6BF4AAADE73F03988006473 PUSH16 0x6C634300081200336080604052348015 PUSH2 0x10 JUMPI PUSH1 0x0 DUP1 REVERT JUMPDEST POP PUSH2 0x1B4 DUP1 PUSH2 0x20 PUSH1 0x0 CODECOPY PUSH1 0x0 RETURN INVALID PUSH1 0x80 PUSH1 0x40 MSTORE CALLVALUE DUP1 ISZERO PUSH2 0x10 JUMPI PUSH1 0x0 DUP1 REVERT JUMPDEST POP PUSH1 0x4 CALLDATASIZE LT PUSH2 0x2B JUMPI PUSH1 0x0 CALLDATALOAD PUSH1 0xE0 SHR DUP1 PUSH4 0x69280DD1 EQ PUSH2 0x30 JUMPI JUMPDEST PUSH1 0x0 DUP1 REVERT JUMPDEST PUSH2 0x4A PUSH1 0x4 DUP1 CALLDATASIZE SUB DUP2 ADD SWAP1 PUSH2 0x45 SWAP2 SWAP1 PUSH2 0xB1 JUMP JUMPDEST PUSH2 0x60 JUMP JUMPDEST PUSH1 0x40 MLOAD PUSH2 0x57 SWAP2 SWAP1 PUSH2 0x100 JUMP JUMPDEST PUSH1 0x40 MLOAD DUP1 SWAP2 SUB SWAP1 RETURN JUMPDEST PUSH1 0x0 DUP2 DUP4 PUSH2 0x6E SWAP2 SWAP1 PUSH2 0x14A JUMP JUMPDEST SWAP1 POP SWAP3 SWAP2 POP POP JUMP JUMPDEST PUSH1 0x0 DUP1 REVERT JUMPDEST PUSH1 0x0 DUP2 SWAP1 POP SWAP2 SWAP1 POP JUMP JUMPDEST PUSH2 0x8E DUP2 PUSH2 0x7B JUMP JUMPDEST DUP2 EQ PUSH2 0x99 JUMPI PUSH1 0x0 DUP1 REVERT JUMPDEST POP JUMP JUMPDEST PUSH1 0x0 DUP2 CALLDATALOAD SWAP1 POP PUSH2 0xAB DUP2 PUSH2 0x85 JUMP JUMPDEST SWAP3 SWAP2 POP POP JUMP JUMPDEST PUSH1 0x0 DUP1 PUSH1 0x40 DUP4 DUP6 SUB SLT ISZERO PUSH2 0xC8 JUMPI PUSH2 0xC7 PUSH2 0x76 JUMP JUMPDEST JUMPDEST PUSH1 0x0 PUSH2 0xD6 DUP6 DUP3 DUP7 ADD PUSH2 0x9C JUMP JUMPDEST SWAP3 POP POP PUSH1 0x20 PUSH2 0xE7 DUP6 DUP3 DUP7 ADD PUSH2 0x9C JUMP JUMPDEST SWAP2 POP POP SWAP3 POP SWAP3 SWAP1 POP JUMP JUMPDEST PUSH2 0xFA DUP2 PUSH2 0x7B JUMP JUMPDEST DUP3 MSTORE POP POP JUMP JUMPDEST PUSH1 0x0 PUSH1 0x20 DUP3 ADD SWAP1 POP PUSH2 0x115 PUSH1 0x0 DUP4 ADD DUP5 PUSH2 0xF1 JUMP JUMPDEST SWAP3 SWAP2 POP POP JUMP JUMPDEST PUSH32 0x4E487B7100000000000000000000000000000000000000000000000000000000 PUSH1 0x0 MSTORE PUSH1 0x11 PUSH1 0x4 MSTORE PUSH1 0x24 PUSH1 0x0 REVERT JUMPDEST PUSH1 0x0 PUSH2 0x155 DUP3 PUSH2 0x7B JUMP JUMPDEST SWAP2 POP PUSH2 0x160 DUP4 PUSH2 0x7B JUMP JUMPDEST SWAP3 POP DUP3 DUP3 ADD SWAP1 POP DUP1 DUP3 GT ISZERO PUSH2 0x178 JUMPI PUSH2 0x177 PUSH2 0x11B JUMP JUMPDEST JUMPDEST SWAP3 SWAP2 POP POP JUMP INVALID LOG2 PUSH5 0x6970667358 0x22 SLT KECCAK256 CALL 0xF 0xBC SWAP8 SHR GAS SWAP11 LOG4 STOP 0x28 0xA8 SWAP14 0xF6 SWAP12 0xDC 0x2C SELFDESTRUCT GAS 0xEA PUSH1 0x21 0xBC SHR PUSH20 0x8BAB4E1D9BAB868E64736F6C6343000812003300 "
				},
				"gasEstimates": {
					"creation": {
						"codeDepositCost": "135200",
						"executionCost": "infinite",
						"totalCost": "infinite"
					},
					"external": {
						"callOtherContract()": "infinite",
						"receiveEth()": "98"
					}
				},
				"methodIdentifiers": {
					"callOtherContract()": "bf9497bc",
					"receiveEth()": "4185f8eb"
				}
			},
			"storageLayout": {
				"storage": [
					{
						"astId": 23,
						"contract": "solidity-study-main/3.tutorial/ex14/contracts/TryCatch.sol:TryCatch",
						"label": "math",
						"offset": 0,
						"slot": "0",
						"type": "t_contract(Math)16"
					},
					{
						"astId": 29,
						"contract": "solidity-study-main/3.tutorial/ex14/contracts/TryCatch.sol:TryCatch",
						"label": "tmp_address",
						"offset": 0,
						"slot": "1",
						"type": "t_address_payable"
					}
				],
				"types": {
					"t_address_payable": {
						"encoding": "inplace",
						"label": "address payable",
						"numberOfBytes": "20"
					},
					"t_contract(Math)16": {
						"encoding": "inplace",
						"label": "contract Math",
						"numberOfBytes": "20"
					}
				}
			},
			"userdoc": {
				"kind": "user",
				"methods": {},
				"version": 1
			}
		}
	}
}