{
	"solidity-study-main/4.example/erc721/erc721.sol": {
		"ERC721": {
			"abi": [
				{
					"inputs": [
						{
							"internalType": "string",
							"name": "name_",
							"type": "string"
						},
						{
							"internalType": "string",
							"name": "symbol_",
							"type": "string"
						}
					],
					"stateMutability": "nonpayable",
					"type": "constructor"
				},
				{
					"anonymous": false,
					"inputs": [
						{
							"indexed": true,
							"internalType": "address",
							"name": "owner",
							"type": "address"
						},
						{
							"indexed": true,
							"internalType": "address",
							"name": "approved",
							"type": "address"
						},
						{
							"indexed": true,
							"internalType": "uint256",
							"name": "tokenId",
							"type": "uint256"
						}
					],
					"name": "Approval",
					"type": "event"
				},
				{
					"anonymous": false,
					"inputs": [
						{
							"indexed": true,
							"internalType": "address",
							"name": "owner",
							"type": "address"
						},
						{
							"indexed": true,
							"internalType": "address",
							"name": "operator",
							"type": "address"
						},
						{
							"indexed": false,
							"internalType": "bool",
							"name": "approved",
							"type": "bool"
						}
					],
					"name": "ApprovalForAll",
					"type": "event"
				},
				{
					"anonymous": false,
					"inputs": [
						{
							"indexed": true,
							"internalType": "address",
							"name": "from",
							"type": "address"
						},
						{
							"indexed": true,
							"internalType": "address",
							"name": "to",
							"type": "address"
						},
						{
							"indexed": true,
							"internalType": "uint256",
							"name": "tokenId",
							"type": "uint256"
						}
					],
					"name": "Transfer",
					"type": "event"
				},
				{
					"inputs": [
						{
							"internalType": "address",
							"name": "to",
							"type": "address"
						},
						{
							"internalType": "uint256",
							"name": "tokenId",
							"type": "uint256"
						}
					],
					"name": "approve",
					"outputs": [],
					"stateMutability": "nonpayable",
					"type": "function"
				},
				{
					"inputs": [
						{
							"internalType": "address",
							"name": "owner",
							"type": "address"
						}
					],
					"name": "balanceOf",
					"outputs": [
						{
							"internalType": "uint256",
							"name": "balance",
							"type": "uint256"
						}
					],
					"stateMutability": "view",
					"type": "function"
				},
				{
					"inputs": [
						{
							"internalType": "uint256",
							"name": "tokenId",
							"type": "uint256"
						}
					],
					"name": "burn",
					"outputs": [],
					"stateMutability": "nonpayable",
					"type": "function"
				},
				{
					"inputs": [
						{
							"internalType": "uint256",
							"name": "tokenId",
							"type": "uint256"
						}
					],
					"name": "getApproved",
					"outputs": [
						{
							"internalType": "address",
							"name": "operator",
							"type": "address"
						}
					],
					"stateMutability": "view",
					"type": "function"
				},
				{
					"inputs": [
						{
							"internalType": "address",
							"name": "owner",
							"type": "address"
						},
						{
							"internalType": "address",
							"name": "operator",
							"type": "address"
						}
					],
					"name": "isApprovedForAll",
					"outputs": [
						{
							"internalType": "bool",
							"name": "",
							"type": "bool"
						}
					],
					"stateMutability": "view",
					"type": "function"
				},
				{
					"inputs": [
						{
							"internalType": "address",
							"name": "to",
							"type": "address"
						},
						{
							"internalType": "uint256",
							"name": "tokenId",
							"type": "uint256"
						},
						{
							"internalType": "string",
							"name": "uri",
							"type": "string"
						}
					],
					"name": "mint",
					"outputs": [],
					"stateMutability": "nonpayable",
					"type": "function"
				},
				{
					"inputs": [],
					"name": "name",
					"outputs": [
						{
							"internalType": "string",
							"name": "",
							"type": "string"
						}
					],
					"stateMutability": "view",
					"type": "function"
				},
				{
					"inputs": [
						{
							"internalType": "uint256",
							"name": "tokenId",
							"type": "uint256"
						}
					],
					"name": "ownerOf",
					"outputs": [
						{
							"internalType": "address",
							"name": "owner",
							"type": "address"
						}
					],
					"stateMutability": "view",
					"type": "function"
				},
				{
					"inputs": [
						{
							"internalType": "address",
							"name": "owner",
							"type": "address"
						},
						{
							"internalType": "address",
							"name": "operator",
							"type": "address"
						},
						{
							"internalType": "bool",
							"name": "approved",
							"type": "bool"
						}
					],
					"name": "setApprovalForAll",
					"outputs": [],
					"stateMutability": "nonpayable",
					"type": "function"
				},
				{
					"inputs": [],
					"name": "symbol",
					"outputs": [
						{
							"internalType": "string",
							"name": "",
							"type": "string"
						}
					],
					"stateMutability": "view",
					"type": "function"
				},
				{
					"inputs": [
						{
							"internalType": "uint256",
							"name": "tokenId",
							"type": "uint256"
						}
					],
					"name": "tokenURI",
					"outputs": [
						{
							"internalType": "string",
							"name": "",
							"type": "string"
						}
					],
					"stateMutability": "view",
					"type": "function"
				},
				{
					"inputs": [
						{
							"internalType": "address",
							"name": "to",
							"type": "address"
						},
						{
							"internalType": "uint256",
							"name": "tokenId",
							"type": "uint256"
						}
					],
					"name": "transfer",
					"outputs": [],
					"stateMutability": "nonpayable",
					"type": "function"
				},
				{
					"inputs": [
						{
							"internalType": "address",
							"name": "from",
							"type": "address"
						},
						{
							"internalType": "address",
							"name": "to",
							"type": "address"
						},
						{
							"internalType": "uint256",
							"name": "tokenId",
							"type": "uint256"
						}
					],
					"name": "transferFrom",
					"outputs": [],
					"stateMutability": "nonpayable",
					"type": "function"
				}
			],
			"devdoc": {
				"kind": "dev",
				"methods": {},
				"version": 1
			},
			"evm": {
				"assembly": "    /* \"solidity-study-main/4.example/erc721/erc721.sol\":68:5109  contract ERC721 {... */\n  mstore(0x40, 0x80)\n    /* \"solidity-study-main/4.example/erc721/erc721.sol\":2377:2493  constructor(string memory name_, string memory symbol_) {... */\n  callvalue\n  dup1\n  iszero\n  tag_1\n  jumpi\n  0x00\n  dup1\n  revert\ntag_1:\n  pop\n  mload(0x40)\n  sub(codesize, bytecodeSize)\n  dup1\n  bytecodeSize\n  dup4\n  codecopy\n  dup2\n  dup2\n  add\n  0x40\n  mstore\n  dup2\n  add\n  swap1\n  tag_2\n  swap2\n  swap1\n  tag_3\n  jump\t// in\ntag_2:\n    /* \"solidity-study-main/4.example/erc721/erc721.sol\":2452:2457  name_ */\n  dup2\n    /* \"solidity-study-main/4.example/erc721/erc721.sol\":2444:2449  _name */\n  0x00\n    /* \"solidity-study-main/4.example/erc721/erc721.sol\":2444:2457  _name = name_ */\n  swap1\n  dup2\n  tag_6\n  swap2\n  swap1\n  tag_7\n  jump\t// in\ntag_6:\n  pop\n    /* \"solidity-study-main/4.example/erc721/erc721.sol\":2478:2485  symbol_ */\n  dup1\n    /* \"solidity-study-main/4.example/erc721/erc721.sol\":2468:2475  _symbol */\n  0x01\n    /* \"solidity-study-main/4.example/erc721/erc721.sol\":2468:2485  _symbol = symbol_ */\n  swap1\n  dup2\n  tag_8\n  swap2\n  swap1\n  tag_7\n  jump\t// in\ntag_8:\n  pop\n    /* \"solidity-study-main/4.example/erc721/erc721.sol\":2377:2493  constructor(string memory name_, string memory symbol_) {... */\n  pop\n  pop\n    /* \"solidity-study-main/4.example/erc721/erc721.sol\":68:5109  contract ERC721 {... */\n  jump(tag_9)\n    /* \"#utility.yul\":7:82   */\ntag_10:\n    /* \"#utility.yul\":40:46   */\n  0x00\n    /* \"#utility.yul\":73:75   */\n  0x40\n    /* \"#utility.yul\":67:76   */\n  mload\n    /* \"#utility.yul\":57:76   */\n  swap1\n  pop\n    /* \"#utility.yul\":7:82   */\n  swap1\n  jump\t// out\n    /* \"#utility.yul\":88:205   */\ntag_11:\n    /* \"#utility.yul\":197:198   */\n  0x00\n    /* \"#utility.yul\":194:195   */\n  dup1\n    /* \"#utility.yul\":187:199   */\n  revert\n    /* \"#utility.yul\":211:328   */\ntag_12:\n    /* \"#utility.yul\":320:321   */\n  0x00\n    /* \"#utility.yul\":317:318   */\n  dup1\n    /* \"#utility.yul\":310:322   */\n  revert\n    /* \"#utility.yul\":334:451   */\ntag_13:\n    /* \"#utility.yul\":443:444   */\n  0x00\n    /* \"#utility.yul\":440:441   */\n  dup1\n    /* \"#utility.yul\":433:445   */\n  revert\n    /* \"#utility.yul\":457:574   */\ntag_14:\n    /* \"#utility.yul\":566:567   */\n  0x00\n    /* \"#utility.yul\":563:564   */\n  dup1\n    /* \"#utility.yul\":556:568   */\n  revert\n    /* \"#utility.yul\":580:682   */\ntag_15:\n    /* \"#utility.yul\":621:627   */\n  0x00\n    /* \"#utility.yul\":672:674   */\n  0x1f\n    /* \"#utility.yul\":668:675   */\n  not\n    /* \"#utility.yul\":663:665   */\n  0x1f\n    /* \"#utility.yul\":656:661   */\n  dup4\n    /* \"#utility.yul\":652:666   */\n  add\n    /* \"#utility.yul\":648:676   */\n  and\n    /* \"#utility.yul\":638:676   */\n  swap1\n  pop\n    /* \"#utility.yul\":580:682   */\n  swap2\n  swap1\n  pop\n  jump\t// out\n    /* \"#utility.yul\":688:868   */\ntag_16:\n    /* \"#utility.yul\":736:813   */\n  0x4e487b7100000000000000000000000000000000000000000000000000000000\n    /* \"#utility.yul\":733:734   */\n  0x00\n    /* \"#utility.yul\":726:814   */\n  mstore\n    /* \"#utility.yul\":833:837   */\n  0x41\n    /* \"#utility.yul\":830:831   */\n  0x04\n    /* \"#utility.yul\":823:838   */\n  mstore\n    /* \"#utility.yul\":857:861   */\n  0x24\n    /* \"#utility.yul\":854:855   */\n  0x00\n    /* \"#utility.yul\":847:862   */\n  revert\n    /* \"#utility.yul\":874:1155   */\ntag_17:\n    /* \"#utility.yul\":957:984   */\n  tag_51\n    /* \"#utility.yul\":979:983   */\n  dup3\n    /* \"#utility.yul\":957:984   */\n  tag_15\n  jump\t// in\ntag_51:\n    /* \"#utility.yul\":949:955   */\n  dup2\n    /* \"#utility.yul\":945:985   */\n  add\n    /* \"#utility.yul\":1087:1093   */\n  dup2\n    /* \"#utility.yul\":1075:1085   */\n  dup2\n    /* \"#utility.yul\":1072:1094   */\n  lt\n    /* \"#utility.yul\":1051:1069   */\n  0xffffffffffffffff\n    /* \"#utility.yul\":1039:1049   */\n  dup3\n    /* \"#utility.yul\":1036:1070   */\n  gt\n    /* \"#utility.yul\":1033:1095   */\n  or\n    /* \"#utility.yul\":1030:1118   */\n  iszero\n  tag_52\n  jumpi\n    /* \"#utility.yul\":1098:1116   */\n  tag_53\n  tag_16\n  jump\t// in\ntag_53:\n    /* \"#utility.yul\":1030:1118   */\ntag_52:\n    /* \"#utility.yul\":1138:1148   */\n  dup1\n    /* \"#utility.yul\":1134:1136   */\n  0x40\n    /* \"#utility.yul\":1127:1149   */\n  mstore\n    /* \"#utility.yul\":917:1155   */\n  pop\n    /* \"#utility.yul\":874:1155   */\n  pop\n  pop\n  jump\t// out\n    /* \"#utility.yul\":1161:1290   */\ntag_18:\n    /* \"#utility.yul\":1195:1201   */\n  0x00\n    /* \"#utility.yul\":1222:1242   */\n  tag_55\n  tag_10\n  jump\t// in\ntag_55:\n    /* \"#utility.yul\":1212:1242   */\n  swap1\n  pop\n    /* \"#utility.yul\":1251:1284   */\n  tag_56\n    /* \"#utility.yul\":1279:1283   */\n  dup3\n    /* \"#utility.yul\":1271:1277   */\n  dup3\n    /* \"#utility.yul\":1251:1284   */\n  tag_17\n  jump\t// in\ntag_56:\n    /* \"#utility.yul\":1161:1290   */\n  swap2\n  swap1\n  pop\n  jump\t// out\n    /* \"#utility.yul\":1296:1604   */\ntag_19:\n    /* \"#utility.yul\":1358:1362   */\n  0x00\n    /* \"#utility.yul\":1448:1466   */\n  0xffffffffffffffff\n    /* \"#utility.yul\":1440:1446   */\n  dup3\n    /* \"#utility.yul\":1437:1467   */\n  gt\n    /* \"#utility.yul\":1434:1490   */\n  iszero\n  tag_58\n  jumpi\n    /* \"#utility.yul\":1470:1488   */\n  tag_59\n  tag_16\n  jump\t// in\ntag_59:\n    /* \"#utility.yul\":1434:1490   */\ntag_58:\n    /* \"#utility.yul\":1508:1537   */\n  tag_60\n    /* \"#utility.yul\":1530:1536   */\n  dup3\n    /* \"#utility.yul\":1508:1537   */\n  tag_15\n  jump\t// in\ntag_60:\n    /* \"#utility.yul\":1500:1537   */\n  swap1\n  pop\n    /* \"#utility.yul\":1592:1596   */\n  0x20\n    /* \"#utility.yul\":1586:1590   */\n  dup2\n    /* \"#utility.yul\":1582:1597   */\n  add\n    /* \"#utility.yul\":1574:1597   */\n  swap1\n  pop\n    /* \"#utility.yul\":1296:1604   */\n  swap2\n  swap1\n  pop\n  jump\t// out\n    /* \"#utility.yul\":1610:1856   */\ntag_20:\n    /* \"#utility.yul\":1691:1692   */\n  0x00\n    /* \"#utility.yul\":1701:1814   */\ntag_62:\n    /* \"#utility.yul\":1715:1721   */\n  dup4\n    /* \"#utility.yul\":1712:1713   */\n  dup2\n    /* \"#utility.yul\":1709:1722   */\n  lt\n    /* \"#utility.yul\":1701:1814   */\n  iszero\n  tag_64\n  jumpi\n    /* \"#utility.yul\":1800:1801   */\n  dup1\n    /* \"#utility.yul\":1795:1798   */\n  dup3\n    /* \"#utility.yul\":1791:1802   */\n  add\n    /* \"#utility.yul\":1785:1803   */\n  mload\n    /* \"#utility.yul\":1781:1782   */\n  dup2\n    /* \"#utility.yul\":1776:1779   */\n  dup5\n    /* \"#utility.yul\":1772:1783   */\n  add\n    /* \"#utility.yul\":1765:1804   */\n  mstore\n    /* \"#utility.yul\":1737:1739   */\n  0x20\n    /* \"#utility.yul\":1734:1735   */\n  dup2\n    /* \"#utility.yul\":1730:1740   */\n  add\n    /* \"#utility.yul\":1725:1740   */\n  swap1\n  pop\n    /* \"#utility.yul\":1701:1814   */\n  jump(tag_62)\ntag_64:\n    /* \"#utility.yul\":1848:1849   */\n  0x00\n    /* \"#utility.yul\":1839:1845   */\n  dup5\n    /* \"#utility.yul\":1834:1837   */\n  dup5\n    /* \"#utility.yul\":1830:1846   */\n  add\n    /* \"#utility.yul\":1823:1850   */\n  mstore\n    /* \"#utility.yul\":1672:1856   */\n  pop\n    /* \"#utility.yul\":1610:1856   */\n  pop\n  pop\n  pop\n  jump\t// out\n    /* \"#utility.yul\":1862:2296   */\ntag_21:\n    /* \"#utility.yul\":1951:1956   */\n  0x00\n    /* \"#utility.yul\":1976:2042   */\n  tag_66\n    /* \"#utility.yul\":1992:2041   */\n  tag_67\n    /* \"#utility.yul\":2034:2040   */\n  dup5\n    /* \"#utility.yul\":1992:2041   */\n  tag_19\n  jump\t// in\ntag_67:\n    /* \"#utility.yul\":1976:2042   */\n  tag_18\n  jump\t// in\ntag_66:\n    /* \"#utility.yul\":1967:2042   */\n  swap1\n  pop\n    /* \"#utility.yul\":2065:2071   */\n  dup3\n    /* \"#utility.yul\":2058:2063   */\n  dup2\n    /* \"#utility.yul\":2051:2072   */\n  mstore\n    /* \"#utility.yul\":2103:2107   */\n  0x20\n    /* \"#utility.yul\":2096:2101   */\n  dup2\n    /* \"#utility.yul\":2092:2108   */\n  add\n    /* \"#utility.yul\":2141:2144   */\n  dup5\n    /* \"#utility.yul\":2132:2138   */\n  dup5\n    /* \"#utility.yul\":2127:2130   */\n  dup5\n    /* \"#utility.yul\":2123:2139   */\n  add\n    /* \"#utility.yul\":2120:2145   */\n  gt\n    /* \"#utility.yul\":2117:2229   */\n  iszero\n  tag_68\n  jumpi\n    /* \"#utility.yul\":2148:2227   */\n  tag_69\n  tag_14\n  jump\t// in\ntag_69:\n    /* \"#utility.yul\":2117:2229   */\ntag_68:\n    /* \"#utility.yul\":2238:2290   */\n  tag_70\n    /* \"#utility.yul\":2283:2289   */\n  dup5\n    /* \"#utility.yul\":2278:2281   */\n  dup3\n    /* \"#utility.yul\":2273:2276   */\n  dup6\n    /* \"#utility.yul\":2238:2290   */\n  tag_20\n  jump\t// in\ntag_70:\n    /* \"#utility.yul\":1957:2296   */\n  pop\n    /* \"#utility.yul\":1862:2296   */\n  swap4\n  swap3\n  pop\n  pop\n  pop\n  jump\t// out\n    /* \"#utility.yul\":2316:2671   */\ntag_22:\n    /* \"#utility.yul\":2383:2388   */\n  0x00\n    /* \"#utility.yul\":2432:2435   */\n  dup3\n    /* \"#utility.yul\":2425:2429   */\n  0x1f\n    /* \"#utility.yul\":2417:2423   */\n  dup4\n    /* \"#utility.yul\":2413:2430   */\n  add\n    /* \"#utility.yul\":2409:2436   */\n  slt\n    /* \"#utility.yul\":2399:2521   */\n  tag_72\n  jumpi\n    /* \"#utility.yul\":2440:2519   */\n  tag_73\n  tag_13\n  jump\t// in\ntag_73:\n    /* \"#utility.yul\":2399:2521   */\ntag_72:\n    /* \"#utility.yul\":2550:2556   */\n  dup2\n    /* \"#utility.yul\":2544:2557   */\n  mload\n    /* \"#utility.yul\":2575:2665   */\n  tag_74\n    /* \"#utility.yul\":2661:2664   */\n  dup5\n    /* \"#utility.yul\":2653:2659   */\n  dup3\n    /* \"#utility.yul\":2646:2650   */\n  0x20\n    /* \"#utility.yul\":2638:2644   */\n  dup7\n    /* \"#utility.yul\":2634:2651   */\n  add\n    /* \"#utility.yul\":2575:2665   */\n  tag_21\n  jump\t// in\ntag_74:\n    /* \"#utility.yul\":2566:2665   */\n  swap2\n  pop\n    /* \"#utility.yul\":2389:2671   */\n  pop\n    /* \"#utility.yul\":2316:2671   */\n  swap3\n  swap2\n  pop\n  pop\n  jump\t// out\n    /* \"#utility.yul\":2677:3530   */\ntag_3:\n    /* \"#utility.yul\":2776:2782   */\n  0x00\n    /* \"#utility.yul\":2784:2790   */\n  dup1\n    /* \"#utility.yul\":2833:2835   */\n  0x40\n    /* \"#utility.yul\":2821:2830   */\n  dup4\n    /* \"#utility.yul\":2812:2819   */\n  dup6\n    /* \"#utility.yul\":2808:2831   */\n  sub\n    /* \"#utility.yul\":2804:2836   */\n  slt\n    /* \"#utility.yul\":2801:2920   */\n  iszero\n  tag_76\n  jumpi\n    /* \"#utility.yul\":2839:2918   */\n  tag_77\n  tag_11\n  jump\t// in\ntag_77:\n    /* \"#utility.yul\":2801:2920   */\ntag_76:\n    /* \"#utility.yul\":2980:2981   */\n  0x00\n    /* \"#utility.yul\":2969:2978   */\n  dup4\n    /* \"#utility.yul\":2965:2982   */\n  add\n    /* \"#utility.yul\":2959:2983   */\n  mload\n    /* \"#utility.yul\":3010:3028   */\n  0xffffffffffffffff\n    /* \"#utility.yul\":3002:3008   */\n  dup2\n    /* \"#utility.yul\":2999:3029   */\n  gt\n    /* \"#utility.yul\":2996:3113   */\n  iszero\n  tag_78\n  jumpi\n    /* \"#utility.yul\":3032:3111   */\n  tag_79\n  tag_12\n  jump\t// in\ntag_79:\n    /* \"#utility.yul\":2996:3113   */\ntag_78:\n    /* \"#utility.yul\":3137:3211   */\n  tag_80\n    /* \"#utility.yul\":3203:3210   */\n  dup6\n    /* \"#utility.yul\":3194:3200   */\n  dup3\n    /* \"#utility.yul\":3183:3192   */\n  dup7\n    /* \"#utility.yul\":3179:3201   */\n  add\n    /* \"#utility.yul\":3137:3211   */\n  tag_22\n  jump\t// in\ntag_80:\n    /* \"#utility.yul\":3127:3211   */\n  swap3\n  pop\n    /* \"#utility.yul\":2930:3221   */\n  pop\n    /* \"#utility.yul\":3281:3283   */\n  0x20\n    /* \"#utility.yul\":3270:3279   */\n  dup4\n    /* \"#utility.yul\":3266:3284   */\n  add\n    /* \"#utility.yul\":3260:3285   */\n  mload\n    /* \"#utility.yul\":3312:3330   */\n  0xffffffffffffffff\n    /* \"#utility.yul\":3304:3310   */\n  dup2\n    /* \"#utility.yul\":3301:3331   */\n  gt\n    /* \"#utility.yul\":3298:3415   */\n  iszero\n  tag_81\n  jumpi\n    /* \"#utility.yul\":3334:3413   */\n  tag_82\n  tag_12\n  jump\t// in\ntag_82:\n    /* \"#utility.yul\":3298:3415   */\ntag_81:\n    /* \"#utility.yul\":3439:3513   */\n  tag_83\n    /* \"#utility.yul\":3505:3512   */\n  dup6\n    /* \"#utility.yul\":3496:3502   */\n  dup3\n    /* \"#utility.yul\":3485:3494   */\n  dup7\n    /* \"#utility.yul\":3481:3503   */\n  add\n    /* \"#utility.yul\":3439:3513   */\n  tag_22\n  jump\t// in\ntag_83:\n    /* \"#utility.yul\":3429:3513   */\n  swap2\n  pop\n    /* \"#utility.yul\":3231:3523   */\n  pop\n    /* \"#utility.yul\":2677:3530   */\n  swap3\n  pop\n  swap3\n  swap1\n  pop\n  jump\t// out\n    /* \"#utility.yul\":3536:3635   */\ntag_23:\n    /* \"#utility.yul\":3588:3594   */\n  0x00\n    /* \"#utility.yul\":3622:3627   */\n  dup2\n    /* \"#utility.yul\":3616:3628   */\n  mload\n    /* \"#utility.yul\":3606:3628   */\n  swap1\n  pop\n    /* \"#utility.yul\":3536:3635   */\n  swap2\n  swap1\n  pop\n  jump\t// out\n    /* \"#utility.yul\":3641:3821   */\ntag_24:\n    /* \"#utility.yul\":3689:3766   */\n  0x4e487b7100000000000000000000000000000000000000000000000000000000\n    /* \"#utility.yul\":3686:3687   */\n  0x00\n    /* \"#utility.yul\":3679:3767   */\n  mstore\n    /* \"#utility.yul\":3786:3790   */\n  0x22\n    /* \"#utility.yul\":3783:3784   */\n  0x04\n    /* \"#utility.yul\":3776:3791   */\n  mstore\n    /* \"#utility.yul\":3810:3814   */\n  0x24\n    /* \"#utility.yul\":3807:3808   */\n  0x00\n    /* \"#utility.yul\":3800:3815   */\n  revert\n    /* \"#utility.yul\":3827:4147   */\ntag_25:\n    /* \"#utility.yul\":3871:3877   */\n  0x00\n    /* \"#utility.yul\":3908:3909   */\n  0x02\n    /* \"#utility.yul\":3902:3906   */\n  dup3\n    /* \"#utility.yul\":3898:3910   */\n  div\n    /* \"#utility.yul\":3888:3910   */\n  swap1\n  pop\n    /* \"#utility.yul\":3955:3956   */\n  0x01\n    /* \"#utility.yul\":3949:3953   */\n  dup3\n    /* \"#utility.yul\":3945:3957   */\n  and\n    /* \"#utility.yul\":3976:3994   */\n  dup1\n    /* \"#utility.yul\":3966:4047   */\n  tag_87\n  jumpi\n    /* \"#utility.yul\":4032:4036   */\n  0x7f\n    /* \"#utility.yul\":4024:4030   */\n  dup3\n    /* \"#utility.yul\":4020:4037   */\n  and\n    /* \"#utility.yul\":4010:4037   */\n  swap2\n  pop\n    /* \"#utility.yul\":3966:4047   */\ntag_87:\n    /* \"#utility.yul\":4094:4096   */\n  0x20\n    /* \"#utility.yul\":4086:4092   */\n  dup3\n    /* \"#utility.yul\":4083:4097   */\n  lt\n    /* \"#utility.yul\":4063:4081   */\n  dup2\n    /* \"#utility.yul\":4060:4098   */\n  sub\n    /* \"#utility.yul\":4057:4141   */\n  tag_88\n  jumpi\n    /* \"#utility.yul\":4113:4131   */\n  tag_89\n  tag_24\n  jump\t// in\ntag_89:\n    /* \"#utility.yul\":4057:4141   */\ntag_88:\n    /* \"#utility.yul\":3878:4147   */\n  pop\n    /* \"#utility.yul\":3827:4147   */\n  swap2\n  swap1\n  pop\n  jump\t// out\n    /* \"#utility.yul\":4153:4294   */\ntag_26:\n    /* \"#utility.yul\":4202:4206   */\n  0x00\n    /* \"#utility.yul\":4225:4228   */\n  dup2\n    /* \"#utility.yul\":4217:4228   */\n  swap1\n  pop\n    /* \"#utility.yul\":4248:4251   */\n  dup2\n    /* \"#utility.yul\":4245:4246   */\n  0x00\n    /* \"#utility.yul\":4238:4252   */\n  mstore\n    /* \"#utility.yul\":4282:4286   */\n  0x20\n    /* \"#utility.yul\":4279:4280   */\n  0x00\n    /* \"#utility.yul\":4269:4287   */\n  keccak256\n    /* \"#utility.yul\":4261:4287   */\n  swap1\n  pop\n    /* \"#utility.yul\":4153:4294   */\n  swap2\n  swap1\n  pop\n  jump\t// out\n    /* \"#utility.yul\":4300:4393   */\ntag_27:\n    /* \"#utility.yul\":4337:4343   */\n  0x00\n    /* \"#utility.yul\":4384:4386   */\n  0x20\n    /* \"#utility.yul\":4379:4381   */\n  0x1f\n    /* \"#utility.yul\":4372:4377   */\n  dup4\n    /* \"#utility.yul\":4368:4382   */\n  add\n    /* \"#utility.yul\":4364:4387   */\n  div\n    /* \"#utility.yul\":4354:4387   */\n  swap1\n  pop\n    /* \"#utility.yul\":4300:4393   */\n  swap2\n  swap1\n  pop\n  jump\t// out\n    /* \"#utility.yul\":4399:4506   */\ntag_28:\n    /* \"#utility.yul\":4443:4451   */\n  0x00\n    /* \"#utility.yul\":4493:4498   */\n  dup3\n    /* \"#utility.yul\":4487:4491   */\n  dup3\n    /* \"#utility.yul\":4483:4499   */\n  shl\n    /* \"#utility.yul\":4462:4499   */\n  swap1\n  pop\n    /* \"#utility.yul\":4399:4506   */\n  swap3\n  swap2\n  pop\n  pop\n  jump\t// out\n    /* \"#utility.yul\":4512:4905   */\ntag_29:\n    /* \"#utility.yul\":4581:4587   */\n  0x00\n    /* \"#utility.yul\":4631:4632   */\n  0x08\n    /* \"#utility.yul\":4619:4629   */\n  dup4\n    /* \"#utility.yul\":4615:4633   */\n  mul\n    /* \"#utility.yul\":4654:4751   */\n  tag_94\n    /* \"#utility.yul\":4684:4750   */\n  0xffffffffffffffffffffffffffffffffffffffffffffffffffffffffffffffff\n    /* \"#utility.yul\":4673:4682   */\n  dup3\n    /* \"#utility.yul\":4654:4751   */\n  tag_28\n  jump\t// in\ntag_94:\n    /* \"#utility.yul\":4772:4811   */\n  tag_95\n    /* \"#utility.yul\":4802:4810   */\n  dup7\n    /* \"#utility.yul\":4791:4800   */\n  dup4\n    /* \"#utility.yul\":4772:4811   */\n  tag_28\n  jump\t// in\ntag_95:\n    /* \"#utility.yul\":4760:4811   */\n  swap6\n  pop\n    /* \"#utility.yul\":4844:4848   */\n  dup1\n    /* \"#utility.yul\":4840:4849   */\n  not\n    /* \"#utility.yul\":4833:4838   */\n  dup5\n    /* \"#utility.yul\":4829:4850   */\n  and\n    /* \"#utility.yul\":4820:4850   */\n  swap4\n  pop\n    /* \"#utility.yul\":4893:4897   */\n  dup1\n    /* \"#utility.yul\":4883:4891   */\n  dup7\n    /* \"#utility.yul\":4879:4898   */\n  and\n    /* \"#utility.yul\":4872:4877   */\n  dup5\n    /* \"#utility.yul\":4869:4899   */\n  or\n    /* \"#utility.yul\":4859:4899   */\n  swap3\n  pop\n    /* \"#utility.yul\":4588:4905   */\n  pop\n  pop\n    /* \"#utility.yul\":4512:4905   */\n  swap4\n  swap3\n  pop\n  pop\n  pop\n  jump\t// out\n    /* \"#utility.yul\":4911:4988   */\ntag_30:\n    /* \"#utility.yul\":4948:4955   */\n  0x00\n    /* \"#utility.yul\":4977:4982   */\n  dup2\n    /* \"#utility.yul\":4966:4982   */\n  swap1\n  pop\n    /* \"#utility.yul\":4911:4988   */\n  swap2\n  swap1\n  pop\n  jump\t// out\n    /* \"#utility.yul\":4994:5054   */\ntag_31:\n    /* \"#utility.yul\":5022:5025   */\n  0x00\n    /* \"#utility.yul\":5043:5048   */\n  dup2\n    /* \"#utility.yul\":5036:5048   */\n  swap1\n  pop\n    /* \"#utility.yul\":4994:5054   */\n  swap2\n  swap1\n  pop\n  jump\t// out\n    /* \"#utility.yul\":5060:5202   */\ntag_32:\n    /* \"#utility.yul\":5110:5119   */\n  0x00\n    /* \"#utility.yul\":5143:5196   */\n  tag_99\n    /* \"#utility.yul\":5161:5195   */\n  tag_100\n    /* \"#utility.yul\":5170:5194   */\n  tag_101\n    /* \"#utility.yul\":5188:5193   */\n  dup5\n    /* \"#utility.yul\":5170:5194   */\n  tag_30\n  jump\t// in\ntag_101:\n    /* \"#utility.yul\":5161:5195   */\n  tag_31\n  jump\t// in\ntag_100:\n    /* \"#utility.yul\":5143:5196   */\n  tag_30\n  jump\t// in\ntag_99:\n    /* \"#utility.yul\":5130:5196   */\n  swap1\n  pop\n    /* \"#utility.yul\":5060:5202   */\n  swap2\n  swap1\n  pop\n  jump\t// out\n    /* \"#utility.yul\":5208:5283   */\ntag_33:\n    /* \"#utility.yul\":5251:5254   */\n  0x00\n    /* \"#utility.yul\":5272:5277   */\n  dup2\n    /* \"#utility.yul\":5265:5277   */\n  swap1\n  pop\n    /* \"#utility.yul\":5208:5283   */\n  swap2\n  swap1\n  pop\n  jump\t// out\n    /* \"#utility.yul\":5289:5558   */\ntag_34:\n    /* \"#utility.yul\":5399:5438   */\n  tag_104\n    /* \"#utility.yul\":5430:5437   */\n  dup4\n    /* \"#utility.yul\":5399:5438   */\n  tag_32\n  jump\t// in\ntag_104:\n    /* \"#utility.yul\":5460:5551   */\n  tag_105\n    /* \"#utility.yul\":5509:5550   */\n  tag_106\n    /* \"#utility.yul\":5533:5549   */\n  dup3\n    /* \"#utility.yul\":5509:5550   */\n  tag_33\n  jump\t// in\ntag_106:\n    /* \"#utility.yul\":5501:5507   */\n  dup5\n    /* \"#utility.yul\":5494:5498   */\n  dup5\n    /* \"#utility.yul\":5488:5499   */\n  sload\n    /* \"#utility.yul\":5460:5551   */\n  tag_29\n  jump\t// in\ntag_105:\n    /* \"#utility.yul\":5454:5458   */\n  dup3\n    /* \"#utility.yul\":5447:5552   */\n  sstore\n    /* \"#utility.yul\":5365:5558   */\n  pop\n    /* \"#utility.yul\":5289:5558   */\n  pop\n  pop\n  pop\n  jump\t// out\n    /* \"#utility.yul\":5564:5637   */\ntag_35:\n    /* \"#utility.yul\":5609:5612   */\n  0x00\n    /* \"#utility.yul\":5564:5637   */\n  swap1\n  jump\t// out\n    /* \"#utility.yul\":5643:5832   */\ntag_36:\n    /* \"#utility.yul\":5720:5752   */\n  tag_109\n  tag_35\n  jump\t// in\ntag_109:\n    /* \"#utility.yul\":5761:5826   */\n  tag_110\n    /* \"#utility.yul\":5819:5825   */\n  dup2\n    /* \"#utility.yul\":5811:5817   */\n  dup5\n    /* \"#utility.yul\":5805:5809   */\n  dup5\n    /* \"#utility.yul\":5761:5826   */\n  tag_34\n  jump\t// in\ntag_110:\n    /* \"#utility.yul\":5696:5832   */\n  pop\n    /* \"#utility.yul\":5643:5832   */\n  pop\n  pop\n  jump\t// out\n    /* \"#utility.yul\":5838:6024   */\ntag_37:\n    /* \"#utility.yul\":5898:6018   */\ntag_112:\n    /* \"#utility.yul\":5915:5918   */\n  dup2\n    /* \"#utility.yul\":5908:5913   */\n  dup2\n    /* \"#utility.yul\":5905:5919   */\n  lt\n    /* \"#utility.yul\":5898:6018   */\n  iszero\n  tag_114\n  jumpi\n    /* \"#utility.yul\":5969:6008   */\n  tag_115\n    /* \"#utility.yul\":6006:6007   */\n  0x00\n    /* \"#utility.yul\":5999:6004   */\n  dup3\n    /* \"#utility.yul\":5969:6008   */\n  tag_36\n  jump\t// in\ntag_115:\n    /* \"#utility.yul\":5942:5943   */\n  0x01\n    /* \"#utility.yul\":5935:5940   */\n  dup2\n    /* \"#utility.yul\":5931:5944   */\n  add\n    /* \"#utility.yul\":5922:5944   */\n  swap1\n  pop\n    /* \"#utility.yul\":5898:6018   */\n  jump(tag_112)\ntag_114:\n    /* \"#utility.yul\":5838:6024   */\n  pop\n  pop\n  jump\t// out\n    /* \"#utility.yul\":6030:6573   */\ntag_38:\n    /* \"#utility.yul\":6131:6133   */\n  0x1f\n    /* \"#utility.yul\":6126:6129   */\n  dup3\n    /* \"#utility.yul\":6123:6134   */\n  gt\n    /* \"#utility.yul\":6120:6566   */\n  iszero\n  tag_117\n  jumpi\n    /* \"#utility.yul\":6165:6203   */\n  tag_118\n    /* \"#utility.yul\":6197:6202   */\n  dup2\n    /* \"#utility.yul\":6165:6203   */\n  tag_26\n  jump\t// in\ntag_118:\n    /* \"#utility.yul\":6249:6278   */\n  tag_119\n    /* \"#utility.yul\":6267:6277   */\n  dup5\n    /* \"#utility.yul\":6249:6278   */\n  tag_27\n  jump\t// in\ntag_119:\n    /* \"#utility.yul\":6239:6247   */\n  dup2\n    /* \"#utility.yul\":6235:6279   */\n  add\n    /* \"#utility.yul\":6432:6434   */\n  0x20\n    /* \"#utility.yul\":6420:6430   */\n  dup6\n    /* \"#utility.yul\":6417:6435   */\n  lt\n    /* \"#utility.yul\":6414:6463   */\n  iszero\n  tag_120\n  jumpi\n    /* \"#utility.yul\":6453:6461   */\n  dup2\n    /* \"#utility.yul\":6438:6461   */\n  swap1\n  pop\n    /* \"#utility.yul\":6414:6463   */\ntag_120:\n    /* \"#utility.yul\":6476:6556   */\n  tag_121\n    /* \"#utility.yul\":6532:6554   */\n  tag_122\n    /* \"#utility.yul\":6550:6553   */\n  dup6\n    /* \"#utility.yul\":6532:6554   */\n  tag_27\n  jump\t// in\ntag_122:\n    /* \"#utility.yul\":6522:6530   */\n  dup4\n    /* \"#utility.yul\":6518:6555   */\n  add\n    /* \"#utility.yul\":6505:6516   */\n  dup3\n    /* \"#utility.yul\":6476:6556   */\n  tag_37\n  jump\t// in\ntag_121:\n    /* \"#utility.yul\":6135:6566   */\n  pop\n  pop\n    /* \"#utility.yul\":6120:6566   */\ntag_117:\n    /* \"#utility.yul\":6030:6573   */\n  pop\n  pop\n  pop\n  jump\t// out\n    /* \"#utility.yul\":6579:6696   */\ntag_39:\n    /* \"#utility.yul\":6633:6641   */\n  0x00\n    /* \"#utility.yul\":6683:6688   */\n  dup3\n    /* \"#utility.yul\":6677:6681   */\n  dup3\n    /* \"#utility.yul\":6673:6689   */\n  shr\n    /* \"#utility.yul\":6652:6689   */\n  swap1\n  pop\n    /* \"#utility.yul\":6579:6696   */\n  swap3\n  swap2\n  pop\n  pop\n  jump\t// out\n    /* \"#utility.yul\":6702:6871   */\ntag_40:\n    /* \"#utility.yul\":6746:6752   */\n  0x00\n    /* \"#utility.yul\":6779:6830   */\n  tag_125\n    /* \"#utility.yul\":6827:6828   */\n  0x00\n    /* \"#utility.yul\":6823:6829   */\n  not\n    /* \"#utility.yul\":6815:6820   */\n  dup5\n    /* \"#utility.yul\":6812:6813   */\n  0x08\n    /* \"#utility.yul\":6808:6821   */\n  mul\n    /* \"#utility.yul\":6779:6830   */\n  tag_39\n  jump\t// in\ntag_125:\n    /* \"#utility.yul\":6775:6831   */\n  not\n    /* \"#utility.yul\":6860:6864   */\n  dup1\n    /* \"#utility.yul\":6854:6858   */\n  dup4\n    /* \"#utility.yul\":6850:6865   */\n  and\n    /* \"#utility.yul\":6840:6865   */\n  swap2\n  pop\n    /* \"#utility.yul\":6753:6871   */\n  pop\n    /* \"#utility.yul\":6702:6871   */\n  swap3\n  swap2\n  pop\n  pop\n  jump\t// out\n    /* \"#utility.yul\":6876:7171   */\ntag_41:\n    /* \"#utility.yul\":6952:6956   */\n  0x00\n    /* \"#utility.yul\":7098:7127   */\n  tag_127\n    /* \"#utility.yul\":7123:7126   */\n  dup4\n    /* \"#utility.yul\":7117:7121   */\n  dup4\n    /* \"#utility.yul\":7098:7127   */\n  tag_40\n  jump\t// in\ntag_127:\n    /* \"#utility.yul\":7090:7127   */\n  swap2\n  pop\n    /* \"#utility.yul\":7160:7163   */\n  dup3\n    /* \"#utility.yul\":7157:7158   */\n  0x02\n    /* \"#utility.yul\":7153:7164   */\n  mul\n    /* \"#utility.yul\":7147:7151   */\n  dup3\n    /* \"#utility.yul\":7144:7165   */\n  or\n    /* \"#utility.yul\":7136:7165   */\n  swap1\n  pop\n    /* \"#utility.yul\":6876:7171   */\n  swap3\n  swap2\n  pop\n  pop\n  jump\t// out\n    /* \"#utility.yul\":7176:8571   */\ntag_7:\n    /* \"#utility.yul\":7293:7330   */\n  tag_129\n    /* \"#utility.yul\":7326:7329   */\n  dup3\n    /* \"#utility.yul\":7293:7330   */\n  tag_23\n  jump\t// in\ntag_129:\n    /* \"#utility.yul\":7395:7413   */\n  0xffffffffffffffff\n    /* \"#utility.yul\":7387:7393   */\n  dup2\n    /* \"#utility.yul\":7384:7414   */\n  gt\n    /* \"#utility.yul\":7381:7437   */\n  iszero\n  tag_130\n  jumpi\n    /* \"#utility.yul\":7417:7435   */\n  tag_131\n  tag_16\n  jump\t// in\ntag_131:\n    /* \"#utility.yul\":7381:7437   */\ntag_130:\n    /* \"#utility.yul\":7461:7499   */\n  tag_132\n    /* \"#utility.yul\":7493:7497   */\n  dup3\n    /* \"#utility.yul\":7487:7498   */\n  sload\n    /* \"#utility.yul\":7461:7499   */\n  tag_25\n  jump\t// in\ntag_132:\n    /* \"#utility.yul\":7546:7613   */\n  tag_133\n    /* \"#utility.yul\":7606:7612   */\n  dup3\n    /* \"#utility.yul\":7598:7604   */\n  dup3\n    /* \"#utility.yul\":7592:7596   */\n  dup6\n    /* \"#utility.yul\":7546:7613   */\n  tag_38\n  jump\t// in\ntag_133:\n    /* \"#utility.yul\":7640:7641   */\n  0x00\n    /* \"#utility.yul\":7664:7668   */\n  0x20\n    /* \"#utility.yul\":7651:7668   */\n  swap1\n  pop\n    /* \"#utility.yul\":7696:7698   */\n  0x1f\n    /* \"#utility.yul\":7688:7694   */\n  dup4\n    /* \"#utility.yul\":7685:7699   */\n  gt\n    /* \"#utility.yul\":7713:7714   */\n  0x01\n    /* \"#utility.yul\":7708:8326   */\n  dup2\n  eq\n  tag_135\n  jumpi\n    /* \"#utility.yul\":8370:8371   */\n  0x00\n    /* \"#utility.yul\":8387:8393   */\n  dup5\n    /* \"#utility.yul\":8384:8461   */\n  iszero\n  tag_136\n  jumpi\n    /* \"#utility.yul\":8436:8445   */\n  dup3\n    /* \"#utility.yul\":8431:8434   */\n  dup8\n    /* \"#utility.yul\":8427:8446   */\n  add\n    /* \"#utility.yul\":8421:8447   */\n  mload\n    /* \"#utility.yul\":8412:8447   */\n  swap1\n  pop\n    /* \"#utility.yul\":8384:8461   */\ntag_136:\n    /* \"#utility.yul\":8487:8554   */\n  tag_137\n    /* \"#utility.yul\":8547:8553   */\n  dup6\n    /* \"#utility.yul\":8540:8545   */\n  dup3\n    /* \"#utility.yul\":8487:8554   */\n  tag_41\n  jump\t// in\ntag_137:\n    /* \"#utility.yul\":8481:8485   */\n  dup7\n    /* \"#utility.yul\":8474:8555   */\n  sstore\n    /* \"#utility.yul\":8343:8565   */\n  pop\n    /* \"#utility.yul\":7678:8565   */\n  jump(tag_134)\n    /* \"#utility.yul\":7708:8326   */\ntag_135:\n    /* \"#utility.yul\":7760:7764   */\n  0x1f\n    /* \"#utility.yul\":7756:7765   */\n  not\n    /* \"#utility.yul\":7748:7754   */\n  dup5\n    /* \"#utility.yul\":7744:7766   */\n  and\n    /* \"#utility.yul\":7794:7831   */\n  tag_138\n    /* \"#utility.yul\":7826:7830   */\n  dup7\n    /* \"#utility.yul\":7794:7831   */\n  tag_26\n  jump\t// in\ntag_138:\n    /* \"#utility.yul\":7853:7854   */\n  0x00\n    /* \"#utility.yul\":7867:8075   */\ntag_139:\n    /* \"#utility.yul\":7881:7888   */\n  dup3\n    /* \"#utility.yul\":7878:7879   */\n  dup2\n    /* \"#utility.yul\":7875:7889   */\n  lt\n    /* \"#utility.yul\":7867:8075   */\n  iszero\n  tag_141\n  jumpi\n    /* \"#utility.yul\":7960:7969   */\n  dup5\n    /* \"#utility.yul\":7955:7958   */\n  dup10\n    /* \"#utility.yul\":7951:7970   */\n  add\n    /* \"#utility.yul\":7945:7971   */\n  mload\n    /* \"#utility.yul\":7937:7943   */\n  dup3\n    /* \"#utility.yul\":7930:7972   */\n  sstore\n    /* \"#utility.yul\":8011:8012   */\n  0x01\n    /* \"#utility.yul\":8003:8009   */\n  dup3\n    /* \"#utility.yul\":7999:8013   */\n  add\n    /* \"#utility.yul\":7989:8013   */\n  swap2\n  pop\n    /* \"#utility.yul\":8058:8060   */\n  0x20\n    /* \"#utility.yul\":8047:8056   */\n  dup6\n    /* \"#utility.yul\":8043:8061   */\n  add\n    /* \"#utility.yul\":8030:8061   */\n  swap5\n  pop\n    /* \"#utility.yul\":7904:7908   */\n  0x20\n    /* \"#utility.yul\":7901:7902   */\n  dup2\n    /* \"#utility.yul\":7897:7909   */\n  add\n    /* \"#utility.yul\":7892:7909   */\n  swap1\n  pop\n    /* \"#utility.yul\":7867:8075   */\n  jump(tag_139)\ntag_141:\n    /* \"#utility.yul\":8103:8109   */\n  dup7\n    /* \"#utility.yul\":8094:8101   */\n  dup4\n    /* \"#utility.yul\":8091:8110   */\n  lt\n    /* \"#utility.yul\":8088:8267   */\n  iszero\n  tag_142\n  jumpi\n    /* \"#utility.yul\":8161:8170   */\n  dup5\n    /* \"#utility.yul\":8156:8159   */\n  dup10\n    /* \"#utility.yul\":8152:8171   */\n  add\n    /* \"#utility.yul\":8146:8172   */\n  mload\n    /* \"#utility.yul\":8204:8252   */\n  tag_143\n    /* \"#utility.yul\":8246:8250   */\n  0x1f\n    /* \"#utility.yul\":8238:8244   */\n  dup10\n    /* \"#utility.yul\":8234:8251   */\n  and\n    /* \"#utility.yul\":8223:8232   */\n  dup3\n    /* \"#utility.yul\":8204:8252   */\n  tag_40\n  jump\t// in\ntag_143:\n    /* \"#utility.yul\":8196:8202   */\n  dup4\n    /* \"#utility.yul\":8189:8253   */\n  sstore\n    /* \"#utility.yul\":8111:8267   */\n  pop\n    /* \"#utility.yul\":8088:8267   */\ntag_142:\n    /* \"#utility.yul\":8313:8314   */\n  0x01\n    /* \"#utility.yul\":8309:8310   */\n  0x02\n    /* \"#utility.yul\":8301:8307   */\n  dup9\n    /* \"#utility.yul\":8297:8311   */\n  mul\n    /* \"#utility.yul\":8293:8315   */\n  add\n    /* \"#utility.yul\":8287:8291   */\n  dup9\n    /* \"#utility.yul\":8280:8316   */\n  sstore\n    /* \"#utility.yul\":7715:8326   */\n  pop\n  pop\n  pop\n    /* \"#utility.yul\":7678:8565   */\ntag_134:\n  pop\n    /* \"#utility.yul\":7268:8571   */\n  pop\n  pop\n  pop\n    /* \"#utility.yul\":7176:8571   */\n  pop\n  pop\n  jump\t// out\n    /* \"solidity-study-main/4.example/erc721/erc721.sol\":68:5109  contract ERC721 {... */\ntag_9:\n  dataSize(sub_0)\n  dup1\n  dataOffset(sub_0)\n  0x00\n  codecopy\n  0x00\n  return\nstop\n\nsub_0: assembly {\n        /* \"solidity-study-main/4.example/erc721/erc721.sol\":68:5109  contract ERC721 {... */\n      mstore(0x40, 0x80)\n      callvalue\n      dup1\n      iszero\n      tag_1\n      jumpi\n      0x00\n      dup1\n      revert\n    tag_1:\n      pop\n      jumpi(tag_2, lt(calldatasize, 0x04))\n      shr(0xe0, calldataload(0x00))\n      dup1\n      0x6352211e\n      gt\n      tag_16\n      jumpi\n      dup1\n      0xa9059cbb\n      gt\n      tag_17\n      jumpi\n      dup1\n      0xa9059cbb\n      eq\n      tag_12\n      jumpi\n      dup1\n      0xc87b56dd\n      eq\n      tag_13\n      jumpi\n      dup1\n      0xd3fc9864\n      eq\n      tag_14\n      jumpi\n      dup1\n      0xe985e9c5\n      eq\n      tag_15\n      jumpi\n      jump(tag_2)\n    tag_17:\n      dup1\n      0x6352211e\n      eq\n      tag_9\n      jumpi\n      dup1\n      0x70a08231\n      eq\n      tag_10\n      jumpi\n      dup1\n      0x95d89b41\n      eq\n      tag_11\n      jumpi\n      jump(tag_2)\n    tag_16:\n      dup1\n      0x06fdde03\n      eq\n      tag_3\n      jumpi\n      dup1\n      0x081812fc\n      eq\n      tag_4\n      jumpi\n      dup1\n      0x095ea7b3\n      eq\n      tag_5\n      jumpi\n      dup1\n      0x23b872dd\n      eq\n      tag_6\n      jumpi\n      dup1\n      0x367605ca\n      eq\n      tag_7\n      jumpi\n      dup1\n      0x42966c68\n      eq\n      tag_8\n      jumpi\n    tag_2:\n      0x00\n      dup1\n      revert\n        /* \"solidity-study-main/4.example/erc721/erc721.sol\":2743:2826  function name() public view returns (string memory) {... */\n    tag_3:\n      tag_18\n      tag_19\n      jump\t// in\n    tag_18:\n      mload(0x40)\n      tag_20\n      swap2\n      swap1\n      tag_21\n      jump\t// in\n    tag_20:\n      mload(0x40)\n      dup1\n      swap2\n      sub\n      swap1\n      return\n        /* \"solidity-study-main/4.example/erc721/erc721.sol\":3053:3180  function getApproved(uint256 tokenId) public view returns (address operator) {... */\n    tag_4:\n      tag_22\n      0x04\n      dup1\n      calldatasize\n      sub\n      dup2\n      add\n      swap1\n      tag_23\n      swap2\n      swap1\n      tag_24\n      jump\t// in\n    tag_23:\n      tag_25\n      jump\t// in\n    tag_22:\n      mload(0x40)\n      tag_26\n      swap2\n      swap1\n      tag_27\n      jump\t// in\n    tag_26:\n      mload(0x40)\n      dup1\n      swap2\n      sub\n      swap1\n      return\n        /* \"solidity-study-main/4.example/erc721/erc721.sol\":4669:4894  function approve(address to, uint256 tokenId) public {... */\n    tag_5:\n      tag_28\n      0x04\n      dup1\n      calldatasize\n      sub\n      dup2\n      add\n      swap1\n      tag_29\n      swap2\n      swap1\n      tag_30\n      jump\t// in\n    tag_29:\n      tag_31\n      jump\t// in\n    tag_28:\n      stop\n        /* \"solidity-study-main/4.example/erc721/erc721.sol\":3343:3789  function transferFrom(address from, address to, uint256 tokenId) public {... */\n    tag_6:\n      tag_32\n      0x04\n      dup1\n      calldatasize\n      sub\n      dup2\n      add\n      swap1\n      tag_33\n      swap2\n      swap1\n      tag_34\n      jump\t// in\n    tag_33:\n      tag_35\n      jump\t// in\n    tag_32:\n      stop\n        /* \"solidity-study-main/4.example/erc721/erc721.sol\":4902:5106  function setApprovalForAll(address owner, address operator, bool approved) public {... */\n    tag_7:\n      tag_36\n      0x04\n      dup1\n      calldatasize\n      sub\n      dup2\n      add\n      swap1\n      tag_37\n      swap2\n      swap1\n      tag_38\n      jump\t// in\n    tag_37:\n      tag_39\n      jump\t// in\n    tag_36:\n      stop\n        /* \"solidity-study-main/4.example/erc721/erc721.sol\":4055:4331  function burn(uint256 tokenId) public {... */\n    tag_8:\n      tag_40\n      0x04\n      dup1\n      calldatasize\n      sub\n      dup2\n      add\n      swap1\n      tag_41\n      swap2\n      swap1\n      tag_24\n      jump\t// in\n    tag_41:\n      tag_42\n      jump\t// in\n    tag_40:\n      stop\n        /* \"solidity-study-main/4.example/erc721/erc721.sol\":2623:2735  function ownerOf(uint256 tokenId) public view returns (address owner) {... */\n    tag_9:\n      tag_43\n      0x04\n      dup1\n      calldatasize\n      sub\n      dup2\n      add\n      swap1\n      tag_44\n      swap2\n      swap1\n      tag_24\n      jump\t// in\n    tag_44:\n      tag_45\n      jump\t// in\n    tag_43:\n      mload(0x40)\n      tag_46\n      swap2\n      swap1\n      tag_27\n      jump\t// in\n    tag_46:\n      mload(0x40)\n      dup1\n      swap2\n      sub\n      swap1\n      return\n        /* \"solidity-study-main/4.example/erc721/erc721.sol\":2501:2615  function balanceOf(address owner) public view returns (uint256 balance) {... */\n    tag_10:\n      tag_47\n      0x04\n      dup1\n      calldatasize\n      sub\n      dup2\n      add\n      swap1\n      tag_48\n      swap2\n      swap1\n      tag_49\n      jump\t// in\n    tag_48:\n      tag_50\n      jump\t// in\n    tag_47:\n      mload(0x40)\n      tag_51\n      swap2\n      swap1\n      tag_52\n      jump\t// in\n    tag_51:\n      mload(0x40)\n      dup1\n      swap2\n      sub\n      swap1\n      return\n        /* \"solidity-study-main/4.example/erc721/erc721.sol\":2834:2921  function symbol() public view returns (string memory) {... */\n    tag_11:\n      tag_53\n      tag_54\n      jump\t// in\n    tag_53:\n      mload(0x40)\n      tag_55\n      swap2\n      swap1\n      tag_21\n      jump\t// in\n    tag_55:\n      mload(0x40)\n      dup1\n      swap2\n      sub\n      swap1\n      return\n        /* \"solidity-study-main/4.example/erc721/erc721.sol\":4339:4661  function transfer(address to, uint256 tokenId) public {... */\n    tag_12:\n      tag_56\n      0x04\n      dup1\n      calldatasize\n      sub\n      dup2\n      add\n      swap1\n      tag_57\n      swap2\n      swap1\n      tag_30\n      jump\t// in\n    tag_57:\n      tag_58\n      jump\t// in\n    tag_56:\n      stop\n        /* \"solidity-study-main/4.example/erc721/erc721.sol\":2929:3045  function tokenURI(uint256 tokenId) public view returns (string memory) {... */\n    tag_13:\n      tag_59\n      0x04\n      dup1\n      calldatasize\n      sub\n      dup2\n      add\n      swap1\n      tag_60\n      swap2\n      swap1\n      tag_24\n      jump\t// in\n    tag_60:\n      tag_61\n      jump\t// in\n    tag_59:\n      mload(0x40)\n      tag_62\n      swap2\n      swap1\n      tag_21\n      jump\t// in\n    tag_62:\n      mload(0x40)\n      dup1\n      swap2\n      sub\n      swap1\n      return\n        /* \"solidity-study-main/4.example/erc721/erc721.sol\":3797:4047  function mint(address to, uint256 tokenId, string memory uri) public {... */\n    tag_14:\n      tag_63\n      0x04\n      dup1\n      calldatasize\n      sub\n      dup2\n      add\n      swap1\n      tag_64\n      swap2\n      swap1\n      tag_65\n      jump\t// in\n    tag_64:\n      tag_66\n      jump\t// in\n    tag_63:\n      stop\n        /* \"solidity-study-main/4.example/erc721/erc721.sol\":3188:3335  function isApprovedForAll(address owner, address operator) public view returns (bool) {... */\n    tag_15:\n      tag_67\n      0x04\n      dup1\n      calldatasize\n      sub\n      dup2\n      add\n      swap1\n      tag_68\n      swap2\n      swap1\n      tag_69\n      jump\t// in\n    tag_68:\n      tag_70\n      jump\t// in\n    tag_67:\n      mload(0x40)\n      tag_71\n      swap2\n      swap1\n      tag_72\n      jump\t// in\n    tag_71:\n      mload(0x40)\n      dup1\n      swap2\n      sub\n      swap1\n      return\n        /* \"solidity-study-main/4.example/erc721/erc721.sol\":2743:2826  function name() public view returns (string memory) {... */\n    tag_19:\n        /* \"solidity-study-main/4.example/erc721/erc721.sol\":2780:2793  string memory */\n      0x60\n        /* \"solidity-study-main/4.example/erc721/erc721.sol\":2813:2818  _name */\n      0x00\n        /* \"solidity-study-main/4.example/erc721/erc721.sol\":2806:2818  return _name */\n      dup1\n      sload\n      tag_74\n      swap1\n      tag_75\n      jump\t// in\n    tag_74:\n      dup1\n      0x1f\n      add\n      0x20\n      dup1\n      swap2\n      div\n      mul\n      0x20\n      add\n      mload(0x40)\n      swap1\n      dup2\n      add\n      0x40\n      mstore\n      dup1\n      swap3\n      swap2\n      swap1\n      dup2\n      dup2\n      mstore\n      0x20\n      add\n      dup3\n      dup1\n      sload\n      tag_76\n      swap1\n      tag_75\n      jump\t// in\n    tag_76:\n      dup1\n      iszero\n      tag_77\n      jumpi\n      dup1\n      0x1f\n      lt\n      tag_78\n      jumpi\n      0x0100\n      dup1\n      dup4\n      sload\n      div\n      mul\n      dup4\n      mstore\n      swap2\n      0x20\n      add\n      swap2\n      jump(tag_77)\n    tag_78:\n      dup3\n      add\n      swap2\n      swap1\n      0x00\n      mstore\n      keccak256(0x00, 0x20)\n      swap1\n    tag_79:\n      dup2\n      sload\n      dup2\n      mstore\n      swap1\n      0x01\n      add\n      swap1\n      0x20\n      add\n      dup1\n      dup4\n      gt\n      tag_79\n      jumpi\n      dup3\n      swap1\n      sub\n      0x1f\n      and\n      dup3\n      add\n      swap2\n    tag_77:\n      pop\n      pop\n      pop\n      pop\n      pop\n      swap1\n      pop\n        /* \"solidity-study-main/4.example/erc721/erc721.sol\":2743:2826  function name() public view returns (string memory) {... */\n      swap1\n      jump\t// out\n        /* \"solidity-study-main/4.example/erc721/erc721.sol\":3053:3180  function getApproved(uint256 tokenId) public view returns (address operator) {... */\n    tag_25:\n        /* \"solidity-study-main/4.example/erc721/erc721.sol\":3112:3128  address operator */\n      0x00\n        /* \"solidity-study-main/4.example/erc721/erc721.sol\":3148:3163  _tokenApprovals */\n      0x05\n        /* \"solidity-study-main/4.example/erc721/erc721.sol\":3148:3172  _tokenApprovals[tokenId] */\n      0x00\n        /* \"solidity-study-main/4.example/erc721/erc721.sol\":3164:3171  tokenId */\n      dup4\n        /* \"solidity-study-main/4.example/erc721/erc721.sol\":3148:3172  _tokenApprovals[tokenId] */\n      dup2\n      mstore\n      0x20\n      add\n      swap1\n      dup2\n      mstore\n      0x20\n      add\n      0x00\n      keccak256\n      0x00\n      swap1\n      sload\n      swap1\n      0x0100\n      exp\n      swap1\n      div\n      0xffffffffffffffffffffffffffffffffffffffff\n      and\n        /* \"solidity-study-main/4.example/erc721/erc721.sol\":3141:3172  return _tokenApprovals[tokenId] */\n      swap1\n      pop\n        /* \"solidity-study-main/4.example/erc721/erc721.sol\":3053:3180  function getApproved(uint256 tokenId) public view returns (address operator) {... */\n      swap2\n      swap1\n      pop\n      jump\t// out\n        /* \"solidity-study-main/4.example/erc721/erc721.sol\":4669:4894  function approve(address to, uint256 tokenId) public {... */\n    tag_31:\n        /* \"solidity-study-main/4.example/erc721/erc721.sol\":4755:4762  _owners */\n      0x03\n        /* \"solidity-study-main/4.example/erc721/erc721.sol\":4755:4771  _owners[tokenId] */\n      0x00\n        /* \"solidity-study-main/4.example/erc721/erc721.sol\":4763:4770  tokenId */\n      dup3\n        /* \"solidity-study-main/4.example/erc721/erc721.sol\":4755:4771  _owners[tokenId] */\n      dup2\n      mstore\n      0x20\n      add\n      swap1\n      dup2\n      mstore\n      0x20\n      add\n      0x00\n      keccak256\n      0x00\n      swap1\n      sload\n      swap1\n      0x0100\n      exp\n      swap1\n      div\n      0xffffffffffffffffffffffffffffffffffffffff\n      and\n        /* \"solidity-study-main/4.example/erc721/erc721.sol\":4741:4771  msg.sender == _owners[tokenId] */\n      0xffffffffffffffffffffffffffffffffffffffff\n      and\n        /* \"solidity-study-main/4.example/erc721/erc721.sol\":4741:4751  msg.sender */\n      caller\n        /* \"solidity-study-main/4.example/erc721/erc721.sol\":4741:4771  msg.sender == _owners[tokenId] */\n      0xffffffffffffffffffffffffffffffffffffffff\n      and\n      eq\n        /* \"solidity-study-main/4.example/erc721/erc721.sol\":4733:4791  require(msg.sender == _owners[tokenId], \"Incorrect Owner\") */\n      tag_82\n      jumpi\n      mload(0x40)\n      0x08c379a000000000000000000000000000000000000000000000000000000000\n      dup2\n      mstore\n      0x04\n      add\n      tag_83\n      swap1\n      tag_84\n      jump\t// in\n    tag_83:\n      mload(0x40)\n      dup1\n      swap2\n      sub\n      swap1\n      revert\n    tag_82:\n        /* \"solidity-study-main/4.example/erc721/erc721.sol\":4829:4831  to */\n      dup2\n        /* \"solidity-study-main/4.example/erc721/erc721.sol\":4802:4817  _tokenApprovals */\n      0x05\n        /* \"solidity-study-main/4.example/erc721/erc721.sol\":4802:4826  _tokenApprovals[tokenId] */\n      0x00\n        /* \"solidity-study-main/4.example/erc721/erc721.sol\":4818:4825  tokenId */\n      dup4\n        /* \"solidity-study-main/4.example/erc721/erc721.sol\":4802:4826  _tokenApprovals[tokenId] */\n      dup2\n      mstore\n      0x20\n      add\n      swap1\n      dup2\n      mstore\n      0x20\n      add\n      0x00\n      keccak256\n      0x00\n        /* \"solidity-study-main/4.example/erc721/erc721.sol\":4802:4831  _tokenApprovals[tokenId] = to */\n      0x0100\n      exp\n      dup2\n      sload\n      dup2\n      0xffffffffffffffffffffffffffffffffffffffff\n      mul\n      not\n      and\n      swap1\n      dup4\n      0xffffffffffffffffffffffffffffffffffffffff\n      and\n      mul\n      or\n      swap1\n      sstore\n      pop\n        /* \"solidity-study-main/4.example/erc721/erc721.sol\":4878:4885  tokenId */\n      dup1\n        /* \"solidity-study-main/4.example/erc721/erc721.sol\":4874:4876  to */\n      dup3\n        /* \"solidity-study-main/4.example/erc721/erc721.sol\":4847:4886  Approval(_owners[tokenId], to, tokenId) */\n      0xffffffffffffffffffffffffffffffffffffffff\n      and\n        /* \"solidity-study-main/4.example/erc721/erc721.sol\":4856:4863  _owners */\n      0x03\n        /* \"solidity-study-main/4.example/erc721/erc721.sol\":4856:4872  _owners[tokenId] */\n      0x00\n        /* \"solidity-study-main/4.example/erc721/erc721.sol\":4864:4871  tokenId */\n      dup5\n        /* \"solidity-study-main/4.example/erc721/erc721.sol\":4856:4872  _owners[tokenId] */\n      dup2\n      mstore\n      0x20\n      add\n      swap1\n      dup2\n      mstore\n      0x20\n      add\n      0x00\n      keccak256\n      0x00\n      swap1\n      sload\n      swap1\n      0x0100\n      exp\n      swap1\n      div\n      0xffffffffffffffffffffffffffffffffffffffff\n      and\n        /* \"solidity-study-main/4.example/erc721/erc721.sol\":4847:4886  Approval(_owners[tokenId], to, tokenId) */\n      0xffffffffffffffffffffffffffffffffffffffff\n      and\n      0x8c5be1e5ebec7d5bd14f71427d1e84f3dd0314c0f7b2291e5b200ac8c7c3b925\n      mload(0x40)\n      mload(0x40)\n      dup1\n      swap2\n      sub\n      swap1\n      log4\n        /* \"solidity-study-main/4.example/erc721/erc721.sol\":4669:4894  function approve(address to, uint256 tokenId) public {... */\n      pop\n      pop\n      jump\t// out\n        /* \"solidity-study-main/4.example/erc721/erc721.sol\":3343:3789  function transferFrom(address from, address to, uint256 tokenId) public {... */\n    tag_35:\n        /* \"solidity-study-main/4.example/erc721/erc721.sol\":3426:3439  address owner */\n      0x00\n        /* \"solidity-study-main/4.example/erc721/erc721.sol\":3442:3449  _owners */\n      0x03\n        /* \"solidity-study-main/4.example/erc721/erc721.sol\":3442:3458  _owners[tokenId] */\n      0x00\n        /* \"solidity-study-main/4.example/erc721/erc721.sol\":3450:3457  tokenId */\n      dup4\n        /* \"solidity-study-main/4.example/erc721/erc721.sol\":3442:3458  _owners[tokenId] */\n      dup2\n      mstore\n      0x20\n      add\n      swap1\n      dup2\n      mstore\n      0x20\n      add\n      0x00\n      keccak256\n      0x00\n      swap1\n      sload\n      swap1\n      0x0100\n      exp\n      swap1\n      div\n      0xffffffffffffffffffffffffffffffffffffffff\n      and\n        /* \"solidity-study-main/4.example/erc721/erc721.sol\":3426:3458  address owner = _owners[tokenId] */\n      swap1\n      pop\n        /* \"solidity-study-main/4.example/erc721/erc721.sol\":3492:3497  owner */\n      dup1\n        /* \"solidity-study-main/4.example/erc721/erc721.sol\":3478:3497  msg.sender == owner */\n      0xffffffffffffffffffffffffffffffffffffffff\n      and\n        /* \"solidity-study-main/4.example/erc721/erc721.sol\":3478:3488  msg.sender */\n      caller\n        /* \"solidity-study-main/4.example/erc721/erc721.sol\":3478:3497  msg.sender == owner */\n      0xffffffffffffffffffffffffffffffffffffffff\n      and\n      eq\n        /* \"solidity-study-main/4.example/erc721/erc721.sol\":3477:3539  (msg.sender == owner) || (isApprovedForAll(owner, msg.sender)) */\n      dup1\n      tag_86\n      jumpi\n      pop\n        /* \"solidity-study-main/4.example/erc721/erc721.sol\":3503:3538  isApprovedForAll(owner, msg.sender) */\n      tag_87\n        /* \"solidity-study-main/4.example/erc721/erc721.sol\":3520:3525  owner */\n      dup2\n        /* \"solidity-study-main/4.example/erc721/erc721.sol\":3527:3537  msg.sender */\n      caller\n        /* \"solidity-study-main/4.example/erc721/erc721.sol\":3503:3519  isApprovedForAll */\n      tag_70\n        /* \"solidity-study-main/4.example/erc721/erc721.sol\":3503:3538  isApprovedForAll(owner, msg.sender) */\n      jump\t// in\n    tag_87:\n        /* \"solidity-study-main/4.example/erc721/erc721.sol\":3477:3539  (msg.sender == owner) || (isApprovedForAll(owner, msg.sender)) */\n    tag_86:\n        /* \"solidity-study-main/4.example/erc721/erc721.sol\":3477:3577  (msg.sender == owner) || (isApprovedForAll(owner, msg.sender)) || (getApproved(tokenId)==msg.sender) */\n      dup1\n      tag_88\n      jumpi\n      pop\n        /* \"solidity-study-main/4.example/erc721/erc721.sol\":3566:3576  msg.sender */\n      caller\n        /* \"solidity-study-main/4.example/erc721/erc721.sol\":3544:3576  getApproved(tokenId)==msg.sender */\n      0xffffffffffffffffffffffffffffffffffffffff\n      and\n        /* \"solidity-study-main/4.example/erc721/erc721.sol\":3544:3564  getApproved(tokenId) */\n      tag_89\n        /* \"solidity-study-main/4.example/erc721/erc721.sol\":3556:3563  tokenId */\n      dup4\n        /* \"solidity-study-main/4.example/erc721/erc721.sol\":3544:3555  getApproved */\n      tag_25\n        /* \"solidity-study-main/4.example/erc721/erc721.sol\":3544:3564  getApproved(tokenId) */\n      jump\t// in\n    tag_89:\n        /* \"solidity-study-main/4.example/erc721/erc721.sol\":3544:3576  getApproved(tokenId)==msg.sender */\n      0xffffffffffffffffffffffffffffffffffffffff\n      and\n      eq\n        /* \"solidity-study-main/4.example/erc721/erc721.sol\":3477:3577  (msg.sender == owner) || (isApprovedForAll(owner, msg.sender)) || (getApproved(tokenId)==msg.sender) */\n    tag_88:\n        /* \"solidity-study-main/4.example/erc721/erc721.sol\":3469:3594  require((msg.sender == owner) || (isApprovedForAll(owner, msg.sender)) || (getApproved(tokenId)==msg.sender), \"Not Approved\") */\n      tag_90\n      jumpi\n      mload(0x40)\n      0x08c379a000000000000000000000000000000000000000000000000000000000\n      dup2\n      mstore\n      0x04\n      add\n      tag_91\n      swap1\n      tag_92\n      jump\t// in\n    tag_91:\n      mload(0x40)\n      dup1\n      swap2\n      sub\n      swap1\n      revert\n    tag_90:\n        /* \"solidity-study-main/4.example/erc721/erc721.sol\":3612:3627  _tokenApprovals */\n      0x05\n        /* \"solidity-study-main/4.example/erc721/erc721.sol\":3612:3636  _tokenApprovals[tokenId] */\n      0x00\n        /* \"solidity-study-main/4.example/erc721/erc721.sol\":3628:3635  tokenId */\n      dup4\n        /* \"solidity-study-main/4.example/erc721/erc721.sol\":3612:3636  _tokenApprovals[tokenId] */\n      dup2\n      mstore\n      0x20\n      add\n      swap1\n      dup2\n      mstore\n      0x20\n      add\n      0x00\n      keccak256\n      0x00\n        /* \"solidity-study-main/4.example/erc721/erc721.sol\":3605:3636  delete _tokenApprovals[tokenId] */\n      0x0100\n      exp\n      dup2\n      sload\n      swap1\n      0xffffffffffffffffffffffffffffffffffffffff\n      mul\n      not\n      and\n      swap1\n      sstore\n        /* \"solidity-study-main/4.example/erc721/erc721.sol\":3668:3669  1 */\n      0x01\n        /* \"solidity-study-main/4.example/erc721/erc721.sol\":3649:3658  _balances */\n      0x04\n        /* \"solidity-study-main/4.example/erc721/erc721.sol\":3649:3664  _balances[from] */\n      0x00\n        /* \"solidity-study-main/4.example/erc721/erc721.sol\":3659:3663  from */\n      dup7\n        /* \"solidity-study-main/4.example/erc721/erc721.sol\":3649:3664  _balances[from] */\n      0xffffffffffffffffffffffffffffffffffffffff\n      and\n      0xffffffffffffffffffffffffffffffffffffffff\n      and\n      dup2\n      mstore\n      0x20\n      add\n      swap1\n      dup2\n      mstore\n      0x20\n      add\n      0x00\n      keccak256\n      0x00\n        /* \"solidity-study-main/4.example/erc721/erc721.sol\":3649:3669  _balances[from] -= 1 */\n      dup3\n      dup3\n      sload\n      tag_93\n      swap2\n      swap1\n      tag_94\n      jump\t// in\n    tag_93:\n      swap3\n      pop\n      pop\n      dup2\n      swap1\n      sstore\n      pop\n        /* \"solidity-study-main/4.example/erc721/erc721.sol\":3697:3698  1 */\n      0x01\n        /* \"solidity-study-main/4.example/erc721/erc721.sol\":3680:3689  _balances */\n      0x04\n        /* \"solidity-study-main/4.example/erc721/erc721.sol\":3680:3693  _balances[to] */\n      0x00\n        /* \"solidity-study-main/4.example/erc721/erc721.sol\":3690:3692  to */\n      dup6\n        /* \"solidity-study-main/4.example/erc721/erc721.sol\":3680:3693  _balances[to] */\n      0xffffffffffffffffffffffffffffffffffffffff\n      and\n      0xffffffffffffffffffffffffffffffffffffffff\n      and\n      dup2\n      mstore\n      0x20\n      add\n      swap1\n      dup2\n      mstore\n      0x20\n      add\n      0x00\n      keccak256\n      0x00\n        /* \"solidity-study-main/4.example/erc721/erc721.sol\":3680:3698  _balances[to] += 1 */\n      dup3\n      dup3\n      sload\n      tag_95\n      swap2\n      swap1\n      tag_96\n      jump\t// in\n    tag_95:\n      swap3\n      pop\n      pop\n      dup2\n      swap1\n      sstore\n      pop\n        /* \"solidity-study-main/4.example/erc721/erc721.sol\":3728:3730  to */\n      dup3\n        /* \"solidity-study-main/4.example/erc721/erc721.sol\":3709:3716  _owners */\n      0x03\n        /* \"solidity-study-main/4.example/erc721/erc721.sol\":3709:3725  _owners[tokenId] */\n      0x00\n        /* \"solidity-study-main/4.example/erc721/erc721.sol\":3717:3724  tokenId */\n      dup5\n        /* \"solidity-study-main/4.example/erc721/erc721.sol\":3709:3725  _owners[tokenId] */\n      dup2\n      mstore\n      0x20\n      add\n      swap1\n      dup2\n      mstore\n      0x20\n      add\n      0x00\n      keccak256\n      0x00\n        /* \"solidity-study-main/4.example/erc721/erc721.sol\":3709:3730  _owners[tokenId] = to */\n      0x0100\n      exp\n      dup2\n      sload\n      dup2\n      0xffffffffffffffffffffffffffffffffffffffff\n      mul\n      not\n      and\n      swap1\n      dup4\n      0xffffffffffffffffffffffffffffffffffffffff\n      and\n      mul\n      or\n      swap1\n      sstore\n      pop\n        /* \"solidity-study-main/4.example/erc721/erc721.sol\":3773:3780  tokenId */\n      dup2\n        /* \"solidity-study-main/4.example/erc721/erc721.sol\":3769:3771  to */\n      dup4\n        /* \"solidity-study-main/4.example/erc721/erc721.sol\":3748:3781  Transfer(msg.sender, to, tokenId) */\n      0xffffffffffffffffffffffffffffffffffffffff\n      and\n        /* \"solidity-study-main/4.example/erc721/erc721.sol\":3757:3767  msg.sender */\n      caller\n        /* \"solidity-study-main/4.example/erc721/erc721.sol\":3748:3781  Transfer(msg.sender, to, tokenId) */\n      0xffffffffffffffffffffffffffffffffffffffff\n      and\n      0xddf252ad1be2c89b69c2b068fc378daa952ba7f163c4a11628f55a4df523b3ef\n      mload(0x40)\n      mload(0x40)\n      dup1\n      swap2\n      sub\n      swap1\n      log4\n        /* \"solidity-study-main/4.example/erc721/erc721.sol\":3415:3789  {... */\n      pop\n        /* \"solidity-study-main/4.example/erc721/erc721.sol\":3343:3789  function transferFrom(address from, address to, uint256 tokenId) public {... */\n      pop\n      pop\n      pop\n      jump\t// out\n        /* \"solidity-study-main/4.example/erc721/erc721.sol\":4902:5106  function setApprovalForAll(address owner, address operator, bool approved) public {... */\n    tag_39:\n        /* \"solidity-study-main/4.example/erc721/erc721.sol\":5033:5041  approved */\n      dup1\n        /* \"solidity-study-main/4.example/erc721/erc721.sol\":4995:5013  _operatorApprovals */\n      0x06\n        /* \"solidity-study-main/4.example/erc721/erc721.sol\":4995:5020  _operatorApprovals[owner] */\n      0x00\n        /* \"solidity-study-main/4.example/erc721/erc721.sol\":5014:5019  owner */\n      dup6\n        /* \"solidity-study-main/4.example/erc721/erc721.sol\":4995:5020  _operatorApprovals[owner] */\n      0xffffffffffffffffffffffffffffffffffffffff\n      and\n      0xffffffffffffffffffffffffffffffffffffffff\n      and\n      dup2\n      mstore\n      0x20\n      add\n      swap1\n      dup2\n      mstore\n      0x20\n      add\n      0x00\n      keccak256\n        /* \"solidity-study-main/4.example/erc721/erc721.sol\":4995:5030  _operatorApprovals[owner][operator] */\n      0x00\n        /* \"solidity-study-main/4.example/erc721/erc721.sol\":5021:5029  operator */\n      dup5\n        /* \"solidity-study-main/4.example/erc721/erc721.sol\":4995:5030  _operatorApprovals[owner][operator] */\n      0xffffffffffffffffffffffffffffffffffffffff\n      and\n      0xffffffffffffffffffffffffffffffffffffffff\n      and\n      dup2\n      mstore\n      0x20\n      add\n      swap1\n      dup2\n      mstore\n      0x20\n      add\n      0x00\n      keccak256\n      0x00\n        /* \"solidity-study-main/4.example/erc721/erc721.sol\":4995:5041  _operatorApprovals[owner][operator] = approved */\n      0x0100\n      exp\n      dup2\n      sload\n      dup2\n      0xff\n      mul\n      not\n      and\n      swap1\n      dup4\n      iszero\n      iszero\n      mul\n      or\n      swap1\n      sstore\n      pop\n        /* \"solidity-study-main/4.example/erc721/erc721.sol\":5079:5087  operator */\n      dup2\n        /* \"solidity-study-main/4.example/erc721/erc721.sol\":5057:5098  ApprovalForAll(owner, operator, approved) */\n      0xffffffffffffffffffffffffffffffffffffffff\n      and\n        /* \"solidity-study-main/4.example/erc721/erc721.sol\":5072:5077  owner */\n      dup4\n        /* \"solidity-study-main/4.example/erc721/erc721.sol\":5057:5098  ApprovalForAll(owner, operator, approved) */\n      0xffffffffffffffffffffffffffffffffffffffff\n      and\n      0x17307eab39ab6107e8899845ad3d59bd9653f200f220920489ca2b5937696c31\n        /* \"solidity-study-main/4.example/erc721/erc721.sol\":5089:5097  approved */\n      dup4\n        /* \"solidity-study-main/4.example/erc721/erc721.sol\":5057:5098  ApprovalForAll(owner, operator, approved) */\n      mload(0x40)\n      tag_98\n      swap2\n      swap1\n      tag_72\n      jump\t// in\n    tag_98:\n      mload(0x40)\n      dup1\n      swap2\n      sub\n      swap1\n      log3\n        /* \"solidity-study-main/4.example/erc721/erc721.sol\":4902:5106  function setApprovalForAll(address owner, address operator, bool approved) public {... */\n      pop\n      pop\n      pop\n      jump\t// out\n        /* \"solidity-study-main/4.example/erc721/erc721.sol\":4055:4331  function burn(uint256 tokenId) public {... */\n    tag_42:\n        /* \"solidity-study-main/4.example/erc721/erc721.sol\":4104:4117  address owner */\n      0x00\n        /* \"solidity-study-main/4.example/erc721/erc721.sol\":4120:4127  _owners */\n      0x03\n        /* \"solidity-study-main/4.example/erc721/erc721.sol\":4120:4136  _owners[tokenId] */\n      0x00\n        /* \"solidity-study-main/4.example/erc721/erc721.sol\":4128:4135  tokenId */\n      dup4\n        /* \"solidity-study-main/4.example/erc721/erc721.sol\":4120:4136  _owners[tokenId] */\n      dup2\n      mstore\n      0x20\n      add\n      swap1\n      dup2\n      mstore\n      0x20\n      add\n      0x00\n      keccak256\n      0x00\n      swap1\n      sload\n      swap1\n      0x0100\n      exp\n      swap1\n      div\n      0xffffffffffffffffffffffffffffffffffffffff\n      and\n        /* \"solidity-study-main/4.example/erc721/erc721.sol\":4104:4136  address owner = _owners[tokenId] */\n      swap1\n      pop\n        /* \"solidity-study-main/4.example/erc721/erc721.sol\":4154:4169  _tokenApprovals */\n      0x05\n        /* \"solidity-study-main/4.example/erc721/erc721.sol\":4154:4178  _tokenApprovals[tokenId] */\n      0x00\n        /* \"solidity-study-main/4.example/erc721/erc721.sol\":4170:4177  tokenId */\n      dup4\n        /* \"solidity-study-main/4.example/erc721/erc721.sol\":4154:4178  _tokenApprovals[tokenId] */\n      dup2\n      mstore\n      0x20\n      add\n      swap1\n      dup2\n      mstore\n      0x20\n      add\n      0x00\n      keccak256\n      0x00\n        /* \"solidity-study-main/4.example/erc721/erc721.sol\":4147:4178  delete _tokenApprovals[tokenId] */\n      0x0100\n      exp\n      dup2\n      sload\n      swap1\n      0xffffffffffffffffffffffffffffffffffffffff\n      mul\n      not\n      and\n      swap1\n      sstore\n        /* \"solidity-study-main/4.example/erc721/erc721.sol\":4209:4210  1 */\n      0x01\n        /* \"solidity-study-main/4.example/erc721/erc721.sol\":4189:4198  _balances */\n      0x04\n        /* \"solidity-study-main/4.example/erc721/erc721.sol\":4189:4205  _balances[owner] */\n      0x00\n        /* \"solidity-study-main/4.example/erc721/erc721.sol\":4199:4204  owner */\n      dup4\n        /* \"solidity-study-main/4.example/erc721/erc721.sol\":4189:4205  _balances[owner] */\n      0xffffffffffffffffffffffffffffffffffffffff\n      and\n      0xffffffffffffffffffffffffffffffffffffffff\n      and\n      dup2\n      mstore\n      0x20\n      add\n      swap1\n      dup2\n      mstore\n      0x20\n      add\n      0x00\n      keccak256\n      0x00\n        /* \"solidity-study-main/4.example/erc721/erc721.sol\":4189:4210  _balances[owner] -= 1 */\n      dup3\n      dup3\n      sload\n      tag_100\n      swap2\n      swap1\n      tag_94\n      jump\t// in\n    tag_100:\n      swap3\n      pop\n      pop\n      dup2\n      swap1\n      sstore\n      pop\n        /* \"solidity-study-main/4.example/erc721/erc721.sol\":4228:4235  _owners */\n      0x03\n        /* \"solidity-study-main/4.example/erc721/erc721.sol\":4228:4244  _owners[tokenId] */\n      0x00\n        /* \"solidity-study-main/4.example/erc721/erc721.sol\":4236:4243  tokenId */\n      dup4\n        /* \"solidity-study-main/4.example/erc721/erc721.sol\":4228:4244  _owners[tokenId] */\n      dup2\n      mstore\n      0x20\n      add\n      swap1\n      dup2\n      mstore\n      0x20\n      add\n      0x00\n      keccak256\n      0x00\n        /* \"solidity-study-main/4.example/erc721/erc721.sol\":4221:4244  delete _owners[tokenId] */\n      0x0100\n      exp\n      dup2\n      sload\n      swap1\n      0xffffffffffffffffffffffffffffffffffffffff\n      mul\n      not\n      and\n      swap1\n      sstore\n        /* \"solidity-study-main/4.example/erc721/erc721.sol\":4270:4271  1 */\n      0x01\n        /* \"solidity-study-main/4.example/erc721/erc721.sol\":4255:4266  totalSupply */\n      0x07\n      0x00\n        /* \"solidity-study-main/4.example/erc721/erc721.sol\":4255:4271  totalSupply -= 1 */\n      dup3\n      dup3\n      sload\n      tag_101\n      swap2\n      swap1\n      tag_94\n      jump\t// in\n    tag_101:\n      swap3\n      pop\n      pop\n      dup2\n      swap1\n      sstore\n      pop\n        /* \"solidity-study-main/4.example/erc721/erc721.sol\":4315:4322  tokenId */\n      dup2\n        /* \"solidity-study-main/4.example/erc721/erc721.sol\":4311:4312  0 */\n      0x00\n        /* \"solidity-study-main/4.example/erc721/erc721.sol\":4287:4323  Transfer(owner, address(0), tokenId) */\n      0xffffffffffffffffffffffffffffffffffffffff\n      and\n        /* \"solidity-study-main/4.example/erc721/erc721.sol\":4296:4301  owner */\n      dup3\n        /* \"solidity-study-main/4.example/erc721/erc721.sol\":4287:4323  Transfer(owner, address(0), tokenId) */\n      0xffffffffffffffffffffffffffffffffffffffff\n      and\n      0xddf252ad1be2c89b69c2b068fc378daa952ba7f163c4a11628f55a4df523b3ef\n      mload(0x40)\n      mload(0x40)\n      dup1\n      swap2\n      sub\n      swap1\n      log4\n        /* \"solidity-study-main/4.example/erc721/erc721.sol\":4093:4331  {... */\n      pop\n        /* \"solidity-study-main/4.example/erc721/erc721.sol\":4055:4331  function burn(uint256 tokenId) public {... */\n      pop\n      jump\t// out\n        /* \"solidity-study-main/4.example/erc721/erc721.sol\":2623:2735  function ownerOf(uint256 tokenId) public view returns (address owner) {... */\n    tag_45:\n        /* \"solidity-study-main/4.example/erc721/erc721.sol\":2678:2691  address owner */\n      0x00\n        /* \"solidity-study-main/4.example/erc721/erc721.sol\":2711:2718  _owners */\n      0x03\n        /* \"solidity-study-main/4.example/erc721/erc721.sol\":2711:2727  _owners[tokenId] */\n      0x00\n        /* \"solidity-study-main/4.example/erc721/erc721.sol\":2719:2726  tokenId */\n      dup4\n        /* \"solidity-study-main/4.example/erc721/erc721.sol\":2711:2727  _owners[tokenId] */\n      dup2\n      mstore\n      0x20\n      add\n      swap1\n      dup2\n      mstore\n      0x20\n      add\n      0x00\n      keccak256\n      0x00\n      swap1\n      sload\n      swap1\n      0x0100\n      exp\n      swap1\n      div\n      0xffffffffffffffffffffffffffffffffffffffff\n      and\n        /* \"solidity-study-main/4.example/erc721/erc721.sol\":2704:2727  return _owners[tokenId] */\n      swap1\n      pop\n        /* \"solidity-study-main/4.example/erc721/erc721.sol\":2623:2735  function ownerOf(uint256 tokenId) public view returns (address owner) {... */\n      swap2\n      swap1\n      pop\n      jump\t// out\n        /* \"solidity-study-main/4.example/erc721/erc721.sol\":2501:2615  function balanceOf(address owner) public view returns (uint256 balance) {... */\n    tag_50:\n        /* \"solidity-study-main/4.example/erc721/erc721.sol\":2556:2571  uint256 balance */\n      0x00\n        /* \"solidity-study-main/4.example/erc721/erc721.sol\":2591:2600  _balances */\n      0x04\n        /* \"solidity-study-main/4.example/erc721/erc721.sol\":2591:2607  _balances[owner] */\n      0x00\n        /* \"solidity-study-main/4.example/erc721/erc721.sol\":2601:2606  owner */\n      dup4\n        /* \"solidity-study-main/4.example/erc721/erc721.sol\":2591:2607  _balances[owner] */\n      0xffffffffffffffffffffffffffffffffffffffff\n      and\n      0xffffffffffffffffffffffffffffffffffffffff\n      and\n      dup2\n      mstore\n      0x20\n      add\n      swap1\n      dup2\n      mstore\n      0x20\n      add\n      0x00\n      keccak256\n      sload\n        /* \"solidity-study-main/4.example/erc721/erc721.sol\":2584:2607  return _balances[owner] */\n      swap1\n      pop\n        /* \"solidity-study-main/4.example/erc721/erc721.sol\":2501:2615  function balanceOf(address owner) public view returns (uint256 balance) {... */\n      swap2\n      swap1\n      pop\n      jump\t// out\n        /* \"solidity-study-main/4.example/erc721/erc721.sol\":2834:2921  function symbol() public view returns (string memory) {... */\n    tag_54:\n        /* \"solidity-study-main/4.example/erc721/erc721.sol\":2873:2886  string memory */\n      0x60\n        /* \"solidity-study-main/4.example/erc721/erc721.sol\":2906:2913  _symbol */\n      0x01\n        /* \"solidity-study-main/4.example/erc721/erc721.sol\":2899:2913  return _symbol */\n      dup1\n      sload\n      tag_105\n      swap1\n      tag_75\n      jump\t// in\n    tag_105:\n      dup1\n      0x1f\n      add\n      0x20\n      dup1\n      swap2\n      div\n      mul\n      0x20\n      add\n      mload(0x40)\n      swap1\n      dup2\n      add\n      0x40\n      mstore\n      dup1\n      swap3\n      swap2\n      swap1\n      dup2\n      dup2\n      mstore\n      0x20\n      add\n      dup3\n      dup1\n      sload\n      tag_106\n      swap1\n      tag_75\n      jump\t// in\n    tag_106:\n      dup1\n      iszero\n      tag_107\n      jumpi\n      dup1\n      0x1f\n      lt\n      tag_108\n      jumpi\n      0x0100\n      dup1\n      dup4\n      sload\n      div\n      mul\n      dup4\n      mstore\n      swap2\n      0x20\n      add\n      swap2\n      jump(tag_107)\n    tag_108:\n      dup3\n      add\n      swap2\n      swap1\n      0x00\n      mstore\n      keccak256(0x00, 0x20)\n      swap1\n    tag_109:\n      dup2\n      sload\n      dup2\n      mstore\n      swap1\n      0x01\n      add\n      swap1\n      0x20\n      add\n      dup1\n      dup4\n      gt\n      tag_109\n      jumpi\n      dup3\n      swap1\n      sub\n      0x1f\n      and\n      dup3\n      add\n      swap2\n    tag_107:\n      pop\n      pop\n      pop\n      pop\n      pop\n      swap1\n      pop\n        /* \"solidity-study-main/4.example/erc721/erc721.sol\":2834:2921  function symbol() public view returns (string memory) {... */\n      swap1\n      jump\t// out\n        /* \"solidity-study-main/4.example/erc721/erc721.sol\":4339:4661  function transfer(address to, uint256 tokenId) public {... */\n    tag_58:\n        /* \"solidity-study-main/4.example/erc721/erc721.sol\":4432:4442  msg.sender */\n      caller\n        /* \"solidity-study-main/4.example/erc721/erc721.sol\":4412:4442  _owners[tokenId] == msg.sender */\n      0xffffffffffffffffffffffffffffffffffffffff\n      and\n        /* \"solidity-study-main/4.example/erc721/erc721.sol\":4412:4419  _owners */\n      0x03\n        /* \"solidity-study-main/4.example/erc721/erc721.sol\":4412:4428  _owners[tokenId] */\n      0x00\n        /* \"solidity-study-main/4.example/erc721/erc721.sol\":4420:4427  tokenId */\n      dup4\n        /* \"solidity-study-main/4.example/erc721/erc721.sol\":4412:4428  _owners[tokenId] */\n      dup2\n      mstore\n      0x20\n      add\n      swap1\n      dup2\n      mstore\n      0x20\n      add\n      0x00\n      keccak256\n      0x00\n      swap1\n      sload\n      swap1\n      0x0100\n      exp\n      swap1\n      div\n      0xffffffffffffffffffffffffffffffffffffffff\n      and\n        /* \"solidity-study-main/4.example/erc721/erc721.sol\":4412:4442  _owners[tokenId] == msg.sender */\n      0xffffffffffffffffffffffffffffffffffffffff\n      and\n      eq\n        /* \"solidity-study-main/4.example/erc721/erc721.sol\":4404:4462  require(_owners[tokenId] == msg.sender, \"Incorrect Onwer\") */\n      tag_111\n      jumpi\n      mload(0x40)\n      0x08c379a000000000000000000000000000000000000000000000000000000000\n      dup2\n      mstore\n      0x04\n      add\n      tag_112\n      swap1\n      tag_113\n      jump\t// in\n    tag_112:\n      mload(0x40)\n      dup1\n      swap2\n      sub\n      swap1\n      revert\n    tag_111:\n        /* \"solidity-study-main/4.example/erc721/erc721.sol\":4480:4495  _tokenApprovals */\n      0x05\n        /* \"solidity-study-main/4.example/erc721/erc721.sol\":4480:4504  _tokenApprovals[tokenId] */\n      0x00\n        /* \"solidity-study-main/4.example/erc721/erc721.sol\":4496:4503  tokenId */\n      dup3\n        /* \"solidity-study-main/4.example/erc721/erc721.sol\":4480:4504  _tokenApprovals[tokenId] */\n      dup2\n      mstore\n      0x20\n      add\n      swap1\n      dup2\n      mstore\n      0x20\n      add\n      0x00\n      keccak256\n      0x00\n        /* \"solidity-study-main/4.example/erc721/erc721.sol\":4473:4504  delete _tokenApprovals[tokenId] */\n      0x0100\n      exp\n      dup2\n      sload\n      swap1\n      0xffffffffffffffffffffffffffffffffffffffff\n      mul\n      not\n      and\n      swap1\n      sstore\n        /* \"solidity-study-main/4.example/erc721/erc721.sol\":4542:4543  1 */\n      0x01\n        /* \"solidity-study-main/4.example/erc721/erc721.sol\":4517:4526  _balances */\n      0x04\n        /* \"solidity-study-main/4.example/erc721/erc721.sol\":4517:4538  _balances[msg.sender] */\n      0x00\n        /* \"solidity-study-main/4.example/erc721/erc721.sol\":4527:4537  msg.sender */\n      caller\n        /* \"solidity-study-main/4.example/erc721/erc721.sol\":4517:4538  _balances[msg.sender] */\n      0xffffffffffffffffffffffffffffffffffffffff\n      and\n      0xffffffffffffffffffffffffffffffffffffffff\n      and\n      dup2\n      mstore\n      0x20\n      add\n      swap1\n      dup2\n      mstore\n      0x20\n      add\n      0x00\n      keccak256\n      0x00\n        /* \"solidity-study-main/4.example/erc721/erc721.sol\":4517:4543  _balances[msg.sender] -= 1 */\n      dup3\n      dup3\n      sload\n      tag_114\n      swap2\n      swap1\n      tag_94\n      jump\t// in\n    tag_114:\n      swap3\n      pop\n      pop\n      dup2\n      swap1\n      sstore\n      pop\n        /* \"solidity-study-main/4.example/erc721/erc721.sol\":4571:4572  1 */\n      0x01\n        /* \"solidity-study-main/4.example/erc721/erc721.sol\":4554:4563  _balances */\n      0x04\n        /* \"solidity-study-main/4.example/erc721/erc721.sol\":4554:4567  _balances[to] */\n      0x00\n        /* \"solidity-study-main/4.example/erc721/erc721.sol\":4564:4566  to */\n      dup5\n        /* \"solidity-study-main/4.example/erc721/erc721.sol\":4554:4567  _balances[to] */\n      0xffffffffffffffffffffffffffffffffffffffff\n      and\n      0xffffffffffffffffffffffffffffffffffffffff\n      and\n      dup2\n      mstore\n      0x20\n      add\n      swap1\n      dup2\n      mstore\n      0x20\n      add\n      0x00\n      keccak256\n      0x00\n        /* \"solidity-study-main/4.example/erc721/erc721.sol\":4554:4572  _balances[to] += 1 */\n      dup3\n      dup3\n      sload\n      tag_115\n      swap2\n      swap1\n      tag_96\n      jump\t// in\n    tag_115:\n      swap3\n      pop\n      pop\n      dup2\n      swap1\n      sstore\n      pop\n        /* \"solidity-study-main/4.example/erc721/erc721.sol\":4602:4604  to */\n      dup2\n        /* \"solidity-study-main/4.example/erc721/erc721.sol\":4583:4590  _owners */\n      0x03\n        /* \"solidity-study-main/4.example/erc721/erc721.sol\":4583:4599  _owners[tokenId] */\n      0x00\n        /* \"solidity-study-main/4.example/erc721/erc721.sol\":4591:4598  tokenId */\n      dup4\n        /* \"solidity-study-main/4.example/erc721/erc721.sol\":4583:4599  _owners[tokenId] */\n      dup2\n      mstore\n      0x20\n      add\n      swap1\n      dup2\n      mstore\n      0x20\n      add\n      0x00\n      keccak256\n      0x00\n        /* \"solidity-study-main/4.example/erc721/erc721.sol\":4583:4604  _owners[tokenId] = to */\n      0x0100\n      exp\n      dup2\n      sload\n      dup2\n      0xffffffffffffffffffffffffffffffffffffffff\n      mul\n      not\n      and\n      swap1\n      dup4\n      0xffffffffffffffffffffffffffffffffffffffff\n      and\n      mul\n      or\n      swap1\n      sstore\n      pop\n        /* \"solidity-study-main/4.example/erc721/erc721.sol\":4645:4652  tokenId */\n      dup1\n        /* \"solidity-study-main/4.example/erc721/erc721.sol\":4641:4643  to */\n      dup3\n        /* \"solidity-study-main/4.example/erc721/erc721.sol\":4620:4653  Transfer(msg.sender, to, tokenId) */\n      0xffffffffffffffffffffffffffffffffffffffff\n      and\n        /* \"solidity-study-main/4.example/erc721/erc721.sol\":4629:4639  msg.sender */\n      caller\n        /* \"solidity-study-main/4.example/erc721/erc721.sol\":4620:4653  Transfer(msg.sender, to, tokenId) */\n      0xffffffffffffffffffffffffffffffffffffffff\n      and\n      0xddf252ad1be2c89b69c2b068fc378daa952ba7f163c4a11628f55a4df523b3ef\n      mload(0x40)\n      mload(0x40)\n      dup1\n      swap2\n      sub\n      swap1\n      log4\n        /* \"solidity-study-main/4.example/erc721/erc721.sol\":4339:4661  function transfer(address to, uint256 tokenId) public {... */\n      pop\n      pop\n      jump\t// out\n        /* \"solidity-study-main/4.example/erc721/erc721.sol\":2929:3045  function tokenURI(uint256 tokenId) public view returns (string memory) {... */\n    tag_61:\n        /* \"solidity-study-main/4.example/erc721/erc721.sol\":2985:2998  string memory */\n      0x60\n        /* \"solidity-study-main/4.example/erc721/erc721.sol\":3018:3028  _tokenInfo */\n      0x02\n        /* \"solidity-study-main/4.example/erc721/erc721.sol\":3018:3037  _tokenInfo[tokenId] */\n      0x00\n        /* \"solidity-study-main/4.example/erc721/erc721.sol\":3029:3036  tokenId */\n      dup4\n        /* \"solidity-study-main/4.example/erc721/erc721.sol\":3018:3037  _tokenInfo[tokenId] */\n      dup2\n      mstore\n      0x20\n      add\n      swap1\n      dup2\n      mstore\n      0x20\n      add\n      0x00\n      keccak256\n        /* \"solidity-study-main/4.example/erc721/erc721.sol\":3011:3037  return _tokenInfo[tokenId] */\n      dup1\n      sload\n      tag_117\n      swap1\n      tag_75\n      jump\t// in\n    tag_117:\n      dup1\n      0x1f\n      add\n      0x20\n      dup1\n      swap2\n      div\n      mul\n      0x20\n      add\n      mload(0x40)\n      swap1\n      dup2\n      add\n      0x40\n      mstore\n      dup1\n      swap3\n      swap2\n      swap1\n      dup2\n      dup2\n      mstore\n      0x20\n      add\n      dup3\n      dup1\n      sload\n      tag_118\n      swap1\n      tag_75\n      jump\t// in\n    tag_118:\n      dup1\n      iszero\n      tag_119\n      jumpi\n      dup1\n      0x1f\n      lt\n      tag_120\n      jumpi\n      0x0100\n      dup1\n      dup4\n      sload\n      div\n      mul\n      dup4\n      mstore\n      swap2\n      0x20\n      add\n      swap2\n      jump(tag_119)\n    tag_120:\n      dup3\n      add\n      swap2\n      swap1\n      0x00\n      mstore\n      keccak256(0x00, 0x20)\n      swap1\n    tag_121:\n      dup2\n      sload\n      dup2\n      mstore\n      swap1\n      0x01\n      add\n      swap1\n      0x20\n      add\n      dup1\n      dup4\n      gt\n      tag_121\n      jumpi\n      dup3\n      swap1\n      sub\n      0x1f\n      and\n      dup3\n      add\n      swap2\n    tag_119:\n      pop\n      pop\n      pop\n      pop\n      pop\n      swap1\n      pop\n        /* \"solidity-study-main/4.example/erc721/erc721.sol\":2929:3045  function tokenURI(uint256 tokenId) public view returns (string memory) {... */\n      swap2\n      swap1\n      pop\n      jump\t// out\n        /* \"solidity-study-main/4.example/erc721/erc721.sol\":3797:4047  function mint(address to, uint256 tokenId, string memory uri) public {... */\n    tag_66:\n        /* \"solidity-study-main/4.example/erc721/erc721.sol\":3894:3895  1 */\n      0x01\n        /* \"solidity-study-main/4.example/erc721/erc721.sol\":3877:3886  _balances */\n      0x04\n        /* \"solidity-study-main/4.example/erc721/erc721.sol\":3877:3890  _balances[to] */\n      0x00\n        /* \"solidity-study-main/4.example/erc721/erc721.sol\":3887:3889  to */\n      dup6\n        /* \"solidity-study-main/4.example/erc721/erc721.sol\":3877:3890  _balances[to] */\n      0xffffffffffffffffffffffffffffffffffffffff\n      and\n      0xffffffffffffffffffffffffffffffffffffffff\n      and\n      dup2\n      mstore\n      0x20\n      add\n      swap1\n      dup2\n      mstore\n      0x20\n      add\n      0x00\n      keccak256\n      0x00\n        /* \"solidity-study-main/4.example/erc721/erc721.sol\":3877:3895  _balances[to] += 1 */\n      dup3\n      dup3\n      sload\n      tag_123\n      swap2\n      swap1\n      tag_96\n      jump\t// in\n    tag_123:\n      swap3\n      pop\n      pop\n      dup2\n      swap1\n      sstore\n      pop\n        /* \"solidity-study-main/4.example/erc721/erc721.sol\":3925:3927  to */\n      dup3\n        /* \"solidity-study-main/4.example/erc721/erc721.sol\":3906:3913  _owners */\n      0x03\n        /* \"solidity-study-main/4.example/erc721/erc721.sol\":3906:3922  _owners[tokenId] */\n      0x00\n        /* \"solidity-study-main/4.example/erc721/erc721.sol\":3914:3921  tokenId */\n      dup5\n        /* \"solidity-study-main/4.example/erc721/erc721.sol\":3906:3922  _owners[tokenId] */\n      dup2\n      mstore\n      0x20\n      add\n      swap1\n      dup2\n      mstore\n      0x20\n      add\n      0x00\n      keccak256\n      0x00\n        /* \"solidity-study-main/4.example/erc721/erc721.sol\":3906:3927  _owners[tokenId] = to */\n      0x0100\n      exp\n      dup2\n      sload\n      dup2\n      0xffffffffffffffffffffffffffffffffffffffff\n      mul\n      not\n      and\n      swap1\n      dup4\n      0xffffffffffffffffffffffffffffffffffffffff\n      and\n      mul\n      or\n      swap1\n      sstore\n      pop\n        /* \"solidity-study-main/4.example/erc721/erc721.sol\":3960:3963  uri */\n      dup1\n        /* \"solidity-study-main/4.example/erc721/erc721.sol\":3938:3948  _tokenInfo */\n      0x02\n        /* \"solidity-study-main/4.example/erc721/erc721.sol\":3938:3957  _tokenInfo[tokenId] */\n      0x00\n        /* \"solidity-study-main/4.example/erc721/erc721.sol\":3949:3956  tokenId */\n      dup5\n        /* \"solidity-study-main/4.example/erc721/erc721.sol\":3938:3957  _tokenInfo[tokenId] */\n      dup2\n      mstore\n      0x20\n      add\n      swap1\n      dup2\n      mstore\n      0x20\n      add\n      0x00\n      keccak256\n        /* \"solidity-study-main/4.example/erc721/erc721.sol\":3938:3963  _tokenInfo[tokenId] = uri */\n      swap1\n      dup2\n      tag_124\n      swap2\n      swap1\n      tag_125\n      jump\t// in\n    tag_124:\n      pop\n        /* \"solidity-study-main/4.example/erc721/erc721.sol\":3989:3990  1 */\n      0x01\n        /* \"solidity-study-main/4.example/erc721/erc721.sol\":3974:3985  totalSupply */\n      0x07\n      0x00\n        /* \"solidity-study-main/4.example/erc721/erc721.sol\":3974:3990  totalSupply += 1 */\n      dup3\n      dup3\n      sload\n      tag_126\n      swap2\n      swap1\n      tag_96\n      jump\t// in\n    tag_126:\n      swap3\n      pop\n      pop\n      dup2\n      swap1\n      sstore\n      pop\n        /* \"solidity-study-main/4.example/erc721/erc721.sol\":4031:4038  tokenId */\n      dup2\n        /* \"solidity-study-main/4.example/erc721/erc721.sol\":4027:4029  to */\n      dup4\n        /* \"solidity-study-main/4.example/erc721/erc721.sol\":4006:4039  Transfer(address(0), to, tokenId) */\n      0xffffffffffffffffffffffffffffffffffffffff\n      and\n        /* \"solidity-study-main/4.example/erc721/erc721.sol\":4023:4024  0 */\n      0x00\n        /* \"solidity-study-main/4.example/erc721/erc721.sol\":4006:4039  Transfer(address(0), to, tokenId) */\n      0xffffffffffffffffffffffffffffffffffffffff\n      and\n      0xddf252ad1be2c89b69c2b068fc378daa952ba7f163c4a11628f55a4df523b3ef\n      mload(0x40)\n      mload(0x40)\n      dup1\n      swap2\n      sub\n      swap1\n      log4\n        /* \"solidity-study-main/4.example/erc721/erc721.sol\":3797:4047  function mint(address to, uint256 tokenId, string memory uri) public {... */\n      pop\n      pop\n      pop\n      jump\t// out\n        /* \"solidity-study-main/4.example/erc721/erc721.sol\":3188:3335  function isApprovedForAll(address owner, address operator) public view returns (bool) {... */\n    tag_70:\n        /* \"solidity-study-main/4.example/erc721/erc721.sol\":3268:3272  bool */\n      0x00\n        /* \"solidity-study-main/4.example/erc721/erc721.sol\":3292:3310  _operatorApprovals */\n      0x06\n        /* \"solidity-study-main/4.example/erc721/erc721.sol\":3292:3317  _operatorApprovals[owner] */\n      0x00\n        /* \"solidity-study-main/4.example/erc721/erc721.sol\":3311:3316  owner */\n      dup5\n        /* \"solidity-study-main/4.example/erc721/erc721.sol\":3292:3317  _operatorApprovals[owner] */\n      0xffffffffffffffffffffffffffffffffffffffff\n      and\n      0xffffffffffffffffffffffffffffffffffffffff\n      and\n      dup2\n      mstore\n      0x20\n      add\n      swap1\n      dup2\n      mstore\n      0x20\n      add\n      0x00\n      keccak256\n        /* \"solidity-study-main/4.example/erc721/erc721.sol\":3292:3327  _operatorApprovals[owner][operator] */\n      0x00\n        /* \"solidity-study-main/4.example/erc721/erc721.sol\":3318:3326  operator */\n      dup4\n        /* \"solidity-study-main/4.example/erc721/erc721.sol\":3292:3327  _operatorApprovals[owner][operator] */\n      0xffffffffffffffffffffffffffffffffffffffff\n      and\n      0xffffffffffffffffffffffffffffffffffffffff\n      and\n      dup2\n      mstore\n      0x20\n      add\n      swap1\n      dup2\n      mstore\n      0x20\n      add\n      0x00\n      keccak256\n      0x00\n      swap1\n      sload\n      swap1\n      0x0100\n      exp\n      swap1\n      div\n      0xff\n      and\n        /* \"solidity-study-main/4.example/erc721/erc721.sol\":3285:3327  return _operatorApprovals[owner][operator] */\n      swap1\n      pop\n        /* \"solidity-study-main/4.example/erc721/erc721.sol\":3188:3335  function isApprovedForAll(address owner, address operator) public view returns (bool) {... */\n      swap3\n      swap2\n      pop\n      pop\n      jump\t// out\n        /* \"#utility.yul\":7:106   */\n    tag_128:\n        /* \"#utility.yul\":59:65   */\n      0x00\n        /* \"#utility.yul\":93:98   */\n      dup2\n        /* \"#utility.yul\":87:99   */\n      mload\n        /* \"#utility.yul\":77:99   */\n      swap1\n      pop\n        /* \"#utility.yul\":7:106   */\n      swap2\n      swap1\n      pop\n      jump\t// out\n        /* \"#utility.yul\":112:281   */\n    tag_129:\n        /* \"#utility.yul\":196:207   */\n      0x00\n        /* \"#utility.yul\":230:236   */\n      dup3\n        /* \"#utility.yul\":225:228   */\n      dup3\n        /* \"#utility.yul\":218:237   */\n      mstore\n        /* \"#utility.yul\":270:274   */\n      0x20\n        /* \"#utility.yul\":265:268   */\n      dup3\n        /* \"#utility.yul\":261:275   */\n      add\n        /* \"#utility.yul\":246:275   */\n      swap1\n      pop\n        /* \"#utility.yul\":112:281   */\n      swap3\n      swap2\n      pop\n      pop\n      jump\t// out\n        /* \"#utility.yul\":287:533   */\n    tag_130:\n        /* \"#utility.yul\":368:369   */\n      0x00\n        /* \"#utility.yul\":378:491   */\n    tag_185:\n        /* \"#utility.yul\":392:398   */\n      dup4\n        /* \"#utility.yul\":389:390   */\n      dup2\n        /* \"#utility.yul\":386:399   */\n      lt\n        /* \"#utility.yul\":378:491   */\n      iszero\n      tag_187\n      jumpi\n        /* \"#utility.yul\":477:478   */\n      dup1\n        /* \"#utility.yul\":472:475   */\n      dup3\n        /* \"#utility.yul\":468:479   */\n      add\n        /* \"#utility.yul\":462:480   */\n      mload\n        /* \"#utility.yul\":458:459   */\n      dup2\n        /* \"#utility.yul\":453:456   */\n      dup5\n        /* \"#utility.yul\":449:460   */\n      add\n        /* \"#utility.yul\":442:481   */\n      mstore\n        /* \"#utility.yul\":414:416   */\n      0x20\n        /* \"#utility.yul\":411:412   */\n      dup2\n        /* \"#utility.yul\":407:417   */\n      add\n        /* \"#utility.yul\":402:417   */\n      swap1\n      pop\n        /* \"#utility.yul\":378:491   */\n      jump(tag_185)\n    tag_187:\n        /* \"#utility.yul\":525:526   */\n      0x00\n        /* \"#utility.yul\":516:522   */\n      dup5\n        /* \"#utility.yul\":511:514   */\n      dup5\n        /* \"#utility.yul\":507:523   */\n      add\n        /* \"#utility.yul\":500:527   */\n      mstore\n        /* \"#utility.yul\":349:533   */\n      pop\n        /* \"#utility.yul\":287:533   */\n      pop\n      pop\n      pop\n      jump\t// out\n        /* \"#utility.yul\":539:641   */\n    tag_131:\n        /* \"#utility.yul\":580:586   */\n      0x00\n        /* \"#utility.yul\":631:633   */\n      0x1f\n        /* \"#utility.yul\":627:634   */\n      not\n        /* \"#utility.yul\":622:624   */\n      0x1f\n        /* \"#utility.yul\":615:620   */\n      dup4\n        /* \"#utility.yul\":611:625   */\n      add\n        /* \"#utility.yul\":607:635   */\n      and\n        /* \"#utility.yul\":597:635   */\n      swap1\n      pop\n        /* \"#utility.yul\":539:641   */\n      swap2\n      swap1\n      pop\n      jump\t// out\n        /* \"#utility.yul\":647:1024   */\n    tag_132:\n        /* \"#utility.yul\":735:738   */\n      0x00\n        /* \"#utility.yul\":763:802   */\n      tag_190\n        /* \"#utility.yul\":796:801   */\n      dup3\n        /* \"#utility.yul\":763:802   */\n      tag_128\n      jump\t// in\n    tag_190:\n        /* \"#utility.yul\":818:889   */\n      tag_191\n        /* \"#utility.yul\":882:888   */\n      dup2\n        /* \"#utility.yul\":877:880   */\n      dup6\n        /* \"#utility.yul\":818:889   */\n      tag_129\n      jump\t// in\n    tag_191:\n        /* \"#utility.yul\":811:889   */\n      swap4\n      pop\n        /* \"#utility.yul\":898:963   */\n      tag_192\n        /* \"#utility.yul\":956:962   */\n      dup2\n        /* \"#utility.yul\":951:954   */\n      dup6\n        /* \"#utility.yul\":944:948   */\n      0x20\n        /* \"#utility.yul\":937:942   */\n      dup7\n        /* \"#utility.yul\":933:949   */\n      add\n        /* \"#utility.yul\":898:963   */\n      tag_130\n      jump\t// in\n    tag_192:\n        /* \"#utility.yul\":988:1017   */\n      tag_193\n        /* \"#utility.yul\":1010:1016   */\n      dup2\n        /* \"#utility.yul\":988:1017   */\n      tag_131\n      jump\t// in\n    tag_193:\n        /* \"#utility.yul\":983:986   */\n      dup5\n        /* \"#utility.yul\":979:1018   */\n      add\n        /* \"#utility.yul\":972:1018   */\n      swap2\n      pop\n        /* \"#utility.yul\":739:1024   */\n      pop\n        /* \"#utility.yul\":647:1024   */\n      swap3\n      swap2\n      pop\n      pop\n      jump\t// out\n        /* \"#utility.yul\":1030:1343   */\n    tag_21:\n        /* \"#utility.yul\":1143:1147   */\n      0x00\n        /* \"#utility.yul\":1181:1183   */\n      0x20\n        /* \"#utility.yul\":1170:1179   */\n      dup3\n        /* \"#utility.yul\":1166:1184   */\n      add\n        /* \"#utility.yul\":1158:1184   */\n      swap1\n      pop\n        /* \"#utility.yul\":1230:1239   */\n      dup2\n        /* \"#utility.yul\":1224:1228   */\n      dup2\n        /* \"#utility.yul\":1220:1240   */\n      sub\n        /* \"#utility.yul\":1216:1217   */\n      0x00\n        /* \"#utility.yul\":1205:1214   */\n      dup4\n        /* \"#utility.yul\":1201:1218   */\n      add\n        /* \"#utility.yul\":1194:1241   */\n      mstore\n        /* \"#utility.yul\":1258:1336   */\n      tag_195\n        /* \"#utility.yul\":1331:1335   */\n      dup2\n        /* \"#utility.yul\":1322:1328   */\n      dup5\n        /* \"#utility.yul\":1258:1336   */\n      tag_132\n      jump\t// in\n    tag_195:\n        /* \"#utility.yul\":1250:1336   */\n      swap1\n      pop\n        /* \"#utility.yul\":1030:1343   */\n      swap3\n      swap2\n      pop\n      pop\n      jump\t// out\n        /* \"#utility.yul\":1349:1424   */\n    tag_133:\n        /* \"#utility.yul\":1382:1388   */\n      0x00\n        /* \"#utility.yul\":1415:1417   */\n      0x40\n        /* \"#utility.yul\":1409:1418   */\n      mload\n        /* \"#utility.yul\":1399:1418   */\n      swap1\n      pop\n        /* \"#utility.yul\":1349:1424   */\n      swap1\n      jump\t// out\n        /* \"#utility.yul\":1430:1547   */\n    tag_134:\n        /* \"#utility.yul\":1539:1540   */\n      0x00\n        /* \"#utility.yul\":1536:1537   */\n      dup1\n        /* \"#utility.yul\":1529:1541   */\n      revert\n        /* \"#utility.yul\":1553:1670   */\n    tag_135:\n        /* \"#utility.yul\":1662:1663   */\n      0x00\n        /* \"#utility.yul\":1659:1660   */\n      dup1\n        /* \"#utility.yul\":1652:1664   */\n      revert\n        /* \"#utility.yul\":1676:1753   */\n    tag_136:\n        /* \"#utility.yul\":1713:1720   */\n      0x00\n        /* \"#utility.yul\":1742:1747   */\n      dup2\n        /* \"#utility.yul\":1731:1747   */\n      swap1\n      pop\n        /* \"#utility.yul\":1676:1753   */\n      swap2\n      swap1\n      pop\n      jump\t// out\n        /* \"#utility.yul\":1759:1881   */\n    tag_137:\n        /* \"#utility.yul\":1832:1856   */\n      tag_201\n        /* \"#utility.yul\":1850:1855   */\n      dup2\n        /* \"#utility.yul\":1832:1856   */\n      tag_136\n      jump\t// in\n    tag_201:\n        /* \"#utility.yul\":1825:1830   */\n      dup2\n        /* \"#utility.yul\":1822:1857   */\n      eq\n        /* \"#utility.yul\":1812:1875   */\n      tag_202\n      jumpi\n        /* \"#utility.yul\":1871:1872   */\n      0x00\n        /* \"#utility.yul\":1868:1869   */\n      dup1\n        /* \"#utility.yul\":1861:1873   */\n      revert\n        /* \"#utility.yul\":1812:1875   */\n    tag_202:\n        /* \"#utility.yul\":1759:1881   */\n      pop\n      jump\t// out\n        /* \"#utility.yul\":1887:2026   */\n    tag_138:\n        /* \"#utility.yul\":1933:1938   */\n      0x00\n        /* \"#utility.yul\":1971:1977   */\n      dup2\n        /* \"#utility.yul\":1958:1978   */\n      calldataload\n        /* \"#utility.yul\":1949:1978   */\n      swap1\n      pop\n        /* \"#utility.yul\":1987:2020   */\n      tag_204\n        /* \"#utility.yul\":2014:2019   */\n      dup2\n        /* \"#utility.yul\":1987:2020   */\n      tag_137\n      jump\t// in\n    tag_204:\n        /* \"#utility.yul\":1887:2026   */\n      swap3\n      swap2\n      pop\n      pop\n      jump\t// out\n        /* \"#utility.yul\":2032:2361   */\n    tag_24:\n        /* \"#utility.yul\":2091:2097   */\n      0x00\n        /* \"#utility.yul\":2140:2142   */\n      0x20\n        /* \"#utility.yul\":2128:2137   */\n      dup3\n        /* \"#utility.yul\":2119:2126   */\n      dup5\n        /* \"#utility.yul\":2115:2138   */\n      sub\n        /* \"#utility.yul\":2111:2143   */\n      slt\n        /* \"#utility.yul\":2108:2227   */\n      iszero\n      tag_206\n      jumpi\n        /* \"#utility.yul\":2146:2225   */\n      tag_207\n      tag_134\n      jump\t// in\n    tag_207:\n        /* \"#utility.yul\":2108:2227   */\n    tag_206:\n        /* \"#utility.yul\":2266:2267   */\n      0x00\n        /* \"#utility.yul\":2291:2344   */\n      tag_208\n        /* \"#utility.yul\":2336:2343   */\n      dup5\n        /* \"#utility.yul\":2327:2333   */\n      dup3\n        /* \"#utility.yul\":2316:2325   */\n      dup6\n        /* \"#utility.yul\":2312:2334   */\n      add\n        /* \"#utility.yul\":2291:2344   */\n      tag_138\n      jump\t// in\n    tag_208:\n        /* \"#utility.yul\":2281:2344   */\n      swap2\n      pop\n        /* \"#utility.yul\":2237:2354   */\n      pop\n        /* \"#utility.yul\":2032:2361   */\n      swap3\n      swap2\n      pop\n      pop\n      jump\t// out\n        /* \"#utility.yul\":2367:2493   */\n    tag_139:\n        /* \"#utility.yul\":2404:2411   */\n      0x00\n        /* \"#utility.yul\":2444:2486   */\n      0xffffffffffffffffffffffffffffffffffffffff\n        /* \"#utility.yul\":2437:2442   */\n      dup3\n        /* \"#utility.yul\":2433:2487   */\n      and\n        /* \"#utility.yul\":2422:2487   */\n      swap1\n      pop\n        /* \"#utility.yul\":2367:2493   */\n      swap2\n      swap1\n      pop\n      jump\t// out\n        /* \"#utility.yul\":2499:2595   */\n    tag_140:\n        /* \"#utility.yul\":2536:2543   */\n      0x00\n        /* \"#utility.yul\":2565:2589   */\n      tag_211\n        /* \"#utility.yul\":2583:2588   */\n      dup3\n        /* \"#utility.yul\":2565:2589   */\n      tag_139\n      jump\t// in\n    tag_211:\n        /* \"#utility.yul\":2554:2589   */\n      swap1\n      pop\n        /* \"#utility.yul\":2499:2595   */\n      swap2\n      swap1\n      pop\n      jump\t// out\n        /* \"#utility.yul\":2601:2719   */\n    tag_141:\n        /* \"#utility.yul\":2688:2712   */\n      tag_213\n        /* \"#utility.yul\":2706:2711   */\n      dup2\n        /* \"#utility.yul\":2688:2712   */\n      tag_140\n      jump\t// in\n    tag_213:\n        /* \"#utility.yul\":2683:2686   */\n      dup3\n        /* \"#utility.yul\":2676:2713   */\n      mstore\n        /* \"#utility.yul\":2601:2719   */\n      pop\n      pop\n      jump\t// out\n        /* \"#utility.yul\":2725:2947   */\n    tag_27:\n        /* \"#utility.yul\":2818:2822   */\n      0x00\n        /* \"#utility.yul\":2856:2858   */\n      0x20\n        /* \"#utility.yul\":2845:2854   */\n      dup3\n        /* \"#utility.yul\":2841:2859   */\n      add\n        /* \"#utility.yul\":2833:2859   */\n      swap1\n      pop\n        /* \"#utility.yul\":2869:2940   */\n      tag_215\n        /* \"#utility.yul\":2937:2938   */\n      0x00\n        /* \"#utility.yul\":2926:2935   */\n      dup4\n        /* \"#utility.yul\":2922:2939   */\n      add\n        /* \"#utility.yul\":2913:2919   */\n      dup5\n        /* \"#utility.yul\":2869:2940   */\n      tag_141\n      jump\t// in\n    tag_215:\n        /* \"#utility.yul\":2725:2947   */\n      swap3\n      swap2\n      pop\n      pop\n      jump\t// out\n        /* \"#utility.yul\":2953:3075   */\n    tag_142:\n        /* \"#utility.yul\":3026:3050   */\n      tag_217\n        /* \"#utility.yul\":3044:3049   */\n      dup2\n        /* \"#utility.yul\":3026:3050   */\n      tag_140\n      jump\t// in\n    tag_217:\n        /* \"#utility.yul\":3019:3024   */\n      dup2\n        /* \"#utility.yul\":3016:3051   */\n      eq\n        /* \"#utility.yul\":3006:3069   */\n      tag_218\n      jumpi\n        /* \"#utility.yul\":3065:3066   */\n      0x00\n        /* \"#utility.yul\":3062:3063   */\n      dup1\n        /* \"#utility.yul\":3055:3067   */\n      revert\n        /* \"#utility.yul\":3006:3069   */\n    tag_218:\n        /* \"#utility.yul\":2953:3075   */\n      pop\n      jump\t// out\n        /* \"#utility.yul\":3081:3220   */\n    tag_143:\n        /* \"#utility.yul\":3127:3132   */\n      0x00\n        /* \"#utility.yul\":3165:3171   */\n      dup2\n        /* \"#utility.yul\":3152:3172   */\n      calldataload\n        /* \"#utility.yul\":3143:3172   */\n      swap1\n      pop\n        /* \"#utility.yul\":3181:3214   */\n      tag_220\n        /* \"#utility.yul\":3208:3213   */\n      dup2\n        /* \"#utility.yul\":3181:3214   */\n      tag_142\n      jump\t// in\n    tag_220:\n        /* \"#utility.yul\":3081:3220   */\n      swap3\n      swap2\n      pop\n      pop\n      jump\t// out\n        /* \"#utility.yul\":3226:3700   */\n    tag_30:\n        /* \"#utility.yul\":3294:3300   */\n      0x00\n        /* \"#utility.yul\":3302:3308   */\n      dup1\n        /* \"#utility.yul\":3351:3353   */\n      0x40\n        /* \"#utility.yul\":3339:3348   */\n      dup4\n        /* \"#utility.yul\":3330:3337   */\n      dup6\n        /* \"#utility.yul\":3326:3349   */\n      sub\n        /* \"#utility.yul\":3322:3354   */\n      slt\n        /* \"#utility.yul\":3319:3438   */\n      iszero\n      tag_222\n      jumpi\n        /* \"#utility.yul\":3357:3436   */\n      tag_223\n      tag_134\n      jump\t// in\n    tag_223:\n        /* \"#utility.yul\":3319:3438   */\n    tag_222:\n        /* \"#utility.yul\":3477:3478   */\n      0x00\n        /* \"#utility.yul\":3502:3555   */\n      tag_224\n        /* \"#utility.yul\":3547:3554   */\n      dup6\n        /* \"#utility.yul\":3538:3544   */\n      dup3\n        /* \"#utility.yul\":3527:3536   */\n      dup7\n        /* \"#utility.yul\":3523:3545   */\n      add\n        /* \"#utility.yul\":3502:3555   */\n      tag_143\n      jump\t// in\n    tag_224:\n        /* \"#utility.yul\":3492:3555   */\n      swap3\n      pop\n        /* \"#utility.yul\":3448:3565   */\n      pop\n        /* \"#utility.yul\":3604:3606   */\n      0x20\n        /* \"#utility.yul\":3630:3683   */\n      tag_225\n        /* \"#utility.yul\":3675:3682   */\n      dup6\n        /* \"#utility.yul\":3666:3672   */\n      dup3\n        /* \"#utility.yul\":3655:3664   */\n      dup7\n        /* \"#utility.yul\":3651:3673   */\n      add\n        /* \"#utility.yul\":3630:3683   */\n      tag_138\n      jump\t// in\n    tag_225:\n        /* \"#utility.yul\":3620:3683   */\n      swap2\n      pop\n        /* \"#utility.yul\":3575:3693   */\n      pop\n        /* \"#utility.yul\":3226:3700   */\n      swap3\n      pop\n      swap3\n      swap1\n      pop\n      jump\t// out\n        /* \"#utility.yul\":3706:4325   */\n    tag_34:\n        /* \"#utility.yul\":3783:3789   */\n      0x00\n        /* \"#utility.yul\":3791:3797   */\n      dup1\n        /* \"#utility.yul\":3799:3805   */\n      0x00\n        /* \"#utility.yul\":3848:3850   */\n      0x60\n        /* \"#utility.yul\":3836:3845   */\n      dup5\n        /* \"#utility.yul\":3827:3834   */\n      dup7\n        /* \"#utility.yul\":3823:3846   */\n      sub\n        /* \"#utility.yul\":3819:3851   */\n      slt\n        /* \"#utility.yul\":3816:3935   */\n      iszero\n      tag_227\n      jumpi\n        /* \"#utility.yul\":3854:3933   */\n      tag_228\n      tag_134\n      jump\t// in\n    tag_228:\n        /* \"#utility.yul\":3816:3935   */\n    tag_227:\n        /* \"#utility.yul\":3974:3975   */\n      0x00\n        /* \"#utility.yul\":3999:4052   */\n      tag_229\n        /* \"#utility.yul\":4044:4051   */\n      dup7\n        /* \"#utility.yul\":4035:4041   */\n      dup3\n        /* \"#utility.yul\":4024:4033   */\n      dup8\n        /* \"#utility.yul\":4020:4042   */\n      add\n        /* \"#utility.yul\":3999:4052   */\n      tag_143\n      jump\t// in\n    tag_229:\n        /* \"#utility.yul\":3989:4052   */\n      swap4\n      pop\n        /* \"#utility.yul\":3945:4062   */\n      pop\n        /* \"#utility.yul\":4101:4103   */\n      0x20\n        /* \"#utility.yul\":4127:4180   */\n      tag_230\n        /* \"#utility.yul\":4172:4179   */\n      dup7\n        /* \"#utility.yul\":4163:4169   */\n      dup3\n        /* \"#utility.yul\":4152:4161   */\n      dup8\n        /* \"#utility.yul\":4148:4170   */\n      add\n        /* \"#utility.yul\":4127:4180   */\n      tag_143\n      jump\t// in\n    tag_230:\n        /* \"#utility.yul\":4117:4180   */\n      swap3\n      pop\n        /* \"#utility.yul\":4072:4190   */\n      pop\n        /* \"#utility.yul\":4229:4231   */\n      0x40\n        /* \"#utility.yul\":4255:4308   */\n      tag_231\n        /* \"#utility.yul\":4300:4307   */\n      dup7\n        /* \"#utility.yul\":4291:4297   */\n      dup3\n        /* \"#utility.yul\":4280:4289   */\n      dup8\n        /* \"#utility.yul\":4276:4298   */\n      add\n        /* \"#utility.yul\":4255:4308   */\n      tag_138\n      jump\t// in\n    tag_231:\n        /* \"#utility.yul\":4245:4308   */\n      swap2\n      pop\n        /* \"#utility.yul\":4200:4318   */\n      pop\n        /* \"#utility.yul\":3706:4325   */\n      swap3\n      pop\n      swap3\n      pop\n      swap3\n      jump\t// out\n        /* \"#utility.yul\":4331:4421   */\n    tag_144:\n        /* \"#utility.yul\":4365:4372   */\n      0x00\n        /* \"#utility.yul\":4408:4413   */\n      dup2\n        /* \"#utility.yul\":4401:4414   */\n      iszero\n        /* \"#utility.yul\":4394:4415   */\n      iszero\n        /* \"#utility.yul\":4383:4415   */\n      swap1\n      pop\n        /* \"#utility.yul\":4331:4421   */\n      swap2\n      swap1\n      pop\n      jump\t// out\n        /* \"#utility.yul\":4427:4543   */\n    tag_145:\n        /* \"#utility.yul\":4497:4518   */\n      tag_234\n        /* \"#utility.yul\":4512:4517   */\n      dup2\n        /* \"#utility.yul\":4497:4518   */\n      tag_144\n      jump\t// in\n    tag_234:\n        /* \"#utility.yul\":4490:4495   */\n      dup2\n        /* \"#utility.yul\":4487:4519   */\n      eq\n        /* \"#utility.yul\":4477:4537   */\n      tag_235\n      jumpi\n        /* \"#utility.yul\":4533:4534   */\n      0x00\n        /* \"#utility.yul\":4530:4531   */\n      dup1\n        /* \"#utility.yul\":4523:4535   */\n      revert\n        /* \"#utility.yul\":4477:4537   */\n    tag_235:\n        /* \"#utility.yul\":4427:4543   */\n      pop\n      jump\t// out\n        /* \"#utility.yul\":4549:4682   */\n    tag_146:\n        /* \"#utility.yul\":4592:4597   */\n      0x00\n        /* \"#utility.yul\":4630:4636   */\n      dup2\n        /* \"#utility.yul\":4617:4637   */\n      calldataload\n        /* \"#utility.yul\":4608:4637   */\n      swap1\n      pop\n        /* \"#utility.yul\":4646:4676   */\n      tag_237\n        /* \"#utility.yul\":4670:4675   */\n      dup2\n        /* \"#utility.yul\":4646:4676   */\n      tag_145\n      jump\t// in\n    tag_237:\n        /* \"#utility.yul\":4549:4682   */\n      swap3\n      swap2\n      pop\n      pop\n      jump\t// out\n        /* \"#utility.yul\":4688:5301   */\n    tag_38:\n        /* \"#utility.yul\":4762:4768   */\n      0x00\n        /* \"#utility.yul\":4770:4776   */\n      dup1\n        /* \"#utility.yul\":4778:4784   */\n      0x00\n        /* \"#utility.yul\":4827:4829   */\n      0x60\n        /* \"#utility.yul\":4815:4824   */\n      dup5\n        /* \"#utility.yul\":4806:4813   */\n      dup7\n        /* \"#utility.yul\":4802:4825   */\n      sub\n        /* \"#utility.yul\":4798:4830   */\n      slt\n        /* \"#utility.yul\":4795:4914   */\n      iszero\n      tag_239\n      jumpi\n        /* \"#utility.yul\":4833:4912   */\n      tag_240\n      tag_134\n      jump\t// in\n    tag_240:\n        /* \"#utility.yul\":4795:4914   */\n    tag_239:\n        /* \"#utility.yul\":4953:4954   */\n      0x00\n        /* \"#utility.yul\":4978:5031   */\n      tag_241\n        /* \"#utility.yul\":5023:5030   */\n      dup7\n        /* \"#utility.yul\":5014:5020   */\n      dup3\n        /* \"#utility.yul\":5003:5012   */\n      dup8\n        /* \"#utility.yul\":4999:5021   */\n      add\n        /* \"#utility.yul\":4978:5031   */\n      tag_143\n      jump\t// in\n    tag_241:\n        /* \"#utility.yul\":4968:5031   */\n      swap4\n      pop\n        /* \"#utility.yul\":4924:5041   */\n      pop\n        /* \"#utility.yul\":5080:5082   */\n      0x20\n        /* \"#utility.yul\":5106:5159   */\n      tag_242\n        /* \"#utility.yul\":5151:5158   */\n      dup7\n        /* \"#utility.yul\":5142:5148   */\n      dup3\n        /* \"#utility.yul\":5131:5140   */\n      dup8\n        /* \"#utility.yul\":5127:5149   */\n      add\n        /* \"#utility.yul\":5106:5159   */\n      tag_143\n      jump\t// in\n    tag_242:\n        /* \"#utility.yul\":5096:5159   */\n      swap3\n      pop\n        /* \"#utility.yul\":5051:5169   */\n      pop\n        /* \"#utility.yul\":5208:5210   */\n      0x40\n        /* \"#utility.yul\":5234:5284   */\n      tag_243\n        /* \"#utility.yul\":5276:5283   */\n      dup7\n        /* \"#utility.yul\":5267:5273   */\n      dup3\n        /* \"#utility.yul\":5256:5265   */\n      dup8\n        /* \"#utility.yul\":5252:5274   */\n      add\n        /* \"#utility.yul\":5234:5284   */\n      tag_146\n      jump\t// in\n    tag_243:\n        /* \"#utility.yul\":5224:5284   */\n      swap2\n      pop\n        /* \"#utility.yul\":5179:5294   */\n      pop\n        /* \"#utility.yul\":4688:5301   */\n      swap3\n      pop\n      swap3\n      pop\n      swap3\n      jump\t// out\n        /* \"#utility.yul\":5307:5636   */\n    tag_49:\n        /* \"#utility.yul\":5366:5372   */\n      0x00\n        /* \"#utility.yul\":5415:5417   */\n      0x20\n        /* \"#utility.yul\":5403:5412   */\n      dup3\n        /* \"#utility.yul\":5394:5401   */\n      dup5\n        /* \"#utility.yul\":5390:5413   */\n      sub\n        /* \"#utility.yul\":5386:5418   */\n      slt\n        /* \"#utility.yul\":5383:5502   */\n      iszero\n      tag_245\n      jumpi\n        /* \"#utility.yul\":5421:5500   */\n      tag_246\n      tag_134\n      jump\t// in\n    tag_246:\n        /* \"#utility.yul\":5383:5502   */\n    tag_245:\n        /* \"#utility.yul\":5541:5542   */\n      0x00\n        /* \"#utility.yul\":5566:5619   */\n      tag_247\n        /* \"#utility.yul\":5611:5618   */\n      dup5\n        /* \"#utility.yul\":5602:5608   */\n      dup3\n        /* \"#utility.yul\":5591:5600   */\n      dup6\n        /* \"#utility.yul\":5587:5609   */\n      add\n        /* \"#utility.yul\":5566:5619   */\n      tag_143\n      jump\t// in\n    tag_247:\n        /* \"#utility.yul\":5556:5619   */\n      swap2\n      pop\n        /* \"#utility.yul\":5512:5629   */\n      pop\n        /* \"#utility.yul\":5307:5636   */\n      swap3\n      swap2\n      pop\n      pop\n      jump\t// out\n        /* \"#utility.yul\":5642:5760   */\n    tag_147:\n        /* \"#utility.yul\":5729:5753   */\n      tag_249\n        /* \"#utility.yul\":5747:5752   */\n      dup2\n        /* \"#utility.yul\":5729:5753   */\n      tag_136\n      jump\t// in\n    tag_249:\n        /* \"#utility.yul\":5724:5727   */\n      dup3\n        /* \"#utility.yul\":5717:5754   */\n      mstore\n        /* \"#utility.yul\":5642:5760   */\n      pop\n      pop\n      jump\t// out\n        /* \"#utility.yul\":5766:5988   */\n    tag_52:\n        /* \"#utility.yul\":5859:5863   */\n      0x00\n        /* \"#utility.yul\":5897:5899   */\n      0x20\n        /* \"#utility.yul\":5886:5895   */\n      dup3\n        /* \"#utility.yul\":5882:5900   */\n      add\n        /* \"#utility.yul\":5874:5900   */\n      swap1\n      pop\n        /* \"#utility.yul\":5910:5981   */\n      tag_251\n        /* \"#utility.yul\":5978:5979   */\n      0x00\n        /* \"#utility.yul\":5967:5976   */\n      dup4\n        /* \"#utility.yul\":5963:5980   */\n      add\n        /* \"#utility.yul\":5954:5960   */\n      dup5\n        /* \"#utility.yul\":5910:5981   */\n      tag_147\n      jump\t// in\n    tag_251:\n        /* \"#utility.yul\":5766:5988   */\n      swap3\n      swap2\n      pop\n      pop\n      jump\t// out\n        /* \"#utility.yul\":5994:6111   */\n    tag_148:\n        /* \"#utility.yul\":6103:6104   */\n      0x00\n        /* \"#utility.yul\":6100:6101   */\n      dup1\n        /* \"#utility.yul\":6093:6105   */\n      revert\n        /* \"#utility.yul\":6117:6234   */\n    tag_149:\n        /* \"#utility.yul\":6226:6227   */\n      0x00\n        /* \"#utility.yul\":6223:6224   */\n      dup1\n        /* \"#utility.yul\":6216:6228   */\n      revert\n        /* \"#utility.yul\":6240:6420   */\n    tag_150:\n        /* \"#utility.yul\":6288:6365   */\n      0x4e487b7100000000000000000000000000000000000000000000000000000000\n        /* \"#utility.yul\":6285:6286   */\n      0x00\n        /* \"#utility.yul\":6278:6366   */\n      mstore\n        /* \"#utility.yul\":6385:6389   */\n      0x41\n        /* \"#utility.yul\":6382:6383   */\n      0x04\n        /* \"#utility.yul\":6375:6390   */\n      mstore\n        /* \"#utility.yul\":6409:6413   */\n      0x24\n        /* \"#utility.yul\":6406:6407   */\n      0x00\n        /* \"#utility.yul\":6399:6414   */\n      revert\n        /* \"#utility.yul\":6426:6707   */\n    tag_151:\n        /* \"#utility.yul\":6509:6536   */\n      tag_256\n        /* \"#utility.yul\":6531:6535   */\n      dup3\n        /* \"#utility.yul\":6509:6536   */\n      tag_131\n      jump\t// in\n    tag_256:\n        /* \"#utility.yul\":6501:6507   */\n      dup2\n        /* \"#utility.yul\":6497:6537   */\n      add\n        /* \"#utility.yul\":6639:6645   */\n      dup2\n        /* \"#utility.yul\":6627:6637   */\n      dup2\n        /* \"#utility.yul\":6624:6646   */\n      lt\n        /* \"#utility.yul\":6603:6621   */\n      0xffffffffffffffff\n        /* \"#utility.yul\":6591:6601   */\n      dup3\n        /* \"#utility.yul\":6588:6622   */\n      gt\n        /* \"#utility.yul\":6585:6647   */\n      or\n        /* \"#utility.yul\":6582:6670   */\n      iszero\n      tag_257\n      jumpi\n        /* \"#utility.yul\":6650:6668   */\n      tag_258\n      tag_150\n      jump\t// in\n    tag_258:\n        /* \"#utility.yul\":6582:6670   */\n    tag_257:\n        /* \"#utility.yul\":6690:6700   */\n      dup1\n        /* \"#utility.yul\":6686:6688   */\n      0x40\n        /* \"#utility.yul\":6679:6701   */\n      mstore\n        /* \"#utility.yul\":6469:6707   */\n      pop\n        /* \"#utility.yul\":6426:6707   */\n      pop\n      pop\n      jump\t// out\n        /* \"#utility.yul\":6713:6842   */\n    tag_152:\n        /* \"#utility.yul\":6747:6753   */\n      0x00\n        /* \"#utility.yul\":6774:6794   */\n      tag_260\n      tag_133\n      jump\t// in\n    tag_260:\n        /* \"#utility.yul\":6764:6794   */\n      swap1\n      pop\n        /* \"#utility.yul\":6803:6836   */\n      tag_261\n        /* \"#utility.yul\":6831:6835   */\n      dup3\n        /* \"#utility.yul\":6823:6829   */\n      dup3\n        /* \"#utility.yul\":6803:6836   */\n      tag_151\n      jump\t// in\n    tag_261:\n        /* \"#utility.yul\":6713:6842   */\n      swap2\n      swap1\n      pop\n      jump\t// out\n        /* \"#utility.yul\":6848:7156   */\n    tag_153:\n        /* \"#utility.yul\":6910:6914   */\n      0x00\n        /* \"#utility.yul\":7000:7018   */\n      0xffffffffffffffff\n        /* \"#utility.yul\":6992:6998   */\n      dup3\n        /* \"#utility.yul\":6989:7019   */\n      gt\n        /* \"#utility.yul\":6986:7042   */\n      iszero\n      tag_263\n      jumpi\n        /* \"#utility.yul\":7022:7040   */\n      tag_264\n      tag_150\n      jump\t// in\n    tag_264:\n        /* \"#utility.yul\":6986:7042   */\n    tag_263:\n        /* \"#utility.yul\":7060:7089   */\n      tag_265\n        /* \"#utility.yul\":7082:7088   */\n      dup3\n        /* \"#utility.yul\":7060:7089   */\n      tag_131\n      jump\t// in\n    tag_265:\n        /* \"#utility.yul\":7052:7089   */\n      swap1\n      pop\n        /* \"#utility.yul\":7144:7148   */\n      0x20\n        /* \"#utility.yul\":7138:7142   */\n      dup2\n        /* \"#utility.yul\":7134:7149   */\n      add\n        /* \"#utility.yul\":7126:7149   */\n      swap1\n      pop\n        /* \"#utility.yul\":6848:7156   */\n      swap2\n      swap1\n      pop\n      jump\t// out\n        /* \"#utility.yul\":7162:7308   */\n    tag_154:\n        /* \"#utility.yul\":7259:7265   */\n      dup3\n        /* \"#utility.yul\":7254:7257   */\n      dup2\n        /* \"#utility.yul\":7249:7252   */\n      dup4\n        /* \"#utility.yul\":7236:7266   */\n      calldatacopy\n        /* \"#utility.yul\":7300:7301   */\n      0x00\n        /* \"#utility.yul\":7291:7297   */\n      dup4\n        /* \"#utility.yul\":7286:7289   */\n      dup4\n        /* \"#utility.yul\":7282:7298   */\n      add\n        /* \"#utility.yul\":7275:7302   */\n      mstore\n        /* \"#utility.yul\":7162:7308   */\n      pop\n      pop\n      pop\n      jump\t// out\n        /* \"#utility.yul\":7314:7739   */\n    tag_155:\n        /* \"#utility.yul\":7392:7397   */\n      0x00\n        /* \"#utility.yul\":7417:7483   */\n      tag_268\n        /* \"#utility.yul\":7433:7482   */\n      tag_269\n        /* \"#utility.yul\":7475:7481   */\n      dup5\n        /* \"#utility.yul\":7433:7482   */\n      tag_153\n      jump\t// in\n    tag_269:\n        /* \"#utility.yul\":7417:7483   */\n      tag_152\n      jump\t// in\n    tag_268:\n        /* \"#utility.yul\":7408:7483   */\n      swap1\n      pop\n        /* \"#utility.yul\":7506:7512   */\n      dup3\n        /* \"#utility.yul\":7499:7504   */\n      dup2\n        /* \"#utility.yul\":7492:7513   */\n      mstore\n        /* \"#utility.yul\":7544:7548   */\n      0x20\n        /* \"#utility.yul\":7537:7542   */\n      dup2\n        /* \"#utility.yul\":7533:7549   */\n      add\n        /* \"#utility.yul\":7582:7585   */\n      dup5\n        /* \"#utility.yul\":7573:7579   */\n      dup5\n        /* \"#utility.yul\":7568:7571   */\n      dup5\n        /* \"#utility.yul\":7564:7580   */\n      add\n        /* \"#utility.yul\":7561:7586   */\n      gt\n        /* \"#utility.yul\":7558:7670   */\n      iszero\n      tag_270\n      jumpi\n        /* \"#utility.yul\":7589:7668   */\n      tag_271\n      tag_149\n      jump\t// in\n    tag_271:\n        /* \"#utility.yul\":7558:7670   */\n    tag_270:\n        /* \"#utility.yul\":7679:7733   */\n      tag_272\n        /* \"#utility.yul\":7726:7732   */\n      dup5\n        /* \"#utility.yul\":7721:7724   */\n      dup3\n        /* \"#utility.yul\":7716:7719   */\n      dup6\n        /* \"#utility.yul\":7679:7733   */\n      tag_154\n      jump\t// in\n    tag_272:\n        /* \"#utility.yul\":7398:7739   */\n      pop\n        /* \"#utility.yul\":7314:7739   */\n      swap4\n      swap3\n      pop\n      pop\n      pop\n      jump\t// out\n        /* \"#utility.yul\":7759:8099   */\n    tag_156:\n        /* \"#utility.yul\":7815:7820   */\n      0x00\n        /* \"#utility.yul\":7864:7867   */\n      dup3\n        /* \"#utility.yul\":7857:7861   */\n      0x1f\n        /* \"#utility.yul\":7849:7855   */\n      dup4\n        /* \"#utility.yul\":7845:7862   */\n      add\n        /* \"#utility.yul\":7841:7868   */\n      slt\n        /* \"#utility.yul\":7831:7953   */\n      tag_274\n      jumpi\n        /* \"#utility.yul\":7872:7951   */\n      tag_275\n      tag_148\n      jump\t// in\n    tag_275:\n        /* \"#utility.yul\":7831:7953   */\n    tag_274:\n        /* \"#utility.yul\":7989:7995   */\n      dup2\n        /* \"#utility.yul\":7976:7996   */\n      calldataload\n        /* \"#utility.yul\":8014:8093   */\n      tag_276\n        /* \"#utility.yul\":8089:8092   */\n      dup5\n        /* \"#utility.yul\":8081:8087   */\n      dup3\n        /* \"#utility.yul\":8074:8078   */\n      0x20\n        /* \"#utility.yul\":8066:8072   */\n      dup7\n        /* \"#utility.yul\":8062:8079   */\n      add\n        /* \"#utility.yul\":8014:8093   */\n      tag_155\n      jump\t// in\n    tag_276:\n        /* \"#utility.yul\":8005:8093   */\n      swap2\n      pop\n        /* \"#utility.yul\":7821:8099   */\n      pop\n        /* \"#utility.yul\":7759:8099   */\n      swap3\n      swap2\n      pop\n      pop\n      jump\t// out\n        /* \"#utility.yul\":8105:8904   */\n    tag_65:\n        /* \"#utility.yul\":8192:8198   */\n      0x00\n        /* \"#utility.yul\":8200:8206   */\n      dup1\n        /* \"#utility.yul\":8208:8214   */\n      0x00\n        /* \"#utility.yul\":8257:8259   */\n      0x60\n        /* \"#utility.yul\":8245:8254   */\n      dup5\n        /* \"#utility.yul\":8236:8243   */\n      dup7\n        /* \"#utility.yul\":8232:8255   */\n      sub\n        /* \"#utility.yul\":8228:8260   */\n      slt\n        /* \"#utility.yul\":8225:8344   */\n      iszero\n      tag_278\n      jumpi\n        /* \"#utility.yul\":8263:8342   */\n      tag_279\n      tag_134\n      jump\t// in\n    tag_279:\n        /* \"#utility.yul\":8225:8344   */\n    tag_278:\n        /* \"#utility.yul\":8383:8384   */\n      0x00\n        /* \"#utility.yul\":8408:8461   */\n      tag_280\n        /* \"#utility.yul\":8453:8460   */\n      dup7\n        /* \"#utility.yul\":8444:8450   */\n      dup3\n        /* \"#utility.yul\":8433:8442   */\n      dup8\n        /* \"#utility.yul\":8429:8451   */\n      add\n        /* \"#utility.yul\":8408:8461   */\n      tag_143\n      jump\t// in\n    tag_280:\n        /* \"#utility.yul\":8398:8461   */\n      swap4\n      pop\n        /* \"#utility.yul\":8354:8471   */\n      pop\n        /* \"#utility.yul\":8510:8512   */\n      0x20\n        /* \"#utility.yul\":8536:8589   */\n      tag_281\n        /* \"#utility.yul\":8581:8588   */\n      dup7\n        /* \"#utility.yul\":8572:8578   */\n      dup3\n        /* \"#utility.yul\":8561:8570   */\n      dup8\n        /* \"#utility.yul\":8557:8579   */\n      add\n        /* \"#utility.yul\":8536:8589   */\n      tag_138\n      jump\t// in\n    tag_281:\n        /* \"#utility.yul\":8526:8589   */\n      swap3\n      pop\n        /* \"#utility.yul\":8481:8599   */\n      pop\n        /* \"#utility.yul\":8666:8668   */\n      0x40\n        /* \"#utility.yul\":8655:8664   */\n      dup5\n        /* \"#utility.yul\":8651:8669   */\n      add\n        /* \"#utility.yul\":8638:8670   */\n      calldataload\n        /* \"#utility.yul\":8697:8715   */\n      0xffffffffffffffff\n        /* \"#utility.yul\":8689:8695   */\n      dup2\n        /* \"#utility.yul\":8686:8716   */\n      gt\n        /* \"#utility.yul\":8683:8800   */\n      iszero\n      tag_282\n      jumpi\n        /* \"#utility.yul\":8719:8798   */\n      tag_283\n      tag_135\n      jump\t// in\n    tag_283:\n        /* \"#utility.yul\":8683:8800   */\n    tag_282:\n        /* \"#utility.yul\":8824:8887   */\n      tag_284\n        /* \"#utility.yul\":8879:8886   */\n      dup7\n        /* \"#utility.yul\":8870:8876   */\n      dup3\n        /* \"#utility.yul\":8859:8868   */\n      dup8\n        /* \"#utility.yul\":8855:8877   */\n      add\n        /* \"#utility.yul\":8824:8887   */\n      tag_156\n      jump\t// in\n    tag_284:\n        /* \"#utility.yul\":8814:8887   */\n      swap2\n      pop\n        /* \"#utility.yul\":8609:8897   */\n      pop\n        /* \"#utility.yul\":8105:8904   */\n      swap3\n      pop\n      swap3\n      pop\n      swap3\n      jump\t// out\n        /* \"#utility.yul\":8910:9384   */\n    tag_69:\n        /* \"#utility.yul\":8978:8984   */\n      0x00\n        /* \"#utility.yul\":8986:8992   */\n      dup1\n        /* \"#utility.yul\":9035:9037   */\n      0x40\n        /* \"#utility.yul\":9023:9032   */\n      dup4\n        /* \"#utility.yul\":9014:9021   */\n      dup6\n        /* \"#utility.yul\":9010:9033   */\n      sub\n        /* \"#utility.yul\":9006:9038   */\n      slt\n        /* \"#utility.yul\":9003:9122   */\n      iszero\n      tag_286\n      jumpi\n        /* \"#utility.yul\":9041:9120   */\n      tag_287\n      tag_134\n      jump\t// in\n    tag_287:\n        /* \"#utility.yul\":9003:9122   */\n    tag_286:\n        /* \"#utility.yul\":9161:9162   */\n      0x00\n        /* \"#utility.yul\":9186:9239   */\n      tag_288\n        /* \"#utility.yul\":9231:9238   */\n      dup6\n        /* \"#utility.yul\":9222:9228   */\n      dup3\n        /* \"#utility.yul\":9211:9220   */\n      dup7\n        /* \"#utility.yul\":9207:9229   */\n      add\n        /* \"#utility.yul\":9186:9239   */\n      tag_143\n      jump\t// in\n    tag_288:\n        /* \"#utility.yul\":9176:9239   */\n      swap3\n      pop\n        /* \"#utility.yul\":9132:9249   */\n      pop\n        /* \"#utility.yul\":9288:9290   */\n      0x20\n        /* \"#utility.yul\":9314:9367   */\n      tag_289\n        /* \"#utility.yul\":9359:9366   */\n      dup6\n        /* \"#utility.yul\":9350:9356   */\n      dup3\n        /* \"#utility.yul\":9339:9348   */\n      dup7\n        /* \"#utility.yul\":9335:9357   */\n      add\n        /* \"#utility.yul\":9314:9367   */\n      tag_143\n      jump\t// in\n    tag_289:\n        /* \"#utility.yul\":9304:9367   */\n      swap2\n      pop\n        /* \"#utility.yul\":9259:9377   */\n      pop\n        /* \"#utility.yul\":8910:9384   */\n      swap3\n      pop\n      swap3\n      swap1\n      pop\n      jump\t// out\n        /* \"#utility.yul\":9390:9499   */\n    tag_157:\n        /* \"#utility.yul\":9471:9492   */\n      tag_291\n        /* \"#utility.yul\":9486:9491   */\n      dup2\n        /* \"#utility.yul\":9471:9492   */\n      tag_144\n      jump\t// in\n    tag_291:\n        /* \"#utility.yul\":9466:9469   */\n      dup3\n        /* \"#utility.yul\":9459:9493   */\n      mstore\n        /* \"#utility.yul\":9390:9499   */\n      pop\n      pop\n      jump\t// out\n        /* \"#utility.yul\":9505:9715   */\n    tag_72:\n        /* \"#utility.yul\":9592:9596   */\n      0x00\n        /* \"#utility.yul\":9630:9632   */\n      0x20\n        /* \"#utility.yul\":9619:9628   */\n      dup3\n        /* \"#utility.yul\":9615:9633   */\n      add\n        /* \"#utility.yul\":9607:9633   */\n      swap1\n      pop\n        /* \"#utility.yul\":9643:9708   */\n      tag_293\n        /* \"#utility.yul\":9705:9706   */\n      0x00\n        /* \"#utility.yul\":9694:9703   */\n      dup4\n        /* \"#utility.yul\":9690:9707   */\n      add\n        /* \"#utility.yul\":9681:9687   */\n      dup5\n        /* \"#utility.yul\":9643:9708   */\n      tag_157\n      jump\t// in\n    tag_293:\n        /* \"#utility.yul\":9505:9715   */\n      swap3\n      swap2\n      pop\n      pop\n      jump\t// out\n        /* \"#utility.yul\":9721:9901   */\n    tag_158:\n        /* \"#utility.yul\":9769:9846   */\n      0x4e487b7100000000000000000000000000000000000000000000000000000000\n        /* \"#utility.yul\":9766:9767   */\n      0x00\n        /* \"#utility.yul\":9759:9847   */\n      mstore\n        /* \"#utility.yul\":9866:9870   */\n      0x22\n        /* \"#utility.yul\":9863:9864   */\n      0x04\n        /* \"#utility.yul\":9856:9871   */\n      mstore\n        /* \"#utility.yul\":9890:9894   */\n      0x24\n        /* \"#utility.yul\":9887:9888   */\n      0x00\n        /* \"#utility.yul\":9880:9895   */\n      revert\n        /* \"#utility.yul\":9907:10227   */\n    tag_75:\n        /* \"#utility.yul\":9951:9957   */\n      0x00\n        /* \"#utility.yul\":9988:9989   */\n      0x02\n        /* \"#utility.yul\":9982:9986   */\n      dup3\n        /* \"#utility.yul\":9978:9990   */\n      div\n        /* \"#utility.yul\":9968:9990   */\n      swap1\n      pop\n        /* \"#utility.yul\":10035:10036   */\n      0x01\n        /* \"#utility.yul\":10029:10033   */\n      dup3\n        /* \"#utility.yul\":10025:10037   */\n      and\n        /* \"#utility.yul\":10056:10074   */\n      dup1\n        /* \"#utility.yul\":10046:10127   */\n      tag_296\n      jumpi\n        /* \"#utility.yul\":10112:10116   */\n      0x7f\n        /* \"#utility.yul\":10104:10110   */\n      dup3\n        /* \"#utility.yul\":10100:10117   */\n      and\n        /* \"#utility.yul\":10090:10117   */\n      swap2\n      pop\n        /* \"#utility.yul\":10046:10127   */\n    tag_296:\n        /* \"#utility.yul\":10174:10176   */\n      0x20\n        /* \"#utility.yul\":10166:10172   */\n      dup3\n        /* \"#utility.yul\":10163:10177   */\n      lt\n        /* \"#utility.yul\":10143:10161   */\n      dup2\n        /* \"#utility.yul\":10140:10178   */\n      sub\n        /* \"#utility.yul\":10137:10221   */\n      tag_297\n      jumpi\n        /* \"#utility.yul\":10193:10211   */\n      tag_298\n      tag_158\n      jump\t// in\n    tag_298:\n        /* \"#utility.yul\":10137:10221   */\n    tag_297:\n        /* \"#utility.yul\":9958:10227   */\n      pop\n        /* \"#utility.yul\":9907:10227   */\n      swap2\n      swap1\n      pop\n      jump\t// out\n        /* \"#utility.yul\":10233:10398   */\n    tag_159:\n        /* \"#utility.yul\":10373:10390   */\n      0x496e636f7272656374204f776e65720000000000000000000000000000000000\n        /* \"#utility.yul\":10369:10370   */\n      0x00\n        /* \"#utility.yul\":10361:10367   */\n      dup3\n        /* \"#utility.yul\":10357:10371   */\n      add\n        /* \"#utility.yul\":10350:10391   */\n      mstore\n        /* \"#utility.yul\":10233:10398   */\n      pop\n      jump\t// out\n        /* \"#utility.yul\":10404:10770   */\n    tag_160:\n        /* \"#utility.yul\":10546:10549   */\n      0x00\n        /* \"#utility.yul\":10567:10634   */\n      tag_301\n        /* \"#utility.yul\":10631:10633   */\n      0x0f\n        /* \"#utility.yul\":10626:10629   */\n      dup4\n        /* \"#utility.yul\":10567:10634   */\n      tag_129\n      jump\t// in\n    tag_301:\n        /* \"#utility.yul\":10560:10634   */\n      swap2\n      pop\n        /* \"#utility.yul\":10643:10736   */\n      tag_302\n        /* \"#utility.yul\":10732:10735   */\n      dup3\n        /* \"#utility.yul\":10643:10736   */\n      tag_159\n      jump\t// in\n    tag_302:\n        /* \"#utility.yul\":10761:10763   */\n      0x20\n        /* \"#utility.yul\":10756:10759   */\n      dup3\n        /* \"#utility.yul\":10752:10764   */\n      add\n        /* \"#utility.yul\":10745:10764   */\n      swap1\n      pop\n        /* \"#utility.yul\":10404:10770   */\n      swap2\n      swap1\n      pop\n      jump\t// out\n        /* \"#utility.yul\":10776:11195   */\n    tag_84:\n        /* \"#utility.yul\":10942:10946   */\n      0x00\n        /* \"#utility.yul\":10980:10982   */\n      0x20\n        /* \"#utility.yul\":10969:10978   */\n      dup3\n        /* \"#utility.yul\":10965:10983   */\n      add\n        /* \"#utility.yul\":10957:10983   */\n      swap1\n      pop\n        /* \"#utility.yul\":11029:11038   */\n      dup2\n        /* \"#utility.yul\":11023:11027   */\n      dup2\n        /* \"#utility.yul\":11019:11039   */\n      sub\n        /* \"#utility.yul\":11015:11016   */\n      0x00\n        /* \"#utility.yul\":11004:11013   */\n      dup4\n        /* \"#utility.yul\":11000:11017   */\n      add\n        /* \"#utility.yul\":10993:11040   */\n      mstore\n        /* \"#utility.yul\":11057:11188   */\n      tag_304\n        /* \"#utility.yul\":11183:11187   */\n      dup2\n        /* \"#utility.yul\":11057:11188   */\n      tag_160\n      jump\t// in\n    tag_304:\n        /* \"#utility.yul\":11049:11188   */\n      swap1\n      pop\n        /* \"#utility.yul\":10776:11195   */\n      swap2\n      swap1\n      pop\n      jump\t// out\n        /* \"#utility.yul\":11201:11363   */\n    tag_161:\n        /* \"#utility.yul\":11341:11355   */\n      0x4e6f7420417070726f7665640000000000000000000000000000000000000000\n        /* \"#utility.yul\":11337:11338   */\n      0x00\n        /* \"#utility.yul\":11329:11335   */\n      dup3\n        /* \"#utility.yul\":11325:11339   */\n      add\n        /* \"#utility.yul\":11318:11356   */\n      mstore\n        /* \"#utility.yul\":11201:11363   */\n      pop\n      jump\t// out\n        /* \"#utility.yul\":11369:11735   */\n    tag_162:\n        /* \"#utility.yul\":11511:11514   */\n      0x00\n        /* \"#utility.yul\":11532:11599   */\n      tag_307\n        /* \"#utility.yul\":11596:11598   */\n      0x0c\n        /* \"#utility.yul\":11591:11594   */\n      dup4\n        /* \"#utility.yul\":11532:11599   */\n      tag_129\n      jump\t// in\n    tag_307:\n        /* \"#utility.yul\":11525:11599   */\n      swap2\n      pop\n        /* \"#utility.yul\":11608:11701   */\n      tag_308\n        /* \"#utility.yul\":11697:11700   */\n      dup3\n        /* \"#utility.yul\":11608:11701   */\n      tag_161\n      jump\t// in\n    tag_308:\n        /* \"#utility.yul\":11726:11728   */\n      0x20\n        /* \"#utility.yul\":11721:11724   */\n      dup3\n        /* \"#utility.yul\":11717:11729   */\n      add\n        /* \"#utility.yul\":11710:11729   */\n      swap1\n      pop\n        /* \"#utility.yul\":11369:11735   */\n      swap2\n      swap1\n      pop\n      jump\t// out\n        /* \"#utility.yul\":11741:12160   */\n    tag_92:\n        /* \"#utility.yul\":11907:11911   */\n      0x00\n        /* \"#utility.yul\":11945:11947   */\n      0x20\n        /* \"#utility.yul\":11934:11943   */\n      dup3\n        /* \"#utility.yul\":11930:11948   */\n      add\n        /* \"#utility.yul\":11922:11948   */\n      swap1\n      pop\n        /* \"#utility.yul\":11994:12003   */\n      dup2\n        /* \"#utility.yul\":11988:11992   */\n      dup2\n        /* \"#utility.yul\":11984:12004   */\n      sub\n        /* \"#utility.yul\":11980:11981   */\n      0x00\n        /* \"#utility.yul\":11969:11978   */\n      dup4\n        /* \"#utility.yul\":11965:11982   */\n      add\n        /* \"#utility.yul\":11958:12005   */\n      mstore\n        /* \"#utility.yul\":12022:12153   */\n      tag_310\n        /* \"#utility.yul\":12148:12152   */\n      dup2\n        /* \"#utility.yul\":12022:12153   */\n      tag_162\n      jump\t// in\n    tag_310:\n        /* \"#utility.yul\":12014:12153   */\n      swap1\n      pop\n        /* \"#utility.yul\":11741:12160   */\n      swap2\n      swap1\n      pop\n      jump\t// out\n        /* \"#utility.yul\":12166:12346   */\n    tag_163:\n        /* \"#utility.yul\":12214:12291   */\n      0x4e487b7100000000000000000000000000000000000000000000000000000000\n        /* \"#utility.yul\":12211:12212   */\n      0x00\n        /* \"#utility.yul\":12204:12292   */\n      mstore\n        /* \"#utility.yul\":12311:12315   */\n      0x11\n        /* \"#utility.yul\":12308:12309   */\n      0x04\n        /* \"#utility.yul\":12301:12316   */\n      mstore\n        /* \"#utility.yul\":12335:12339   */\n      0x24\n        /* \"#utility.yul\":12332:12333   */\n      0x00\n        /* \"#utility.yul\":12325:12340   */\n      revert\n        /* \"#utility.yul\":12352:12546   */\n    tag_94:\n        /* \"#utility.yul\":12392:12396   */\n      0x00\n        /* \"#utility.yul\":12412:12432   */\n      tag_313\n        /* \"#utility.yul\":12430:12431   */\n      dup3\n        /* \"#utility.yul\":12412:12432   */\n      tag_136\n      jump\t// in\n    tag_313:\n        /* \"#utility.yul\":12407:12432   */\n      swap2\n      pop\n        /* \"#utility.yul\":12446:12466   */\n      tag_314\n        /* \"#utility.yul\":12464:12465   */\n      dup4\n        /* \"#utility.yul\":12446:12466   */\n      tag_136\n      jump\t// in\n    tag_314:\n        /* \"#utility.yul\":12441:12466   */\n      swap3\n      pop\n        /* \"#utility.yul\":12490:12491   */\n      dup3\n        /* \"#utility.yul\":12487:12488   */\n      dup3\n        /* \"#utility.yul\":12483:12492   */\n      sub\n        /* \"#utility.yul\":12475:12492   */\n      swap1\n      pop\n        /* \"#utility.yul\":12514:12515   */\n      dup2\n        /* \"#utility.yul\":12508:12512   */\n      dup2\n        /* \"#utility.yul\":12505:12516   */\n      gt\n        /* \"#utility.yul\":12502:12539   */\n      iszero\n      tag_315\n      jumpi\n        /* \"#utility.yul\":12519:12537   */\n      tag_316\n      tag_163\n      jump\t// in\n    tag_316:\n        /* \"#utility.yul\":12502:12539   */\n    tag_315:\n        /* \"#utility.yul\":12352:12546   */\n      swap3\n      swap2\n      pop\n      pop\n      jump\t// out\n        /* \"#utility.yul\":12552:12743   */\n    tag_96:\n        /* \"#utility.yul\":12592:12595   */\n      0x00\n        /* \"#utility.yul\":12611:12631   */\n      tag_318\n        /* \"#utility.yul\":12629:12630   */\n      dup3\n        /* \"#utility.yul\":12611:12631   */\n      tag_136\n      jump\t// in\n    tag_318:\n        /* \"#utility.yul\":12606:12631   */\n      swap2\n      pop\n        /* \"#utility.yul\":12645:12665   */\n      tag_319\n        /* \"#utility.yul\":12663:12664   */\n      dup4\n        /* \"#utility.yul\":12645:12665   */\n      tag_136\n      jump\t// in\n    tag_319:\n        /* \"#utility.yul\":12640:12665   */\n      swap3\n      pop\n        /* \"#utility.yul\":12688:12689   */\n      dup3\n        /* \"#utility.yul\":12685:12686   */\n      dup3\n        /* \"#utility.yul\":12681:12690   */\n      add\n        /* \"#utility.yul\":12674:12690   */\n      swap1\n      pop\n        /* \"#utility.yul\":12709:12712   */\n      dup1\n        /* \"#utility.yul\":12706:12707   */\n      dup3\n        /* \"#utility.yul\":12703:12713   */\n      gt\n        /* \"#utility.yul\":12700:12736   */\n      iszero\n      tag_320\n      jumpi\n        /* \"#utility.yul\":12716:12734   */\n      tag_321\n      tag_163\n      jump\t// in\n    tag_321:\n        /* \"#utility.yul\":12700:12736   */\n    tag_320:\n        /* \"#utility.yul\":12552:12743   */\n      swap3\n      swap2\n      pop\n      pop\n      jump\t// out\n        /* \"#utility.yul\":12749:12914   */\n    tag_164:\n        /* \"#utility.yul\":12889:12906   */\n      0x496e636f7272656374204f6e7765720000000000000000000000000000000000\n        /* \"#utility.yul\":12885:12886   */\n      0x00\n        /* \"#utility.yul\":12877:12883   */\n      dup3\n        /* \"#utility.yul\":12873:12887   */\n      add\n        /* \"#utility.yul\":12866:12907   */\n      mstore\n        /* \"#utility.yul\":12749:12914   */\n      pop\n      jump\t// out\n        /* \"#utility.yul\":12920:13286   */\n    tag_165:\n        /* \"#utility.yul\":13062:13065   */\n      0x00\n        /* \"#utility.yul\":13083:13150   */\n      tag_324\n        /* \"#utility.yul\":13147:13149   */\n      0x0f\n        /* \"#utility.yul\":13142:13145   */\n      dup4\n        /* \"#utility.yul\":13083:13150   */\n      tag_129\n      jump\t// in\n    tag_324:\n        /* \"#utility.yul\":13076:13150   */\n      swap2\n      pop\n        /* \"#utility.yul\":13159:13252   */\n      tag_325\n        /* \"#utility.yul\":13248:13251   */\n      dup3\n        /* \"#utility.yul\":13159:13252   */\n      tag_164\n      jump\t// in\n    tag_325:\n        /* \"#utility.yul\":13277:13279   */\n      0x20\n        /* \"#utility.yul\":13272:13275   */\n      dup3\n        /* \"#utility.yul\":13268:13280   */\n      add\n        /* \"#utility.yul\":13261:13280   */\n      swap1\n      pop\n        /* \"#utility.yul\":12920:13286   */\n      swap2\n      swap1\n      pop\n      jump\t// out\n        /* \"#utility.yul\":13292:13711   */\n    tag_113:\n        /* \"#utility.yul\":13458:13462   */\n      0x00\n        /* \"#utility.yul\":13496:13498   */\n      0x20\n        /* \"#utility.yul\":13485:13494   */\n      dup3\n        /* \"#utility.yul\":13481:13499   */\n      add\n        /* \"#utility.yul\":13473:13499   */\n      swap1\n      pop\n        /* \"#utility.yul\":13545:13554   */\n      dup2\n        /* \"#utility.yul\":13539:13543   */\n      dup2\n        /* \"#utility.yul\":13535:13555   */\n      sub\n        /* \"#utility.yul\":13531:13532   */\n      0x00\n        /* \"#utility.yul\":13520:13529   */\n      dup4\n        /* \"#utility.yul\":13516:13533   */\n      add\n        /* \"#utility.yul\":13509:13556   */\n      mstore\n        /* \"#utility.yul\":13573:13704   */\n      tag_327\n        /* \"#utility.yul\":13699:13703   */\n      dup2\n        /* \"#utility.yul\":13573:13704   */\n      tag_165\n      jump\t// in\n    tag_327:\n        /* \"#utility.yul\":13565:13704   */\n      swap1\n      pop\n        /* \"#utility.yul\":13292:13711   */\n      swap2\n      swap1\n      pop\n      jump\t// out\n        /* \"#utility.yul\":13717:13858   */\n    tag_166:\n        /* \"#utility.yul\":13766:13770   */\n      0x00\n        /* \"#utility.yul\":13789:13792   */\n      dup2\n        /* \"#utility.yul\":13781:13792   */\n      swap1\n      pop\n        /* \"#utility.yul\":13812:13815   */\n      dup2\n        /* \"#utility.yul\":13809:13810   */\n      0x00\n        /* \"#utility.yul\":13802:13816   */\n      mstore\n        /* \"#utility.yul\":13846:13850   */\n      0x20\n        /* \"#utility.yul\":13843:13844   */\n      0x00\n        /* \"#utility.yul\":13833:13851   */\n      keccak256\n        /* \"#utility.yul\":13825:13851   */\n      swap1\n      pop\n        /* \"#utility.yul\":13717:13858   */\n      swap2\n      swap1\n      pop\n      jump\t// out\n        /* \"#utility.yul\":13864:13957   */\n    tag_167:\n        /* \"#utility.yul\":13901:13907   */\n      0x00\n        /* \"#utility.yul\":13948:13950   */\n      0x20\n        /* \"#utility.yul\":13943:13945   */\n      0x1f\n        /* \"#utility.yul\":13936:13941   */\n      dup4\n        /* \"#utility.yul\":13932:13946   */\n      add\n        /* \"#utility.yul\":13928:13951   */\n      div\n        /* \"#utility.yul\":13918:13951   */\n      swap1\n      pop\n        /* \"#utility.yul\":13864:13957   */\n      swap2\n      swap1\n      pop\n      jump\t// out\n        /* \"#utility.yul\":13963:14070   */\n    tag_168:\n        /* \"#utility.yul\":14007:14015   */\n      0x00\n        /* \"#utility.yul\":14057:14062   */\n      dup3\n        /* \"#utility.yul\":14051:14055   */\n      dup3\n        /* \"#utility.yul\":14047:14063   */\n      shl\n        /* \"#utility.yul\":14026:14063   */\n      swap1\n      pop\n        /* \"#utility.yul\":13963:14070   */\n      swap3\n      swap2\n      pop\n      pop\n      jump\t// out\n        /* \"#utility.yul\":14076:14469   */\n    tag_169:\n        /* \"#utility.yul\":14145:14151   */\n      0x00\n        /* \"#utility.yul\":14195:14196   */\n      0x08\n        /* \"#utility.yul\":14183:14193   */\n      dup4\n        /* \"#utility.yul\":14179:14197   */\n      mul\n        /* \"#utility.yul\":14218:14315   */\n      tag_332\n        /* \"#utility.yul\":14248:14314   */\n      0xffffffffffffffffffffffffffffffffffffffffffffffffffffffffffffffff\n        /* \"#utility.yul\":14237:14246   */\n      dup3\n        /* \"#utility.yul\":14218:14315   */\n      tag_168\n      jump\t// in\n    tag_332:\n        /* \"#utility.yul\":14336:14375   */\n      tag_333\n        /* \"#utility.yul\":14366:14374   */\n      dup7\n        /* \"#utility.yul\":14355:14364   */\n      dup4\n        /* \"#utility.yul\":14336:14375   */\n      tag_168\n      jump\t// in\n    tag_333:\n        /* \"#utility.yul\":14324:14375   */\n      swap6\n      pop\n        /* \"#utility.yul\":14408:14412   */\n      dup1\n        /* \"#utility.yul\":14404:14413   */\n      not\n        /* \"#utility.yul\":14397:14402   */\n      dup5\n        /* \"#utility.yul\":14393:14414   */\n      and\n        /* \"#utility.yul\":14384:14414   */\n      swap4\n      pop\n        /* \"#utility.yul\":14457:14461   */\n      dup1\n        /* \"#utility.yul\":14447:14455   */\n      dup7\n        /* \"#utility.yul\":14443:14462   */\n      and\n        /* \"#utility.yul\":14436:14441   */\n      dup5\n        /* \"#utility.yul\":14433:14463   */\n      or\n        /* \"#utility.yul\":14423:14463   */\n      swap3\n      pop\n        /* \"#utility.yul\":14152:14469   */\n      pop\n      pop\n        /* \"#utility.yul\":14076:14469   */\n      swap4\n      swap3\n      pop\n      pop\n      pop\n      jump\t// out\n        /* \"#utility.yul\":14475:14535   */\n    tag_170:\n        /* \"#utility.yul\":14503:14506   */\n      0x00\n        /* \"#utility.yul\":14524:14529   */\n      dup2\n        /* \"#utility.yul\":14517:14529   */\n      swap1\n      pop\n        /* \"#utility.yul\":14475:14535   */\n      swap2\n      swap1\n      pop\n      jump\t// out\n        /* \"#utility.yul\":14541:14683   */\n    tag_171:\n        /* \"#utility.yul\":14591:14600   */\n      0x00\n        /* \"#utility.yul\":14624:14677   */\n      tag_336\n        /* \"#utility.yul\":14642:14676   */\n      tag_337\n        /* \"#utility.yul\":14651:14675   */\n      tag_338\n        /* \"#utility.yul\":14669:14674   */\n      dup5\n        /* \"#utility.yul\":14651:14675   */\n      tag_136\n      jump\t// in\n    tag_338:\n        /* \"#utility.yul\":14642:14676   */\n      tag_170\n      jump\t// in\n    tag_337:\n        /* \"#utility.yul\":14624:14677   */\n      tag_136\n      jump\t// in\n    tag_336:\n        /* \"#utility.yul\":14611:14677   */\n      swap1\n      pop\n        /* \"#utility.yul\":14541:14683   */\n      swap2\n      swap1\n      pop\n      jump\t// out\n        /* \"#utility.yul\":14689:14764   */\n    tag_172:\n        /* \"#utility.yul\":14732:14735   */\n      0x00\n        /* \"#utility.yul\":14753:14758   */\n      dup2\n        /* \"#utility.yul\":14746:14758   */\n      swap1\n      pop\n        /* \"#utility.yul\":14689:14764   */\n      swap2\n      swap1\n      pop\n      jump\t// out\n        /* \"#utility.yul\":14770:15039   */\n    tag_173:\n        /* \"#utility.yul\":14880:14919   */\n      tag_341\n        /* \"#utility.yul\":14911:14918   */\n      dup4\n        /* \"#utility.yul\":14880:14919   */\n      tag_171\n      jump\t// in\n    tag_341:\n        /* \"#utility.yul\":14941:15032   */\n      tag_342\n        /* \"#utility.yul\":14990:15031   */\n      tag_343\n        /* \"#utility.yul\":15014:15030   */\n      dup3\n        /* \"#utility.yul\":14990:15031   */\n      tag_172\n      jump\t// in\n    tag_343:\n        /* \"#utility.yul\":14982:14988   */\n      dup5\n        /* \"#utility.yul\":14975:14979   */\n      dup5\n        /* \"#utility.yul\":14969:14980   */\n      sload\n        /* \"#utility.yul\":14941:15032   */\n      tag_169\n      jump\t// in\n    tag_342:\n        /* \"#utility.yul\":14935:14939   */\n      dup3\n        /* \"#utility.yul\":14928:15033   */\n      sstore\n        /* \"#utility.yul\":14846:15039   */\n      pop\n        /* \"#utility.yul\":14770:15039   */\n      pop\n      pop\n      pop\n      jump\t// out\n        /* \"#utility.yul\":15045:15118   */\n    tag_174:\n        /* \"#utility.yul\":15090:15093   */\n      0x00\n        /* \"#utility.yul\":15045:15118   */\n      swap1\n      jump\t// out\n        /* \"#utility.yul\":15124:15313   */\n    tag_175:\n        /* \"#utility.yul\":15201:15233   */\n      tag_346\n      tag_174\n      jump\t// in\n    tag_346:\n        /* \"#utility.yul\":15242:15307   */\n      tag_347\n        /* \"#utility.yul\":15300:15306   */\n      dup2\n        /* \"#utility.yul\":15292:15298   */\n      dup5\n        /* \"#utility.yul\":15286:15290   */\n      dup5\n        /* \"#utility.yul\":15242:15307   */\n      tag_173\n      jump\t// in\n    tag_347:\n        /* \"#utility.yul\":15177:15313   */\n      pop\n        /* \"#utility.yul\":15124:15313   */\n      pop\n      pop\n      jump\t// out\n        /* \"#utility.yul\":15319:15505   */\n    tag_176:\n        /* \"#utility.yul\":15379:15499   */\n    tag_349:\n        /* \"#utility.yul\":15396:15399   */\n      dup2\n        /* \"#utility.yul\":15389:15394   */\n      dup2\n        /* \"#utility.yul\":15386:15400   */\n      lt\n        /* \"#utility.yul\":15379:15499   */\n      iszero\n      tag_351\n      jumpi\n        /* \"#utility.yul\":15450:15489   */\n      tag_352\n        /* \"#utility.yul\":15487:15488   */\n      0x00\n        /* \"#utility.yul\":15480:15485   */\n      dup3\n        /* \"#utility.yul\":15450:15489   */\n      tag_175\n      jump\t// in\n    tag_352:\n        /* \"#utility.yul\":15423:15424   */\n      0x01\n        /* \"#utility.yul\":15416:15421   */\n      dup2\n        /* \"#utility.yul\":15412:15425   */\n      add\n        /* \"#utility.yul\":15403:15425   */\n      swap1\n      pop\n        /* \"#utility.yul\":15379:15499   */\n      jump(tag_349)\n    tag_351:\n        /* \"#utility.yul\":15319:15505   */\n      pop\n      pop\n      jump\t// out\n        /* \"#utility.yul\":15511:16054   */\n    tag_177:\n        /* \"#utility.yul\":15612:15614   */\n      0x1f\n        /* \"#utility.yul\":15607:15610   */\n      dup3\n        /* \"#utility.yul\":15604:15615   */\n      gt\n        /* \"#utility.yul\":15601:16047   */\n      iszero\n      tag_354\n      jumpi\n        /* \"#utility.yul\":15646:15684   */\n      tag_355\n        /* \"#utility.yul\":15678:15683   */\n      dup2\n        /* \"#utility.yul\":15646:15684   */\n      tag_166\n      jump\t// in\n    tag_355:\n        /* \"#utility.yul\":15730:15759   */\n      tag_356\n        /* \"#utility.yul\":15748:15758   */\n      dup5\n        /* \"#utility.yul\":15730:15759   */\n      tag_167\n      jump\t// in\n    tag_356:\n        /* \"#utility.yul\":15720:15728   */\n      dup2\n        /* \"#utility.yul\":15716:15760   */\n      add\n        /* \"#utility.yul\":15913:15915   */\n      0x20\n        /* \"#utility.yul\":15901:15911   */\n      dup6\n        /* \"#utility.yul\":15898:15916   */\n      lt\n        /* \"#utility.yul\":15895:15944   */\n      iszero\n      tag_357\n      jumpi\n        /* \"#utility.yul\":15934:15942   */\n      dup2\n        /* \"#utility.yul\":15919:15942   */\n      swap1\n      pop\n        /* \"#utility.yul\":15895:15944   */\n    tag_357:\n        /* \"#utility.yul\":15957:16037   */\n      tag_358\n        /* \"#utility.yul\":16013:16035   */\n      tag_359\n        /* \"#utility.yul\":16031:16034   */\n      dup6\n        /* \"#utility.yul\":16013:16035   */\n      tag_167\n      jump\t// in\n    tag_359:\n        /* \"#utility.yul\":16003:16011   */\n      dup4\n        /* \"#utility.yul\":15999:16036   */\n      add\n        /* \"#utility.yul\":15986:15997   */\n      dup3\n        /* \"#utility.yul\":15957:16037   */\n      tag_176\n      jump\t// in\n    tag_358:\n        /* \"#utility.yul\":15616:16047   */\n      pop\n      pop\n        /* \"#utility.yul\":15601:16047   */\n    tag_354:\n        /* \"#utility.yul\":15511:16054   */\n      pop\n      pop\n      pop\n      jump\t// out\n        /* \"#utility.yul\":16060:16177   */\n    tag_178:\n        /* \"#utility.yul\":16114:16122   */\n      0x00\n        /* \"#utility.yul\":16164:16169   */\n      dup3\n        /* \"#utility.yul\":16158:16162   */\n      dup3\n        /* \"#utility.yul\":16154:16170   */\n      shr\n        /* \"#utility.yul\":16133:16170   */\n      swap1\n      pop\n        /* \"#utility.yul\":16060:16177   */\n      swap3\n      swap2\n      pop\n      pop\n      jump\t// out\n        /* \"#utility.yul\":16183:16352   */\n    tag_179:\n        /* \"#utility.yul\":16227:16233   */\n      0x00\n        /* \"#utility.yul\":16260:16311   */\n      tag_362\n        /* \"#utility.yul\":16308:16309   */\n      0x00\n        /* \"#utility.yul\":16304:16310   */\n      not\n        /* \"#utility.yul\":16296:16301   */\n      dup5\n        /* \"#utility.yul\":16293:16294   */\n      0x08\n        /* \"#utility.yul\":16289:16302   */\n      mul\n        /* \"#utility.yul\":16260:16311   */\n      tag_178\n      jump\t// in\n    tag_362:\n        /* \"#utility.yul\":16256:16312   */\n      not\n        /* \"#utility.yul\":16341:16345   */\n      dup1\n        /* \"#utility.yul\":16335:16339   */\n      dup4\n        /* \"#utility.yul\":16331:16346   */\n      and\n        /* \"#utility.yul\":16321:16346   */\n      swap2\n      pop\n        /* \"#utility.yul\":16234:16352   */\n      pop\n        /* \"#utility.yul\":16183:16352   */\n      swap3\n      swap2\n      pop\n      pop\n      jump\t// out\n        /* \"#utility.yul\":16357:16652   */\n    tag_180:\n        /* \"#utility.yul\":16433:16437   */\n      0x00\n        /* \"#utility.yul\":16579:16608   */\n      tag_364\n        /* \"#utility.yul\":16604:16607   */\n      dup4\n        /* \"#utility.yul\":16598:16602   */\n      dup4\n        /* \"#utility.yul\":16579:16608   */\n      tag_179\n      jump\t// in\n    tag_364:\n        /* \"#utility.yul\":16571:16608   */\n      swap2\n      pop\n        /* \"#utility.yul\":16641:16644   */\n      dup3\n        /* \"#utility.yul\":16638:16639   */\n      0x02\n        /* \"#utility.yul\":16634:16645   */\n      mul\n        /* \"#utility.yul\":16628:16632   */\n      dup3\n        /* \"#utility.yul\":16625:16646   */\n      or\n        /* \"#utility.yul\":16617:16646   */\n      swap1\n      pop\n        /* \"#utility.yul\":16357:16652   */\n      swap3\n      swap2\n      pop\n      pop\n      jump\t// out\n        /* \"#utility.yul\":16657:18052   */\n    tag_125:\n        /* \"#utility.yul\":16774:16811   */\n      tag_366\n        /* \"#utility.yul\":16807:16810   */\n      dup3\n        /* \"#utility.yul\":16774:16811   */\n      tag_128\n      jump\t// in\n    tag_366:\n        /* \"#utility.yul\":16876:16894   */\n      0xffffffffffffffff\n        /* \"#utility.yul\":16868:16874   */\n      dup2\n        /* \"#utility.yul\":16865:16895   */\n      gt\n        /* \"#utility.yul\":16862:16918   */\n      iszero\n      tag_367\n      jumpi\n        /* \"#utility.yul\":16898:16916   */\n      tag_368\n      tag_150\n      jump\t// in\n    tag_368:\n        /* \"#utility.yul\":16862:16918   */\n    tag_367:\n        /* \"#utility.yul\":16942:16980   */\n      tag_369\n        /* \"#utility.yul\":16974:16978   */\n      dup3\n        /* \"#utility.yul\":16968:16979   */\n      sload\n        /* \"#utility.yul\":16942:16980   */\n      tag_75\n      jump\t// in\n    tag_369:\n        /* \"#utility.yul\":17027:17094   */\n      tag_370\n        /* \"#utility.yul\":17087:17093   */\n      dup3\n        /* \"#utility.yul\":17079:17085   */\n      dup3\n        /* \"#utility.yul\":17073:17077   */\n      dup6\n        /* \"#utility.yul\":17027:17094   */\n      tag_177\n      jump\t// in\n    tag_370:\n        /* \"#utility.yul\":17121:17122   */\n      0x00\n        /* \"#utility.yul\":17145:17149   */\n      0x20\n        /* \"#utility.yul\":17132:17149   */\n      swap1\n      pop\n        /* \"#utility.yul\":17177:17179   */\n      0x1f\n        /* \"#utility.yul\":17169:17175   */\n      dup4\n        /* \"#utility.yul\":17166:17180   */\n      gt\n        /* \"#utility.yul\":17194:17195   */\n      0x01\n        /* \"#utility.yul\":17189:17807   */\n      dup2\n      eq\n      tag_372\n      jumpi\n        /* \"#utility.yul\":17851:17852   */\n      0x00\n        /* \"#utility.yul\":17868:17874   */\n      dup5\n        /* \"#utility.yul\":17865:17942   */\n      iszero\n      tag_373\n      jumpi\n        /* \"#utility.yul\":17917:17926   */\n      dup3\n        /* \"#utility.yul\":17912:17915   */\n      dup8\n        /* \"#utility.yul\":17908:17927   */\n      add\n        /* \"#utility.yul\":17902:17928   */\n      mload\n        /* \"#utility.yul\":17893:17928   */\n      swap1\n      pop\n        /* \"#utility.yul\":17865:17942   */\n    tag_373:\n        /* \"#utility.yul\":17968:18035   */\n      tag_374\n        /* \"#utility.yul\":18028:18034   */\n      dup6\n        /* \"#utility.yul\":18021:18026   */\n      dup3\n        /* \"#utility.yul\":17968:18035   */\n      tag_180\n      jump\t// in\n    tag_374:\n        /* \"#utility.yul\":17962:17966   */\n      dup7\n        /* \"#utility.yul\":17955:18036   */\n      sstore\n        /* \"#utility.yul\":17824:18046   */\n      pop\n        /* \"#utility.yul\":17159:18046   */\n      jump(tag_371)\n        /* \"#utility.yul\":17189:17807   */\n    tag_372:\n        /* \"#utility.yul\":17241:17245   */\n      0x1f\n        /* \"#utility.yul\":17237:17246   */\n      not\n        /* \"#utility.yul\":17229:17235   */\n      dup5\n        /* \"#utility.yul\":17225:17247   */\n      and\n        /* \"#utility.yul\":17275:17312   */\n      tag_375\n        /* \"#utility.yul\":17307:17311   */\n      dup7\n        /* \"#utility.yul\":17275:17312   */\n      tag_166\n      jump\t// in\n    tag_375:\n        /* \"#utility.yul\":17334:17335   */\n      0x00\n        /* \"#utility.yul\":17348:17556   */\n    tag_376:\n        /* \"#utility.yul\":17362:17369   */\n      dup3\n        /* \"#utility.yul\":17359:17360   */\n      dup2\n        /* \"#utility.yul\":17356:17370   */\n      lt\n        /* \"#utility.yul\":17348:17556   */\n      iszero\n      tag_378\n      jumpi\n        /* \"#utility.yul\":17441:17450   */\n      dup5\n        /* \"#utility.yul\":17436:17439   */\n      dup10\n        /* \"#utility.yul\":17432:17451   */\n      add\n        /* \"#utility.yul\":17426:17452   */\n      mload\n        /* \"#utility.yul\":17418:17424   */\n      dup3\n        /* \"#utility.yul\":17411:17453   */\n      sstore\n        /* \"#utility.yul\":17492:17493   */\n      0x01\n        /* \"#utility.yul\":17484:17490   */\n      dup3\n        /* \"#utility.yul\":17480:17494   */\n      add\n        /* \"#utility.yul\":17470:17494   */\n      swap2\n      pop\n        /* \"#utility.yul\":17539:17541   */\n      0x20\n        /* \"#utility.yul\":17528:17537   */\n      dup6\n        /* \"#utility.yul\":17524:17542   */\n      add\n        /* \"#utility.yul\":17511:17542   */\n      swap5\n      pop\n        /* \"#utility.yul\":17385:17389   */\n      0x20\n        /* \"#utility.yul\":17382:17383   */\n      dup2\n        /* \"#utility.yul\":17378:17390   */\n      add\n        /* \"#utility.yul\":17373:17390   */\n      swap1\n      pop\n        /* \"#utility.yul\":17348:17556   */\n      jump(tag_376)\n    tag_378:\n        /* \"#utility.yul\":17584:17590   */\n      dup7\n        /* \"#utility.yul\":17575:17582   */\n      dup4\n        /* \"#utility.yul\":17572:17591   */\n      lt\n        /* \"#utility.yul\":17569:17748   */\n      iszero\n      tag_379\n      jumpi\n        /* \"#utility.yul\":17642:17651   */\n      dup5\n        /* \"#utility.yul\":17637:17640   */\n      dup10\n        /* \"#utility.yul\":17633:17652   */\n      add\n        /* \"#utility.yul\":17627:17653   */\n      mload\n        /* \"#utility.yul\":17685:17733   */\n      tag_380\n        /* \"#utility.yul\":17727:17731   */\n      0x1f\n        /* \"#utility.yul\":17719:17725   */\n      dup10\n        /* \"#utility.yul\":17715:17732   */\n      and\n        /* \"#utility.yul\":17704:17713   */\n      dup3\n        /* \"#utility.yul\":17685:17733   */\n      tag_179\n      jump\t// in\n    tag_380:\n        /* \"#utility.yul\":17677:17683   */\n      dup4\n        /* \"#utility.yul\":17670:17734   */\n      sstore\n        /* \"#utility.yul\":17592:17748   */\n      pop\n        /* \"#utility.yul\":17569:17748   */\n    tag_379:\n        /* \"#utility.yul\":17794:17795   */\n      0x01\n        /* \"#utility.yul\":17790:17791   */\n      0x02\n        /* \"#utility.yul\":17782:17788   */\n      dup9\n        /* \"#utility.yul\":17778:17792   */\n      mul\n        /* \"#utility.yul\":17774:17796   */\n      add\n        /* \"#utility.yul\":17768:17772   */\n      dup9\n        /* \"#utility.yul\":17761:17797   */\n      sstore\n        /* \"#utility.yul\":17196:17807   */\n      pop\n      pop\n      pop\n        /* \"#utility.yul\":17159:18046   */\n    tag_371:\n      pop\n        /* \"#utility.yul\":16749:18052   */\n      pop\n      pop\n      pop\n        /* \"#utility.yul\":16657:18052   */\n      pop\n      pop\n      jump\t// out\n\n    auxdata: 0xa2646970667358221220f32a512efeb051f89253dd7267651c9def3e2c27186d35886289b253d4637e1764736f6c63430008120033\n}\n",
				"bytecode": {
					"linkReferences": {},
					"object": "60806040523480156200001157600080fd5b5060405162001fa738038062001fa78339818101604052810190620000379190620001f6565b8160009081620000489190620004c6565b5080600190816200005a9190620004c6565b505050620005ad565b6000604051905090565b600080fd5b600080fd5b600080fd5b600080fd5b6000601f19601f8301169050919050565b7f4e487b7100000000000000000000000000000000000000000000000000000000600052604160045260246000fd5b620000cc8262000081565b810181811067ffffffffffffffff82111715620000ee57620000ed62000092565b5b80604052505050565b60006200010362000063565b9050620001118282620000c1565b919050565b600067ffffffffffffffff82111562000134576200013362000092565b5b6200013f8262000081565b9050602081019050919050565b60005b838110156200016c5780820151818401526020810190506200014f565b60008484015250505050565b60006200018f620001898462000116565b620000f7565b905082815260208101848484011115620001ae57620001ad6200007c565b5b620001bb8482856200014c565b509392505050565b600082601f830112620001db57620001da62000077565b5b8151620001ed84826020860162000178565b91505092915050565b6000806040838503121562000210576200020f6200006d565b5b600083015167ffffffffffffffff81111562000231576200023062000072565b5b6200023f85828601620001c3565b925050602083015167ffffffffffffffff81111562000263576200026262000072565b5b6200027185828601620001c3565b9150509250929050565b600081519050919050565b7f4e487b7100000000000000000000000000000000000000000000000000000000600052602260045260246000fd5b60006002820490506001821680620002ce57607f821691505b602082108103620002e457620002e362000286565b5b50919050565b60008190508160005260206000209050919050565b60006020601f8301049050919050565b600082821b905092915050565b6000600883026200034e7fffffffffffffffffffffffffffffffffffffffffffffffffffffffffffffffff826200030f565b6200035a86836200030f565b95508019841693508086168417925050509392505050565b6000819050919050565b6000819050919050565b6000620003a7620003a16200039b8462000372565b6200037c565b62000372565b9050919050565b6000819050919050565b620003c38362000386565b620003db620003d282620003ae565b8484546200031c565b825550505050565b600090565b620003f2620003e3565b620003ff818484620003b8565b505050565b5b8181101562000427576200041b600082620003e8565b60018101905062000405565b5050565b601f82111562000476576200044081620002ea565b6200044b84620002ff565b810160208510156200045b578190505b620004736200046a85620002ff565b83018262000404565b50505b505050565b600082821c905092915050565b60006200049b600019846008026200047b565b1980831691505092915050565b6000620004b6838362000488565b9150826002028217905092915050565b620004d1826200027b565b67ffffffffffffffff811115620004ed57620004ec62000092565b5b620004f98254620002b5565b620005068282856200042b565b600060209050601f8311600181146200053e576000841562000529578287015190505b620005358582620004a8565b865550620005a5565b601f1984166200054e86620002ea565b60005b82811015620005785784890151825560018201915060208501945060208101905062000551565b8683101562000598578489015162000594601f89168262000488565b8355505b6001600288020188555050505b505050505050565b6119ea80620005bd6000396000f3fe608060405234801561001057600080fd5b50600436106100cf5760003560e01c80636352211e1161008c578063a9059cbb11610066578063a9059cbb14610210578063c87b56dd1461022c578063d3fc98641461025c578063e985e9c514610278576100cf565b80636352211e1461019257806370a08231146101c257806395d89b41146101f2576100cf565b806306fdde03146100d4578063081812fc146100f2578063095ea7b31461012257806323b872dd1461013e578063367605ca1461015a57806342966c6814610176575b600080fd5b6100dc6102a8565b6040516100e99190611057565b60405180910390f35b61010c600480360381019061010791906110c3565b61033a565b6040516101199190611131565b60405180910390f35b61013c60048036038101906101379190611178565b610377565b005b610158600480360381019061015391906111b8565b6104fc565b005b610174600480360381019061016f9190611243565b610788565b005b610190600480360381019061018b91906110c3565b610886565b005b6101ac60048036038101906101a791906110c3565b6109fb565b6040516101b99190611131565b60405180910390f35b6101dc60048036038101906101d79190611296565b610a38565b6040516101e991906112d2565b60405180910390f35b6101fa610a81565b6040516102079190611057565b60405180910390f35b61022a60048036038101906102259190611178565b610b13565b005b610246600480360381019061024191906110c3565b610d49565b6040516102539190611057565b60405180910390f35b61027660048036038101906102719190611422565b610dee565b005b610292600480360381019061028d9190611491565b610f33565b60405161029f91906114e0565b60405180910390f35b6060600080546102b79061152a565b80601f01602080910402602001604051908101604052809291908181526020018280546102e39061152a565b80156103305780601f1061030557610100808354040283529160200191610330565b820191906000526020600020905b81548152906001019060200180831161031357829003601f168201915b5050505050905090565b60006005600083815260200190815260200160002060009054906101000a900473ffffffffffffffffffffffffffffffffffffffff169050919050565b6003600082815260200190815260200160002060009054906101000a900473ffffffffffffffffffffffffffffffffffffffff1673ffffffffffffffffffffffffffffffffffffffff163373ffffffffffffffffffffffffffffffffffffffff1614610418576040517f08c379a000000000000000000000000000000000000000000000000000000000815260040161040f906115a7565b60405180910390fd5b816005600083815260200190815260200160002060006101000a81548173ffffffffffffffffffffffffffffffffffffffff021916908373ffffffffffffffffffffffffffffffffffffffff160217905550808273ffffffffffffffffffffffffffffffffffffffff166003600084815260200190815260200160002060009054906101000a900473ffffffffffffffffffffffffffffffffffffffff1673ffffffffffffffffffffffffffffffffffffffff167f8c5be1e5ebec7d5bd14f71427d1e84f3dd0314c0f7b2291e5b200ac8c7c3b92560405160405180910390a45050565b60006003600083815260200190815260200160002060009054906101000a900473ffffffffffffffffffffffffffffffffffffffff1690508073ffffffffffffffffffffffffffffffffffffffff163373ffffffffffffffffffffffffffffffffffffffff16148061057457506105738133610f33565b5b806105b257503373ffffffffffffffffffffffffffffffffffffffff1661059a8361033a565b73ffffffffffffffffffffffffffffffffffffffff16145b6105f1576040517f08c379a00000000000000000000000000000000000000000000000000000000081526004016105e890611613565b60405180910390fd5b6005600083815260200190815260200160002060006101000a81549073ffffffffffffffffffffffffffffffffffffffff02191690556001600460008673ffffffffffffffffffffffffffffffffffffffff1673ffffffffffffffffffffffffffffffffffffffff16815260200190815260200160002060008282546106779190611662565b925050819055506001600460008573ffffffffffffffffffffffffffffffffffffffff1673ffffffffffffffffffffffffffffffffffffffff16815260200190815260200160002060008282546106ce9190611696565b92505081905550826003600084815260200190815260200160002060006101000a81548173ffffffffffffffffffffffffffffffffffffffff021916908373ffffffffffffffffffffffffffffffffffffffff160217905550818373ffffffffffffffffffffffffffffffffffffffff163373ffffffffffffffffffffffffffffffffffffffff167fddf252ad1be2c89b69c2b068fc378daa952ba7f163c4a11628f55a4df523b3ef60405160405180910390a450505050565b80600660008573ffffffffffffffffffffffffffffffffffffffff1673ffffffffffffffffffffffffffffffffffffffff16815260200190815260200160002060008473ffffffffffffffffffffffffffffffffffffffff1673ffffffffffffffffffffffffffffffffffffffff16815260200190815260200160002060006101000a81548160ff0219169083151502179055508173ffffffffffffffffffffffffffffffffffffffff168373ffffffffffffffffffffffffffffffffffffffff167f17307eab39ab6107e8899845ad3d59bd9653f200f220920489ca2b5937696c318360405161087991906114e0565b60405180910390a3505050565b60006003600083815260200190815260200160002060009054906101000a900473ffffffffffffffffffffffffffffffffffffffff1690506005600083815260200190815260200160002060006101000a81549073ffffffffffffffffffffffffffffffffffffffff02191690556001600460008373ffffffffffffffffffffffffffffffffffffffff1673ffffffffffffffffffffffffffffffffffffffff16815260200190815260200160002060008282546109449190611662565b925050819055506003600083815260200190815260200160002060006101000a81549073ffffffffffffffffffffffffffffffffffffffff02191690556001600760008282546109949190611662565b9250508190555081600073ffffffffffffffffffffffffffffffffffffffff168273ffffffffffffffffffffffffffffffffffffffff167fddf252ad1be2c89b69c2b068fc378daa952ba7f163c4a11628f55a4df523b3ef60405160405180910390a45050565b60006003600083815260200190815260200160002060009054906101000a900473ffffffffffffffffffffffffffffffffffffffff169050919050565b6000600460008373ffffffffffffffffffffffffffffffffffffffff1673ffffffffffffffffffffffffffffffffffffffff168152602001908152602001600020549050919050565b606060018054610a909061152a565b80601f0160208091040260200160405190810160405280929190818152602001828054610abc9061152a565b8015610b095780601f10610ade57610100808354040283529160200191610b09565b820191906000526020600020905b815481529060010190602001808311610aec57829003601f168201915b5050505050905090565b3373ffffffffffffffffffffffffffffffffffffffff166003600083815260200190815260200160002060009054906101000a900473ffffffffffffffffffffffffffffffffffffffff1673ffffffffffffffffffffffffffffffffffffffff1614610bb4576040517f08c379a0000000000000000000000000000000000000000000000000000000008152600401610bab90611716565b60405180910390fd5b6005600082815260200190815260200160002060006101000a81549073ffffffffffffffffffffffffffffffffffffffff02191690556001600460003373ffffffffffffffffffffffffffffffffffffffff1673ffffffffffffffffffffffffffffffffffffffff1681526020019081526020016000206000828254610c3a9190611662565b925050819055506001600460008473ffffffffffffffffffffffffffffffffffffffff1673ffffffffffffffffffffffffffffffffffffffff1681526020019081526020016000206000828254610c919190611696565b92505081905550816003600083815260200190815260200160002060006101000a81548173ffffffffffffffffffffffffffffffffffffffff021916908373ffffffffffffffffffffffffffffffffffffffff160217905550808273ffffffffffffffffffffffffffffffffffffffff163373ffffffffffffffffffffffffffffffffffffffff167fddf252ad1be2c89b69c2b068fc378daa952ba7f163c4a11628f55a4df523b3ef60405160405180910390a45050565b6060600260008381526020019081526020016000208054610d699061152a565b80601f0160208091040260200160405190810160405280929190818152602001828054610d959061152a565b8015610de25780601f10610db757610100808354040283529160200191610de2565b820191906000526020600020905b815481529060010190602001808311610dc557829003601f168201915b50505050509050919050565b6001600460008573ffffffffffffffffffffffffffffffffffffffff1673ffffffffffffffffffffffffffffffffffffffff1681526020019081526020016000206000828254610e3e9190611696565b92505081905550826003600084815260200190815260200160002060006101000a81548173ffffffffffffffffffffffffffffffffffffffff021916908373ffffffffffffffffffffffffffffffffffffffff16021790555080600260008481526020019081526020016000209081610eb791906118e2565b50600160076000828254610ecb9190611696565b92505081905550818373ffffffffffffffffffffffffffffffffffffffff16600073ffffffffffffffffffffffffffffffffffffffff167fddf252ad1be2c89b69c2b068fc378daa952ba7f163c4a11628f55a4df523b3ef60405160405180910390a4505050565b6000600660008473ffffffffffffffffffffffffffffffffffffffff1673ffffffffffffffffffffffffffffffffffffffff16815260200190815260200160002060008373ffffffffffffffffffffffffffffffffffffffff1673ffffffffffffffffffffffffffffffffffffffff16815260200190815260200160002060009054906101000a900460ff16905092915050565b600081519050919050565b600082825260208201905092915050565b60005b83811015611001578082015181840152602081019050610fe6565b60008484015250505050565b6000601f19601f8301169050919050565b600061102982610fc7565b6110338185610fd2565b9350611043818560208601610fe3565b61104c8161100d565b840191505092915050565b60006020820190508181036000830152611071818461101e565b905092915050565b6000604051905090565b600080fd5b600080fd5b6000819050919050565b6110a08161108d565b81146110ab57600080fd5b50565b6000813590506110bd81611097565b92915050565b6000602082840312156110d9576110d8611083565b5b60006110e7848285016110ae565b91505092915050565b600073ffffffffffffffffffffffffffffffffffffffff82169050919050565b600061111b826110f0565b9050919050565b61112b81611110565b82525050565b60006020820190506111466000830184611122565b92915050565b61115581611110565b811461116057600080fd5b50565b6000813590506111728161114c565b92915050565b6000806040838503121561118f5761118e611083565b5b600061119d85828601611163565b92505060206111ae858286016110ae565b9150509250929050565b6000806000606084860312156111d1576111d0611083565b5b60006111df86828701611163565b93505060206111f086828701611163565b9250506040611201868287016110ae565b9150509250925092565b60008115159050919050565b6112208161120b565b811461122b57600080fd5b50565b60008135905061123d81611217565b92915050565b60008060006060848603121561125c5761125b611083565b5b600061126a86828701611163565b935050602061127b86828701611163565b925050604061128c8682870161122e565b9150509250925092565b6000602082840312156112ac576112ab611083565b5b60006112ba84828501611163565b91505092915050565b6112cc8161108d565b82525050565b60006020820190506112e760008301846112c3565b92915050565b600080fd5b600080fd5b7f4e487b7100000000000000000000000000000000000000000000000000000000600052604160045260246000fd5b61132f8261100d565b810181811067ffffffffffffffff8211171561134e5761134d6112f7565b5b80604052505050565b6000611361611079565b905061136d8282611326565b919050565b600067ffffffffffffffff82111561138d5761138c6112f7565b5b6113968261100d565b9050602081019050919050565b82818337600083830152505050565b60006113c56113c084611372565b611357565b9050828152602081018484840111156113e1576113e06112f2565b5b6113ec8482856113a3565b509392505050565b600082601f830112611409576114086112ed565b5b81356114198482602086016113b2565b91505092915050565b60008060006060848603121561143b5761143a611083565b5b600061144986828701611163565b935050602061145a868287016110ae565b925050604084013567ffffffffffffffff81111561147b5761147a611088565b5b611487868287016113f4565b9150509250925092565b600080604083850312156114a8576114a7611083565b5b60006114b685828601611163565b92505060206114c785828601611163565b9150509250929050565b6114da8161120b565b82525050565b60006020820190506114f560008301846114d1565b92915050565b7f4e487b7100000000000000000000000000000000000000000000000000000000600052602260045260246000fd5b6000600282049050600182168061154257607f821691505b602082108103611555576115546114fb565b5b50919050565b7f496e636f7272656374204f776e65720000000000000000000000000000000000600082015250565b6000611591600f83610fd2565b915061159c8261155b565b602082019050919050565b600060208201905081810360008301526115c081611584565b9050919050565b7f4e6f7420417070726f7665640000000000000000000000000000000000000000600082015250565b60006115fd600c83610fd2565b9150611608826115c7565b602082019050919050565b6000602082019050818103600083015261162c816115f0565b9050919050565b7f4e487b7100000000000000000000000000000000000000000000000000000000600052601160045260246000fd5b600061166d8261108d565b91506116788361108d565b92508282039050818111156116905761168f611633565b5b92915050565b60006116a18261108d565b91506116ac8361108d565b92508282019050808211156116c4576116c3611633565b5b92915050565b7f496e636f7272656374204f6e7765720000000000000000000000000000000000600082015250565b6000611700600f83610fd2565b915061170b826116ca565b602082019050919050565b6000602082019050818103600083015261172f816116f3565b9050919050565b60008190508160005260206000209050919050565b60006020601f8301049050919050565b600082821b905092915050565b6000600883026117987fffffffffffffffffffffffffffffffffffffffffffffffffffffffffffffffff8261175b565b6117a2868361175b565b95508019841693508086168417925050509392505050565b6000819050919050565b60006117df6117da6117d58461108d565b6117ba565b61108d565b9050919050565b6000819050919050565b6117f9836117c4565b61180d611805826117e6565b848454611768565b825550505050565b600090565b611822611815565b61182d8184846117f0565b505050565b5b818110156118515761184660008261181a565b600181019050611833565b5050565b601f8211156118965761186781611736565b6118708461174b565b8101602085101561187f578190505b61189361188b8561174b565b830182611832565b50505b505050565b600082821c905092915050565b60006118b96000198460080261189b565b1980831691505092915050565b60006118d283836118a8565b9150826002028217905092915050565b6118eb82610fc7565b67ffffffffffffffff811115611904576119036112f7565b5b61190e825461152a565b611919828285611855565b600060209050601f83116001811461194c576000841561193a578287015190505b61194485826118c6565b8655506119ac565b601f19841661195a86611736565b60005b828110156119825784890151825560018201915060208501945060208101905061195d565b8683101561199f578489015161199b601f8916826118a8565b8355505b6001600288020188555050505b50505050505056fea2646970667358221220f32a512efeb051f89253dd7267651c9def3e2c27186d35886289b253d4637e1764736f6c63430008120033",
					"opcodes": "PUSH1 0x80 PUSH1 0x40 MSTORE CALLVALUE DUP1 ISZERO PUSH3 0x11 JUMPI PUSH1 0x0 DUP1 REVERT JUMPDEST POP PUSH1 0x40 MLOAD PUSH3 0x1FA7 CODESIZE SUB DUP1 PUSH3 0x1FA7 DUP4 CODECOPY DUP2 DUP2 ADD PUSH1 0x40 MSTORE DUP2 ADD SWAP1 PUSH3 0x37 SWAP2 SWAP1 PUSH3 0x1F6 JUMP JUMPDEST DUP2 PUSH1 0x0 SWAP1 DUP2 PUSH3 0x48 SWAP2 SWAP1 PUSH3 0x4C6 JUMP JUMPDEST POP DUP1 PUSH1 0x1 SWAP1 DUP2 PUSH3 0x5A SWAP2 SWAP1 PUSH3 0x4C6 JUMP JUMPDEST POP POP POP PUSH3 0x5AD JUMP JUMPDEST PUSH1 0x0 PUSH1 0x40 MLOAD SWAP1 POP SWAP1 JUMP JUMPDEST PUSH1 0x0 DUP1 REVERT JUMPDEST PUSH1 0x0 DUP1 REVERT JUMPDEST PUSH1 0x0 DUP1 REVERT JUMPDEST PUSH1 0x0 DUP1 REVERT JUMPDEST PUSH1 0x0 PUSH1 0x1F NOT PUSH1 0x1F DUP4 ADD AND SWAP1 POP SWAP2 SWAP1 POP JUMP JUMPDEST PUSH32 0x4E487B7100000000000000000000000000000000000000000000000000000000 PUSH1 0x0 MSTORE PUSH1 0x41 PUSH1 0x4 MSTORE PUSH1 0x24 PUSH1 0x0 REVERT JUMPDEST PUSH3 0xCC DUP3 PUSH3 0x81 JUMP JUMPDEST DUP2 ADD DUP2 DUP2 LT PUSH8 0xFFFFFFFFFFFFFFFF DUP3 GT OR ISZERO PUSH3 0xEE JUMPI PUSH3 0xED PUSH3 0x92 JUMP JUMPDEST JUMPDEST DUP1 PUSH1 0x40 MSTORE POP POP POP JUMP JUMPDEST PUSH1 0x0 PUSH3 0x103 PUSH3 0x63 JUMP JUMPDEST SWAP1 POP PUSH3 0x111 DUP3 DUP3 PUSH3 0xC1 JUMP JUMPDEST SWAP2 SWAP1 POP JUMP JUMPDEST PUSH1 0x0 PUSH8 0xFFFFFFFFFFFFFFFF DUP3 GT ISZERO PUSH3 0x134 JUMPI PUSH3 0x133 PUSH3 0x92 JUMP JUMPDEST JUMPDEST PUSH3 0x13F DUP3 PUSH3 0x81 JUMP JUMPDEST SWAP1 POP PUSH1 0x20 DUP2 ADD SWAP1 POP SWAP2 SWAP1 POP JUMP JUMPDEST PUSH1 0x0 JUMPDEST DUP4 DUP2 LT ISZERO PUSH3 0x16C JUMPI DUP1 DUP3 ADD MLOAD DUP2 DUP5 ADD MSTORE PUSH1 0x20 DUP2 ADD SWAP1 POP PUSH3 0x14F JUMP JUMPDEST PUSH1 0x0 DUP5 DUP5 ADD MSTORE POP POP POP POP JUMP JUMPDEST PUSH1 0x0 PUSH3 0x18F PUSH3 0x189 DUP5 PUSH3 0x116 JUMP JUMPDEST PUSH3 0xF7 JUMP JUMPDEST SWAP1 POP DUP3 DUP2 MSTORE PUSH1 0x20 DUP2 ADD DUP5 DUP5 DUP5 ADD GT ISZERO PUSH3 0x1AE JUMPI PUSH3 0x1AD PUSH3 0x7C JUMP JUMPDEST JUMPDEST PUSH3 0x1BB DUP5 DUP3 DUP6 PUSH3 0x14C JUMP JUMPDEST POP SWAP4 SWAP3 POP POP POP JUMP JUMPDEST PUSH1 0x0 DUP3 PUSH1 0x1F DUP4 ADD SLT PUSH3 0x1DB JUMPI PUSH3 0x1DA PUSH3 0x77 JUMP JUMPDEST JUMPDEST DUP2 MLOAD PUSH3 0x1ED DUP5 DUP3 PUSH1 0x20 DUP7 ADD PUSH3 0x178 JUMP JUMPDEST SWAP2 POP POP SWAP3 SWAP2 POP POP JUMP JUMPDEST PUSH1 0x0 DUP1 PUSH1 0x40 DUP4 DUP6 SUB SLT ISZERO PUSH3 0x210 JUMPI PUSH3 0x20F PUSH3 0x6D JUMP JUMPDEST JUMPDEST PUSH1 0x0 DUP4 ADD MLOAD PUSH8 0xFFFFFFFFFFFFFFFF DUP2 GT ISZERO PUSH3 0x231 JUMPI PUSH3 0x230 PUSH3 0x72 JUMP JUMPDEST JUMPDEST PUSH3 0x23F DUP6 DUP3 DUP7 ADD PUSH3 0x1C3 JUMP JUMPDEST SWAP3 POP POP PUSH1 0x20 DUP4 ADD MLOAD PUSH8 0xFFFFFFFFFFFFFFFF DUP2 GT ISZERO PUSH3 0x263 JUMPI PUSH3 0x262 PUSH3 0x72 JUMP JUMPDEST JUMPDEST PUSH3 0x271 DUP6 DUP3 DUP7 ADD PUSH3 0x1C3 JUMP JUMPDEST SWAP2 POP POP SWAP3 POP SWAP3 SWAP1 POP JUMP JUMPDEST PUSH1 0x0 DUP2 MLOAD SWAP1 POP SWAP2 SWAP1 POP JUMP JUMPDEST PUSH32 0x4E487B7100000000000000000000000000000000000000000000000000000000 PUSH1 0x0 MSTORE PUSH1 0x22 PUSH1 0x4 MSTORE PUSH1 0x24 PUSH1 0x0 REVERT JUMPDEST PUSH1 0x0 PUSH1 0x2 DUP3 DIV SWAP1 POP PUSH1 0x1 DUP3 AND DUP1 PUSH3 0x2CE JUMPI PUSH1 0x7F DUP3 AND SWAP2 POP JUMPDEST PUSH1 0x20 DUP3 LT DUP2 SUB PUSH3 0x2E4 JUMPI PUSH3 0x2E3 PUSH3 0x286 JUMP JUMPDEST JUMPDEST POP SWAP2 SWAP1 POP JUMP JUMPDEST PUSH1 0x0 DUP2 SWAP1 POP DUP2 PUSH1 0x0 MSTORE PUSH1 0x20 PUSH1 0x0 KECCAK256 SWAP1 POP SWAP2 SWAP1 POP JUMP JUMPDEST PUSH1 0x0 PUSH1 0x20 PUSH1 0x1F DUP4 ADD DIV SWAP1 POP SWAP2 SWAP1 POP JUMP JUMPDEST PUSH1 0x0 DUP3 DUP3 SHL SWAP1 POP SWAP3 SWAP2 POP POP JUMP JUMPDEST PUSH1 0x0 PUSH1 0x8 DUP4 MUL PUSH3 0x34E PUSH32 0xFFFFFFFFFFFFFFFFFFFFFFFFFFFFFFFFFFFFFFFFFFFFFFFFFFFFFFFFFFFFFFFF DUP3 PUSH3 0x30F JUMP JUMPDEST PUSH3 0x35A DUP7 DUP4 PUSH3 0x30F JUMP JUMPDEST SWAP6 POP DUP1 NOT DUP5 AND SWAP4 POP DUP1 DUP7 AND DUP5 OR SWAP3 POP POP POP SWAP4 SWAP3 POP POP POP JUMP JUMPDEST PUSH1 0x0 DUP2 SWAP1 POP SWAP2 SWAP1 POP JUMP JUMPDEST PUSH1 0x0 DUP2 SWAP1 POP SWAP2 SWAP1 POP JUMP JUMPDEST PUSH1 0x0 PUSH3 0x3A7 PUSH3 0x3A1 PUSH3 0x39B DUP5 PUSH3 0x372 JUMP JUMPDEST PUSH3 0x37C JUMP JUMPDEST PUSH3 0x372 JUMP JUMPDEST SWAP1 POP SWAP2 SWAP1 POP JUMP JUMPDEST PUSH1 0x0 DUP2 SWAP1 POP SWAP2 SWAP1 POP JUMP JUMPDEST PUSH3 0x3C3 DUP4 PUSH3 0x386 JUMP JUMPDEST PUSH3 0x3DB PUSH3 0x3D2 DUP3 PUSH3 0x3AE JUMP JUMPDEST DUP5 DUP5 SLOAD PUSH3 0x31C JUMP JUMPDEST DUP3 SSTORE POP POP POP POP JUMP JUMPDEST PUSH1 0x0 SWAP1 JUMP JUMPDEST PUSH3 0x3F2 PUSH3 0x3E3 JUMP JUMPDEST PUSH3 0x3FF DUP2 DUP5 DUP5 PUSH3 0x3B8 JUMP JUMPDEST POP POP POP JUMP JUMPDEST JUMPDEST DUP2 DUP2 LT ISZERO PUSH3 0x427 JUMPI PUSH3 0x41B PUSH1 0x0 DUP3 PUSH3 0x3E8 JUMP JUMPDEST PUSH1 0x1 DUP2 ADD SWAP1 POP PUSH3 0x405 JUMP JUMPDEST POP POP JUMP JUMPDEST PUSH1 0x1F DUP3 GT ISZERO PUSH3 0x476 JUMPI PUSH3 0x440 DUP2 PUSH3 0x2EA JUMP JUMPDEST PUSH3 0x44B DUP5 PUSH3 0x2FF JUMP JUMPDEST DUP2 ADD PUSH1 0x20 DUP6 LT ISZERO PUSH3 0x45B JUMPI DUP2 SWAP1 POP JUMPDEST PUSH3 0x473 PUSH3 0x46A DUP6 PUSH3 0x2FF JUMP JUMPDEST DUP4 ADD DUP3 PUSH3 0x404 JUMP JUMPDEST POP POP JUMPDEST POP POP POP JUMP JUMPDEST PUSH1 0x0 DUP3 DUP3 SHR SWAP1 POP SWAP3 SWAP2 POP POP JUMP JUMPDEST PUSH1 0x0 PUSH3 0x49B PUSH1 0x0 NOT DUP5 PUSH1 0x8 MUL PUSH3 0x47B JUMP JUMPDEST NOT DUP1 DUP4 AND SWAP2 POP POP SWAP3 SWAP2 POP POP JUMP JUMPDEST PUSH1 0x0 PUSH3 0x4B6 DUP4 DUP4 PUSH3 0x488 JUMP JUMPDEST SWAP2 POP DUP3 PUSH1 0x2 MUL DUP3 OR SWAP1 POP SWAP3 SWAP2 POP POP JUMP JUMPDEST PUSH3 0x4D1 DUP3 PUSH3 0x27B JUMP JUMPDEST PUSH8 0xFFFFFFFFFFFFFFFF DUP2 GT ISZERO PUSH3 0x4ED JUMPI PUSH3 0x4EC PUSH3 0x92 JUMP JUMPDEST JUMPDEST PUSH3 0x4F9 DUP3 SLOAD PUSH3 0x2B5 JUMP JUMPDEST PUSH3 0x506 DUP3 DUP3 DUP6 PUSH3 0x42B JUMP JUMPDEST PUSH1 0x0 PUSH1 0x20 SWAP1 POP PUSH1 0x1F DUP4 GT PUSH1 0x1 DUP2 EQ PUSH3 0x53E JUMPI PUSH1 0x0 DUP5 ISZERO PUSH3 0x529 JUMPI DUP3 DUP8 ADD MLOAD SWAP1 POP JUMPDEST PUSH3 0x535 DUP6 DUP3 PUSH3 0x4A8 JUMP JUMPDEST DUP7 SSTORE POP PUSH3 0x5A5 JUMP JUMPDEST PUSH1 0x1F NOT DUP5 AND PUSH3 0x54E DUP7 PUSH3 0x2EA JUMP JUMPDEST PUSH1 0x0 JUMPDEST DUP3 DUP2 LT ISZERO PUSH3 0x578 JUMPI DUP5 DUP10 ADD MLOAD DUP3 SSTORE PUSH1 0x1 DUP3 ADD SWAP2 POP PUSH1 0x20 DUP6 ADD SWAP5 POP PUSH1 0x20 DUP2 ADD SWAP1 POP PUSH3 0x551 JUMP JUMPDEST DUP7 DUP4 LT ISZERO PUSH3 0x598 JUMPI DUP5 DUP10 ADD MLOAD PUSH3 0x594 PUSH1 0x1F DUP10 AND DUP3 PUSH3 0x488 JUMP JUMPDEST DUP4 SSTORE POP JUMPDEST PUSH1 0x1 PUSH1 0x2 DUP9 MUL ADD DUP9 SSTORE POP POP POP JUMPDEST POP POP POP POP POP POP JUMP JUMPDEST PUSH2 0x19EA DUP1 PUSH3 0x5BD PUSH1 0x0 CODECOPY PUSH1 0x0 RETURN INVALID PUSH1 0x80 PUSH1 0x40 MSTORE CALLVALUE DUP1 ISZERO PUSH2 0x10 JUMPI PUSH1 0x0 DUP1 REVERT JUMPDEST POP PUSH1 0x4 CALLDATASIZE LT PUSH2 0xCF JUMPI PUSH1 0x0 CALLDATALOAD PUSH1 0xE0 SHR DUP1 PUSH4 0x6352211E GT PUSH2 0x8C JUMPI DUP1 PUSH4 0xA9059CBB GT PUSH2 0x66 JUMPI DUP1 PUSH4 0xA9059CBB EQ PUSH2 0x210 JUMPI DUP1 PUSH4 0xC87B56DD EQ PUSH2 0x22C JUMPI DUP1 PUSH4 0xD3FC9864 EQ PUSH2 0x25C JUMPI DUP1 PUSH4 0xE985E9C5 EQ PUSH2 0x278 JUMPI PUSH2 0xCF JUMP JUMPDEST DUP1 PUSH4 0x6352211E EQ PUSH2 0x192 JUMPI DUP1 PUSH4 0x70A08231 EQ PUSH2 0x1C2 JUMPI DUP1 PUSH4 0x95D89B41 EQ PUSH2 0x1F2 JUMPI PUSH2 0xCF JUMP JUMPDEST DUP1 PUSH4 0x6FDDE03 EQ PUSH2 0xD4 JUMPI DUP1 PUSH4 0x81812FC EQ PUSH2 0xF2 JUMPI DUP1 PUSH4 0x95EA7B3 EQ PUSH2 0x122 JUMPI DUP1 PUSH4 0x23B872DD EQ PUSH2 0x13E JUMPI DUP1 PUSH4 0x367605CA EQ PUSH2 0x15A JUMPI DUP1 PUSH4 0x42966C68 EQ PUSH2 0x176 JUMPI JUMPDEST PUSH1 0x0 DUP1 REVERT JUMPDEST PUSH2 0xDC PUSH2 0x2A8 JUMP JUMPDEST PUSH1 0x40 MLOAD PUSH2 0xE9 SWAP2 SWAP1 PUSH2 0x1057 JUMP JUMPDEST PUSH1 0x40 MLOAD DUP1 SWAP2 SUB SWAP1 RETURN JUMPDEST PUSH2 0x10C PUSH1 0x4 DUP1 CALLDATASIZE SUB DUP2 ADD SWAP1 PUSH2 0x107 SWAP2 SWAP1 PUSH2 0x10C3 JUMP JUMPDEST PUSH2 0x33A JUMP JUMPDEST PUSH1 0x40 MLOAD PUSH2 0x119 SWAP2 SWAP1 PUSH2 0x1131 JUMP JUMPDEST PUSH1 0x40 MLOAD DUP1 SWAP2 SUB SWAP1 RETURN JUMPDEST PUSH2 0x13C PUSH1 0x4 DUP1 CALLDATASIZE SUB DUP2 ADD SWAP1 PUSH2 0x137 SWAP2 SWAP1 PUSH2 0x1178 JUMP JUMPDEST PUSH2 0x377 JUMP JUMPDEST STOP JUMPDEST PUSH2 0x158 PUSH1 0x4 DUP1 CALLDATASIZE SUB DUP2 ADD SWAP1 PUSH2 0x153 SWAP2 SWAP1 PUSH2 0x11B8 JUMP JUMPDEST PUSH2 0x4FC JUMP JUMPDEST STOP JUMPDEST PUSH2 0x174 PUSH1 0x4 DUP1 CALLDATASIZE SUB DUP2 ADD SWAP1 PUSH2 0x16F SWAP2 SWAP1 PUSH2 0x1243 JUMP JUMPDEST PUSH2 0x788 JUMP JUMPDEST STOP JUMPDEST PUSH2 0x190 PUSH1 0x4 DUP1 CALLDATASIZE SUB DUP2 ADD SWAP1 PUSH2 0x18B SWAP2 SWAP1 PUSH2 0x10C3 JUMP JUMPDEST PUSH2 0x886 JUMP JUMPDEST STOP JUMPDEST PUSH2 0x1AC PUSH1 0x4 DUP1 CALLDATASIZE SUB DUP2 ADD SWAP1 PUSH2 0x1A7 SWAP2 SWAP1 PUSH2 0x10C3 JUMP JUMPDEST PUSH2 0x9FB JUMP JUMPDEST PUSH1 0x40 MLOAD PUSH2 0x1B9 SWAP2 SWAP1 PUSH2 0x1131 JUMP JUMPDEST PUSH1 0x40 MLOAD DUP1 SWAP2 SUB SWAP1 RETURN JUMPDEST PUSH2 0x1DC PUSH1 0x4 DUP1 CALLDATASIZE SUB DUP2 ADD SWAP1 PUSH2 0x1D7 SWAP2 SWAP1 PUSH2 0x1296 JUMP JUMPDEST PUSH2 0xA38 JUMP JUMPDEST PUSH1 0x40 MLOAD PUSH2 0x1E9 SWAP2 SWAP1 PUSH2 0x12D2 JUMP JUMPDEST PUSH1 0x40 MLOAD DUP1 SWAP2 SUB SWAP1 RETURN JUMPDEST PUSH2 0x1FA PUSH2 0xA81 JUMP JUMPDEST PUSH1 0x40 MLOAD PUSH2 0x207 SWAP2 SWAP1 PUSH2 0x1057 JUMP JUMPDEST PUSH1 0x40 MLOAD DUP1 SWAP2 SUB SWAP1 RETURN JUMPDEST PUSH2 0x22A PUSH1 0x4 DUP1 CALLDATASIZE SUB DUP2 ADD SWAP1 PUSH2 0x225 SWAP2 SWAP1 PUSH2 0x1178 JUMP JUMPDEST PUSH2 0xB13 JUMP JUMPDEST STOP JUMPDEST PUSH2 0x246 PUSH1 0x4 DUP1 CALLDATASIZE SUB DUP2 ADD SWAP1 PUSH2 0x241 SWAP2 SWAP1 PUSH2 0x10C3 JUMP JUMPDEST PUSH2 0xD49 JUMP JUMPDEST PUSH1 0x40 MLOAD PUSH2 0x253 SWAP2 SWAP1 PUSH2 0x1057 JUMP JUMPDEST PUSH1 0x40 MLOAD DUP1 SWAP2 SUB SWAP1 RETURN JUMPDEST PUSH2 0x276 PUSH1 0x4 DUP1 CALLDATASIZE SUB DUP2 ADD SWAP1 PUSH2 0x271 SWAP2 SWAP1 PUSH2 0x1422 JUMP JUMPDEST PUSH2 0xDEE JUMP JUMPDEST STOP JUMPDEST PUSH2 0x292 PUSH1 0x4 DUP1 CALLDATASIZE SUB DUP2 ADD SWAP1 PUSH2 0x28D SWAP2 SWAP1 PUSH2 0x1491 JUMP JUMPDEST PUSH2 0xF33 JUMP JUMPDEST PUSH1 0x40 MLOAD PUSH2 0x29F SWAP2 SWAP1 PUSH2 0x14E0 JUMP JUMPDEST PUSH1 0x40 MLOAD DUP1 SWAP2 SUB SWAP1 RETURN JUMPDEST PUSH1 0x60 PUSH1 0x0 DUP1 SLOAD PUSH2 0x2B7 SWAP1 PUSH2 0x152A JUMP JUMPDEST DUP1 PUSH1 0x1F ADD PUSH1 0x20 DUP1 SWAP2 DIV MUL PUSH1 0x20 ADD PUSH1 0x40 MLOAD SWAP1 DUP2 ADD PUSH1 0x40 MSTORE DUP1 SWAP3 SWAP2 SWAP1 DUP2 DUP2 MSTORE PUSH1 0x20 ADD DUP3 DUP1 SLOAD PUSH2 0x2E3 SWAP1 PUSH2 0x152A JUMP JUMPDEST DUP1 ISZERO PUSH2 0x330 JUMPI DUP1 PUSH1 0x1F LT PUSH2 0x305 JUMPI PUSH2 0x100 DUP1 DUP4 SLOAD DIV MUL DUP4 MSTORE SWAP2 PUSH1 0x20 ADD SWAP2 PUSH2 0x330 JUMP JUMPDEST DUP3 ADD SWAP2 SWAP1 PUSH1 0x0 MSTORE PUSH1 0x20 PUSH1 0x0 KECCAK256 SWAP1 JUMPDEST DUP2 SLOAD DUP2 MSTORE SWAP1 PUSH1 0x1 ADD SWAP1 PUSH1 0x20 ADD DUP1 DUP4 GT PUSH2 0x313 JUMPI DUP3 SWAP1 SUB PUSH1 0x1F AND DUP3 ADD SWAP2 JUMPDEST POP POP POP POP POP SWAP1 POP SWAP1 JUMP JUMPDEST PUSH1 0x0 PUSH1 0x5 PUSH1 0x0 DUP4 DUP2 MSTORE PUSH1 0x20 ADD SWAP1 DUP2 MSTORE PUSH1 0x20 ADD PUSH1 0x0 KECCAK256 PUSH1 0x0 SWAP1 SLOAD SWAP1 PUSH2 0x100 EXP SWAP1 DIV PUSH20 0xFFFFFFFFFFFFFFFFFFFFFFFFFFFFFFFFFFFFFFFF AND SWAP1 POP SWAP2 SWAP1 POP JUMP JUMPDEST PUSH1 0x3 PUSH1 0x0 DUP3 DUP2 MSTORE PUSH1 0x20 ADD SWAP1 DUP2 MSTORE PUSH1 0x20 ADD PUSH1 0x0 KECCAK256 PUSH1 0x0 SWAP1 SLOAD SWAP1 PUSH2 0x100 EXP SWAP1 DIV PUSH20 0xFFFFFFFFFFFFFFFFFFFFFFFFFFFFFFFFFFFFFFFF AND PUSH20 0xFFFFFFFFFFFFFFFFFFFFFFFFFFFFFFFFFFFFFFFF AND CALLER PUSH20 0xFFFFFFFFFFFFFFFFFFFFFFFFFFFFFFFFFFFFFFFF AND EQ PUSH2 0x418 JUMPI PUSH1 0x40 MLOAD PUSH32 0x8C379A000000000000000000000000000000000000000000000000000000000 DUP2 MSTORE PUSH1 0x4 ADD PUSH2 0x40F SWAP1 PUSH2 0x15A7 JUMP JUMPDEST PUSH1 0x40 MLOAD DUP1 SWAP2 SUB SWAP1 REVERT JUMPDEST DUP2 PUSH1 0x5 PUSH1 0x0 DUP4 DUP2 MSTORE PUSH1 0x20 ADD SWAP1 DUP2 MSTORE PUSH1 0x20 ADD PUSH1 0x0 KECCAK256 PUSH1 0x0 PUSH2 0x100 EXP DUP2 SLOAD DUP2 PUSH20 0xFFFFFFFFFFFFFFFFFFFFFFFFFFFFFFFFFFFFFFFF MUL NOT AND SWAP1 DUP4 PUSH20 0xFFFFFFFFFFFFFFFFFFFFFFFFFFFFFFFFFFFFFFFF AND MUL OR SWAP1 SSTORE POP DUP1 DUP3 PUSH20 0xFFFFFFFFFFFFFFFFFFFFFFFFFFFFFFFFFFFFFFFF AND PUSH1 0x3 PUSH1 0x0 DUP5 DUP2 MSTORE PUSH1 0x20 ADD SWAP1 DUP2 MSTORE PUSH1 0x20 ADD PUSH1 0x0 KECCAK256 PUSH1 0x0 SWAP1 SLOAD SWAP1 PUSH2 0x100 EXP SWAP1 DIV PUSH20 0xFFFFFFFFFFFFFFFFFFFFFFFFFFFFFFFFFFFFFFFF AND PUSH20 0xFFFFFFFFFFFFFFFFFFFFFFFFFFFFFFFFFFFFFFFF AND PUSH32 0x8C5BE1E5EBEC7D5BD14F71427D1E84F3DD0314C0F7B2291E5B200AC8C7C3B925 PUSH1 0x40 MLOAD PUSH1 0x40 MLOAD DUP1 SWAP2 SUB SWAP1 LOG4 POP POP JUMP JUMPDEST PUSH1 0x0 PUSH1 0x3 PUSH1 0x0 DUP4 DUP2 MSTORE PUSH1 0x20 ADD SWAP1 DUP2 MSTORE PUSH1 0x20 ADD PUSH1 0x0 KECCAK256 PUSH1 0x0 SWAP1 SLOAD SWAP1 PUSH2 0x100 EXP SWAP1 DIV PUSH20 0xFFFFFFFFFFFFFFFFFFFFFFFFFFFFFFFFFFFFFFFF AND SWAP1 POP DUP1 PUSH20 0xFFFFFFFFFFFFFFFFFFFFFFFFFFFFFFFFFFFFFFFF AND CALLER PUSH20 0xFFFFFFFFFFFFFFFFFFFFFFFFFFFFFFFFFFFFFFFF AND EQ DUP1 PUSH2 0x574 JUMPI POP PUSH2 0x573 DUP2 CALLER PUSH2 0xF33 JUMP JUMPDEST JUMPDEST DUP1 PUSH2 0x5B2 JUMPI POP CALLER PUSH20 0xFFFFFFFFFFFFFFFFFFFFFFFFFFFFFFFFFFFFFFFF AND PUSH2 0x59A DUP4 PUSH2 0x33A JUMP JUMPDEST PUSH20 0xFFFFFFFFFFFFFFFFFFFFFFFFFFFFFFFFFFFFFFFF AND EQ JUMPDEST PUSH2 0x5F1 JUMPI PUSH1 0x40 MLOAD PUSH32 0x8C379A000000000000000000000000000000000000000000000000000000000 DUP2 MSTORE PUSH1 0x4 ADD PUSH2 0x5E8 SWAP1 PUSH2 0x1613 JUMP JUMPDEST PUSH1 0x40 MLOAD DUP1 SWAP2 SUB SWAP1 REVERT JUMPDEST PUSH1 0x5 PUSH1 0x0 DUP4 DUP2 MSTORE PUSH1 0x20 ADD SWAP1 DUP2 MSTORE PUSH1 0x20 ADD PUSH1 0x0 KECCAK256 PUSH1 0x0 PUSH2 0x100 EXP DUP2 SLOAD SWAP1 PUSH20 0xFFFFFFFFFFFFFFFFFFFFFFFFFFFFFFFFFFFFFFFF MUL NOT AND SWAP1 SSTORE PUSH1 0x1 PUSH1 0x4 PUSH1 0x0 DUP7 PUSH20 0xFFFFFFFFFFFFFFFFFFFFFFFFFFFFFFFFFFFFFFFF AND PUSH20 0xFFFFFFFFFFFFFFFFFFFFFFFFFFFFFFFFFFFFFFFF AND DUP2 MSTORE PUSH1 0x20 ADD SWAP1 DUP2 MSTORE PUSH1 0x20 ADD PUSH1 0x0 KECCAK256 PUSH1 0x0 DUP3 DUP3 SLOAD PUSH2 0x677 SWAP2 SWAP1 PUSH2 0x1662 JUMP JUMPDEST SWAP3 POP POP DUP2 SWAP1 SSTORE POP PUSH1 0x1 PUSH1 0x4 PUSH1 0x0 DUP6 PUSH20 0xFFFFFFFFFFFFFFFFFFFFFFFFFFFFFFFFFFFFFFFF AND PUSH20 0xFFFFFFFFFFFFFFFFFFFFFFFFFFFFFFFFFFFFFFFF AND DUP2 MSTORE PUSH1 0x20 ADD SWAP1 DUP2 MSTORE PUSH1 0x20 ADD PUSH1 0x0 KECCAK256 PUSH1 0x0 DUP3 DUP3 SLOAD PUSH2 0x6CE SWAP2 SWAP1 PUSH2 0x1696 JUMP JUMPDEST SWAP3 POP POP DUP2 SWAP1 SSTORE POP DUP3 PUSH1 0x3 PUSH1 0x0 DUP5 DUP2 MSTORE PUSH1 0x20 ADD SWAP1 DUP2 MSTORE PUSH1 0x20 ADD PUSH1 0x0 KECCAK256 PUSH1 0x0 PUSH2 0x100 EXP DUP2 SLOAD DUP2 PUSH20 0xFFFFFFFFFFFFFFFFFFFFFFFFFFFFFFFFFFFFFFFF MUL NOT AND SWAP1 DUP4 PUSH20 0xFFFFFFFFFFFFFFFFFFFFFFFFFFFFFFFFFFFFFFFF AND MUL OR SWAP1 SSTORE POP DUP2 DUP4 PUSH20 0xFFFFFFFFFFFFFFFFFFFFFFFFFFFFFFFFFFFFFFFF AND CALLER PUSH20 0xFFFFFFFFFFFFFFFFFFFFFFFFFFFFFFFFFFFFFFFF AND PUSH32 0xDDF252AD1BE2C89B69C2B068FC378DAA952BA7F163C4A11628F55A4DF523B3EF PUSH1 0x40 MLOAD PUSH1 0x40 MLOAD DUP1 SWAP2 SUB SWAP1 LOG4 POP POP POP POP JUMP JUMPDEST DUP1 PUSH1 0x6 PUSH1 0x0 DUP6 PUSH20 0xFFFFFFFFFFFFFFFFFFFFFFFFFFFFFFFFFFFFFFFF AND PUSH20 0xFFFFFFFFFFFFFFFFFFFFFFFFFFFFFFFFFFFFFFFF AND DUP2 MSTORE PUSH1 0x20 ADD SWAP1 DUP2 MSTORE PUSH1 0x20 ADD PUSH1 0x0 KECCAK256 PUSH1 0x0 DUP5 PUSH20 0xFFFFFFFFFFFFFFFFFFFFFFFFFFFFFFFFFFFFFFFF AND PUSH20 0xFFFFFFFFFFFFFFFFFFFFFFFFFFFFFFFFFFFFFFFF AND DUP2 MSTORE PUSH1 0x20 ADD SWAP1 DUP2 MSTORE PUSH1 0x20 ADD PUSH1 0x0 KECCAK256 PUSH1 0x0 PUSH2 0x100 EXP DUP2 SLOAD DUP2 PUSH1 0xFF MUL NOT AND SWAP1 DUP4 ISZERO ISZERO MUL OR SWAP1 SSTORE POP DUP2 PUSH20 0xFFFFFFFFFFFFFFFFFFFFFFFFFFFFFFFFFFFFFFFF AND DUP4 PUSH20 0xFFFFFFFFFFFFFFFFFFFFFFFFFFFFFFFFFFFFFFFF AND PUSH32 0x17307EAB39AB6107E8899845AD3D59BD9653F200F220920489CA2B5937696C31 DUP4 PUSH1 0x40 MLOAD PUSH2 0x879 SWAP2 SWAP1 PUSH2 0x14E0 JUMP JUMPDEST PUSH1 0x40 MLOAD DUP1 SWAP2 SUB SWAP1 LOG3 POP POP POP JUMP JUMPDEST PUSH1 0x0 PUSH1 0x3 PUSH1 0x0 DUP4 DUP2 MSTORE PUSH1 0x20 ADD SWAP1 DUP2 MSTORE PUSH1 0x20 ADD PUSH1 0x0 KECCAK256 PUSH1 0x0 SWAP1 SLOAD SWAP1 PUSH2 0x100 EXP SWAP1 DIV PUSH20 0xFFFFFFFFFFFFFFFFFFFFFFFFFFFFFFFFFFFFFFFF AND SWAP1 POP PUSH1 0x5 PUSH1 0x0 DUP4 DUP2 MSTORE PUSH1 0x20 ADD SWAP1 DUP2 MSTORE PUSH1 0x20 ADD PUSH1 0x0 KECCAK256 PUSH1 0x0 PUSH2 0x100 EXP DUP2 SLOAD SWAP1 PUSH20 0xFFFFFFFFFFFFFFFFFFFFFFFFFFFFFFFFFFFFFFFF MUL NOT AND SWAP1 SSTORE PUSH1 0x1 PUSH1 0x4 PUSH1 0x0 DUP4 PUSH20 0xFFFFFFFFFFFFFFFFFFFFFFFFFFFFFFFFFFFFFFFF AND PUSH20 0xFFFFFFFFFFFFFFFFFFFFFFFFFFFFFFFFFFFFFFFF AND DUP2 MSTORE PUSH1 0x20 ADD SWAP1 DUP2 MSTORE PUSH1 0x20 ADD PUSH1 0x0 KECCAK256 PUSH1 0x0 DUP3 DUP3 SLOAD PUSH2 0x944 SWAP2 SWAP1 PUSH2 0x1662 JUMP JUMPDEST SWAP3 POP POP DUP2 SWAP1 SSTORE POP PUSH1 0x3 PUSH1 0x0 DUP4 DUP2 MSTORE PUSH1 0x20 ADD SWAP1 DUP2 MSTORE PUSH1 0x20 ADD PUSH1 0x0 KECCAK256 PUSH1 0x0 PUSH2 0x100 EXP DUP2 SLOAD SWAP1 PUSH20 0xFFFFFFFFFFFFFFFFFFFFFFFFFFFFFFFFFFFFFFFF MUL NOT AND SWAP1 SSTORE PUSH1 0x1 PUSH1 0x7 PUSH1 0x0 DUP3 DUP3 SLOAD PUSH2 0x994 SWAP2 SWAP1 PUSH2 0x1662 JUMP JUMPDEST SWAP3 POP POP DUP2 SWAP1 SSTORE POP DUP2 PUSH1 0x0 PUSH20 0xFFFFFFFFFFFFFFFFFFFFFFFFFFFFFFFFFFFFFFFF AND DUP3 PUSH20 0xFFFFFFFFFFFFFFFFFFFFFFFFFFFFFFFFFFFFFFFF AND PUSH32 0xDDF252AD1BE2C89B69C2B068FC378DAA952BA7F163C4A11628F55A4DF523B3EF PUSH1 0x40 MLOAD PUSH1 0x40 MLOAD DUP1 SWAP2 SUB SWAP1 LOG4 POP POP JUMP JUMPDEST PUSH1 0x0 PUSH1 0x3 PUSH1 0x0 DUP4 DUP2 MSTORE PUSH1 0x20 ADD SWAP1 DUP2 MSTORE PUSH1 0x20 ADD PUSH1 0x0 KECCAK256 PUSH1 0x0 SWAP1 SLOAD SWAP1 PUSH2 0x100 EXP SWAP1 DIV PUSH20 0xFFFFFFFFFFFFFFFFFFFFFFFFFFFFFFFFFFFFFFFF AND SWAP1 POP SWAP2 SWAP1 POP JUMP JUMPDEST PUSH1 0x0 PUSH1 0x4 PUSH1 0x0 DUP4 PUSH20 0xFFFFFFFFFFFFFFFFFFFFFFFFFFFFFFFFFFFFFFFF AND PUSH20 0xFFFFFFFFFFFFFFFFFFFFFFFFFFFFFFFFFFFFFFFF AND DUP2 MSTORE PUSH1 0x20 ADD SWAP1 DUP2 MSTORE PUSH1 0x20 ADD PUSH1 0x0 KECCAK256 SLOAD SWAP1 POP SWAP2 SWAP1 POP JUMP JUMPDEST PUSH1 0x60 PUSH1 0x1 DUP1 SLOAD PUSH2 0xA90 SWAP1 PUSH2 0x152A JUMP JUMPDEST DUP1 PUSH1 0x1F ADD PUSH1 0x20 DUP1 SWAP2 DIV MUL PUSH1 0x20 ADD PUSH1 0x40 MLOAD SWAP1 DUP2 ADD PUSH1 0x40 MSTORE DUP1 SWAP3 SWAP2 SWAP1 DUP2 DUP2 MSTORE PUSH1 0x20 ADD DUP3 DUP1 SLOAD PUSH2 0xABC SWAP1 PUSH2 0x152A JUMP JUMPDEST DUP1 ISZERO PUSH2 0xB09 JUMPI DUP1 PUSH1 0x1F LT PUSH2 0xADE JUMPI PUSH2 0x100 DUP1 DUP4 SLOAD DIV MUL DUP4 MSTORE SWAP2 PUSH1 0x20 ADD SWAP2 PUSH2 0xB09 JUMP JUMPDEST DUP3 ADD SWAP2 SWAP1 PUSH1 0x0 MSTORE PUSH1 0x20 PUSH1 0x0 KECCAK256 SWAP1 JUMPDEST DUP2 SLOAD DUP2 MSTORE SWAP1 PUSH1 0x1 ADD SWAP1 PUSH1 0x20 ADD DUP1 DUP4 GT PUSH2 0xAEC JUMPI DUP3 SWAP1 SUB PUSH1 0x1F AND DUP3 ADD SWAP2 JUMPDEST POP POP POP POP POP SWAP1 POP SWAP1 JUMP JUMPDEST CALLER PUSH20 0xFFFFFFFFFFFFFFFFFFFFFFFFFFFFFFFFFFFFFFFF AND PUSH1 0x3 PUSH1 0x0 DUP4 DUP2 MSTORE PUSH1 0x20 ADD SWAP1 DUP2 MSTORE PUSH1 0x20 ADD PUSH1 0x0 KECCAK256 PUSH1 0x0 SWAP1 SLOAD SWAP1 PUSH2 0x100 EXP SWAP1 DIV PUSH20 0xFFFFFFFFFFFFFFFFFFFFFFFFFFFFFFFFFFFFFFFF AND PUSH20 0xFFFFFFFFFFFFFFFFFFFFFFFFFFFFFFFFFFFFFFFF AND EQ PUSH2 0xBB4 JUMPI PUSH1 0x40 MLOAD PUSH32 0x8C379A000000000000000000000000000000000000000000000000000000000 DUP2 MSTORE PUSH1 0x4 ADD PUSH2 0xBAB SWAP1 PUSH2 0x1716 JUMP JUMPDEST PUSH1 0x40 MLOAD DUP1 SWAP2 SUB SWAP1 REVERT JUMPDEST PUSH1 0x5 PUSH1 0x0 DUP3 DUP2 MSTORE PUSH1 0x20 ADD SWAP1 DUP2 MSTORE PUSH1 0x20 ADD PUSH1 0x0 KECCAK256 PUSH1 0x0 PUSH2 0x100 EXP DUP2 SLOAD SWAP1 PUSH20 0xFFFFFFFFFFFFFFFFFFFFFFFFFFFFFFFFFFFFFFFF MUL NOT AND SWAP1 SSTORE PUSH1 0x1 PUSH1 0x4 PUSH1 0x0 CALLER PUSH20 0xFFFFFFFFFFFFFFFFFFFFFFFFFFFFFFFFFFFFFFFF AND PUSH20 0xFFFFFFFFFFFFFFFFFFFFFFFFFFFFFFFFFFFFFFFF AND DUP2 MSTORE PUSH1 0x20 ADD SWAP1 DUP2 MSTORE PUSH1 0x20 ADD PUSH1 0x0 KECCAK256 PUSH1 0x0 DUP3 DUP3 SLOAD PUSH2 0xC3A SWAP2 SWAP1 PUSH2 0x1662 JUMP JUMPDEST SWAP3 POP POP DUP2 SWAP1 SSTORE POP PUSH1 0x1 PUSH1 0x4 PUSH1 0x0 DUP5 PUSH20 0xFFFFFFFFFFFFFFFFFFFFFFFFFFFFFFFFFFFFFFFF AND PUSH20 0xFFFFFFFFFFFFFFFFFFFFFFFFFFFFFFFFFFFFFFFF AND DUP2 MSTORE PUSH1 0x20 ADD SWAP1 DUP2 MSTORE PUSH1 0x20 ADD PUSH1 0x0 KECCAK256 PUSH1 0x0 DUP3 DUP3 SLOAD PUSH2 0xC91 SWAP2 SWAP1 PUSH2 0x1696 JUMP JUMPDEST SWAP3 POP POP DUP2 SWAP1 SSTORE POP DUP2 PUSH1 0x3 PUSH1 0x0 DUP4 DUP2 MSTORE PUSH1 0x20 ADD SWAP1 DUP2 MSTORE PUSH1 0x20 ADD PUSH1 0x0 KECCAK256 PUSH1 0x0 PUSH2 0x100 EXP DUP2 SLOAD DUP2 PUSH20 0xFFFFFFFFFFFFFFFFFFFFFFFFFFFFFFFFFFFFFFFF MUL NOT AND SWAP1 DUP4 PUSH20 0xFFFFFFFFFFFFFFFFFFFFFFFFFFFFFFFFFFFFFFFF AND MUL OR SWAP1 SSTORE POP DUP1 DUP3 PUSH20 0xFFFFFFFFFFFFFFFFFFFFFFFFFFFFFFFFFFFFFFFF AND CALLER PUSH20 0xFFFFFFFFFFFFFFFFFFFFFFFFFFFFFFFFFFFFFFFF AND PUSH32 0xDDF252AD1BE2C89B69C2B068FC378DAA952BA7F163C4A11628F55A4DF523B3EF PUSH1 0x40 MLOAD PUSH1 0x40 MLOAD DUP1 SWAP2 SUB SWAP1 LOG4 POP POP JUMP JUMPDEST PUSH1 0x60 PUSH1 0x2 PUSH1 0x0 DUP4 DUP2 MSTORE PUSH1 0x20 ADD SWAP1 DUP2 MSTORE PUSH1 0x20 ADD PUSH1 0x0 KECCAK256 DUP1 SLOAD PUSH2 0xD69 SWAP1 PUSH2 0x152A JUMP JUMPDEST DUP1 PUSH1 0x1F ADD PUSH1 0x20 DUP1 SWAP2 DIV MUL PUSH1 0x20 ADD PUSH1 0x40 MLOAD SWAP1 DUP2 ADD PUSH1 0x40 MSTORE DUP1 SWAP3 SWAP2 SWAP1 DUP2 DUP2 MSTORE PUSH1 0x20 ADD DUP3 DUP1 SLOAD PUSH2 0xD95 SWAP1 PUSH2 0x152A JUMP JUMPDEST DUP1 ISZERO PUSH2 0xDE2 JUMPI DUP1 PUSH1 0x1F LT PUSH2 0xDB7 JUMPI PUSH2 0x100 DUP1 DUP4 SLOAD DIV MUL DUP4 MSTORE SWAP2 PUSH1 0x20 ADD SWAP2 PUSH2 0xDE2 JUMP JUMPDEST DUP3 ADD SWAP2 SWAP1 PUSH1 0x0 MSTORE PUSH1 0x20 PUSH1 0x0 KECCAK256 SWAP1 JUMPDEST DUP2 SLOAD DUP2 MSTORE SWAP1 PUSH1 0x1 ADD SWAP1 PUSH1 0x20 ADD DUP1 DUP4 GT PUSH2 0xDC5 JUMPI DUP3 SWAP1 SUB PUSH1 0x1F AND DUP3 ADD SWAP2 JUMPDEST POP POP POP POP POP SWAP1 POP SWAP2 SWAP1 POP JUMP JUMPDEST PUSH1 0x1 PUSH1 0x4 PUSH1 0x0 DUP6 PUSH20 0xFFFFFFFFFFFFFFFFFFFFFFFFFFFFFFFFFFFFFFFF AND PUSH20 0xFFFFFFFFFFFFFFFFFFFFFFFFFFFFFFFFFFFFFFFF AND DUP2 MSTORE PUSH1 0x20 ADD SWAP1 DUP2 MSTORE PUSH1 0x20 ADD PUSH1 0x0 KECCAK256 PUSH1 0x0 DUP3 DUP3 SLOAD PUSH2 0xE3E SWAP2 SWAP1 PUSH2 0x1696 JUMP JUMPDEST SWAP3 POP POP DUP2 SWAP1 SSTORE POP DUP3 PUSH1 0x3 PUSH1 0x0 DUP5 DUP2 MSTORE PUSH1 0x20 ADD SWAP1 DUP2 MSTORE PUSH1 0x20 ADD PUSH1 0x0 KECCAK256 PUSH1 0x0 PUSH2 0x100 EXP DUP2 SLOAD DUP2 PUSH20 0xFFFFFFFFFFFFFFFFFFFFFFFFFFFFFFFFFFFFFFFF MUL NOT AND SWAP1 DUP4 PUSH20 0xFFFFFFFFFFFFFFFFFFFFFFFFFFFFFFFFFFFFFFFF AND MUL OR SWAP1 SSTORE POP DUP1 PUSH1 0x2 PUSH1 0x0 DUP5 DUP2 MSTORE PUSH1 0x20 ADD SWAP1 DUP2 MSTORE PUSH1 0x20 ADD PUSH1 0x0 KECCAK256 SWAP1 DUP2 PUSH2 0xEB7 SWAP2 SWAP1 PUSH2 0x18E2 JUMP JUMPDEST POP PUSH1 0x1 PUSH1 0x7 PUSH1 0x0 DUP3 DUP3 SLOAD PUSH2 0xECB SWAP2 SWAP1 PUSH2 0x1696 JUMP JUMPDEST SWAP3 POP POP DUP2 SWAP1 SSTORE POP DUP2 DUP4 PUSH20 0xFFFFFFFFFFFFFFFFFFFFFFFFFFFFFFFFFFFFFFFF AND PUSH1 0x0 PUSH20 0xFFFFFFFFFFFFFFFFFFFFFFFFFFFFFFFFFFFFFFFF AND PUSH32 0xDDF252AD1BE2C89B69C2B068FC378DAA952BA7F163C4A11628F55A4DF523B3EF PUSH1 0x40 MLOAD PUSH1 0x40 MLOAD DUP1 SWAP2 SUB SWAP1 LOG4 POP POP POP JUMP JUMPDEST PUSH1 0x0 PUSH1 0x6 PUSH1 0x0 DUP5 PUSH20 0xFFFFFFFFFFFFFFFFFFFFFFFFFFFFFFFFFFFFFFFF AND PUSH20 0xFFFFFFFFFFFFFFFFFFFFFFFFFFFFFFFFFFFFFFFF AND DUP2 MSTORE PUSH1 0x20 ADD SWAP1 DUP2 MSTORE PUSH1 0x20 ADD PUSH1 0x0 KECCAK256 PUSH1 0x0 DUP4 PUSH20 0xFFFFFFFFFFFFFFFFFFFFFFFFFFFFFFFFFFFFFFFF AND PUSH20 0xFFFFFFFFFFFFFFFFFFFFFFFFFFFFFFFFFFFFFFFF AND DUP2 MSTORE PUSH1 0x20 ADD SWAP1 DUP2 MSTORE PUSH1 0x20 ADD PUSH1 0x0 KECCAK256 PUSH1 0x0 SWAP1 SLOAD SWAP1 PUSH2 0x100 EXP SWAP1 DIV PUSH1 0xFF AND SWAP1 POP SWAP3 SWAP2 POP POP JUMP JUMPDEST PUSH1 0x0 DUP2 MLOAD SWAP1 POP SWAP2 SWAP1 POP JUMP JUMPDEST PUSH1 0x0 DUP3 DUP3 MSTORE PUSH1 0x20 DUP3 ADD SWAP1 POP SWAP3 SWAP2 POP POP JUMP JUMPDEST PUSH1 0x0 JUMPDEST DUP4 DUP2 LT ISZERO PUSH2 0x1001 JUMPI DUP1 DUP3 ADD MLOAD DUP2 DUP5 ADD MSTORE PUSH1 0x20 DUP2 ADD SWAP1 POP PUSH2 0xFE6 JUMP JUMPDEST PUSH1 0x0 DUP5 DUP5 ADD MSTORE POP POP POP POP JUMP JUMPDEST PUSH1 0x0 PUSH1 0x1F NOT PUSH1 0x1F DUP4 ADD AND SWAP1 POP SWAP2 SWAP1 POP JUMP JUMPDEST PUSH1 0x0 PUSH2 0x1029 DUP3 PUSH2 0xFC7 JUMP JUMPDEST PUSH2 0x1033 DUP2 DUP6 PUSH2 0xFD2 JUMP JUMPDEST SWAP4 POP PUSH2 0x1043 DUP2 DUP6 PUSH1 0x20 DUP7 ADD PUSH2 0xFE3 JUMP JUMPDEST PUSH2 0x104C DUP2 PUSH2 0x100D JUMP JUMPDEST DUP5 ADD SWAP2 POP POP SWAP3 SWAP2 POP POP JUMP JUMPDEST PUSH1 0x0 PUSH1 0x20 DUP3 ADD SWAP1 POP DUP2 DUP2 SUB PUSH1 0x0 DUP4 ADD MSTORE PUSH2 0x1071 DUP2 DUP5 PUSH2 0x101E JUMP JUMPDEST SWAP1 POP SWAP3 SWAP2 POP POP JUMP JUMPDEST PUSH1 0x0 PUSH1 0x40 MLOAD SWAP1 POP SWAP1 JUMP JUMPDEST PUSH1 0x0 DUP1 REVERT JUMPDEST PUSH1 0x0 DUP1 REVERT JUMPDEST PUSH1 0x0 DUP2 SWAP1 POP SWAP2 SWAP1 POP JUMP JUMPDEST PUSH2 0x10A0 DUP2 PUSH2 0x108D JUMP JUMPDEST DUP2 EQ PUSH2 0x10AB JUMPI PUSH1 0x0 DUP1 REVERT JUMPDEST POP JUMP JUMPDEST PUSH1 0x0 DUP2 CALLDATALOAD SWAP1 POP PUSH2 0x10BD DUP2 PUSH2 0x1097 JUMP JUMPDEST SWAP3 SWAP2 POP POP JUMP JUMPDEST PUSH1 0x0 PUSH1 0x20 DUP3 DUP5 SUB SLT ISZERO PUSH2 0x10D9 JUMPI PUSH2 0x10D8 PUSH2 0x1083 JUMP JUMPDEST JUMPDEST PUSH1 0x0 PUSH2 0x10E7 DUP5 DUP3 DUP6 ADD PUSH2 0x10AE JUMP JUMPDEST SWAP2 POP POP SWAP3 SWAP2 POP POP JUMP JUMPDEST PUSH1 0x0 PUSH20 0xFFFFFFFFFFFFFFFFFFFFFFFFFFFFFFFFFFFFFFFF DUP3 AND SWAP1 POP SWAP2 SWAP1 POP JUMP JUMPDEST PUSH1 0x0 PUSH2 0x111B DUP3 PUSH2 0x10F0 JUMP JUMPDEST SWAP1 POP SWAP2 SWAP1 POP JUMP JUMPDEST PUSH2 0x112B DUP2 PUSH2 0x1110 JUMP JUMPDEST DUP3 MSTORE POP POP JUMP JUMPDEST PUSH1 0x0 PUSH1 0x20 DUP3 ADD SWAP1 POP PUSH2 0x1146 PUSH1 0x0 DUP4 ADD DUP5 PUSH2 0x1122 JUMP JUMPDEST SWAP3 SWAP2 POP POP JUMP JUMPDEST PUSH2 0x1155 DUP2 PUSH2 0x1110 JUMP JUMPDEST DUP2 EQ PUSH2 0x1160 JUMPI PUSH1 0x0 DUP1 REVERT JUMPDEST POP JUMP JUMPDEST PUSH1 0x0 DUP2 CALLDATALOAD SWAP1 POP PUSH2 0x1172 DUP2 PUSH2 0x114C JUMP JUMPDEST SWAP3 SWAP2 POP POP JUMP JUMPDEST PUSH1 0x0 DUP1 PUSH1 0x40 DUP4 DUP6 SUB SLT ISZERO PUSH2 0x118F JUMPI PUSH2 0x118E PUSH2 0x1083 JUMP JUMPDEST JUMPDEST PUSH1 0x0 PUSH2 0x119D DUP6 DUP3 DUP7 ADD PUSH2 0x1163 JUMP JUMPDEST SWAP3 POP POP PUSH1 0x20 PUSH2 0x11AE DUP6 DUP3 DUP7 ADD PUSH2 0x10AE JUMP JUMPDEST SWAP2 POP POP SWAP3 POP SWAP3 SWAP1 POP JUMP JUMPDEST PUSH1 0x0 DUP1 PUSH1 0x0 PUSH1 0x60 DUP5 DUP7 SUB SLT ISZERO PUSH2 0x11D1 JUMPI PUSH2 0x11D0 PUSH2 0x1083 JUMP JUMPDEST JUMPDEST PUSH1 0x0 PUSH2 0x11DF DUP7 DUP3 DUP8 ADD PUSH2 0x1163 JUMP JUMPDEST SWAP4 POP POP PUSH1 0x20 PUSH2 0x11F0 DUP7 DUP3 DUP8 ADD PUSH2 0x1163 JUMP JUMPDEST SWAP3 POP POP PUSH1 0x40 PUSH2 0x1201 DUP7 DUP3 DUP8 ADD PUSH2 0x10AE JUMP JUMPDEST SWAP2 POP POP SWAP3 POP SWAP3 POP SWAP3 JUMP JUMPDEST PUSH1 0x0 DUP2 ISZERO ISZERO SWAP1 POP SWAP2 SWAP1 POP JUMP JUMPDEST PUSH2 0x1220 DUP2 PUSH2 0x120B JUMP JUMPDEST DUP2 EQ PUSH2 0x122B JUMPI PUSH1 0x0 DUP1 REVERT JUMPDEST POP JUMP JUMPDEST PUSH1 0x0 DUP2 CALLDATALOAD SWAP1 POP PUSH2 0x123D DUP2 PUSH2 0x1217 JUMP JUMPDEST SWAP3 SWAP2 POP POP JUMP JUMPDEST PUSH1 0x0 DUP1 PUSH1 0x0 PUSH1 0x60 DUP5 DUP7 SUB SLT ISZERO PUSH2 0x125C JUMPI PUSH2 0x125B PUSH2 0x1083 JUMP JUMPDEST JUMPDEST PUSH1 0x0 PUSH2 0x126A DUP7 DUP3 DUP8 ADD PUSH2 0x1163 JUMP JUMPDEST SWAP4 POP POP PUSH1 0x20 PUSH2 0x127B DUP7 DUP3 DUP8 ADD PUSH2 0x1163 JUMP JUMPDEST SWAP3 POP POP PUSH1 0x40 PUSH2 0x128C DUP7 DUP3 DUP8 ADD PUSH2 0x122E JUMP JUMPDEST SWAP2 POP POP SWAP3 POP SWAP3 POP SWAP3 JUMP JUMPDEST PUSH1 0x0 PUSH1 0x20 DUP3 DUP5 SUB SLT ISZERO PUSH2 0x12AC JUMPI PUSH2 0x12AB PUSH2 0x1083 JUMP JUMPDEST JUMPDEST PUSH1 0x0 PUSH2 0x12BA DUP5 DUP3 DUP6 ADD PUSH2 0x1163 JUMP JUMPDEST SWAP2 POP POP SWAP3 SWAP2 POP POP JUMP JUMPDEST PUSH2 0x12CC DUP2 PUSH2 0x108D JUMP JUMPDEST DUP3 MSTORE POP POP JUMP JUMPDEST PUSH1 0x0 PUSH1 0x20 DUP3 ADD SWAP1 POP PUSH2 0x12E7 PUSH1 0x0 DUP4 ADD DUP5 PUSH2 0x12C3 JUMP JUMPDEST SWAP3 SWAP2 POP POP JUMP JUMPDEST PUSH1 0x0 DUP1 REVERT JUMPDEST PUSH1 0x0 DUP1 REVERT JUMPDEST PUSH32 0x4E487B7100000000000000000000000000000000000000000000000000000000 PUSH1 0x0 MSTORE PUSH1 0x41 PUSH1 0x4 MSTORE PUSH1 0x24 PUSH1 0x0 REVERT JUMPDEST PUSH2 0x132F DUP3 PUSH2 0x100D JUMP JUMPDEST DUP2 ADD DUP2 DUP2 LT PUSH8 0xFFFFFFFFFFFFFFFF DUP3 GT OR ISZERO PUSH2 0x134E JUMPI PUSH2 0x134D PUSH2 0x12F7 JUMP JUMPDEST JUMPDEST DUP1 PUSH1 0x40 MSTORE POP POP POP JUMP JUMPDEST PUSH1 0x0 PUSH2 0x1361 PUSH2 0x1079 JUMP JUMPDEST SWAP1 POP PUSH2 0x136D DUP3 DUP3 PUSH2 0x1326 JUMP JUMPDEST SWAP2 SWAP1 POP JUMP JUMPDEST PUSH1 0x0 PUSH8 0xFFFFFFFFFFFFFFFF DUP3 GT ISZERO PUSH2 0x138D JUMPI PUSH2 0x138C PUSH2 0x12F7 JUMP JUMPDEST JUMPDEST PUSH2 0x1396 DUP3 PUSH2 0x100D JUMP JUMPDEST SWAP1 POP PUSH1 0x20 DUP2 ADD SWAP1 POP SWAP2 SWAP1 POP JUMP JUMPDEST DUP3 DUP2 DUP4 CALLDATACOPY PUSH1 0x0 DUP4 DUP4 ADD MSTORE POP POP POP JUMP JUMPDEST PUSH1 0x0 PUSH2 0x13C5 PUSH2 0x13C0 DUP5 PUSH2 0x1372 JUMP JUMPDEST PUSH2 0x1357 JUMP JUMPDEST SWAP1 POP DUP3 DUP2 MSTORE PUSH1 0x20 DUP2 ADD DUP5 DUP5 DUP5 ADD GT ISZERO PUSH2 0x13E1 JUMPI PUSH2 0x13E0 PUSH2 0x12F2 JUMP JUMPDEST JUMPDEST PUSH2 0x13EC DUP5 DUP3 DUP6 PUSH2 0x13A3 JUMP JUMPDEST POP SWAP4 SWAP3 POP POP POP JUMP JUMPDEST PUSH1 0x0 DUP3 PUSH1 0x1F DUP4 ADD SLT PUSH2 0x1409 JUMPI PUSH2 0x1408 PUSH2 0x12ED JUMP JUMPDEST JUMPDEST DUP2 CALLDATALOAD PUSH2 0x1419 DUP5 DUP3 PUSH1 0x20 DUP7 ADD PUSH2 0x13B2 JUMP JUMPDEST SWAP2 POP POP SWAP3 SWAP2 POP POP JUMP JUMPDEST PUSH1 0x0 DUP1 PUSH1 0x0 PUSH1 0x60 DUP5 DUP7 SUB SLT ISZERO PUSH2 0x143B JUMPI PUSH2 0x143A PUSH2 0x1083 JUMP JUMPDEST JUMPDEST PUSH1 0x0 PUSH2 0x1449 DUP7 DUP3 DUP8 ADD PUSH2 0x1163 JUMP JUMPDEST SWAP4 POP POP PUSH1 0x20 PUSH2 0x145A DUP7 DUP3 DUP8 ADD PUSH2 0x10AE JUMP JUMPDEST SWAP3 POP POP PUSH1 0x40 DUP5 ADD CALLDATALOAD PUSH8 0xFFFFFFFFFFFFFFFF DUP2 GT ISZERO PUSH2 0x147B JUMPI PUSH2 0x147A PUSH2 0x1088 JUMP JUMPDEST JUMPDEST PUSH2 0x1487 DUP7 DUP3 DUP8 ADD PUSH2 0x13F4 JUMP JUMPDEST SWAP2 POP POP SWAP3 POP SWAP3 POP SWAP3 JUMP JUMPDEST PUSH1 0x0 DUP1 PUSH1 0x40 DUP4 DUP6 SUB SLT ISZERO PUSH2 0x14A8 JUMPI PUSH2 0x14A7 PUSH2 0x1083 JUMP JUMPDEST JUMPDEST PUSH1 0x0 PUSH2 0x14B6 DUP6 DUP3 DUP7 ADD PUSH2 0x1163 JUMP JUMPDEST SWAP3 POP POP PUSH1 0x20 PUSH2 0x14C7 DUP6 DUP3 DUP7 ADD PUSH2 0x1163 JUMP JUMPDEST SWAP2 POP POP SWAP3 POP SWAP3 SWAP1 POP JUMP JUMPDEST PUSH2 0x14DA DUP2 PUSH2 0x120B JUMP JUMPDEST DUP3 MSTORE POP POP JUMP JUMPDEST PUSH1 0x0 PUSH1 0x20 DUP3 ADD SWAP1 POP PUSH2 0x14F5 PUSH1 0x0 DUP4 ADD DUP5 PUSH2 0x14D1 JUMP JUMPDEST SWAP3 SWAP2 POP POP JUMP JUMPDEST PUSH32 0x4E487B7100000000000000000000000000000000000000000000000000000000 PUSH1 0x0 MSTORE PUSH1 0x22 PUSH1 0x4 MSTORE PUSH1 0x24 PUSH1 0x0 REVERT JUMPDEST PUSH1 0x0 PUSH1 0x2 DUP3 DIV SWAP1 POP PUSH1 0x1 DUP3 AND DUP1 PUSH2 0x1542 JUMPI PUSH1 0x7F DUP3 AND SWAP2 POP JUMPDEST PUSH1 0x20 DUP3 LT DUP2 SUB PUSH2 0x1555 JUMPI PUSH2 0x1554 PUSH2 0x14FB JUMP JUMPDEST JUMPDEST POP SWAP2 SWAP1 POP JUMP JUMPDEST PUSH32 0x496E636F7272656374204F776E65720000000000000000000000000000000000 PUSH1 0x0 DUP3 ADD MSTORE POP JUMP JUMPDEST PUSH1 0x0 PUSH2 0x1591 PUSH1 0xF DUP4 PUSH2 0xFD2 JUMP JUMPDEST SWAP2 POP PUSH2 0x159C DUP3 PUSH2 0x155B JUMP JUMPDEST PUSH1 0x20 DUP3 ADD SWAP1 POP SWAP2 SWAP1 POP JUMP JUMPDEST PUSH1 0x0 PUSH1 0x20 DUP3 ADD SWAP1 POP DUP2 DUP2 SUB PUSH1 0x0 DUP4 ADD MSTORE PUSH2 0x15C0 DUP2 PUSH2 0x1584 JUMP JUMPDEST SWAP1 POP SWAP2 SWAP1 POP JUMP JUMPDEST PUSH32 0x4E6F7420417070726F7665640000000000000000000000000000000000000000 PUSH1 0x0 DUP3 ADD MSTORE POP JUMP JUMPDEST PUSH1 0x0 PUSH2 0x15FD PUSH1 0xC DUP4 PUSH2 0xFD2 JUMP JUMPDEST SWAP2 POP PUSH2 0x1608 DUP3 PUSH2 0x15C7 JUMP JUMPDEST PUSH1 0x20 DUP3 ADD SWAP1 POP SWAP2 SWAP1 POP JUMP JUMPDEST PUSH1 0x0 PUSH1 0x20 DUP3 ADD SWAP1 POP DUP2 DUP2 SUB PUSH1 0x0 DUP4 ADD MSTORE PUSH2 0x162C DUP2 PUSH2 0x15F0 JUMP JUMPDEST SWAP1 POP SWAP2 SWAP1 POP JUMP JUMPDEST PUSH32 0x4E487B7100000000000000000000000000000000000000000000000000000000 PUSH1 0x0 MSTORE PUSH1 0x11 PUSH1 0x4 MSTORE PUSH1 0x24 PUSH1 0x0 REVERT JUMPDEST PUSH1 0x0 PUSH2 0x166D DUP3 PUSH2 0x108D JUMP JUMPDEST SWAP2 POP PUSH2 0x1678 DUP4 PUSH2 0x108D JUMP JUMPDEST SWAP3 POP DUP3 DUP3 SUB SWAP1 POP DUP2 DUP2 GT ISZERO PUSH2 0x1690 JUMPI PUSH2 0x168F PUSH2 0x1633 JUMP JUMPDEST JUMPDEST SWAP3 SWAP2 POP POP JUMP JUMPDEST PUSH1 0x0 PUSH2 0x16A1 DUP3 PUSH2 0x108D JUMP JUMPDEST SWAP2 POP PUSH2 0x16AC DUP4 PUSH2 0x108D JUMP JUMPDEST SWAP3 POP DUP3 DUP3 ADD SWAP1 POP DUP1 DUP3 GT ISZERO PUSH2 0x16C4 JUMPI PUSH2 0x16C3 PUSH2 0x1633 JUMP JUMPDEST JUMPDEST SWAP3 SWAP2 POP POP JUMP JUMPDEST PUSH32 0x496E636F7272656374204F6E7765720000000000000000000000000000000000 PUSH1 0x0 DUP3 ADD MSTORE POP JUMP JUMPDEST PUSH1 0x0 PUSH2 0x1700 PUSH1 0xF DUP4 PUSH2 0xFD2 JUMP JUMPDEST SWAP2 POP PUSH2 0x170B DUP3 PUSH2 0x16CA JUMP JUMPDEST PUSH1 0x20 DUP3 ADD SWAP1 POP SWAP2 SWAP1 POP JUMP JUMPDEST PUSH1 0x0 PUSH1 0x20 DUP3 ADD SWAP1 POP DUP2 DUP2 SUB PUSH1 0x0 DUP4 ADD MSTORE PUSH2 0x172F DUP2 PUSH2 0x16F3 JUMP JUMPDEST SWAP1 POP SWAP2 SWAP1 POP JUMP JUMPDEST PUSH1 0x0 DUP2 SWAP1 POP DUP2 PUSH1 0x0 MSTORE PUSH1 0x20 PUSH1 0x0 KECCAK256 SWAP1 POP SWAP2 SWAP1 POP JUMP JUMPDEST PUSH1 0x0 PUSH1 0x20 PUSH1 0x1F DUP4 ADD DIV SWAP1 POP SWAP2 SWAP1 POP JUMP JUMPDEST PUSH1 0x0 DUP3 DUP3 SHL SWAP1 POP SWAP3 SWAP2 POP POP JUMP JUMPDEST PUSH1 0x0 PUSH1 0x8 DUP4 MUL PUSH2 0x1798 PUSH32 0xFFFFFFFFFFFFFFFFFFFFFFFFFFFFFFFFFFFFFFFFFFFFFFFFFFFFFFFFFFFFFFFF DUP3 PUSH2 0x175B JUMP JUMPDEST PUSH2 0x17A2 DUP7 DUP4 PUSH2 0x175B JUMP JUMPDEST SWAP6 POP DUP1 NOT DUP5 AND SWAP4 POP DUP1 DUP7 AND DUP5 OR SWAP3 POP POP POP SWAP4 SWAP3 POP POP POP JUMP JUMPDEST PUSH1 0x0 DUP2 SWAP1 POP SWAP2 SWAP1 POP JUMP JUMPDEST PUSH1 0x0 PUSH2 0x17DF PUSH2 0x17DA PUSH2 0x17D5 DUP5 PUSH2 0x108D JUMP JUMPDEST PUSH2 0x17BA JUMP JUMPDEST PUSH2 0x108D JUMP JUMPDEST SWAP1 POP SWAP2 SWAP1 POP JUMP JUMPDEST PUSH1 0x0 DUP2 SWAP1 POP SWAP2 SWAP1 POP JUMP JUMPDEST PUSH2 0x17F9 DUP4 PUSH2 0x17C4 JUMP JUMPDEST PUSH2 0x180D PUSH2 0x1805 DUP3 PUSH2 0x17E6 JUMP JUMPDEST DUP5 DUP5 SLOAD PUSH2 0x1768 JUMP JUMPDEST DUP3 SSTORE POP POP POP POP JUMP JUMPDEST PUSH1 0x0 SWAP1 JUMP JUMPDEST PUSH2 0x1822 PUSH2 0x1815 JUMP JUMPDEST PUSH2 0x182D DUP2 DUP5 DUP5 PUSH2 0x17F0 JUMP JUMPDEST POP POP POP JUMP JUMPDEST JUMPDEST DUP2 DUP2 LT ISZERO PUSH2 0x1851 JUMPI PUSH2 0x1846 PUSH1 0x0 DUP3 PUSH2 0x181A JUMP JUMPDEST PUSH1 0x1 DUP2 ADD SWAP1 POP PUSH2 0x1833 JUMP JUMPDEST POP POP JUMP JUMPDEST PUSH1 0x1F DUP3 GT ISZERO PUSH2 0x1896 JUMPI PUSH2 0x1867 DUP2 PUSH2 0x1736 JUMP JUMPDEST PUSH2 0x1870 DUP5 PUSH2 0x174B JUMP JUMPDEST DUP2 ADD PUSH1 0x20 DUP6 LT ISZERO PUSH2 0x187F JUMPI DUP2 SWAP1 POP JUMPDEST PUSH2 0x1893 PUSH2 0x188B DUP6 PUSH2 0x174B JUMP JUMPDEST DUP4 ADD DUP3 PUSH2 0x1832 JUMP JUMPDEST POP POP JUMPDEST POP POP POP JUMP JUMPDEST PUSH1 0x0 DUP3 DUP3 SHR SWAP1 POP SWAP3 SWAP2 POP POP JUMP JUMPDEST PUSH1 0x0 PUSH2 0x18B9 PUSH1 0x0 NOT DUP5 PUSH1 0x8 MUL PUSH2 0x189B JUMP JUMPDEST NOT DUP1 DUP4 AND SWAP2 POP POP SWAP3 SWAP2 POP POP JUMP JUMPDEST PUSH1 0x0 PUSH2 0x18D2 DUP4 DUP4 PUSH2 0x18A8 JUMP JUMPDEST SWAP2 POP DUP3 PUSH1 0x2 MUL DUP3 OR SWAP1 POP SWAP3 SWAP2 POP POP JUMP JUMPDEST PUSH2 0x18EB DUP3 PUSH2 0xFC7 JUMP JUMPDEST PUSH8 0xFFFFFFFFFFFFFFFF DUP2 GT ISZERO PUSH2 0x1904 JUMPI PUSH2 0x1903 PUSH2 0x12F7 JUMP JUMPDEST JUMPDEST PUSH2 0x190E DUP3 SLOAD PUSH2 0x152A JUMP JUMPDEST PUSH2 0x1919 DUP3 DUP3 DUP6 PUSH2 0x1855 JUMP JUMPDEST PUSH1 0x0 PUSH1 0x20 SWAP1 POP PUSH1 0x1F DUP4 GT PUSH1 0x1 DUP2 EQ PUSH2 0x194C JUMPI PUSH1 0x0 DUP5 ISZERO PUSH2 0x193A JUMPI DUP3 DUP8 ADD MLOAD SWAP1 POP JUMPDEST PUSH2 0x1944 DUP6 DUP3 PUSH2 0x18C6 JUMP JUMPDEST DUP7 SSTORE POP PUSH2 0x19AC JUMP JUMPDEST PUSH1 0x1F NOT DUP5 AND PUSH2 0x195A DUP7 PUSH2 0x1736 JUMP JUMPDEST PUSH1 0x0 JUMPDEST DUP3 DUP2 LT ISZERO PUSH2 0x1982 JUMPI DUP5 DUP10 ADD MLOAD DUP3 SSTORE PUSH1 0x1 DUP3 ADD SWAP2 POP PUSH1 0x20 DUP6 ADD SWAP5 POP PUSH1 0x20 DUP2 ADD SWAP1 POP PUSH2 0x195D JUMP JUMPDEST DUP7 DUP4 LT ISZERO PUSH2 0x199F JUMPI DUP5 DUP10 ADD MLOAD PUSH2 0x199B PUSH1 0x1F DUP10 AND DUP3 PUSH2 0x18A8 JUMP JUMPDEST DUP4 SSTORE POP JUMPDEST PUSH1 0x1 PUSH1 0x2 DUP9 MUL ADD DUP9 SSTORE POP POP POP JUMPDEST POP POP POP POP POP POP JUMP INVALID LOG2 PUSH5 0x6970667358 0x22 SLT KECCAK256 RETURN 0x2A MLOAD 0x2E INVALID 0xB0 MLOAD 0xF8 SWAP3 MSTORE8 0xDD PUSH19 0x67651C9DEF3E2C27186D35886289B253D4637E OR PUSH5 0x736F6C6343 STOP ADDMOD SLT STOP CALLER "
				},
				"gasEstimates": {
					"creation": {
						"codeDepositCost": "1326800",
						"executionCost": "infinite",
						"totalCost": "infinite"
					},
					"external": {
						"approve(address,uint256)": "31403",
						"balanceOf(address)": "2886",
						"burn(uint256)": "infinite",
						"getApproved(uint256)": "2888",
						"isApprovedForAll(address,address)": "infinite",
						"mint(address,uint256,string)": "infinite",
						"name()": "infinite",
						"ownerOf(uint256)": "2888",
						"setApprovalForAll(address,address,bool)": "infinite",
						"symbol()": "infinite",
						"tokenURI(uint256)": "infinite",
						"transfer(address,uint256)": "infinite",
						"transferFrom(address,address,uint256)": "infinite"
					}
				},
				"methodIdentifiers": {
					"approve(address,uint256)": "095ea7b3",
					"balanceOf(address)": "70a08231",
					"burn(uint256)": "42966c68",
					"getApproved(uint256)": "081812fc",
					"isApprovedForAll(address,address)": "e985e9c5",
					"mint(address,uint256,string)": "d3fc9864",
					"name()": "06fdde03",
					"ownerOf(uint256)": "6352211e",
					"setApprovalForAll(address,address,bool)": "367605ca",
					"symbol()": "95d89b41",
					"tokenURI(uint256)": "c87b56dd",
					"transfer(address,uint256)": "a9059cbb",
					"transferFrom(address,address,uint256)": "23b872dd"
				}
			},
			"storageLayout": {
				"storage": [
					{
						"astId": 3,
						"contract": "solidity-study-main/4.example/erc721/erc721.sol:ERC721",
						"label": "_name",
						"offset": 0,
						"slot": "0",
						"type": "t_string_storage"
					},
					{
						"astId": 5,
						"contract": "solidity-study-main/4.example/erc721/erc721.sol:ERC721",
						"label": "_symbol",
						"offset": 0,
						"slot": "1",
						"type": "t_string_storage"
					},
					{
						"astId": 9,
						"contract": "solidity-study-main/4.example/erc721/erc721.sol:ERC721",
						"label": "_tokenInfo",
						"offset": 0,
						"slot": "2",
						"type": "t_mapping(t_uint256,t_string_storage)"
					},
					{
						"astId": 13,
						"contract": "solidity-study-main/4.example/erc721/erc721.sol:ERC721",
						"label": "_owners",
						"offset": 0,
						"slot": "3",
						"type": "t_mapping(t_uint256,t_address)"
					},
					{
						"astId": 17,
						"contract": "solidity-study-main/4.example/erc721/erc721.sol:ERC721",
						"label": "_balances",
						"offset": 0,
						"slot": "4",
						"type": "t_mapping(t_address,t_uint256)"
					},
					{
						"astId": 21,
						"contract": "solidity-study-main/4.example/erc721/erc721.sol:ERC721",
						"label": "_tokenApprovals",
						"offset": 0,
						"slot": "5",
						"type": "t_mapping(t_uint256,t_address)"
					},
					{
						"astId": 27,
						"contract": "solidity-study-main/4.example/erc721/erc721.sol:ERC721",
						"label": "_operatorApprovals",
						"offset": 0,
						"slot": "6",
						"type": "t_mapping(t_address,t_mapping(t_address,t_bool))"
					},
					{
						"astId": 29,
						"contract": "solidity-study-main/4.example/erc721/erc721.sol:ERC721",
						"label": "totalSupply",
						"offset": 0,
						"slot": "7",
						"type": "t_uint256"
					}
				],
				"types": {
					"t_address": {
						"encoding": "inplace",
						"label": "address",
						"numberOfBytes": "20"
					},
					"t_bool": {
						"encoding": "inplace",
						"label": "bool",
						"numberOfBytes": "1"
					},
					"t_mapping(t_address,t_bool)": {
						"encoding": "mapping",
						"key": "t_address",
						"label": "mapping(address => bool)",
						"numberOfBytes": "32",
						"value": "t_bool"
					},
					"t_mapping(t_address,t_mapping(t_address,t_bool))": {
						"encoding": "mapping",
						"key": "t_address",
						"label": "mapping(address => mapping(address => bool))",
						"numberOfBytes": "32",
						"value": "t_mapping(t_address,t_bool)"
					},
					"t_mapping(t_address,t_uint256)": {
						"encoding": "mapping",
						"key": "t_address",
						"label": "mapping(address => uint256)",
						"numberOfBytes": "32",
						"value": "t_uint256"
					},
					"t_mapping(t_uint256,t_address)": {
						"encoding": "mapping",
						"key": "t_uint256",
						"label": "mapping(uint256 => address)",
						"numberOfBytes": "32",
						"value": "t_address"
					},
					"t_mapping(t_uint256,t_string_storage)": {
						"encoding": "mapping",
						"key": "t_uint256",
						"label": "mapping(uint256 => string)",
						"numberOfBytes": "32",
						"value": "t_string_storage"
					},
					"t_string_storage": {
						"encoding": "bytes",
						"label": "string",
						"numberOfBytes": "32"
					},
					"t_uint256": {
						"encoding": "inplace",
						"label": "uint256",
						"numberOfBytes": "32"
					}
				}
			},
			"userdoc": {
				"kind": "user",
				"methods": {},
				"version": 1
			}
		}
	}
}