{
	"solidity-study-main/4.example/erc721/erc721_random.sol": {
		"ERC721": {
			"abi": [
				{
					"inputs": [
						{
							"internalType": "string",
							"name": "__name",
							"type": "string"
						},
						{
							"internalType": "string",
							"name": "__symbol",
							"type": "string"
						}
					],
					"stateMutability": "nonpayable",
					"type": "constructor"
				},
				{
					"anonymous": false,
					"inputs": [
						{
							"indexed": false,
							"internalType": "address",
							"name": "from",
							"type": "address"
						},
						{
							"indexed": false,
							"internalType": "address",
							"name": "to",
							"type": "address"
						},
						{
							"indexed": false,
							"internalType": "uint256",
							"name": "tokenId",
							"type": "uint256"
						}
					],
					"name": "Approval",
					"type": "event"
				},
				{
					"anonymous": false,
					"inputs": [
						{
							"indexed": false,
							"internalType": "address",
							"name": "from",
							"type": "address"
						},
						{
							"indexed": false,
							"internalType": "address",
							"name": "operator",
							"type": "address"
						},
						{
							"indexed": false,
							"internalType": "bool",
							"name": "approval",
							"type": "bool"
						}
					],
					"name": "ApprovalForAll",
					"type": "event"
				},
				{
					"anonymous": false,
					"inputs": [
						{
							"indexed": false,
							"internalType": "address",
							"name": "from",
							"type": "address"
						},
						{
							"indexed": false,
							"internalType": "address",
							"name": "to",
							"type": "address"
						},
						{
							"indexed": false,
							"internalType": "uint256",
							"name": "tokenId",
							"type": "uint256"
						}
					],
					"name": "Transfer",
					"type": "event"
				},
				{
					"inputs": [
						{
							"internalType": "address",
							"name": "to",
							"type": "address"
						},
						{
							"internalType": "uint256",
							"name": "tokenId",
							"type": "uint256"
						}
					],
					"name": "approve",
					"outputs": [],
					"stateMutability": "nonpayable",
					"type": "function"
				},
				{
					"inputs": [
						{
							"internalType": "address",
							"name": "__owner",
							"type": "address"
						}
					],
					"name": "balanceOf",
					"outputs": [
						{
							"internalType": "uint256",
							"name": "",
							"type": "uint256"
						}
					],
					"stateMutability": "view",
					"type": "function"
				},
				{
					"inputs": [
						{
							"internalType": "uint256",
							"name": "tokenId",
							"type": "uint256"
						}
					],
					"name": "burn",
					"outputs": [],
					"stateMutability": "nonpayable",
					"type": "function"
				},
				{
					"inputs": [
						{
							"internalType": "uint256",
							"name": "tokenId",
							"type": "uint256"
						}
					],
					"name": "getApproved",
					"outputs": [
						{
							"internalType": "address",
							"name": "",
							"type": "address"
						}
					],
					"stateMutability": "view",
					"type": "function"
				},
				{
					"inputs": [
						{
							"internalType": "address",
							"name": "owner",
							"type": "address"
						},
						{
							"internalType": "address",
							"name": "operator",
							"type": "address"
						}
					],
					"name": "isApprovedForAll",
					"outputs": [
						{
							"internalType": "bool",
							"name": "",
							"type": "bool"
						}
					],
					"stateMutability": "view",
					"type": "function"
				},
				{
					"inputs": [
						{
							"internalType": "address",
							"name": "to",
							"type": "address"
						},
						{
							"internalType": "uint256",
							"name": "tokenId",
							"type": "uint256"
						}
					],
					"name": "mint",
					"outputs": [],
					"stateMutability": "nonpayable",
					"type": "function"
				},
				{
					"inputs": [],
					"name": "name",
					"outputs": [
						{
							"internalType": "string",
							"name": "",
							"type": "string"
						}
					],
					"stateMutability": "view",
					"type": "function"
				},
				{
					"inputs": [
						{
							"internalType": "uint256",
							"name": "__tokenId",
							"type": "uint256"
						}
					],
					"name": "ownerOf",
					"outputs": [
						{
							"internalType": "address",
							"name": "",
							"type": "address"
						}
					],
					"stateMutability": "view",
					"type": "function"
				},
				{
					"inputs": [
						{
							"internalType": "address",
							"name": "owner",
							"type": "address"
						},
						{
							"internalType": "address",
							"name": "operator",
							"type": "address"
						},
						{
							"internalType": "bool",
							"name": "approved",
							"type": "bool"
						}
					],
					"name": "setApprovalForAll",
					"outputs": [],
					"stateMutability": "nonpayable",
					"type": "function"
				},
				{
					"inputs": [],
					"name": "symbol",
					"outputs": [
						{
							"internalType": "string",
							"name": "",
							"type": "string"
						}
					],
					"stateMutability": "view",
					"type": "function"
				},
				{
					"inputs": [
						{
							"internalType": "uint256",
							"name": "tokenId",
							"type": "uint256"
						}
					],
					"name": "tokenURI",
					"outputs": [
						{
							"internalType": "uint256",
							"name": "",
							"type": "uint256"
						}
					],
					"stateMutability": "view",
					"type": "function"
				},
				{
					"inputs": [
						{
							"internalType": "address",
							"name": "to",
							"type": "address"
						},
						{
							"internalType": "uint256",
							"name": "tokenId",
							"type": "uint256"
						}
					],
					"name": "transfer",
					"outputs": [],
					"stateMutability": "nonpayable",
					"type": "function"
				},
				{
					"inputs": [
						{
							"internalType": "address",
							"name": "from",
							"type": "address"
						},
						{
							"internalType": "address",
							"name": "to",
							"type": "address"
						},
						{
							"internalType": "uint256",
							"name": "tokenId",
							"type": "uint256"
						}
					],
					"name": "transferFrom",
					"outputs": [],
					"stateMutability": "nonpayable",
					"type": "function"
				}
			],
			"devdoc": {
				"kind": "dev",
				"methods": {},
				"version": 1
			},
			"evm": {
				"assembly": "    /* \"solidity-study-main/4.example/erc721/erc721_random.sol\":78:3695  contract ERC721 {... */\n  mstore(0x40, 0x80)\n    /* \"solidity-study-main/4.example/erc721/erc721_random.sol\":460:465  10000 */\n  0x2710\n    /* \"solidity-study-main/4.example/erc721/erc721_random.sol\":433:465  uint private totalSupply = 10000 */\n  0x07\n  sstore\n    /* \"solidity-study-main/4.example/erc721/erc721_random.sol\":662:772  constructor(string memory __name, string memory __symbol) {... */\n  callvalue\n  dup1\n  iszero\n  tag_1\n  jumpi\n  0x00\n  dup1\n  revert\ntag_1:\n  pop\n  mload(0x40)\n  sub(codesize, bytecodeSize)\n  dup1\n  bytecodeSize\n  dup4\n  codecopy\n  dup2\n  dup2\n  add\n  0x40\n  mstore\n  dup2\n  add\n  swap1\n  tag_2\n  swap2\n  swap1\n  tag_3\n  jump\t// in\ntag_2:\n    /* \"solidity-study-main/4.example/erc721/erc721_random.sol\":735:741  __name */\n  dup2\n    /* \"solidity-study-main/4.example/erc721/erc721_random.sol\":727:732  _name */\n  0x00\n    /* \"solidity-study-main/4.example/erc721/erc721_random.sol\":727:741  _name = __name */\n  swap1\n  dup2\n  tag_6\n  swap2\n  swap1\n  tag_7\n  jump\t// in\ntag_6:\n  pop\n    /* \"solidity-study-main/4.example/erc721/erc721_random.sol\":758:766  __symbol */\n  dup1\n    /* \"solidity-study-main/4.example/erc721/erc721_random.sol\":748:755  _symbol */\n  0x01\n    /* \"solidity-study-main/4.example/erc721/erc721_random.sol\":748:766  _symbol = __symbol */\n  swap1\n  dup2\n  tag_8\n  swap2\n  swap1\n  tag_7\n  jump\t// in\ntag_8:\n  pop\n    /* \"solidity-study-main/4.example/erc721/erc721_random.sol\":662:772  constructor(string memory __name, string memory __symbol) {... */\n  pop\n  pop\n    /* \"solidity-study-main/4.example/erc721/erc721_random.sol\":78:3695  contract ERC721 {... */\n  jump(tag_9)\n    /* \"#utility.yul\":7:82   */\ntag_10:\n    /* \"#utility.yul\":40:46   */\n  0x00\n    /* \"#utility.yul\":73:75   */\n  0x40\n    /* \"#utility.yul\":67:76   */\n  mload\n    /* \"#utility.yul\":57:76   */\n  swap1\n  pop\n    /* \"#utility.yul\":7:82   */\n  swap1\n  jump\t// out\n    /* \"#utility.yul\":88:205   */\ntag_11:\n    /* \"#utility.yul\":197:198   */\n  0x00\n    /* \"#utility.yul\":194:195   */\n  dup1\n    /* \"#utility.yul\":187:199   */\n  revert\n    /* \"#utility.yul\":211:328   */\ntag_12:\n    /* \"#utility.yul\":320:321   */\n  0x00\n    /* \"#utility.yul\":317:318   */\n  dup1\n    /* \"#utility.yul\":310:322   */\n  revert\n    /* \"#utility.yul\":334:451   */\ntag_13:\n    /* \"#utility.yul\":443:444   */\n  0x00\n    /* \"#utility.yul\":440:441   */\n  dup1\n    /* \"#utility.yul\":433:445   */\n  revert\n    /* \"#utility.yul\":457:574   */\ntag_14:\n    /* \"#utility.yul\":566:567   */\n  0x00\n    /* \"#utility.yul\":563:564   */\n  dup1\n    /* \"#utility.yul\":556:568   */\n  revert\n    /* \"#utility.yul\":580:682   */\ntag_15:\n    /* \"#utility.yul\":621:627   */\n  0x00\n    /* \"#utility.yul\":672:674   */\n  0x1f\n    /* \"#utility.yul\":668:675   */\n  not\n    /* \"#utility.yul\":663:665   */\n  0x1f\n    /* \"#utility.yul\":656:661   */\n  dup4\n    /* \"#utility.yul\":652:666   */\n  add\n    /* \"#utility.yul\":648:676   */\n  and\n    /* \"#utility.yul\":638:676   */\n  swap1\n  pop\n    /* \"#utility.yul\":580:682   */\n  swap2\n  swap1\n  pop\n  jump\t// out\n    /* \"#utility.yul\":688:868   */\ntag_16:\n    /* \"#utility.yul\":736:813   */\n  0x4e487b7100000000000000000000000000000000000000000000000000000000\n    /* \"#utility.yul\":733:734   */\n  0x00\n    /* \"#utility.yul\":726:814   */\n  mstore\n    /* \"#utility.yul\":833:837   */\n  0x41\n    /* \"#utility.yul\":830:831   */\n  0x04\n    /* \"#utility.yul\":823:838   */\n  mstore\n    /* \"#utility.yul\":857:861   */\n  0x24\n    /* \"#utility.yul\":854:855   */\n  0x00\n    /* \"#utility.yul\":847:862   */\n  revert\n    /* \"#utility.yul\":874:1155   */\ntag_17:\n    /* \"#utility.yul\":957:984   */\n  tag_51\n    /* \"#utility.yul\":979:983   */\n  dup3\n    /* \"#utility.yul\":957:984   */\n  tag_15\n  jump\t// in\ntag_51:\n    /* \"#utility.yul\":949:955   */\n  dup2\n    /* \"#utility.yul\":945:985   */\n  add\n    /* \"#utility.yul\":1087:1093   */\n  dup2\n    /* \"#utility.yul\":1075:1085   */\n  dup2\n    /* \"#utility.yul\":1072:1094   */\n  lt\n    /* \"#utility.yul\":1051:1069   */\n  0xffffffffffffffff\n    /* \"#utility.yul\":1039:1049   */\n  dup3\n    /* \"#utility.yul\":1036:1070   */\n  gt\n    /* \"#utility.yul\":1033:1095   */\n  or\n    /* \"#utility.yul\":1030:1118   */\n  iszero\n  tag_52\n  jumpi\n    /* \"#utility.yul\":1098:1116   */\n  tag_53\n  tag_16\n  jump\t// in\ntag_53:\n    /* \"#utility.yul\":1030:1118   */\ntag_52:\n    /* \"#utility.yul\":1138:1148   */\n  dup1\n    /* \"#utility.yul\":1134:1136   */\n  0x40\n    /* \"#utility.yul\":1127:1149   */\n  mstore\n    /* \"#utility.yul\":917:1155   */\n  pop\n    /* \"#utility.yul\":874:1155   */\n  pop\n  pop\n  jump\t// out\n    /* \"#utility.yul\":1161:1290   */\ntag_18:\n    /* \"#utility.yul\":1195:1201   */\n  0x00\n    /* \"#utility.yul\":1222:1242   */\n  tag_55\n  tag_10\n  jump\t// in\ntag_55:\n    /* \"#utility.yul\":1212:1242   */\n  swap1\n  pop\n    /* \"#utility.yul\":1251:1284   */\n  tag_56\n    /* \"#utility.yul\":1279:1283   */\n  dup3\n    /* \"#utility.yul\":1271:1277   */\n  dup3\n    /* \"#utility.yul\":1251:1284   */\n  tag_17\n  jump\t// in\ntag_56:\n    /* \"#utility.yul\":1161:1290   */\n  swap2\n  swap1\n  pop\n  jump\t// out\n    /* \"#utility.yul\":1296:1604   */\ntag_19:\n    /* \"#utility.yul\":1358:1362   */\n  0x00\n    /* \"#utility.yul\":1448:1466   */\n  0xffffffffffffffff\n    /* \"#utility.yul\":1440:1446   */\n  dup3\n    /* \"#utility.yul\":1437:1467   */\n  gt\n    /* \"#utility.yul\":1434:1490   */\n  iszero\n  tag_58\n  jumpi\n    /* \"#utility.yul\":1470:1488   */\n  tag_59\n  tag_16\n  jump\t// in\ntag_59:\n    /* \"#utility.yul\":1434:1490   */\ntag_58:\n    /* \"#utility.yul\":1508:1537   */\n  tag_60\n    /* \"#utility.yul\":1530:1536   */\n  dup3\n    /* \"#utility.yul\":1508:1537   */\n  tag_15\n  jump\t// in\ntag_60:\n    /* \"#utility.yul\":1500:1537   */\n  swap1\n  pop\n    /* \"#utility.yul\":1592:1596   */\n  0x20\n    /* \"#utility.yul\":1586:1590   */\n  dup2\n    /* \"#utility.yul\":1582:1597   */\n  add\n    /* \"#utility.yul\":1574:1597   */\n  swap1\n  pop\n    /* \"#utility.yul\":1296:1604   */\n  swap2\n  swap1\n  pop\n  jump\t// out\n    /* \"#utility.yul\":1610:1856   */\ntag_20:\n    /* \"#utility.yul\":1691:1692   */\n  0x00\n    /* \"#utility.yul\":1701:1814   */\ntag_62:\n    /* \"#utility.yul\":1715:1721   */\n  dup4\n    /* \"#utility.yul\":1712:1713   */\n  dup2\n    /* \"#utility.yul\":1709:1722   */\n  lt\n    /* \"#utility.yul\":1701:1814   */\n  iszero\n  tag_64\n  jumpi\n    /* \"#utility.yul\":1800:1801   */\n  dup1\n    /* \"#utility.yul\":1795:1798   */\n  dup3\n    /* \"#utility.yul\":1791:1802   */\n  add\n    /* \"#utility.yul\":1785:1803   */\n  mload\n    /* \"#utility.yul\":1781:1782   */\n  dup2\n    /* \"#utility.yul\":1776:1779   */\n  dup5\n    /* \"#utility.yul\":1772:1783   */\n  add\n    /* \"#utility.yul\":1765:1804   */\n  mstore\n    /* \"#utility.yul\":1737:1739   */\n  0x20\n    /* \"#utility.yul\":1734:1735   */\n  dup2\n    /* \"#utility.yul\":1730:1740   */\n  add\n    /* \"#utility.yul\":1725:1740   */\n  swap1\n  pop\n    /* \"#utility.yul\":1701:1814   */\n  jump(tag_62)\ntag_64:\n    /* \"#utility.yul\":1848:1849   */\n  0x00\n    /* \"#utility.yul\":1839:1845   */\n  dup5\n    /* \"#utility.yul\":1834:1837   */\n  dup5\n    /* \"#utility.yul\":1830:1846   */\n  add\n    /* \"#utility.yul\":1823:1850   */\n  mstore\n    /* \"#utility.yul\":1672:1856   */\n  pop\n    /* \"#utility.yul\":1610:1856   */\n  pop\n  pop\n  pop\n  jump\t// out\n    /* \"#utility.yul\":1862:2296   */\ntag_21:\n    /* \"#utility.yul\":1951:1956   */\n  0x00\n    /* \"#utility.yul\":1976:2042   */\n  tag_66\n    /* \"#utility.yul\":1992:2041   */\n  tag_67\n    /* \"#utility.yul\":2034:2040   */\n  dup5\n    /* \"#utility.yul\":1992:2041   */\n  tag_19\n  jump\t// in\ntag_67:\n    /* \"#utility.yul\":1976:2042   */\n  tag_18\n  jump\t// in\ntag_66:\n    /* \"#utility.yul\":1967:2042   */\n  swap1\n  pop\n    /* \"#utility.yul\":2065:2071   */\n  dup3\n    /* \"#utility.yul\":2058:2063   */\n  dup2\n    /* \"#utility.yul\":2051:2072   */\n  mstore\n    /* \"#utility.yul\":2103:2107   */\n  0x20\n    /* \"#utility.yul\":2096:2101   */\n  dup2\n    /* \"#utility.yul\":2092:2108   */\n  add\n    /* \"#utility.yul\":2141:2144   */\n  dup5\n    /* \"#utility.yul\":2132:2138   */\n  dup5\n    /* \"#utility.yul\":2127:2130   */\n  dup5\n    /* \"#utility.yul\":2123:2139   */\n  add\n    /* \"#utility.yul\":2120:2145   */\n  gt\n    /* \"#utility.yul\":2117:2229   */\n  iszero\n  tag_68\n  jumpi\n    /* \"#utility.yul\":2148:2227   */\n  tag_69\n  tag_14\n  jump\t// in\ntag_69:\n    /* \"#utility.yul\":2117:2229   */\ntag_68:\n    /* \"#utility.yul\":2238:2290   */\n  tag_70\n    /* \"#utility.yul\":2283:2289   */\n  dup5\n    /* \"#utility.yul\":2278:2281   */\n  dup3\n    /* \"#utility.yul\":2273:2276   */\n  dup6\n    /* \"#utility.yul\":2238:2290   */\n  tag_20\n  jump\t// in\ntag_70:\n    /* \"#utility.yul\":1957:2296   */\n  pop\n    /* \"#utility.yul\":1862:2296   */\n  swap4\n  swap3\n  pop\n  pop\n  pop\n  jump\t// out\n    /* \"#utility.yul\":2316:2671   */\ntag_22:\n    /* \"#utility.yul\":2383:2388   */\n  0x00\n    /* \"#utility.yul\":2432:2435   */\n  dup3\n    /* \"#utility.yul\":2425:2429   */\n  0x1f\n    /* \"#utility.yul\":2417:2423   */\n  dup4\n    /* \"#utility.yul\":2413:2430   */\n  add\n    /* \"#utility.yul\":2409:2436   */\n  slt\n    /* \"#utility.yul\":2399:2521   */\n  tag_72\n  jumpi\n    /* \"#utility.yul\":2440:2519   */\n  tag_73\n  tag_13\n  jump\t// in\ntag_73:\n    /* \"#utility.yul\":2399:2521   */\ntag_72:\n    /* \"#utility.yul\":2550:2556   */\n  dup2\n    /* \"#utility.yul\":2544:2557   */\n  mload\n    /* \"#utility.yul\":2575:2665   */\n  tag_74\n    /* \"#utility.yul\":2661:2664   */\n  dup5\n    /* \"#utility.yul\":2653:2659   */\n  dup3\n    /* \"#utility.yul\":2646:2650   */\n  0x20\n    /* \"#utility.yul\":2638:2644   */\n  dup7\n    /* \"#utility.yul\":2634:2651   */\n  add\n    /* \"#utility.yul\":2575:2665   */\n  tag_21\n  jump\t// in\ntag_74:\n    /* \"#utility.yul\":2566:2665   */\n  swap2\n  pop\n    /* \"#utility.yul\":2389:2671   */\n  pop\n    /* \"#utility.yul\":2316:2671   */\n  swap3\n  swap2\n  pop\n  pop\n  jump\t// out\n    /* \"#utility.yul\":2677:3530   */\ntag_3:\n    /* \"#utility.yul\":2776:2782   */\n  0x00\n    /* \"#utility.yul\":2784:2790   */\n  dup1\n    /* \"#utility.yul\":2833:2835   */\n  0x40\n    /* \"#utility.yul\":2821:2830   */\n  dup4\n    /* \"#utility.yul\":2812:2819   */\n  dup6\n    /* \"#utility.yul\":2808:2831   */\n  sub\n    /* \"#utility.yul\":2804:2836   */\n  slt\n    /* \"#utility.yul\":2801:2920   */\n  iszero\n  tag_76\n  jumpi\n    /* \"#utility.yul\":2839:2918   */\n  tag_77\n  tag_11\n  jump\t// in\ntag_77:\n    /* \"#utility.yul\":2801:2920   */\ntag_76:\n    /* \"#utility.yul\":2980:2981   */\n  0x00\n    /* \"#utility.yul\":2969:2978   */\n  dup4\n    /* \"#utility.yul\":2965:2982   */\n  add\n    /* \"#utility.yul\":2959:2983   */\n  mload\n    /* \"#utility.yul\":3010:3028   */\n  0xffffffffffffffff\n    /* \"#utility.yul\":3002:3008   */\n  dup2\n    /* \"#utility.yul\":2999:3029   */\n  gt\n    /* \"#utility.yul\":2996:3113   */\n  iszero\n  tag_78\n  jumpi\n    /* \"#utility.yul\":3032:3111   */\n  tag_79\n  tag_12\n  jump\t// in\ntag_79:\n    /* \"#utility.yul\":2996:3113   */\ntag_78:\n    /* \"#utility.yul\":3137:3211   */\n  tag_80\n    /* \"#utility.yul\":3203:3210   */\n  dup6\n    /* \"#utility.yul\":3194:3200   */\n  dup3\n    /* \"#utility.yul\":3183:3192   */\n  dup7\n    /* \"#utility.yul\":3179:3201   */\n  add\n    /* \"#utility.yul\":3137:3211   */\n  tag_22\n  jump\t// in\ntag_80:\n    /* \"#utility.yul\":3127:3211   */\n  swap3\n  pop\n    /* \"#utility.yul\":2930:3221   */\n  pop\n    /* \"#utility.yul\":3281:3283   */\n  0x20\n    /* \"#utility.yul\":3270:3279   */\n  dup4\n    /* \"#utility.yul\":3266:3284   */\n  add\n    /* \"#utility.yul\":3260:3285   */\n  mload\n    /* \"#utility.yul\":3312:3330   */\n  0xffffffffffffffff\n    /* \"#utility.yul\":3304:3310   */\n  dup2\n    /* \"#utility.yul\":3301:3331   */\n  gt\n    /* \"#utility.yul\":3298:3415   */\n  iszero\n  tag_81\n  jumpi\n    /* \"#utility.yul\":3334:3413   */\n  tag_82\n  tag_12\n  jump\t// in\ntag_82:\n    /* \"#utility.yul\":3298:3415   */\ntag_81:\n    /* \"#utility.yul\":3439:3513   */\n  tag_83\n    /* \"#utility.yul\":3505:3512   */\n  dup6\n    /* \"#utility.yul\":3496:3502   */\n  dup3\n    /* \"#utility.yul\":3485:3494   */\n  dup7\n    /* \"#utility.yul\":3481:3503   */\n  add\n    /* \"#utility.yul\":3439:3513   */\n  tag_22\n  jump\t// in\ntag_83:\n    /* \"#utility.yul\":3429:3513   */\n  swap2\n  pop\n    /* \"#utility.yul\":3231:3523   */\n  pop\n    /* \"#utility.yul\":2677:3530   */\n  swap3\n  pop\n  swap3\n  swap1\n  pop\n  jump\t// out\n    /* \"#utility.yul\":3536:3635   */\ntag_23:\n    /* \"#utility.yul\":3588:3594   */\n  0x00\n    /* \"#utility.yul\":3622:3627   */\n  dup2\n    /* \"#utility.yul\":3616:3628   */\n  mload\n    /* \"#utility.yul\":3606:3628   */\n  swap1\n  pop\n    /* \"#utility.yul\":3536:3635   */\n  swap2\n  swap1\n  pop\n  jump\t// out\n    /* \"#utility.yul\":3641:3821   */\ntag_24:\n    /* \"#utility.yul\":3689:3766   */\n  0x4e487b7100000000000000000000000000000000000000000000000000000000\n    /* \"#utility.yul\":3686:3687   */\n  0x00\n    /* \"#utility.yul\":3679:3767   */\n  mstore\n    /* \"#utility.yul\":3786:3790   */\n  0x22\n    /* \"#utility.yul\":3783:3784   */\n  0x04\n    /* \"#utility.yul\":3776:3791   */\n  mstore\n    /* \"#utility.yul\":3810:3814   */\n  0x24\n    /* \"#utility.yul\":3807:3808   */\n  0x00\n    /* \"#utility.yul\":3800:3815   */\n  revert\n    /* \"#utility.yul\":3827:4147   */\ntag_25:\n    /* \"#utility.yul\":3871:3877   */\n  0x00\n    /* \"#utility.yul\":3908:3909   */\n  0x02\n    /* \"#utility.yul\":3902:3906   */\n  dup3\n    /* \"#utility.yul\":3898:3910   */\n  div\n    /* \"#utility.yul\":3888:3910   */\n  swap1\n  pop\n    /* \"#utility.yul\":3955:3956   */\n  0x01\n    /* \"#utility.yul\":3949:3953   */\n  dup3\n    /* \"#utility.yul\":3945:3957   */\n  and\n    /* \"#utility.yul\":3976:3994   */\n  dup1\n    /* \"#utility.yul\":3966:4047   */\n  tag_87\n  jumpi\n    /* \"#utility.yul\":4032:4036   */\n  0x7f\n    /* \"#utility.yul\":4024:4030   */\n  dup3\n    /* \"#utility.yul\":4020:4037   */\n  and\n    /* \"#utility.yul\":4010:4037   */\n  swap2\n  pop\n    /* \"#utility.yul\":3966:4047   */\ntag_87:\n    /* \"#utility.yul\":4094:4096   */\n  0x20\n    /* \"#utility.yul\":4086:4092   */\n  dup3\n    /* \"#utility.yul\":4083:4097   */\n  lt\n    /* \"#utility.yul\":4063:4081   */\n  dup2\n    /* \"#utility.yul\":4060:4098   */\n  sub\n    /* \"#utility.yul\":4057:4141   */\n  tag_88\n  jumpi\n    /* \"#utility.yul\":4113:4131   */\n  tag_89\n  tag_24\n  jump\t// in\ntag_89:\n    /* \"#utility.yul\":4057:4141   */\ntag_88:\n    /* \"#utility.yul\":3878:4147   */\n  pop\n    /* \"#utility.yul\":3827:4147   */\n  swap2\n  swap1\n  pop\n  jump\t// out\n    /* \"#utility.yul\":4153:4294   */\ntag_26:\n    /* \"#utility.yul\":4202:4206   */\n  0x00\n    /* \"#utility.yul\":4225:4228   */\n  dup2\n    /* \"#utility.yul\":4217:4228   */\n  swap1\n  pop\n    /* \"#utility.yul\":4248:4251   */\n  dup2\n    /* \"#utility.yul\":4245:4246   */\n  0x00\n    /* \"#utility.yul\":4238:4252   */\n  mstore\n    /* \"#utility.yul\":4282:4286   */\n  0x20\n    /* \"#utility.yul\":4279:4280   */\n  0x00\n    /* \"#utility.yul\":4269:4287   */\n  keccak256\n    /* \"#utility.yul\":4261:4287   */\n  swap1\n  pop\n    /* \"#utility.yul\":4153:4294   */\n  swap2\n  swap1\n  pop\n  jump\t// out\n    /* \"#utility.yul\":4300:4393   */\ntag_27:\n    /* \"#utility.yul\":4337:4343   */\n  0x00\n    /* \"#utility.yul\":4384:4386   */\n  0x20\n    /* \"#utility.yul\":4379:4381   */\n  0x1f\n    /* \"#utility.yul\":4372:4377   */\n  dup4\n    /* \"#utility.yul\":4368:4382   */\n  add\n    /* \"#utility.yul\":4364:4387   */\n  div\n    /* \"#utility.yul\":4354:4387   */\n  swap1\n  pop\n    /* \"#utility.yul\":4300:4393   */\n  swap2\n  swap1\n  pop\n  jump\t// out\n    /* \"#utility.yul\":4399:4506   */\ntag_28:\n    /* \"#utility.yul\":4443:4451   */\n  0x00\n    /* \"#utility.yul\":4493:4498   */\n  dup3\n    /* \"#utility.yul\":4487:4491   */\n  dup3\n    /* \"#utility.yul\":4483:4499   */\n  shl\n    /* \"#utility.yul\":4462:4499   */\n  swap1\n  pop\n    /* \"#utility.yul\":4399:4506   */\n  swap3\n  swap2\n  pop\n  pop\n  jump\t// out\n    /* \"#utility.yul\":4512:4905   */\ntag_29:\n    /* \"#utility.yul\":4581:4587   */\n  0x00\n    /* \"#utility.yul\":4631:4632   */\n  0x08\n    /* \"#utility.yul\":4619:4629   */\n  dup4\n    /* \"#utility.yul\":4615:4633   */\n  mul\n    /* \"#utility.yul\":4654:4751   */\n  tag_94\n    /* \"#utility.yul\":4684:4750   */\n  0xffffffffffffffffffffffffffffffffffffffffffffffffffffffffffffffff\n    /* \"#utility.yul\":4673:4682   */\n  dup3\n    /* \"#utility.yul\":4654:4751   */\n  tag_28\n  jump\t// in\ntag_94:\n    /* \"#utility.yul\":4772:4811   */\n  tag_95\n    /* \"#utility.yul\":4802:4810   */\n  dup7\n    /* \"#utility.yul\":4791:4800   */\n  dup4\n    /* \"#utility.yul\":4772:4811   */\n  tag_28\n  jump\t// in\ntag_95:\n    /* \"#utility.yul\":4760:4811   */\n  swap6\n  pop\n    /* \"#utility.yul\":4844:4848   */\n  dup1\n    /* \"#utility.yul\":4840:4849   */\n  not\n    /* \"#utility.yul\":4833:4838   */\n  dup5\n    /* \"#utility.yul\":4829:4850   */\n  and\n    /* \"#utility.yul\":4820:4850   */\n  swap4\n  pop\n    /* \"#utility.yul\":4893:4897   */\n  dup1\n    /* \"#utility.yul\":4883:4891   */\n  dup7\n    /* \"#utility.yul\":4879:4898   */\n  and\n    /* \"#utility.yul\":4872:4877   */\n  dup5\n    /* \"#utility.yul\":4869:4899   */\n  or\n    /* \"#utility.yul\":4859:4899   */\n  swap3\n  pop\n    /* \"#utility.yul\":4588:4905   */\n  pop\n  pop\n    /* \"#utility.yul\":4512:4905   */\n  swap4\n  swap3\n  pop\n  pop\n  pop\n  jump\t// out\n    /* \"#utility.yul\":4911:4988   */\ntag_30:\n    /* \"#utility.yul\":4948:4955   */\n  0x00\n    /* \"#utility.yul\":4977:4982   */\n  dup2\n    /* \"#utility.yul\":4966:4982   */\n  swap1\n  pop\n    /* \"#utility.yul\":4911:4988   */\n  swap2\n  swap1\n  pop\n  jump\t// out\n    /* \"#utility.yul\":4994:5054   */\ntag_31:\n    /* \"#utility.yul\":5022:5025   */\n  0x00\n    /* \"#utility.yul\":5043:5048   */\n  dup2\n    /* \"#utility.yul\":5036:5048   */\n  swap1\n  pop\n    /* \"#utility.yul\":4994:5054   */\n  swap2\n  swap1\n  pop\n  jump\t// out\n    /* \"#utility.yul\":5060:5202   */\ntag_32:\n    /* \"#utility.yul\":5110:5119   */\n  0x00\n    /* \"#utility.yul\":5143:5196   */\n  tag_99\n    /* \"#utility.yul\":5161:5195   */\n  tag_100\n    /* \"#utility.yul\":5170:5194   */\n  tag_101\n    /* \"#utility.yul\":5188:5193   */\n  dup5\n    /* \"#utility.yul\":5170:5194   */\n  tag_30\n  jump\t// in\ntag_101:\n    /* \"#utility.yul\":5161:5195   */\n  tag_31\n  jump\t// in\ntag_100:\n    /* \"#utility.yul\":5143:5196   */\n  tag_30\n  jump\t// in\ntag_99:\n    /* \"#utility.yul\":5130:5196   */\n  swap1\n  pop\n    /* \"#utility.yul\":5060:5202   */\n  swap2\n  swap1\n  pop\n  jump\t// out\n    /* \"#utility.yul\":5208:5283   */\ntag_33:\n    /* \"#utility.yul\":5251:5254   */\n  0x00\n    /* \"#utility.yul\":5272:5277   */\n  dup2\n    /* \"#utility.yul\":5265:5277   */\n  swap1\n  pop\n    /* \"#utility.yul\":5208:5283   */\n  swap2\n  swap1\n  pop\n  jump\t// out\n    /* \"#utility.yul\":5289:5558   */\ntag_34:\n    /* \"#utility.yul\":5399:5438   */\n  tag_104\n    /* \"#utility.yul\":5430:5437   */\n  dup4\n    /* \"#utility.yul\":5399:5438   */\n  tag_32\n  jump\t// in\ntag_104:\n    /* \"#utility.yul\":5460:5551   */\n  tag_105\n    /* \"#utility.yul\":5509:5550   */\n  tag_106\n    /* \"#utility.yul\":5533:5549   */\n  dup3\n    /* \"#utility.yul\":5509:5550   */\n  tag_33\n  jump\t// in\ntag_106:\n    /* \"#utility.yul\":5501:5507   */\n  dup5\n    /* \"#utility.yul\":5494:5498   */\n  dup5\n    /* \"#utility.yul\":5488:5499   */\n  sload\n    /* \"#utility.yul\":5460:5551   */\n  tag_29\n  jump\t// in\ntag_105:\n    /* \"#utility.yul\":5454:5458   */\n  dup3\n    /* \"#utility.yul\":5447:5552   */\n  sstore\n    /* \"#utility.yul\":5365:5558   */\n  pop\n    /* \"#utility.yul\":5289:5558   */\n  pop\n  pop\n  pop\n  jump\t// out\n    /* \"#utility.yul\":5564:5637   */\ntag_35:\n    /* \"#utility.yul\":5609:5612   */\n  0x00\n    /* \"#utility.yul\":5564:5637   */\n  swap1\n  jump\t// out\n    /* \"#utility.yul\":5643:5832   */\ntag_36:\n    /* \"#utility.yul\":5720:5752   */\n  tag_109\n  tag_35\n  jump\t// in\ntag_109:\n    /* \"#utility.yul\":5761:5826   */\n  tag_110\n    /* \"#utility.yul\":5819:5825   */\n  dup2\n    /* \"#utility.yul\":5811:5817   */\n  dup5\n    /* \"#utility.yul\":5805:5809   */\n  dup5\n    /* \"#utility.yul\":5761:5826   */\n  tag_34\n  jump\t// in\ntag_110:\n    /* \"#utility.yul\":5696:5832   */\n  pop\n    /* \"#utility.yul\":5643:5832   */\n  pop\n  pop\n  jump\t// out\n    /* \"#utility.yul\":5838:6024   */\ntag_37:\n    /* \"#utility.yul\":5898:6018   */\ntag_112:\n    /* \"#utility.yul\":5915:5918   */\n  dup2\n    /* \"#utility.yul\":5908:5913   */\n  dup2\n    /* \"#utility.yul\":5905:5919   */\n  lt\n    /* \"#utility.yul\":5898:6018   */\n  iszero\n  tag_114\n  jumpi\n    /* \"#utility.yul\":5969:6008   */\n  tag_115\n    /* \"#utility.yul\":6006:6007   */\n  0x00\n    /* \"#utility.yul\":5999:6004   */\n  dup3\n    /* \"#utility.yul\":5969:6008   */\n  tag_36\n  jump\t// in\ntag_115:\n    /* \"#utility.yul\":5942:5943   */\n  0x01\n    /* \"#utility.yul\":5935:5940   */\n  dup2\n    /* \"#utility.yul\":5931:5944   */\n  add\n    /* \"#utility.yul\":5922:5944   */\n  swap1\n  pop\n    /* \"#utility.yul\":5898:6018   */\n  jump(tag_112)\ntag_114:\n    /* \"#utility.yul\":5838:6024   */\n  pop\n  pop\n  jump\t// out\n    /* \"#utility.yul\":6030:6573   */\ntag_38:\n    /* \"#utility.yul\":6131:6133   */\n  0x1f\n    /* \"#utility.yul\":6126:6129   */\n  dup3\n    /* \"#utility.yul\":6123:6134   */\n  gt\n    /* \"#utility.yul\":6120:6566   */\n  iszero\n  tag_117\n  jumpi\n    /* \"#utility.yul\":6165:6203   */\n  tag_118\n    /* \"#utility.yul\":6197:6202   */\n  dup2\n    /* \"#utility.yul\":6165:6203   */\n  tag_26\n  jump\t// in\ntag_118:\n    /* \"#utility.yul\":6249:6278   */\n  tag_119\n    /* \"#utility.yul\":6267:6277   */\n  dup5\n    /* \"#utility.yul\":6249:6278   */\n  tag_27\n  jump\t// in\ntag_119:\n    /* \"#utility.yul\":6239:6247   */\n  dup2\n    /* \"#utility.yul\":6235:6279   */\n  add\n    /* \"#utility.yul\":6432:6434   */\n  0x20\n    /* \"#utility.yul\":6420:6430   */\n  dup6\n    /* \"#utility.yul\":6417:6435   */\n  lt\n    /* \"#utility.yul\":6414:6463   */\n  iszero\n  tag_120\n  jumpi\n    /* \"#utility.yul\":6453:6461   */\n  dup2\n    /* \"#utility.yul\":6438:6461   */\n  swap1\n  pop\n    /* \"#utility.yul\":6414:6463   */\ntag_120:\n    /* \"#utility.yul\":6476:6556   */\n  tag_121\n    /* \"#utility.yul\":6532:6554   */\n  tag_122\n    /* \"#utility.yul\":6550:6553   */\n  dup6\n    /* \"#utility.yul\":6532:6554   */\n  tag_27\n  jump\t// in\ntag_122:\n    /* \"#utility.yul\":6522:6530   */\n  dup4\n    /* \"#utility.yul\":6518:6555   */\n  add\n    /* \"#utility.yul\":6505:6516   */\n  dup3\n    /* \"#utility.yul\":6476:6556   */\n  tag_37\n  jump\t// in\ntag_121:\n    /* \"#utility.yul\":6135:6566   */\n  pop\n  pop\n    /* \"#utility.yul\":6120:6566   */\ntag_117:\n    /* \"#utility.yul\":6030:6573   */\n  pop\n  pop\n  pop\n  jump\t// out\n    /* \"#utility.yul\":6579:6696   */\ntag_39:\n    /* \"#utility.yul\":6633:6641   */\n  0x00\n    /* \"#utility.yul\":6683:6688   */\n  dup3\n    /* \"#utility.yul\":6677:6681   */\n  dup3\n    /* \"#utility.yul\":6673:6689   */\n  shr\n    /* \"#utility.yul\":6652:6689   */\n  swap1\n  pop\n    /* \"#utility.yul\":6579:6696   */\n  swap3\n  swap2\n  pop\n  pop\n  jump\t// out\n    /* \"#utility.yul\":6702:6871   */\ntag_40:\n    /* \"#utility.yul\":6746:6752   */\n  0x00\n    /* \"#utility.yul\":6779:6830   */\n  tag_125\n    /* \"#utility.yul\":6827:6828   */\n  0x00\n    /* \"#utility.yul\":6823:6829   */\n  not\n    /* \"#utility.yul\":6815:6820   */\n  dup5\n    /* \"#utility.yul\":6812:6813   */\n  0x08\n    /* \"#utility.yul\":6808:6821   */\n  mul\n    /* \"#utility.yul\":6779:6830   */\n  tag_39\n  jump\t// in\ntag_125:\n    /* \"#utility.yul\":6775:6831   */\n  not\n    /* \"#utility.yul\":6860:6864   */\n  dup1\n    /* \"#utility.yul\":6854:6858   */\n  dup4\n    /* \"#utility.yul\":6850:6865   */\n  and\n    /* \"#utility.yul\":6840:6865   */\n  swap2\n  pop\n    /* \"#utility.yul\":6753:6871   */\n  pop\n    /* \"#utility.yul\":6702:6871   */\n  swap3\n  swap2\n  pop\n  pop\n  jump\t// out\n    /* \"#utility.yul\":6876:7171   */\ntag_41:\n    /* \"#utility.yul\":6952:6956   */\n  0x00\n    /* \"#utility.yul\":7098:7127   */\n  tag_127\n    /* \"#utility.yul\":7123:7126   */\n  dup4\n    /* \"#utility.yul\":7117:7121   */\n  dup4\n    /* \"#utility.yul\":7098:7127   */\n  tag_40\n  jump\t// in\ntag_127:\n    /* \"#utility.yul\":7090:7127   */\n  swap2\n  pop\n    /* \"#utility.yul\":7160:7163   */\n  dup3\n    /* \"#utility.yul\":7157:7158   */\n  0x02\n    /* \"#utility.yul\":7153:7164   */\n  mul\n    /* \"#utility.yul\":7147:7151   */\n  dup3\n    /* \"#utility.yul\":7144:7165   */\n  or\n    /* \"#utility.yul\":7136:7165   */\n  swap1\n  pop\n    /* \"#utility.yul\":6876:7171   */\n  swap3\n  swap2\n  pop\n  pop\n  jump\t// out\n    /* \"#utility.yul\":7176:8571   */\ntag_7:\n    /* \"#utility.yul\":7293:7330   */\n  tag_129\n    /* \"#utility.yul\":7326:7329   */\n  dup3\n    /* \"#utility.yul\":7293:7330   */\n  tag_23\n  jump\t// in\ntag_129:\n    /* \"#utility.yul\":7395:7413   */\n  0xffffffffffffffff\n    /* \"#utility.yul\":7387:7393   */\n  dup2\n    /* \"#utility.yul\":7384:7414   */\n  gt\n    /* \"#utility.yul\":7381:7437   */\n  iszero\n  tag_130\n  jumpi\n    /* \"#utility.yul\":7417:7435   */\n  tag_131\n  tag_16\n  jump\t// in\ntag_131:\n    /* \"#utility.yul\":7381:7437   */\ntag_130:\n    /* \"#utility.yul\":7461:7499   */\n  tag_132\n    /* \"#utility.yul\":7493:7497   */\n  dup3\n    /* \"#utility.yul\":7487:7498   */\n  sload\n    /* \"#utility.yul\":7461:7499   */\n  tag_25\n  jump\t// in\ntag_132:\n    /* \"#utility.yul\":7546:7613   */\n  tag_133\n    /* \"#utility.yul\":7606:7612   */\n  dup3\n    /* \"#utility.yul\":7598:7604   */\n  dup3\n    /* \"#utility.yul\":7592:7596   */\n  dup6\n    /* \"#utility.yul\":7546:7613   */\n  tag_38\n  jump\t// in\ntag_133:\n    /* \"#utility.yul\":7640:7641   */\n  0x00\n    /* \"#utility.yul\":7664:7668   */\n  0x20\n    /* \"#utility.yul\":7651:7668   */\n  swap1\n  pop\n    /* \"#utility.yul\":7696:7698   */\n  0x1f\n    /* \"#utility.yul\":7688:7694   */\n  dup4\n    /* \"#utility.yul\":7685:7699   */\n  gt\n    /* \"#utility.yul\":7713:7714   */\n  0x01\n    /* \"#utility.yul\":7708:8326   */\n  dup2\n  eq\n  tag_135\n  jumpi\n    /* \"#utility.yul\":8370:8371   */\n  0x00\n    /* \"#utility.yul\":8387:8393   */\n  dup5\n    /* \"#utility.yul\":8384:8461   */\n  iszero\n  tag_136\n  jumpi\n    /* \"#utility.yul\":8436:8445   */\n  dup3\n    /* \"#utility.yul\":8431:8434   */\n  dup8\n    /* \"#utility.yul\":8427:8446   */\n  add\n    /* \"#utility.yul\":8421:8447   */\n  mload\n    /* \"#utility.yul\":8412:8447   */\n  swap1\n  pop\n    /* \"#utility.yul\":8384:8461   */\ntag_136:\n    /* \"#utility.yul\":8487:8554   */\n  tag_137\n    /* \"#utility.yul\":8547:8553   */\n  dup6\n    /* \"#utility.yul\":8540:8545   */\n  dup3\n    /* \"#utility.yul\":8487:8554   */\n  tag_41\n  jump\t// in\ntag_137:\n    /* \"#utility.yul\":8481:8485   */\n  dup7\n    /* \"#utility.yul\":8474:8555   */\n  sstore\n    /* \"#utility.yul\":8343:8565   */\n  pop\n    /* \"#utility.yul\":7678:8565   */\n  jump(tag_134)\n    /* \"#utility.yul\":7708:8326   */\ntag_135:\n    /* \"#utility.yul\":7760:7764   */\n  0x1f\n    /* \"#utility.yul\":7756:7765   */\n  not\n    /* \"#utility.yul\":7748:7754   */\n  dup5\n    /* \"#utility.yul\":7744:7766   */\n  and\n    /* \"#utility.yul\":7794:7831   */\n  tag_138\n    /* \"#utility.yul\":7826:7830   */\n  dup7\n    /* \"#utility.yul\":7794:7831   */\n  tag_26\n  jump\t// in\ntag_138:\n    /* \"#utility.yul\":7853:7854   */\n  0x00\n    /* \"#utility.yul\":7867:8075   */\ntag_139:\n    /* \"#utility.yul\":7881:7888   */\n  dup3\n    /* \"#utility.yul\":7878:7879   */\n  dup2\n    /* \"#utility.yul\":7875:7889   */\n  lt\n    /* \"#utility.yul\":7867:8075   */\n  iszero\n  tag_141\n  jumpi\n    /* \"#utility.yul\":7960:7969   */\n  dup5\n    /* \"#utility.yul\":7955:7958   */\n  dup10\n    /* \"#utility.yul\":7951:7970   */\n  add\n    /* \"#utility.yul\":7945:7971   */\n  mload\n    /* \"#utility.yul\":7937:7943   */\n  dup3\n    /* \"#utility.yul\":7930:7972   */\n  sstore\n    /* \"#utility.yul\":8011:8012   */\n  0x01\n    /* \"#utility.yul\":8003:8009   */\n  dup3\n    /* \"#utility.yul\":7999:8013   */\n  add\n    /* \"#utility.yul\":7989:8013   */\n  swap2\n  pop\n    /* \"#utility.yul\":8058:8060   */\n  0x20\n    /* \"#utility.yul\":8047:8056   */\n  dup6\n    /* \"#utility.yul\":8043:8061   */\n  add\n    /* \"#utility.yul\":8030:8061   */\n  swap5\n  pop\n    /* \"#utility.yul\":7904:7908   */\n  0x20\n    /* \"#utility.yul\":7901:7902   */\n  dup2\n    /* \"#utility.yul\":7897:7909   */\n  add\n    /* \"#utility.yul\":7892:7909   */\n  swap1\n  pop\n    /* \"#utility.yul\":7867:8075   */\n  jump(tag_139)\ntag_141:\n    /* \"#utility.yul\":8103:8109   */\n  dup7\n    /* \"#utility.yul\":8094:8101   */\n  dup4\n    /* \"#utility.yul\":8091:8110   */\n  lt\n    /* \"#utility.yul\":8088:8267   */\n  iszero\n  tag_142\n  jumpi\n    /* \"#utility.yul\":8161:8170   */\n  dup5\n    /* \"#utility.yul\":8156:8159   */\n  dup10\n    /* \"#utility.yul\":8152:8171   */\n  add\n    /* \"#utility.yul\":8146:8172   */\n  mload\n    /* \"#utility.yul\":8204:8252   */\n  tag_143\n    /* \"#utility.yul\":8246:8250   */\n  0x1f\n    /* \"#utility.yul\":8238:8244   */\n  dup10\n    /* \"#utility.yul\":8234:8251   */\n  and\n    /* \"#utility.yul\":8223:8232   */\n  dup3\n    /* \"#utility.yul\":8204:8252   */\n  tag_40\n  jump\t// in\ntag_143:\n    /* \"#utility.yul\":8196:8202   */\n  dup4\n    /* \"#utility.yul\":8189:8253   */\n  sstore\n    /* \"#utility.yul\":8111:8267   */\n  pop\n    /* \"#utility.yul\":8088:8267   */\ntag_142:\n    /* \"#utility.yul\":8313:8314   */\n  0x01\n    /* \"#utility.yul\":8309:8310   */\n  0x02\n    /* \"#utility.yul\":8301:8307   */\n  dup9\n    /* \"#utility.yul\":8297:8311   */\n  mul\n    /* \"#utility.yul\":8293:8315   */\n  add\n    /* \"#utility.yul\":8287:8291   */\n  dup9\n    /* \"#utility.yul\":8280:8316   */\n  sstore\n    /* \"#utility.yul\":7715:8326   */\n  pop\n  pop\n  pop\n    /* \"#utility.yul\":7678:8565   */\ntag_134:\n  pop\n    /* \"#utility.yul\":7268:8571   */\n  pop\n  pop\n  pop\n    /* \"#utility.yul\":7176:8571   */\n  pop\n  pop\n  jump\t// out\n    /* \"solidity-study-main/4.example/erc721/erc721_random.sol\":78:3695  contract ERC721 {... */\ntag_9:\n  dataSize(sub_0)\n  dup1\n  dataOffset(sub_0)\n  0x00\n  codecopy\n  0x00\n  return\nstop\n\nsub_0: assembly {\n        /* \"solidity-study-main/4.example/erc721/erc721_random.sol\":78:3695  contract ERC721 {... */\n      mstore(0x40, 0x80)\n      callvalue\n      dup1\n      iszero\n      tag_1\n      jumpi\n      0x00\n      dup1\n      revert\n    tag_1:\n      pop\n      jumpi(tag_2, lt(calldatasize, 0x04))\n      shr(0xe0, calldataload(0x00))\n      dup1\n      0x42966c68\n      gt\n      tag_16\n      jumpi\n      dup1\n      0x95d89b41\n      gt\n      tag_17\n      jumpi\n      dup1\n      0x95d89b41\n      eq\n      tag_12\n      jumpi\n      dup1\n      0xa9059cbb\n      eq\n      tag_13\n      jumpi\n      dup1\n      0xc87b56dd\n      eq\n      tag_14\n      jumpi\n      dup1\n      0xe985e9c5\n      eq\n      tag_15\n      jumpi\n      jump(tag_2)\n    tag_17:\n      dup1\n      0x42966c68\n      eq\n      tag_9\n      jumpi\n      dup1\n      0x6352211e\n      eq\n      tag_10\n      jumpi\n      dup1\n      0x70a08231\n      eq\n      tag_11\n      jumpi\n      jump(tag_2)\n    tag_16:\n      dup1\n      0x06fdde03\n      eq\n      tag_3\n      jumpi\n      dup1\n      0x081812fc\n      eq\n      tag_4\n      jumpi\n      dup1\n      0x095ea7b3\n      eq\n      tag_5\n      jumpi\n      dup1\n      0x23b872dd\n      eq\n      tag_6\n      jumpi\n      dup1\n      0x367605ca\n      eq\n      tag_7\n      jumpi\n      dup1\n      0x40c10f19\n      eq\n      tag_8\n      jumpi\n    tag_2:\n      0x00\n      dup1\n      revert\n        /* \"solidity-study-main/4.example/erc721/erc721_random.sol\":998:1075  function name() public view returns (string memory) {... */\n    tag_3:\n      tag_18\n      tag_19\n      jump\t// in\n    tag_18:\n      mload(0x40)\n      tag_20\n      swap2\n      swap1\n      tag_21\n      jump\t// in\n    tag_20:\n      mload(0x40)\n      dup1\n      swap2\n      sub\n      swap1\n      return\n        /* \"solidity-study-main/4.example/erc721/erc721_random.sol\":1275:1387  function getApproved(uint256 tokenId) public view returns (address) {... */\n    tag_4:\n      tag_22\n      0x04\n      dup1\n      calldatasize\n      sub\n      dup2\n      add\n      swap1\n      tag_23\n      swap2\n      swap1\n      tag_24\n      jump\t// in\n    tag_23:\n      tag_25\n      jump\t// in\n    tag_22:\n      mload(0x40)\n      tag_26\n      swap2\n      swap1\n      tag_27\n      jump\t// in\n    tag_26:\n      mload(0x40)\n      dup1\n      swap2\n      sub\n      swap1\n      return\n        /* \"solidity-study-main/4.example/erc721/erc721_random.sol\":3261:3472  function approve(address to, uint256 tokenId) public {... */\n    tag_5:\n      tag_28\n      0x04\n      dup1\n      calldatasize\n      sub\n      dup2\n      add\n      swap1\n      tag_29\n      swap2\n      swap1\n      tag_30\n      jump\t// in\n    tag_29:\n      tag_31\n      jump\t// in\n    tag_28:\n      stop\n        /* \"solidity-study-main/4.example/erc721/erc721_random.sol\":1540:2015  function transferFrom(... */\n    tag_6:\n      tag_32\n      0x04\n      dup1\n      calldatasize\n      sub\n      dup2\n      add\n      swap1\n      tag_33\n      swap2\n      swap1\n      tag_34\n      jump\t// in\n    tag_33:\n      tag_35\n      jump\t// in\n    tag_32:\n      stop\n        /* \"solidity-study-main/4.example/erc721/erc721_random.sol\":3478:3692  function setApprovalForAll(... */\n    tag_7:\n      tag_36\n      0x04\n      dup1\n      calldatasize\n      sub\n      dup2\n      add\n      swap1\n      tag_37\n      swap2\n      swap1\n      tag_38\n      jump\t// in\n    tag_37:\n      tag_39\n      jump\t// in\n    tag_36:\n      stop\n        /* \"solidity-study-main/4.example/erc721/erc721_random.sol\":2021:2226  function mint(address to, uint256 tokenId) public {... */\n    tag_8:\n      tag_40\n      0x04\n      dup1\n      calldatasize\n      sub\n      dup2\n      add\n      swap1\n      tag_41\n      swap2\n      swap1\n      tag_30\n      jump\t// in\n    tag_41:\n      tag_42\n      jump\t// in\n    tag_40:\n      stop\n        /* \"solidity-study-main/4.example/erc721/erc721_random.sol\":2713:2940  function burn(uint256 tokenId) public {... */\n    tag_9:\n      tag_43\n      0x04\n      dup1\n      calldatasize\n      sub\n      dup2\n      add\n      swap1\n      tag_44\n      swap2\n      swap1\n      tag_24\n      jump\t// in\n    tag_44:\n      tag_45\n      jump\t// in\n    tag_43:\n      stop\n        /* \"solidity-study-main/4.example/erc721/erc721_random.sol\":888:992  function ownerOf(uint256 __tokenId) public view returns (address) {... */\n    tag_10:\n      tag_46\n      0x04\n      dup1\n      calldatasize\n      sub\n      dup2\n      add\n      swap1\n      tag_47\n      swap2\n      swap1\n      tag_24\n      jump\t// in\n    tag_47:\n      tag_48\n      jump\t// in\n    tag_46:\n      mload(0x40)\n      tag_49\n      swap2\n      swap1\n      tag_27\n      jump\t// in\n    tag_49:\n      mload(0x40)\n      dup1\n      swap2\n      sub\n      swap1\n      return\n        /* \"solidity-study-main/4.example/erc721/erc721_random.sol\":778:882  function balanceOf(address __owner) public view returns (uint256) {... */\n    tag_11:\n      tag_50\n      0x04\n      dup1\n      calldatasize\n      sub\n      dup2\n      add\n      swap1\n      tag_51\n      swap2\n      swap1\n      tag_52\n      jump\t// in\n    tag_51:\n      tag_53\n      jump\t// in\n    tag_50:\n      mload(0x40)\n      tag_54\n      swap2\n      swap1\n      tag_55\n      jump\t// in\n    tag_54:\n      mload(0x40)\n      dup1\n      swap2\n      sub\n      swap1\n      return\n        /* \"solidity-study-main/4.example/erc721/erc721_random.sol\":1081:1162  function symbol() public view returns (string memory) {... */\n    tag_12:\n      tag_56\n      tag_57\n      jump\t// in\n    tag_56:\n      mload(0x40)\n      tag_58\n      swap2\n      swap1\n      tag_21\n      jump\t// in\n    tag_58:\n      mload(0x40)\n      dup1\n      swap2\n      sub\n      swap1\n      return\n        /* \"solidity-study-main/4.example/erc721/erc721_random.sol\":2946:3255  function transfer(... */\n    tag_13:\n      tag_59\n      0x04\n      dup1\n      calldatasize\n      sub\n      dup2\n      add\n      swap1\n      tag_60\n      swap2\n      swap1\n      tag_30\n      jump\t// in\n    tag_60:\n      tag_61\n      jump\t// in\n    tag_59:\n      stop\n        /* \"solidity-study-main/4.example/erc721/erc721_random.sol\":1168:1269  function tokenURI(uint256 tokenId) public view returns (uint) {... */\n    tag_14:\n      tag_62\n      0x04\n      dup1\n      calldatasize\n      sub\n      dup2\n      add\n      swap1\n      tag_63\n      swap2\n      swap1\n      tag_24\n      jump\t// in\n    tag_63:\n      tag_64\n      jump\t// in\n    tag_62:\n      mload(0x40)\n      tag_65\n      swap2\n      swap1\n      tag_55\n      jump\t// in\n    tag_65:\n      mload(0x40)\n      dup1\n      swap2\n      sub\n      swap1\n      return\n        /* \"solidity-study-main/4.example/erc721/erc721_random.sol\":1393:1534  function isApprovedForAll(address owner, address operator) public view returns (bool) {... */\n    tag_15:\n      tag_66\n      0x04\n      dup1\n      calldatasize\n      sub\n      dup2\n      add\n      swap1\n      tag_67\n      swap2\n      swap1\n      tag_68\n      jump\t// in\n    tag_67:\n      tag_69\n      jump\t// in\n    tag_66:\n      mload(0x40)\n      tag_70\n      swap2\n      swap1\n      tag_71\n      jump\t// in\n    tag_70:\n      mload(0x40)\n      dup1\n      swap2\n      sub\n      swap1\n      return\n        /* \"solidity-study-main/4.example/erc721/erc721_random.sol\":998:1075  function name() public view returns (string memory) {... */\n    tag_19:\n        /* \"solidity-study-main/4.example/erc721/erc721_random.sol\":1035:1048  string memory */\n      0x60\n        /* \"solidity-study-main/4.example/erc721/erc721_random.sol\":1064:1069  _name */\n      0x00\n        /* \"solidity-study-main/4.example/erc721/erc721_random.sol\":1057:1069  return _name */\n      dup1\n      sload\n      tag_73\n      swap1\n      tag_74\n      jump\t// in\n    tag_73:\n      dup1\n      0x1f\n      add\n      0x20\n      dup1\n      swap2\n      div\n      mul\n      0x20\n      add\n      mload(0x40)\n      swap1\n      dup2\n      add\n      0x40\n      mstore\n      dup1\n      swap3\n      swap2\n      swap1\n      dup2\n      dup2\n      mstore\n      0x20\n      add\n      dup3\n      dup1\n      sload\n      tag_75\n      swap1\n      tag_74\n      jump\t// in\n    tag_75:\n      dup1\n      iszero\n      tag_76\n      jumpi\n      dup1\n      0x1f\n      lt\n      tag_77\n      jumpi\n      0x0100\n      dup1\n      dup4\n      sload\n      div\n      mul\n      dup4\n      mstore\n      swap2\n      0x20\n      add\n      swap2\n      jump(tag_76)\n    tag_77:\n      dup3\n      add\n      swap2\n      swap1\n      0x00\n      mstore\n      keccak256(0x00, 0x20)\n      swap1\n    tag_78:\n      dup2\n      sload\n      dup2\n      mstore\n      swap1\n      0x01\n      add\n      swap1\n      0x20\n      add\n      dup1\n      dup4\n      gt\n      tag_78\n      jumpi\n      dup3\n      swap1\n      sub\n      0x1f\n      and\n      dup3\n      add\n      swap2\n    tag_76:\n      pop\n      pop\n      pop\n      pop\n      pop\n      swap1\n      pop\n        /* \"solidity-study-main/4.example/erc721/erc721_random.sol\":998:1075  function name() public view returns (string memory) {... */\n      swap1\n      jump\t// out\n        /* \"solidity-study-main/4.example/erc721/erc721_random.sol\":1275:1387  function getApproved(uint256 tokenId) public view returns (address) {... */\n    tag_25:\n        /* \"solidity-study-main/4.example/erc721/erc721_random.sol\":1334:1341  address */\n      0x00\n        /* \"solidity-study-main/4.example/erc721/erc721_random.sol\":1357:1372  _tokenApprovals */\n      0x05\n        /* \"solidity-study-main/4.example/erc721/erc721_random.sol\":1357:1381  _tokenApprovals[tokenId] */\n      0x00\n        /* \"solidity-study-main/4.example/erc721/erc721_random.sol\":1373:1380  tokenId */\n      dup4\n        /* \"solidity-study-main/4.example/erc721/erc721_random.sol\":1357:1381  _tokenApprovals[tokenId] */\n      dup2\n      mstore\n      0x20\n      add\n      swap1\n      dup2\n      mstore\n      0x20\n      add\n      0x00\n      keccak256\n      0x00\n      swap1\n      sload\n      swap1\n      0x0100\n      exp\n      swap1\n      div\n      0xffffffffffffffffffffffffffffffffffffffff\n      and\n        /* \"solidity-study-main/4.example/erc721/erc721_random.sol\":1350:1381  return _tokenApprovals[tokenId] */\n      swap1\n      pop\n        /* \"solidity-study-main/4.example/erc721/erc721_random.sol\":1275:1387  function getApproved(uint256 tokenId) public view returns (address) {... */\n      swap2\n      swap1\n      pop\n      jump\t// out\n        /* \"solidity-study-main/4.example/erc721/erc721_random.sol\":3261:3472  function approve(address to, uint256 tokenId) public {... */\n    tag_31:\n        /* \"solidity-study-main/4.example/erc721/erc721_random.sol\":3343:3350  _owners */\n      0x03\n        /* \"solidity-study-main/4.example/erc721/erc721_random.sol\":3343:3359  _owners[tokenId] */\n      0x00\n        /* \"solidity-study-main/4.example/erc721/erc721_random.sol\":3351:3358  tokenId */\n      dup3\n        /* \"solidity-study-main/4.example/erc721/erc721_random.sol\":3343:3359  _owners[tokenId] */\n      dup2\n      mstore\n      0x20\n      add\n      swap1\n      dup2\n      mstore\n      0x20\n      add\n      0x00\n      keccak256\n      0x00\n      swap1\n      sload\n      swap1\n      0x0100\n      exp\n      swap1\n      div\n      0xffffffffffffffffffffffffffffffffffffffff\n      and\n        /* \"solidity-study-main/4.example/erc721/erc721_random.sol\":3329:3359  msg.sender == _owners[tokenId] */\n      0xffffffffffffffffffffffffffffffffffffffff\n      and\n        /* \"solidity-study-main/4.example/erc721/erc721_random.sol\":3329:3339  msg.sender */\n      caller\n        /* \"solidity-study-main/4.example/erc721/erc721_random.sol\":3329:3359  msg.sender == _owners[tokenId] */\n      0xffffffffffffffffffffffffffffffffffffffff\n      and\n      eq\n        /* \"solidity-study-main/4.example/erc721/erc721_random.sol\":3321:3379  require(msg.sender == _owners[tokenId], \"Incorrect Owner\") */\n      tag_81\n      jumpi\n      mload(0x40)\n      0x08c379a000000000000000000000000000000000000000000000000000000000\n      dup2\n      mstore\n      0x04\n      add\n      tag_82\n      swap1\n      tag_83\n      jump\t// in\n    tag_82:\n      mload(0x40)\n      dup1\n      swap2\n      sub\n      swap1\n      revert\n    tag_81:\n        /* \"solidity-study-main/4.example/erc721/erc721_random.sol\":3413:3415  to */\n      dup2\n        /* \"solidity-study-main/4.example/erc721/erc721_random.sol\":3386:3401  _tokenApprovals */\n      0x05\n        /* \"solidity-study-main/4.example/erc721/erc721_random.sol\":3386:3410  _tokenApprovals[tokenId] */\n      0x00\n        /* \"solidity-study-main/4.example/erc721/erc721_random.sol\":3402:3409  tokenId */\n      dup4\n        /* \"solidity-study-main/4.example/erc721/erc721_random.sol\":3386:3410  _tokenApprovals[tokenId] */\n      dup2\n      mstore\n      0x20\n      add\n      swap1\n      dup2\n      mstore\n      0x20\n      add\n      0x00\n      keccak256\n      0x00\n        /* \"solidity-study-main/4.example/erc721/erc721_random.sol\":3386:3415  _tokenApprovals[tokenId] = to */\n      0x0100\n      exp\n      dup2\n      sload\n      dup2\n      0xffffffffffffffffffffffffffffffffffffffff\n      mul\n      not\n      and\n      swap1\n      dup4\n      0xffffffffffffffffffffffffffffffffffffffff\n      and\n      mul\n      or\n      swap1\n      sstore\n      pop\n        /* \"solidity-study-main/4.example/erc721/erc721_random.sol\":3427:3466  Approval(_owners[tokenId], to, tokenId) */\n      0x8c5be1e5ebec7d5bd14f71427d1e84f3dd0314c0f7b2291e5b200ac8c7c3b925\n        /* \"solidity-study-main/4.example/erc721/erc721_random.sol\":3436:3443  _owners */\n      0x03\n        /* \"solidity-study-main/4.example/erc721/erc721_random.sol\":3436:3452  _owners[tokenId] */\n      0x00\n        /* \"solidity-study-main/4.example/erc721/erc721_random.sol\":3444:3451  tokenId */\n      dup4\n        /* \"solidity-study-main/4.example/erc721/erc721_random.sol\":3436:3452  _owners[tokenId] */\n      dup2\n      mstore\n      0x20\n      add\n      swap1\n      dup2\n      mstore\n      0x20\n      add\n      0x00\n      keccak256\n      0x00\n      swap1\n      sload\n      swap1\n      0x0100\n      exp\n      swap1\n      div\n      0xffffffffffffffffffffffffffffffffffffffff\n      and\n        /* \"solidity-study-main/4.example/erc721/erc721_random.sol\":3454:3456  to */\n      dup4\n        /* \"solidity-study-main/4.example/erc721/erc721_random.sol\":3458:3465  tokenId */\n      dup4\n        /* \"solidity-study-main/4.example/erc721/erc721_random.sol\":3427:3466  Approval(_owners[tokenId], to, tokenId) */\n      mload(0x40)\n      tag_84\n      swap4\n      swap3\n      swap2\n      swap1\n      tag_85\n      jump\t// in\n    tag_84:\n      mload(0x40)\n      dup1\n      swap2\n      sub\n      swap1\n      log1\n        /* \"solidity-study-main/4.example/erc721/erc721_random.sol\":3261:3472  function approve(address to, uint256 tokenId) public {... */\n      pop\n      pop\n      jump\t// out\n        /* \"solidity-study-main/4.example/erc721/erc721_random.sol\":1540:2015  function transferFrom(... */\n    tag_35:\n        /* \"solidity-study-main/4.example/erc721/erc721_random.sol\":1639:1652  address owner */\n      0x00\n        /* \"solidity-study-main/4.example/erc721/erc721_random.sol\":1655:1662  _owners */\n      0x03\n        /* \"solidity-study-main/4.example/erc721/erc721_random.sol\":1655:1671  _owners[tokenId] */\n      0x00\n        /* \"solidity-study-main/4.example/erc721/erc721_random.sol\":1663:1670  tokenId */\n      dup4\n        /* \"solidity-study-main/4.example/erc721/erc721_random.sol\":1655:1671  _owners[tokenId] */\n      dup2\n      mstore\n      0x20\n      add\n      swap1\n      dup2\n      mstore\n      0x20\n      add\n      0x00\n      keccak256\n      0x00\n      swap1\n      sload\n      swap1\n      0x0100\n      exp\n      swap1\n      div\n      0xffffffffffffffffffffffffffffffffffffffff\n      and\n        /* \"solidity-study-main/4.example/erc721/erc721_random.sol\":1639:1671  address owner = _owners[tokenId] */\n      swap1\n      pop\n        /* \"solidity-study-main/4.example/erc721/erc721_random.sol\":1700:1705  owner */\n      dup1\n        /* \"solidity-study-main/4.example/erc721/erc721_random.sol\":1686:1705  msg.sender == owner */\n      0xffffffffffffffffffffffffffffffffffffffff\n      and\n        /* \"solidity-study-main/4.example/erc721/erc721_random.sol\":1686:1696  msg.sender */\n      caller\n        /* \"solidity-study-main/4.example/erc721/erc721_random.sol\":1686:1705  msg.sender == owner */\n      0xffffffffffffffffffffffffffffffffffffffff\n      and\n      eq\n        /* \"solidity-study-main/4.example/erc721/erc721_random.sol\":1678:1719  require(msg.sender == owner, \"Not Owner\") */\n      tag_87\n      jumpi\n      mload(0x40)\n      0x08c379a000000000000000000000000000000000000000000000000000000000\n      dup2\n      mstore\n      0x04\n      add\n      tag_88\n      swap1\n      tag_89\n      jump\t// in\n    tag_88:\n      mload(0x40)\n      dup1\n      swap2\n      sub\n      swap1\n      revert\n    tag_87:\n        /* \"solidity-study-main/4.example/erc721/erc721_random.sol\":1734:1769  isApprovedForAll(owner, msg.sender) */\n      tag_90\n        /* \"solidity-study-main/4.example/erc721/erc721_random.sol\":1751:1756  owner */\n      dup2\n        /* \"solidity-study-main/4.example/erc721/erc721_random.sol\":1758:1768  msg.sender */\n      caller\n        /* \"solidity-study-main/4.example/erc721/erc721_random.sol\":1734:1750  isApprovedForAll */\n      tag_69\n        /* \"solidity-study-main/4.example/erc721/erc721_random.sol\":1734:1769  isApprovedForAll(owner, msg.sender) */\n      jump\t// in\n    tag_90:\n        /* \"solidity-study-main/4.example/erc721/erc721_random.sol\":1726:1786  require(isApprovedForAll(owner, msg.sender), \"Not Approved\") */\n      tag_91\n      jumpi\n      mload(0x40)\n      0x08c379a000000000000000000000000000000000000000000000000000000000\n      dup2\n      mstore\n      0x04\n      add\n      tag_92\n      swap1\n      tag_93\n      jump\t// in\n    tag_92:\n      mload(0x40)\n      dup1\n      swap2\n      sub\n      swap1\n      revert\n    tag_91:\n        /* \"solidity-study-main/4.example/erc721/erc721_random.sol\":1825:1835  msg.sender */\n      caller\n        /* \"solidity-study-main/4.example/erc721/erc721_random.sol\":1801:1835  getApproved(tokenId) == msg.sender */\n      0xffffffffffffffffffffffffffffffffffffffff\n      and\n        /* \"solidity-study-main/4.example/erc721/erc721_random.sol\":1801:1821  getApproved(tokenId) */\n      tag_94\n        /* \"solidity-study-main/4.example/erc721/erc721_random.sol\":1813:1820  tokenId */\n      dup4\n        /* \"solidity-study-main/4.example/erc721/erc721_random.sol\":1801:1812  getApproved */\n      tag_25\n        /* \"solidity-study-main/4.example/erc721/erc721_random.sol\":1801:1821  getApproved(tokenId) */\n      jump\t// in\n    tag_94:\n        /* \"solidity-study-main/4.example/erc721/erc721_random.sol\":1801:1835  getApproved(tokenId) == msg.sender */\n      0xffffffffffffffffffffffffffffffffffffffff\n      and\n      eq\n        /* \"solidity-study-main/4.example/erc721/erc721_random.sol\":1793:1852  require(getApproved(tokenId) == msg.sender, \"Not Approved\") */\n      tag_95\n      jumpi\n      mload(0x40)\n      0x08c379a000000000000000000000000000000000000000000000000000000000\n      dup2\n      mstore\n      0x04\n      add\n      tag_96\n      swap1\n      tag_93\n      jump\t// in\n    tag_96:\n      mload(0x40)\n      dup1\n      swap2\n      sub\n      swap1\n      revert\n    tag_95:\n        /* \"solidity-study-main/4.example/erc721/erc721_random.sol\":1866:1881  _tokenApprovals */\n      0x05\n        /* \"solidity-study-main/4.example/erc721/erc721_random.sol\":1866:1890  _tokenApprovals[tokenId] */\n      0x00\n        /* \"solidity-study-main/4.example/erc721/erc721_random.sol\":1882:1889  tokenId */\n      dup4\n        /* \"solidity-study-main/4.example/erc721/erc721_random.sol\":1866:1890  _tokenApprovals[tokenId] */\n      dup2\n      mstore\n      0x20\n      add\n      swap1\n      dup2\n      mstore\n      0x20\n      add\n      0x00\n      keccak256\n      0x00\n        /* \"solidity-study-main/4.example/erc721/erc721_random.sol\":1859:1890  delete _tokenApprovals[tokenId] */\n      0x0100\n      exp\n      dup2\n      sload\n      swap1\n      0xffffffffffffffffffffffffffffffffffffffff\n      mul\n      not\n      and\n      swap1\n      sstore\n        /* \"solidity-study-main/4.example/erc721/erc721_random.sol\":1916:1917  1 */\n      0x01\n        /* \"solidity-study-main/4.example/erc721/erc721_random.sol\":1897:1906  _balances */\n      0x04\n        /* \"solidity-study-main/4.example/erc721/erc721_random.sol\":1897:1912  _balances[from] */\n      0x00\n        /* \"solidity-study-main/4.example/erc721/erc721_random.sol\":1907:1911  from */\n      dup7\n        /* \"solidity-study-main/4.example/erc721/erc721_random.sol\":1897:1912  _balances[from] */\n      0xffffffffffffffffffffffffffffffffffffffff\n      and\n      0xffffffffffffffffffffffffffffffffffffffff\n      and\n      dup2\n      mstore\n      0x20\n      add\n      swap1\n      dup2\n      mstore\n      0x20\n      add\n      0x00\n      keccak256\n      0x00\n        /* \"solidity-study-main/4.example/erc721/erc721_random.sol\":1897:1917  _balances[from] -= 1 */\n      dup3\n      dup3\n      sload\n      tag_97\n      swap2\n      swap1\n      tag_98\n      jump\t// in\n    tag_97:\n      swap3\n      pop\n      pop\n      dup2\n      swap1\n      sstore\n      pop\n        /* \"solidity-study-main/4.example/erc721/erc721_random.sol\":1941:1942  1 */\n      0x01\n        /* \"solidity-study-main/4.example/erc721/erc721_random.sol\":1924:1933  _balances */\n      0x04\n        /* \"solidity-study-main/4.example/erc721/erc721_random.sol\":1924:1937  _balances[to] */\n      0x00\n        /* \"solidity-study-main/4.example/erc721/erc721_random.sol\":1934:1936  to */\n      dup6\n        /* \"solidity-study-main/4.example/erc721/erc721_random.sol\":1924:1937  _balances[to] */\n      0xffffffffffffffffffffffffffffffffffffffff\n      and\n      0xffffffffffffffffffffffffffffffffffffffff\n      and\n      dup2\n      mstore\n      0x20\n      add\n      swap1\n      dup2\n      mstore\n      0x20\n      add\n      0x00\n      keccak256\n      0x00\n        /* \"solidity-study-main/4.example/erc721/erc721_random.sol\":1924:1942  _balances[to] += 1 */\n      dup3\n      dup3\n      sload\n      tag_99\n      swap2\n      swap1\n      tag_100\n      jump\t// in\n    tag_99:\n      swap3\n      pop\n      pop\n      dup2\n      swap1\n      sstore\n      pop\n        /* \"solidity-study-main/4.example/erc721/erc721_random.sol\":1968:1970  to */\n      dup3\n        /* \"solidity-study-main/4.example/erc721/erc721_random.sol\":1949:1956  _owners */\n      0x03\n        /* \"solidity-study-main/4.example/erc721/erc721_random.sol\":1949:1965  _owners[tokenId] */\n      0x00\n        /* \"solidity-study-main/4.example/erc721/erc721_random.sol\":1957:1964  tokenId */\n      dup5\n        /* \"solidity-study-main/4.example/erc721/erc721_random.sol\":1949:1965  _owners[tokenId] */\n      dup2\n      mstore\n      0x20\n      add\n      swap1\n      dup2\n      mstore\n      0x20\n      add\n      0x00\n      keccak256\n      0x00\n        /* \"solidity-study-main/4.example/erc721/erc721_random.sol\":1949:1970  _owners[tokenId] = to */\n      0x0100\n      exp\n      dup2\n      sload\n      dup2\n      0xffffffffffffffffffffffffffffffffffffffff\n      mul\n      not\n      and\n      swap1\n      dup4\n      0xffffffffffffffffffffffffffffffffffffffff\n      and\n      mul\n      or\n      swap1\n      sstore\n      pop\n        /* \"solidity-study-main/4.example/erc721/erc721_random.sol\":1982:2009  Transfer(from, to, tokenId) */\n      0xddf252ad1be2c89b69c2b068fc378daa952ba7f163c4a11628f55a4df523b3ef\n        /* \"solidity-study-main/4.example/erc721/erc721_random.sol\":1991:1995  from */\n      dup5\n        /* \"solidity-study-main/4.example/erc721/erc721_random.sol\":1997:1999  to */\n      dup5\n        /* \"solidity-study-main/4.example/erc721/erc721_random.sol\":2001:2008  tokenId */\n      dup5\n        /* \"solidity-study-main/4.example/erc721/erc721_random.sol\":1982:2009  Transfer(from, to, tokenId) */\n      mload(0x40)\n      tag_101\n      swap4\n      swap3\n      swap2\n      swap1\n      tag_85\n      jump\t// in\n    tag_101:\n      mload(0x40)\n      dup1\n      swap2\n      sub\n      swap1\n      log1\n        /* \"solidity-study-main/4.example/erc721/erc721_random.sol\":1632:2015  {... */\n      pop\n        /* \"solidity-study-main/4.example/erc721/erc721_random.sol\":1540:2015  function transferFrom(... */\n      pop\n      pop\n      pop\n      jump\t// out\n        /* \"solidity-study-main/4.example/erc721/erc721_random.sol\":3478:3692  function setApprovalForAll(... */\n    tag_39:\n        /* \"solidity-study-main/4.example/erc721/erc721_random.sol\":3625:3633  approved */\n      dup1\n        /* \"solidity-study-main/4.example/erc721/erc721_random.sol\":3587:3605  _operatorApprovals */\n      0x06\n        /* \"solidity-study-main/4.example/erc721/erc721_random.sol\":3587:3612  _operatorApprovals[owner] */\n      0x00\n        /* \"solidity-study-main/4.example/erc721/erc721_random.sol\":3606:3611  owner */\n      dup6\n        /* \"solidity-study-main/4.example/erc721/erc721_random.sol\":3587:3612  _operatorApprovals[owner] */\n      0xffffffffffffffffffffffffffffffffffffffff\n      and\n      0xffffffffffffffffffffffffffffffffffffffff\n      and\n      dup2\n      mstore\n      0x20\n      add\n      swap1\n      dup2\n      mstore\n      0x20\n      add\n      0x00\n      keccak256\n        /* \"solidity-study-main/4.example/erc721/erc721_random.sol\":3587:3622  _operatorApprovals[owner][operator] */\n      0x00\n        /* \"solidity-study-main/4.example/erc721/erc721_random.sol\":3613:3621  operator */\n      dup5\n        /* \"solidity-study-main/4.example/erc721/erc721_random.sol\":3587:3622  _operatorApprovals[owner][operator] */\n      0xffffffffffffffffffffffffffffffffffffffff\n      and\n      0xffffffffffffffffffffffffffffffffffffffff\n      and\n      dup2\n      mstore\n      0x20\n      add\n      swap1\n      dup2\n      mstore\n      0x20\n      add\n      0x00\n      keccak256\n      0x00\n        /* \"solidity-study-main/4.example/erc721/erc721_random.sol\":3587:3633  _operatorApprovals[owner][operator] = approved */\n      0x0100\n      exp\n      dup2\n      sload\n      dup2\n      0xff\n      mul\n      not\n      and\n      swap1\n      dup4\n      iszero\n      iszero\n      mul\n      or\n      swap1\n      sstore\n      pop\n        /* \"solidity-study-main/4.example/erc721/erc721_random.sol\":3645:3686  ApprovalForAll(owner, operator, approved) */\n      0x17307eab39ab6107e8899845ad3d59bd9653f200f220920489ca2b5937696c31\n        /* \"solidity-study-main/4.example/erc721/erc721_random.sol\":3660:3665  owner */\n      dup4\n        /* \"solidity-study-main/4.example/erc721/erc721_random.sol\":3667:3675  operator */\n      dup4\n        /* \"solidity-study-main/4.example/erc721/erc721_random.sol\":3677:3685  approved */\n      dup4\n        /* \"solidity-study-main/4.example/erc721/erc721_random.sol\":3645:3686  ApprovalForAll(owner, operator, approved) */\n      mload(0x40)\n      tag_103\n      swap4\n      swap3\n      swap2\n      swap1\n      tag_104\n      jump\t// in\n    tag_103:\n      mload(0x40)\n      dup1\n      swap2\n      sub\n      swap1\n      log1\n        /* \"solidity-study-main/4.example/erc721/erc721_random.sol\":3478:3692  function setApprovalForAll(... */\n      pop\n      pop\n      pop\n      jump\t// out\n        /* \"solidity-study-main/4.example/erc721/erc721_random.sol\":2021:2226  function mint(address to, uint256 tokenId) public {... */\n    tag_42:\n        /* \"solidity-study-main/4.example/erc721/erc721_random.sol\":2095:2096  1 */\n      0x01\n        /* \"solidity-study-main/4.example/erc721/erc721_random.sol\":2078:2087  _balances */\n      0x04\n        /* \"solidity-study-main/4.example/erc721/erc721_random.sol\":2078:2091  _balances[to] */\n      0x00\n        /* \"solidity-study-main/4.example/erc721/erc721_random.sol\":2088:2090  to */\n      dup5\n        /* \"solidity-study-main/4.example/erc721/erc721_random.sol\":2078:2091  _balances[to] */\n      0xffffffffffffffffffffffffffffffffffffffff\n      and\n      0xffffffffffffffffffffffffffffffffffffffff\n      and\n      dup2\n      mstore\n      0x20\n      add\n      swap1\n      dup2\n      mstore\n      0x20\n      add\n      0x00\n      keccak256\n      0x00\n        /* \"solidity-study-main/4.example/erc721/erc721_random.sol\":2078:2096  _balances[to] += 1 */\n      dup3\n      dup3\n      sload\n      tag_106\n      swap2\n      swap1\n      tag_100\n      jump\t// in\n    tag_106:\n      swap3\n      pop\n      pop\n      dup2\n      swap1\n      sstore\n      pop\n        /* \"solidity-study-main/4.example/erc721/erc721_random.sol\":2122:2124  to */\n      dup2\n        /* \"solidity-study-main/4.example/erc721/erc721_random.sol\":2103:2110  _owners */\n      0x03\n        /* \"solidity-study-main/4.example/erc721/erc721_random.sol\":2103:2119  _owners[tokenId] */\n      0x00\n        /* \"solidity-study-main/4.example/erc721/erc721_random.sol\":2111:2118  tokenId */\n      dup4\n        /* \"solidity-study-main/4.example/erc721/erc721_random.sol\":2103:2119  _owners[tokenId] */\n      dup2\n      mstore\n      0x20\n      add\n      swap1\n      dup2\n      mstore\n      0x20\n      add\n      0x00\n      keccak256\n      0x00\n        /* \"solidity-study-main/4.example/erc721/erc721_random.sol\":2103:2124  _owners[tokenId] = to */\n      0x0100\n      exp\n      dup2\n      sload\n      dup2\n      0xffffffffffffffffffffffffffffffffffffffff\n      mul\n      not\n      and\n      swap1\n      dup4\n      0xffffffffffffffffffffffffffffffffffffffff\n      and\n      mul\n      or\n      swap1\n      sstore\n      pop\n        /* \"solidity-study-main/4.example/erc721/erc721_random.sol\":2153:2175  randomNft(totalSupply) */\n      tag_107\n        /* \"solidity-study-main/4.example/erc721/erc721_random.sol\":2163:2174  totalSupply */\n      sload(0x07)\n        /* \"solidity-study-main/4.example/erc721/erc721_random.sol\":2153:2162  randomNft */\n      tag_108\n        /* \"solidity-study-main/4.example/erc721/erc721_random.sol\":2153:2175  randomNft(totalSupply) */\n      jump\t// in\n    tag_107:\n        /* \"solidity-study-main/4.example/erc721/erc721_random.sol\":2131:2141  _tokenInfo */\n      0x02\n        /* \"solidity-study-main/4.example/erc721/erc721_random.sol\":2131:2150  _tokenInfo[tokenId] */\n      0x00\n        /* \"solidity-study-main/4.example/erc721/erc721_random.sol\":2142:2149  tokenId */\n      dup4\n        /* \"solidity-study-main/4.example/erc721/erc721_random.sol\":2131:2150  _tokenInfo[tokenId] */\n      dup2\n      mstore\n      0x20\n      add\n      swap1\n      dup2\n      mstore\n      0x20\n      add\n      0x00\n      keccak256\n        /* \"solidity-study-main/4.example/erc721/erc721_random.sol\":2131:2175  _tokenInfo[tokenId] = randomNft(totalSupply) */\n      dup2\n      swap1\n      sstore\n      pop\n        /* \"solidity-study-main/4.example/erc721/erc721_random.sol\":2187:2220  Transfer(address(0), to, tokenId) */\n      0xddf252ad1be2c89b69c2b068fc378daa952ba7f163c4a11628f55a4df523b3ef\n        /* \"solidity-study-main/4.example/erc721/erc721_random.sol\":2204:2205  0 */\n      0x00\n        /* \"solidity-study-main/4.example/erc721/erc721_random.sol\":2208:2210  to */\n      dup4\n        /* \"solidity-study-main/4.example/erc721/erc721_random.sol\":2212:2219  tokenId */\n      dup4\n        /* \"solidity-study-main/4.example/erc721/erc721_random.sol\":2187:2220  Transfer(address(0), to, tokenId) */\n      mload(0x40)\n      tag_109\n      swap4\n      swap3\n      swap2\n      swap1\n      tag_85\n      jump\t// in\n    tag_109:\n      mload(0x40)\n      dup1\n      swap2\n      sub\n      swap1\n      log1\n        /* \"solidity-study-main/4.example/erc721/erc721_random.sol\":2021:2226  function mint(address to, uint256 tokenId) public {... */\n      pop\n      pop\n      jump\t// out\n        /* \"solidity-study-main/4.example/erc721/erc721_random.sol\":2713:2940  function burn(uint256 tokenId) public {... */\n    tag_45:\n        /* \"solidity-study-main/4.example/erc721/erc721_random.sol\":2758:2771  address owner */\n      0x00\n        /* \"solidity-study-main/4.example/erc721/erc721_random.sol\":2774:2781  _owners */\n      0x03\n        /* \"solidity-study-main/4.example/erc721/erc721_random.sol\":2774:2790  _owners[tokenId] */\n      0x00\n        /* \"solidity-study-main/4.example/erc721/erc721_random.sol\":2782:2789  tokenId */\n      dup4\n        /* \"solidity-study-main/4.example/erc721/erc721_random.sol\":2774:2790  _owners[tokenId] */\n      dup2\n      mstore\n      0x20\n      add\n      swap1\n      dup2\n      mstore\n      0x20\n      add\n      0x00\n      keccak256\n      0x00\n      swap1\n      sload\n      swap1\n      0x0100\n      exp\n      swap1\n      div\n      0xffffffffffffffffffffffffffffffffffffffff\n      and\n        /* \"solidity-study-main/4.example/erc721/erc721_random.sol\":2758:2790  address owner = _owners[tokenId] */\n      swap1\n      pop\n        /* \"solidity-study-main/4.example/erc721/erc721_random.sol\":2804:2819  _tokenApprovals */\n      0x05\n        /* \"solidity-study-main/4.example/erc721/erc721_random.sol\":2804:2828  _tokenApprovals[tokenId] */\n      0x00\n        /* \"solidity-study-main/4.example/erc721/erc721_random.sol\":2820:2827  tokenId */\n      dup4\n        /* \"solidity-study-main/4.example/erc721/erc721_random.sol\":2804:2828  _tokenApprovals[tokenId] */\n      dup2\n      mstore\n      0x20\n      add\n      swap1\n      dup2\n      mstore\n      0x20\n      add\n      0x00\n      keccak256\n      0x00\n        /* \"solidity-study-main/4.example/erc721/erc721_random.sol\":2797:2828  delete _tokenApprovals[tokenId] */\n      0x0100\n      exp\n      dup2\n      sload\n      swap1\n      0xffffffffffffffffffffffffffffffffffffffff\n      mul\n      not\n      and\n      swap1\n      sstore\n        /* \"solidity-study-main/4.example/erc721/erc721_random.sol\":2855:2856  1 */\n      0x01\n        /* \"solidity-study-main/4.example/erc721/erc721_random.sol\":2835:2844  _balances */\n      0x04\n        /* \"solidity-study-main/4.example/erc721/erc721_random.sol\":2835:2851  _balances[owner] */\n      0x00\n        /* \"solidity-study-main/4.example/erc721/erc721_random.sol\":2845:2850  owner */\n      dup4\n        /* \"solidity-study-main/4.example/erc721/erc721_random.sol\":2835:2851  _balances[owner] */\n      0xffffffffffffffffffffffffffffffffffffffff\n      and\n      0xffffffffffffffffffffffffffffffffffffffff\n      and\n      dup2\n      mstore\n      0x20\n      add\n      swap1\n      dup2\n      mstore\n      0x20\n      add\n      0x00\n      keccak256\n      0x00\n        /* \"solidity-study-main/4.example/erc721/erc721_random.sol\":2835:2856  _balances[owner] -= 1 */\n      dup3\n      dup3\n      sload\n      tag_111\n      swap2\n      swap1\n      tag_98\n      jump\t// in\n    tag_111:\n      swap3\n      pop\n      pop\n      dup2\n      swap1\n      sstore\n      pop\n        /* \"solidity-study-main/4.example/erc721/erc721_random.sol\":2870:2877  _owners */\n      0x03\n        /* \"solidity-study-main/4.example/erc721/erc721_random.sol\":2870:2886  _owners[tokenId] */\n      0x00\n        /* \"solidity-study-main/4.example/erc721/erc721_random.sol\":2878:2885  tokenId */\n      dup4\n        /* \"solidity-study-main/4.example/erc721/erc721_random.sol\":2870:2886  _owners[tokenId] */\n      dup2\n      mstore\n      0x20\n      add\n      swap1\n      dup2\n      mstore\n      0x20\n      add\n      0x00\n      keccak256\n      0x00\n        /* \"solidity-study-main/4.example/erc721/erc721_random.sol\":2863:2886  delete _owners[tokenId] */\n      0x0100\n      exp\n      dup2\n      sload\n      swap1\n      0xffffffffffffffffffffffffffffffffffffffff\n      mul\n      not\n      and\n      swap1\n      sstore\n        /* \"solidity-study-main/4.example/erc721/erc721_random.sol\":2898:2934  Transfer(owner, address(0), tokenId) */\n      0xddf252ad1be2c89b69c2b068fc378daa952ba7f163c4a11628f55a4df523b3ef\n        /* \"solidity-study-main/4.example/erc721/erc721_random.sol\":2907:2912  owner */\n      dup2\n        /* \"solidity-study-main/4.example/erc721/erc721_random.sol\":2922:2923  0 */\n      0x00\n        /* \"solidity-study-main/4.example/erc721/erc721_random.sol\":2926:2933  tokenId */\n      dup5\n        /* \"solidity-study-main/4.example/erc721/erc721_random.sol\":2898:2934  Transfer(owner, address(0), tokenId) */\n      mload(0x40)\n      tag_112\n      swap4\n      swap3\n      swap2\n      swap1\n      tag_85\n      jump\t// in\n    tag_112:\n      mload(0x40)\n      dup1\n      swap2\n      sub\n      swap1\n      log1\n        /* \"solidity-study-main/4.example/erc721/erc721_random.sol\":2751:2940  {... */\n      pop\n        /* \"solidity-study-main/4.example/erc721/erc721_random.sol\":2713:2940  function burn(uint256 tokenId) public {... */\n      pop\n      jump\t// out\n        /* \"solidity-study-main/4.example/erc721/erc721_random.sol\":888:992  function ownerOf(uint256 __tokenId) public view returns (address) {... */\n    tag_48:\n        /* \"solidity-study-main/4.example/erc721/erc721_random.sol\":945:952  address */\n      0x00\n        /* \"solidity-study-main/4.example/erc721/erc721_random.sol\":968:975  _owners */\n      0x03\n        /* \"solidity-study-main/4.example/erc721/erc721_random.sol\":968:986  _owners[__tokenId] */\n      0x00\n        /* \"solidity-study-main/4.example/erc721/erc721_random.sol\":976:985  __tokenId */\n      dup4\n        /* \"solidity-study-main/4.example/erc721/erc721_random.sol\":968:986  _owners[__tokenId] */\n      dup2\n      mstore\n      0x20\n      add\n      swap1\n      dup2\n      mstore\n      0x20\n      add\n      0x00\n      keccak256\n      0x00\n      swap1\n      sload\n      swap1\n      0x0100\n      exp\n      swap1\n      div\n      0xffffffffffffffffffffffffffffffffffffffff\n      and\n        /* \"solidity-study-main/4.example/erc721/erc721_random.sol\":961:986  return _owners[__tokenId] */\n      swap1\n      pop\n        /* \"solidity-study-main/4.example/erc721/erc721_random.sol\":888:992  function ownerOf(uint256 __tokenId) public view returns (address) {... */\n      swap2\n      swap1\n      pop\n      jump\t// out\n        /* \"solidity-study-main/4.example/erc721/erc721_random.sol\":778:882  function balanceOf(address __owner) public view returns (uint256) {... */\n    tag_53:\n        /* \"solidity-study-main/4.example/erc721/erc721_random.sol\":835:842  uint256 */\n      0x00\n        /* \"solidity-study-main/4.example/erc721/erc721_random.sol\":858:867  _balances */\n      0x04\n        /* \"solidity-study-main/4.example/erc721/erc721_random.sol\":858:876  _balances[__owner] */\n      0x00\n        /* \"solidity-study-main/4.example/erc721/erc721_random.sol\":868:875  __owner */\n      dup4\n        /* \"solidity-study-main/4.example/erc721/erc721_random.sol\":858:876  _balances[__owner] */\n      0xffffffffffffffffffffffffffffffffffffffff\n      and\n      0xffffffffffffffffffffffffffffffffffffffff\n      and\n      dup2\n      mstore\n      0x20\n      add\n      swap1\n      dup2\n      mstore\n      0x20\n      add\n      0x00\n      keccak256\n      sload\n        /* \"solidity-study-main/4.example/erc721/erc721_random.sol\":851:876  return _balances[__owner] */\n      swap1\n      pop\n        /* \"solidity-study-main/4.example/erc721/erc721_random.sol\":778:882  function balanceOf(address __owner) public view returns (uint256) {... */\n      swap2\n      swap1\n      pop\n      jump\t// out\n        /* \"solidity-study-main/4.example/erc721/erc721_random.sol\":1081:1162  function symbol() public view returns (string memory) {... */\n    tag_57:\n        /* \"solidity-study-main/4.example/erc721/erc721_random.sol\":1120:1133  string memory */\n      0x60\n        /* \"solidity-study-main/4.example/erc721/erc721_random.sol\":1149:1156  _symbol */\n      0x01\n        /* \"solidity-study-main/4.example/erc721/erc721_random.sol\":1142:1156  return _symbol */\n      dup1\n      sload\n      tag_116\n      swap1\n      tag_74\n      jump\t// in\n    tag_116:\n      dup1\n      0x1f\n      add\n      0x20\n      dup1\n      swap2\n      div\n      mul\n      0x20\n      add\n      mload(0x40)\n      swap1\n      dup2\n      add\n      0x40\n      mstore\n      dup1\n      swap3\n      swap2\n      swap1\n      dup2\n      dup2\n      mstore\n      0x20\n      add\n      dup3\n      dup1\n      sload\n      tag_117\n      swap1\n      tag_74\n      jump\t// in\n    tag_117:\n      dup1\n      iszero\n      tag_118\n      jumpi\n      dup1\n      0x1f\n      lt\n      tag_119\n      jumpi\n      0x0100\n      dup1\n      dup4\n      sload\n      div\n      mul\n      dup4\n      mstore\n      swap2\n      0x20\n      add\n      swap2\n      jump(tag_118)\n    tag_119:\n      dup3\n      add\n      swap2\n      swap1\n      0x00\n      mstore\n      keccak256(0x00, 0x20)\n      swap1\n    tag_120:\n      dup2\n      sload\n      dup2\n      mstore\n      swap1\n      0x01\n      add\n      swap1\n      0x20\n      add\n      dup1\n      dup4\n      gt\n      tag_120\n      jumpi\n      dup3\n      swap1\n      sub\n      0x1f\n      and\n      dup3\n      add\n      swap2\n    tag_118:\n      pop\n      pop\n      pop\n      pop\n      pop\n      swap1\n      pop\n        /* \"solidity-study-main/4.example/erc721/erc721_random.sol\":1081:1162  function symbol() public view returns (string memory) {... */\n      swap1\n      jump\t// out\n        /* \"solidity-study-main/4.example/erc721/erc721_random.sol\":2946:3255  function transfer(... */\n    tag_61:\n        /* \"solidity-study-main/4.example/erc721/erc721_random.sol\":3050:3060  msg.sender */\n      caller\n        /* \"solidity-study-main/4.example/erc721/erc721_random.sol\":3030:3060  _owners[tokenId] == msg.sender */\n      0xffffffffffffffffffffffffffffffffffffffff\n      and\n        /* \"solidity-study-main/4.example/erc721/erc721_random.sol\":3030:3037  _owners */\n      0x03\n        /* \"solidity-study-main/4.example/erc721/erc721_random.sol\":3030:3046  _owners[tokenId] */\n      0x00\n        /* \"solidity-study-main/4.example/erc721/erc721_random.sol\":3038:3045  tokenId */\n      dup4\n        /* \"solidity-study-main/4.example/erc721/erc721_random.sol\":3030:3046  _owners[tokenId] */\n      dup2\n      mstore\n      0x20\n      add\n      swap1\n      dup2\n      mstore\n      0x20\n      add\n      0x00\n      keccak256\n      0x00\n      swap1\n      sload\n      swap1\n      0x0100\n      exp\n      swap1\n      div\n      0xffffffffffffffffffffffffffffffffffffffff\n      and\n        /* \"solidity-study-main/4.example/erc721/erc721_random.sol\":3030:3060  _owners[tokenId] == msg.sender */\n      0xffffffffffffffffffffffffffffffffffffffff\n      and\n      eq\n        /* \"solidity-study-main/4.example/erc721/erc721_random.sol\":3022:3080  require(_owners[tokenId] == msg.sender, \"Incorrect Owner\") */\n      tag_122\n      jumpi\n      mload(0x40)\n      0x08c379a000000000000000000000000000000000000000000000000000000000\n      dup2\n      mstore\n      0x04\n      add\n      tag_123\n      swap1\n      tag_83\n      jump\t// in\n    tag_123:\n      mload(0x40)\n      dup1\n      swap2\n      sub\n      swap1\n      revert\n    tag_122:\n        /* \"solidity-study-main/4.example/erc721/erc721_random.sol\":3094:3109  _tokenApprovals */\n      0x05\n        /* \"solidity-study-main/4.example/erc721/erc721_random.sol\":3094:3118  _tokenApprovals[tokenId] */\n      0x00\n        /* \"solidity-study-main/4.example/erc721/erc721_random.sol\":3110:3117  tokenId */\n      dup3\n        /* \"solidity-study-main/4.example/erc721/erc721_random.sol\":3094:3118  _tokenApprovals[tokenId] */\n      dup2\n      mstore\n      0x20\n      add\n      swap1\n      dup2\n      mstore\n      0x20\n      add\n      0x00\n      keccak256\n      0x00\n        /* \"solidity-study-main/4.example/erc721/erc721_random.sol\":3087:3118  delete _tokenApprovals[tokenId] */\n      0x0100\n      exp\n      dup2\n      sload\n      swap1\n      0xffffffffffffffffffffffffffffffffffffffff\n      mul\n      not\n      and\n      swap1\n      sstore\n        /* \"solidity-study-main/4.example/erc721/erc721_random.sol\":3150:3151  1 */\n      0x01\n        /* \"solidity-study-main/4.example/erc721/erc721_random.sol\":3125:3134  _balances */\n      0x04\n        /* \"solidity-study-main/4.example/erc721/erc721_random.sol\":3125:3146  _balances[msg.sender] */\n      0x00\n        /* \"solidity-study-main/4.example/erc721/erc721_random.sol\":3135:3145  msg.sender */\n      caller\n        /* \"solidity-study-main/4.example/erc721/erc721_random.sol\":3125:3146  _balances[msg.sender] */\n      0xffffffffffffffffffffffffffffffffffffffff\n      and\n      0xffffffffffffffffffffffffffffffffffffffff\n      and\n      dup2\n      mstore\n      0x20\n      add\n      swap1\n      dup2\n      mstore\n      0x20\n      add\n      0x00\n      keccak256\n      0x00\n        /* \"solidity-study-main/4.example/erc721/erc721_random.sol\":3125:3151  _balances[msg.sender] -= 1 */\n      dup3\n      dup3\n      sload\n      tag_124\n      swap2\n      swap1\n      tag_98\n      jump\t// in\n    tag_124:\n      swap3\n      pop\n      pop\n      dup2\n      swap1\n      sstore\n      pop\n        /* \"solidity-study-main/4.example/erc721/erc721_random.sol\":3175:3176  1 */\n      0x01\n        /* \"solidity-study-main/4.example/erc721/erc721_random.sol\":3158:3167  _balances */\n      0x04\n        /* \"solidity-study-main/4.example/erc721/erc721_random.sol\":3158:3171  _balances[to] */\n      0x00\n        /* \"solidity-study-main/4.example/erc721/erc721_random.sol\":3168:3170  to */\n      dup5\n        /* \"solidity-study-main/4.example/erc721/erc721_random.sol\":3158:3171  _balances[to] */\n      0xffffffffffffffffffffffffffffffffffffffff\n      and\n      0xffffffffffffffffffffffffffffffffffffffff\n      and\n      dup2\n      mstore\n      0x20\n      add\n      swap1\n      dup2\n      mstore\n      0x20\n      add\n      0x00\n      keccak256\n      0x00\n        /* \"solidity-study-main/4.example/erc721/erc721_random.sol\":3158:3176  _balances[to] += 1 */\n      dup3\n      dup3\n      sload\n      tag_125\n      swap2\n      swap1\n      tag_100\n      jump\t// in\n    tag_125:\n      swap3\n      pop\n      pop\n      dup2\n      swap1\n      sstore\n      pop\n        /* \"solidity-study-main/4.example/erc721/erc721_random.sol\":3202:3204  to */\n      dup2\n        /* \"solidity-study-main/4.example/erc721/erc721_random.sol\":3183:3190  _owners */\n      0x03\n        /* \"solidity-study-main/4.example/erc721/erc721_random.sol\":3183:3199  _owners[tokenId] */\n      0x00\n        /* \"solidity-study-main/4.example/erc721/erc721_random.sol\":3191:3198  tokenId */\n      dup4\n        /* \"solidity-study-main/4.example/erc721/erc721_random.sol\":3183:3199  _owners[tokenId] */\n      dup2\n      mstore\n      0x20\n      add\n      swap1\n      dup2\n      mstore\n      0x20\n      add\n      0x00\n      keccak256\n      0x00\n        /* \"solidity-study-main/4.example/erc721/erc721_random.sol\":3183:3204  _owners[tokenId] = to */\n      0x0100\n      exp\n      dup2\n      sload\n      dup2\n      0xffffffffffffffffffffffffffffffffffffffff\n      mul\n      not\n      and\n      swap1\n      dup4\n      0xffffffffffffffffffffffffffffffffffffffff\n      and\n      mul\n      or\n      swap1\n      sstore\n      pop\n        /* \"solidity-study-main/4.example/erc721/erc721_random.sol\":3216:3249  Transfer(msg.sender, to, tokenId) */\n      0xddf252ad1be2c89b69c2b068fc378daa952ba7f163c4a11628f55a4df523b3ef\n        /* \"solidity-study-main/4.example/erc721/erc721_random.sol\":3225:3235  msg.sender */\n      caller\n        /* \"solidity-study-main/4.example/erc721/erc721_random.sol\":3237:3239  to */\n      dup4\n        /* \"solidity-study-main/4.example/erc721/erc721_random.sol\":3241:3248  tokenId */\n      dup4\n        /* \"solidity-study-main/4.example/erc721/erc721_random.sol\":3216:3249  Transfer(msg.sender, to, tokenId) */\n      mload(0x40)\n      tag_126\n      swap4\n      swap3\n      swap2\n      swap1\n      tag_85\n      jump\t// in\n    tag_126:\n      mload(0x40)\n      dup1\n      swap2\n      sub\n      swap1\n      log1\n        /* \"solidity-study-main/4.example/erc721/erc721_random.sol\":2946:3255  function transfer(... */\n      pop\n      pop\n      jump\t// out\n        /* \"solidity-study-main/4.example/erc721/erc721_random.sol\":1168:1269  function tokenURI(uint256 tokenId) public view returns (uint) {... */\n    tag_64:\n        /* \"solidity-study-main/4.example/erc721/erc721_random.sol\":1224:1228  uint */\n      0x00\n        /* \"solidity-study-main/4.example/erc721/erc721_random.sol\":1244:1254  _tokenInfo */\n      0x02\n        /* \"solidity-study-main/4.example/erc721/erc721_random.sol\":1244:1263  _tokenInfo[tokenId] */\n      0x00\n        /* \"solidity-study-main/4.example/erc721/erc721_random.sol\":1255:1262  tokenId */\n      dup4\n        /* \"solidity-study-main/4.example/erc721/erc721_random.sol\":1244:1263  _tokenInfo[tokenId] */\n      dup2\n      mstore\n      0x20\n      add\n      swap1\n      dup2\n      mstore\n      0x20\n      add\n      0x00\n      keccak256\n      sload\n        /* \"solidity-study-main/4.example/erc721/erc721_random.sol\":1237:1263  return _tokenInfo[tokenId] */\n      swap1\n      pop\n        /* \"solidity-study-main/4.example/erc721/erc721_random.sol\":1168:1269  function tokenURI(uint256 tokenId) public view returns (uint) {... */\n      swap2\n      swap1\n      pop\n      jump\t// out\n        /* \"solidity-study-main/4.example/erc721/erc721_random.sol\":1393:1534  function isApprovedForAll(address owner, address operator) public view returns (bool) {... */\n    tag_69:\n        /* \"solidity-study-main/4.example/erc721/erc721_random.sol\":1473:1477  bool */\n      0x00\n        /* \"solidity-study-main/4.example/erc721/erc721_random.sol\":1493:1511  _operatorApprovals */\n      0x06\n        /* \"solidity-study-main/4.example/erc721/erc721_random.sol\":1493:1518  _operatorApprovals[owner] */\n      0x00\n        /* \"solidity-study-main/4.example/erc721/erc721_random.sol\":1512:1517  owner */\n      dup5\n        /* \"solidity-study-main/4.example/erc721/erc721_random.sol\":1493:1518  _operatorApprovals[owner] */\n      0xffffffffffffffffffffffffffffffffffffffff\n      and\n      0xffffffffffffffffffffffffffffffffffffffff\n      and\n      dup2\n      mstore\n      0x20\n      add\n      swap1\n      dup2\n      mstore\n      0x20\n      add\n      0x00\n      keccak256\n        /* \"solidity-study-main/4.example/erc721/erc721_random.sol\":1493:1528  _operatorApprovals[owner][operator] */\n      0x00\n        /* \"solidity-study-main/4.example/erc721/erc721_random.sol\":1519:1527  operator */\n      dup4\n        /* \"solidity-study-main/4.example/erc721/erc721_random.sol\":1493:1528  _operatorApprovals[owner][operator] */\n      0xffffffffffffffffffffffffffffffffffffffff\n      and\n      0xffffffffffffffffffffffffffffffffffffffff\n      and\n      dup2\n      mstore\n      0x20\n      add\n      swap1\n      dup2\n      mstore\n      0x20\n      add\n      0x00\n      keccak256\n      0x00\n      swap1\n      sload\n      swap1\n      0x0100\n      exp\n      swap1\n      div\n      0xff\n      and\n        /* \"solidity-study-main/4.example/erc721/erc721_random.sol\":1486:1528  return _operatorApprovals[owner][operator] */\n      swap1\n      pop\n        /* \"solidity-study-main/4.example/erc721/erc721_random.sol\":1393:1534  function isApprovedForAll(address owner, address operator) public view returns (bool) {... */\n      swap3\n      swap2\n      pop\n      pop\n      jump\t// out\n        /* \"solidity-study-main/4.example/erc721/erc721_random.sol\":2539:2707  function randomNft(uint maxValue) internal view returns(uint) {... */\n    tag_108:\n        /* \"solidity-study-main/4.example/erc721/erc721_random.sol\":2595:2599  uint */\n      0x00\n        /* \"solidity-study-main/4.example/erc721/erc721_random.sol\":2693:2701  maxValue */\n      dup2\n        /* \"solidity-study-main/4.example/erc721/erc721_random.sol\":2647:2657  msg.sender */\n      caller\n        /* \"solidity-study-main/4.example/erc721/erc721_random.sol\":2659:2674  block.timestamp */\n      timestamp\n        /* \"solidity-study-main/4.example/erc721/erc721_random.sol\":2676:2687  totalSupply */\n      sload(0x07)\n        /* \"solidity-study-main/4.example/erc721/erc721_random.sol\":2630:2688  abi.encodePacked(msg.sender, block.timestamp, totalSupply) */\n      add(0x20, mload(0x40))\n      tag_130\n      swap4\n      swap3\n      swap2\n      swap1\n      tag_131\n      jump\t// in\n    tag_130:\n      mload(0x40)\n      0x20\n      dup2\n      dup4\n      sub\n      sub\n      dup2\n      mstore\n      swap1\n      0x40\n      mstore\n        /* \"solidity-study-main/4.example/erc721/erc721_random.sol\":2620:2689  keccak256(abi.encodePacked(msg.sender, block.timestamp, totalSupply)) */\n      dup1\n      mload\n      swap1\n      0x20\n      add\n      keccak256\n        /* \"solidity-study-main/4.example/erc721/erc721_random.sol\":2615:2690  uint(keccak256(abi.encodePacked(msg.sender, block.timestamp, totalSupply))) */\n      0x00\n      shr\n        /* \"solidity-study-main/4.example/erc721/erc721_random.sol\":2615:2701  uint(keccak256(abi.encodePacked(msg.sender, block.timestamp, totalSupply))) % maxValue */\n      tag_132\n      swap2\n      swap1\n      tag_133\n      jump\t// in\n    tag_132:\n        /* \"solidity-study-main/4.example/erc721/erc721_random.sol\":2608:2701  return uint(keccak256(abi.encodePacked(msg.sender, block.timestamp, totalSupply))) % maxValue */\n      swap1\n      pop\n        /* \"solidity-study-main/4.example/erc721/erc721_random.sol\":2539:2707  function randomNft(uint maxValue) internal view returns(uint) {... */\n      swap2\n      swap1\n      pop\n      jump\t// out\n        /* \"#utility.yul\":7:106   */\n    tag_134:\n        /* \"#utility.yul\":59:65   */\n      0x00\n        /* \"#utility.yul\":93:98   */\n      dup2\n        /* \"#utility.yul\":87:99   */\n      mload\n        /* \"#utility.yul\":77:99   */\n      swap1\n      pop\n        /* \"#utility.yul\":7:106   */\n      swap2\n      swap1\n      pop\n      jump\t// out\n        /* \"#utility.yul\":112:281   */\n    tag_135:\n        /* \"#utility.yul\":196:207   */\n      0x00\n        /* \"#utility.yul\":230:236   */\n      dup3\n        /* \"#utility.yul\":225:228   */\n      dup3\n        /* \"#utility.yul\":218:237   */\n      mstore\n        /* \"#utility.yul\":270:274   */\n      0x20\n        /* \"#utility.yul\":265:268   */\n      dup3\n        /* \"#utility.yul\":261:275   */\n      add\n        /* \"#utility.yul\":246:275   */\n      swap1\n      pop\n        /* \"#utility.yul\":112:281   */\n      swap3\n      swap2\n      pop\n      pop\n      jump\t// out\n        /* \"#utility.yul\":287:533   */\n    tag_136:\n        /* \"#utility.yul\":368:369   */\n      0x00\n        /* \"#utility.yul\":378:491   */\n    tag_174:\n        /* \"#utility.yul\":392:398   */\n      dup4\n        /* \"#utility.yul\":389:390   */\n      dup2\n        /* \"#utility.yul\":386:399   */\n      lt\n        /* \"#utility.yul\":378:491   */\n      iszero\n      tag_176\n      jumpi\n        /* \"#utility.yul\":477:478   */\n      dup1\n        /* \"#utility.yul\":472:475   */\n      dup3\n        /* \"#utility.yul\":468:479   */\n      add\n        /* \"#utility.yul\":462:480   */\n      mload\n        /* \"#utility.yul\":458:459   */\n      dup2\n        /* \"#utility.yul\":453:456   */\n      dup5\n        /* \"#utility.yul\":449:460   */\n      add\n        /* \"#utility.yul\":442:481   */\n      mstore\n        /* \"#utility.yul\":414:416   */\n      0x20\n        /* \"#utility.yul\":411:412   */\n      dup2\n        /* \"#utility.yul\":407:417   */\n      add\n        /* \"#utility.yul\":402:417   */\n      swap1\n      pop\n        /* \"#utility.yul\":378:491   */\n      jump(tag_174)\n    tag_176:\n        /* \"#utility.yul\":525:526   */\n      0x00\n        /* \"#utility.yul\":516:522   */\n      dup5\n        /* \"#utility.yul\":511:514   */\n      dup5\n        /* \"#utility.yul\":507:523   */\n      add\n        /* \"#utility.yul\":500:527   */\n      mstore\n        /* \"#utility.yul\":349:533   */\n      pop\n        /* \"#utility.yul\":287:533   */\n      pop\n      pop\n      pop\n      jump\t// out\n        /* \"#utility.yul\":539:641   */\n    tag_137:\n        /* \"#utility.yul\":580:586   */\n      0x00\n        /* \"#utility.yul\":631:633   */\n      0x1f\n        /* \"#utility.yul\":627:634   */\n      not\n        /* \"#utility.yul\":622:624   */\n      0x1f\n        /* \"#utility.yul\":615:620   */\n      dup4\n        /* \"#utility.yul\":611:625   */\n      add\n        /* \"#utility.yul\":607:635   */\n      and\n        /* \"#utility.yul\":597:635   */\n      swap1\n      pop\n        /* \"#utility.yul\":539:641   */\n      swap2\n      swap1\n      pop\n      jump\t// out\n        /* \"#utility.yul\":647:1024   */\n    tag_138:\n        /* \"#utility.yul\":735:738   */\n      0x00\n        /* \"#utility.yul\":763:802   */\n      tag_179\n        /* \"#utility.yul\":796:801   */\n      dup3\n        /* \"#utility.yul\":763:802   */\n      tag_134\n      jump\t// in\n    tag_179:\n        /* \"#utility.yul\":818:889   */\n      tag_180\n        /* \"#utility.yul\":882:888   */\n      dup2\n        /* \"#utility.yul\":877:880   */\n      dup6\n        /* \"#utility.yul\":818:889   */\n      tag_135\n      jump\t// in\n    tag_180:\n        /* \"#utility.yul\":811:889   */\n      swap4\n      pop\n        /* \"#utility.yul\":898:963   */\n      tag_181\n        /* \"#utility.yul\":956:962   */\n      dup2\n        /* \"#utility.yul\":951:954   */\n      dup6\n        /* \"#utility.yul\":944:948   */\n      0x20\n        /* \"#utility.yul\":937:942   */\n      dup7\n        /* \"#utility.yul\":933:949   */\n      add\n        /* \"#utility.yul\":898:963   */\n      tag_136\n      jump\t// in\n    tag_181:\n        /* \"#utility.yul\":988:1017   */\n      tag_182\n        /* \"#utility.yul\":1010:1016   */\n      dup2\n        /* \"#utility.yul\":988:1017   */\n      tag_137\n      jump\t// in\n    tag_182:\n        /* \"#utility.yul\":983:986   */\n      dup5\n        /* \"#utility.yul\":979:1018   */\n      add\n        /* \"#utility.yul\":972:1018   */\n      swap2\n      pop\n        /* \"#utility.yul\":739:1024   */\n      pop\n        /* \"#utility.yul\":647:1024   */\n      swap3\n      swap2\n      pop\n      pop\n      jump\t// out\n        /* \"#utility.yul\":1030:1343   */\n    tag_21:\n        /* \"#utility.yul\":1143:1147   */\n      0x00\n        /* \"#utility.yul\":1181:1183   */\n      0x20\n        /* \"#utility.yul\":1170:1179   */\n      dup3\n        /* \"#utility.yul\":1166:1184   */\n      add\n        /* \"#utility.yul\":1158:1184   */\n      swap1\n      pop\n        /* \"#utility.yul\":1230:1239   */\n      dup2\n        /* \"#utility.yul\":1224:1228   */\n      dup2\n        /* \"#utility.yul\":1220:1240   */\n      sub\n        /* \"#utility.yul\":1216:1217   */\n      0x00\n        /* \"#utility.yul\":1205:1214   */\n      dup4\n        /* \"#utility.yul\":1201:1218   */\n      add\n        /* \"#utility.yul\":1194:1241   */\n      mstore\n        /* \"#utility.yul\":1258:1336   */\n      tag_184\n        /* \"#utility.yul\":1331:1335   */\n      dup2\n        /* \"#utility.yul\":1322:1328   */\n      dup5\n        /* \"#utility.yul\":1258:1336   */\n      tag_138\n      jump\t// in\n    tag_184:\n        /* \"#utility.yul\":1250:1336   */\n      swap1\n      pop\n        /* \"#utility.yul\":1030:1343   */\n      swap3\n      swap2\n      pop\n      pop\n      jump\t// out\n        /* \"#utility.yul\":1430:1547   */\n    tag_140:\n        /* \"#utility.yul\":1539:1540   */\n      0x00\n        /* \"#utility.yul\":1536:1537   */\n      dup1\n        /* \"#utility.yul\":1529:1541   */\n      revert\n        /* \"#utility.yul\":1676:1753   */\n    tag_142:\n        /* \"#utility.yul\":1713:1720   */\n      0x00\n        /* \"#utility.yul\":1742:1747   */\n      dup2\n        /* \"#utility.yul\":1731:1747   */\n      swap1\n      pop\n        /* \"#utility.yul\":1676:1753   */\n      swap2\n      swap1\n      pop\n      jump\t// out\n        /* \"#utility.yul\":1759:1881   */\n    tag_143:\n        /* \"#utility.yul\":1832:1856   */\n      tag_190\n        /* \"#utility.yul\":1850:1855   */\n      dup2\n        /* \"#utility.yul\":1832:1856   */\n      tag_142\n      jump\t// in\n    tag_190:\n        /* \"#utility.yul\":1825:1830   */\n      dup2\n        /* \"#utility.yul\":1822:1857   */\n      eq\n        /* \"#utility.yul\":1812:1875   */\n      tag_191\n      jumpi\n        /* \"#utility.yul\":1871:1872   */\n      0x00\n        /* \"#utility.yul\":1868:1869   */\n      dup1\n        /* \"#utility.yul\":1861:1873   */\n      revert\n        /* \"#utility.yul\":1812:1875   */\n    tag_191:\n        /* \"#utility.yul\":1759:1881   */\n      pop\n      jump\t// out\n        /* \"#utility.yul\":1887:2026   */\n    tag_144:\n        /* \"#utility.yul\":1933:1938   */\n      0x00\n        /* \"#utility.yul\":1971:1977   */\n      dup2\n        /* \"#utility.yul\":1958:1978   */\n      calldataload\n        /* \"#utility.yul\":1949:1978   */\n      swap1\n      pop\n        /* \"#utility.yul\":1987:2020   */\n      tag_193\n        /* \"#utility.yul\":2014:2019   */\n      dup2\n        /* \"#utility.yul\":1987:2020   */\n      tag_143\n      jump\t// in\n    tag_193:\n        /* \"#utility.yul\":1887:2026   */\n      swap3\n      swap2\n      pop\n      pop\n      jump\t// out\n        /* \"#utility.yul\":2032:2361   */\n    tag_24:\n        /* \"#utility.yul\":2091:2097   */\n      0x00\n        /* \"#utility.yul\":2140:2142   */\n      0x20\n        /* \"#utility.yul\":2128:2137   */\n      dup3\n        /* \"#utility.yul\":2119:2126   */\n      dup5\n        /* \"#utility.yul\":2115:2138   */\n      sub\n        /* \"#utility.yul\":2111:2143   */\n      slt\n        /* \"#utility.yul\":2108:2227   */\n      iszero\n      tag_195\n      jumpi\n        /* \"#utility.yul\":2146:2225   */\n      tag_196\n      tag_140\n      jump\t// in\n    tag_196:\n        /* \"#utility.yul\":2108:2227   */\n    tag_195:\n        /* \"#utility.yul\":2266:2267   */\n      0x00\n        /* \"#utility.yul\":2291:2344   */\n      tag_197\n        /* \"#utility.yul\":2336:2343   */\n      dup5\n        /* \"#utility.yul\":2327:2333   */\n      dup3\n        /* \"#utility.yul\":2316:2325   */\n      dup6\n        /* \"#utility.yul\":2312:2334   */\n      add\n        /* \"#utility.yul\":2291:2344   */\n      tag_144\n      jump\t// in\n    tag_197:\n        /* \"#utility.yul\":2281:2344   */\n      swap2\n      pop\n        /* \"#utility.yul\":2237:2354   */\n      pop\n        /* \"#utility.yul\":2032:2361   */\n      swap3\n      swap2\n      pop\n      pop\n      jump\t// out\n        /* \"#utility.yul\":2367:2493   */\n    tag_145:\n        /* \"#utility.yul\":2404:2411   */\n      0x00\n        /* \"#utility.yul\":2444:2486   */\n      0xffffffffffffffffffffffffffffffffffffffff\n        /* \"#utility.yul\":2437:2442   */\n      dup3\n        /* \"#utility.yul\":2433:2487   */\n      and\n        /* \"#utility.yul\":2422:2487   */\n      swap1\n      pop\n        /* \"#utility.yul\":2367:2493   */\n      swap2\n      swap1\n      pop\n      jump\t// out\n        /* \"#utility.yul\":2499:2595   */\n    tag_146:\n        /* \"#utility.yul\":2536:2543   */\n      0x00\n        /* \"#utility.yul\":2565:2589   */\n      tag_200\n        /* \"#utility.yul\":2583:2588   */\n      dup3\n        /* \"#utility.yul\":2565:2589   */\n      tag_145\n      jump\t// in\n    tag_200:\n        /* \"#utility.yul\":2554:2589   */\n      swap1\n      pop\n        /* \"#utility.yul\":2499:2595   */\n      swap2\n      swap1\n      pop\n      jump\t// out\n        /* \"#utility.yul\":2601:2719   */\n    tag_147:\n        /* \"#utility.yul\":2688:2712   */\n      tag_202\n        /* \"#utility.yul\":2706:2711   */\n      dup2\n        /* \"#utility.yul\":2688:2712   */\n      tag_146\n      jump\t// in\n    tag_202:\n        /* \"#utility.yul\":2683:2686   */\n      dup3\n        /* \"#utility.yul\":2676:2713   */\n      mstore\n        /* \"#utility.yul\":2601:2719   */\n      pop\n      pop\n      jump\t// out\n        /* \"#utility.yul\":2725:2947   */\n    tag_27:\n        /* \"#utility.yul\":2818:2822   */\n      0x00\n        /* \"#utility.yul\":2856:2858   */\n      0x20\n        /* \"#utility.yul\":2845:2854   */\n      dup3\n        /* \"#utility.yul\":2841:2859   */\n      add\n        /* \"#utility.yul\":2833:2859   */\n      swap1\n      pop\n        /* \"#utility.yul\":2869:2940   */\n      tag_204\n        /* \"#utility.yul\":2937:2938   */\n      0x00\n        /* \"#utility.yul\":2926:2935   */\n      dup4\n        /* \"#utility.yul\":2922:2939   */\n      add\n        /* \"#utility.yul\":2913:2919   */\n      dup5\n        /* \"#utility.yul\":2869:2940   */\n      tag_147\n      jump\t// in\n    tag_204:\n        /* \"#utility.yul\":2725:2947   */\n      swap3\n      swap2\n      pop\n      pop\n      jump\t// out\n        /* \"#utility.yul\":2953:3075   */\n    tag_148:\n        /* \"#utility.yul\":3026:3050   */\n      tag_206\n        /* \"#utility.yul\":3044:3049   */\n      dup2\n        /* \"#utility.yul\":3026:3050   */\n      tag_146\n      jump\t// in\n    tag_206:\n        /* \"#utility.yul\":3019:3024   */\n      dup2\n        /* \"#utility.yul\":3016:3051   */\n      eq\n        /* \"#utility.yul\":3006:3069   */\n      tag_207\n      jumpi\n        /* \"#utility.yul\":3065:3066   */\n      0x00\n        /* \"#utility.yul\":3062:3063   */\n      dup1\n        /* \"#utility.yul\":3055:3067   */\n      revert\n        /* \"#utility.yul\":3006:3069   */\n    tag_207:\n        /* \"#utility.yul\":2953:3075   */\n      pop\n      jump\t// out\n        /* \"#utility.yul\":3081:3220   */\n    tag_149:\n        /* \"#utility.yul\":3127:3132   */\n      0x00\n        /* \"#utility.yul\":3165:3171   */\n      dup2\n        /* \"#utility.yul\":3152:3172   */\n      calldataload\n        /* \"#utility.yul\":3143:3172   */\n      swap1\n      pop\n        /* \"#utility.yul\":3181:3214   */\n      tag_209\n        /* \"#utility.yul\":3208:3213   */\n      dup2\n        /* \"#utility.yul\":3181:3214   */\n      tag_148\n      jump\t// in\n    tag_209:\n        /* \"#utility.yul\":3081:3220   */\n      swap3\n      swap2\n      pop\n      pop\n      jump\t// out\n        /* \"#utility.yul\":3226:3700   */\n    tag_30:\n        /* \"#utility.yul\":3294:3300   */\n      0x00\n        /* \"#utility.yul\":3302:3308   */\n      dup1\n        /* \"#utility.yul\":3351:3353   */\n      0x40\n        /* \"#utility.yul\":3339:3348   */\n      dup4\n        /* \"#utility.yul\":3330:3337   */\n      dup6\n        /* \"#utility.yul\":3326:3349   */\n      sub\n        /* \"#utility.yul\":3322:3354   */\n      slt\n        /* \"#utility.yul\":3319:3438   */\n      iszero\n      tag_211\n      jumpi\n        /* \"#utility.yul\":3357:3436   */\n      tag_212\n      tag_140\n      jump\t// in\n    tag_212:\n        /* \"#utility.yul\":3319:3438   */\n    tag_211:\n        /* \"#utility.yul\":3477:3478   */\n      0x00\n        /* \"#utility.yul\":3502:3555   */\n      tag_213\n        /* \"#utility.yul\":3547:3554   */\n      dup6\n        /* \"#utility.yul\":3538:3544   */\n      dup3\n        /* \"#utility.yul\":3527:3536   */\n      dup7\n        /* \"#utility.yul\":3523:3545   */\n      add\n        /* \"#utility.yul\":3502:3555   */\n      tag_149\n      jump\t// in\n    tag_213:\n        /* \"#utility.yul\":3492:3555   */\n      swap3\n      pop\n        /* \"#utility.yul\":3448:3565   */\n      pop\n        /* \"#utility.yul\":3604:3606   */\n      0x20\n        /* \"#utility.yul\":3630:3683   */\n      tag_214\n        /* \"#utility.yul\":3675:3682   */\n      dup6\n        /* \"#utility.yul\":3666:3672   */\n      dup3\n        /* \"#utility.yul\":3655:3664   */\n      dup7\n        /* \"#utility.yul\":3651:3673   */\n      add\n        /* \"#utility.yul\":3630:3683   */\n      tag_144\n      jump\t// in\n    tag_214:\n        /* \"#utility.yul\":3620:3683   */\n      swap2\n      pop\n        /* \"#utility.yul\":3575:3693   */\n      pop\n        /* \"#utility.yul\":3226:3700   */\n      swap3\n      pop\n      swap3\n      swap1\n      pop\n      jump\t// out\n        /* \"#utility.yul\":3706:4325   */\n    tag_34:\n        /* \"#utility.yul\":3783:3789   */\n      0x00\n        /* \"#utility.yul\":3791:3797   */\n      dup1\n        /* \"#utility.yul\":3799:3805   */\n      0x00\n        /* \"#utility.yul\":3848:3850   */\n      0x60\n        /* \"#utility.yul\":3836:3845   */\n      dup5\n        /* \"#utility.yul\":3827:3834   */\n      dup7\n        /* \"#utility.yul\":3823:3846   */\n      sub\n        /* \"#utility.yul\":3819:3851   */\n      slt\n        /* \"#utility.yul\":3816:3935   */\n      iszero\n      tag_216\n      jumpi\n        /* \"#utility.yul\":3854:3933   */\n      tag_217\n      tag_140\n      jump\t// in\n    tag_217:\n        /* \"#utility.yul\":3816:3935   */\n    tag_216:\n        /* \"#utility.yul\":3974:3975   */\n      0x00\n        /* \"#utility.yul\":3999:4052   */\n      tag_218\n        /* \"#utility.yul\":4044:4051   */\n      dup7\n        /* \"#utility.yul\":4035:4041   */\n      dup3\n        /* \"#utility.yul\":4024:4033   */\n      dup8\n        /* \"#utility.yul\":4020:4042   */\n      add\n        /* \"#utility.yul\":3999:4052   */\n      tag_149\n      jump\t// in\n    tag_218:\n        /* \"#utility.yul\":3989:4052   */\n      swap4\n      pop\n        /* \"#utility.yul\":3945:4062   */\n      pop\n        /* \"#utility.yul\":4101:4103   */\n      0x20\n        /* \"#utility.yul\":4127:4180   */\n      tag_219\n        /* \"#utility.yul\":4172:4179   */\n      dup7\n        /* \"#utility.yul\":4163:4169   */\n      dup3\n        /* \"#utility.yul\":4152:4161   */\n      dup8\n        /* \"#utility.yul\":4148:4170   */\n      add\n        /* \"#utility.yul\":4127:4180   */\n      tag_149\n      jump\t// in\n    tag_219:\n        /* \"#utility.yul\":4117:4180   */\n      swap3\n      pop\n        /* \"#utility.yul\":4072:4190   */\n      pop\n        /* \"#utility.yul\":4229:4231   */\n      0x40\n        /* \"#utility.yul\":4255:4308   */\n      tag_220\n        /* \"#utility.yul\":4300:4307   */\n      dup7\n        /* \"#utility.yul\":4291:4297   */\n      dup3\n        /* \"#utility.yul\":4280:4289   */\n      dup8\n        /* \"#utility.yul\":4276:4298   */\n      add\n        /* \"#utility.yul\":4255:4308   */\n      tag_144\n      jump\t// in\n    tag_220:\n        /* \"#utility.yul\":4245:4308   */\n      swap2\n      pop\n        /* \"#utility.yul\":4200:4318   */\n      pop\n        /* \"#utility.yul\":3706:4325   */\n      swap3\n      pop\n      swap3\n      pop\n      swap3\n      jump\t// out\n        /* \"#utility.yul\":4331:4421   */\n    tag_150:\n        /* \"#utility.yul\":4365:4372   */\n      0x00\n        /* \"#utility.yul\":4408:4413   */\n      dup2\n        /* \"#utility.yul\":4401:4414   */\n      iszero\n        /* \"#utility.yul\":4394:4415   */\n      iszero\n        /* \"#utility.yul\":4383:4415   */\n      swap1\n      pop\n        /* \"#utility.yul\":4331:4421   */\n      swap2\n      swap1\n      pop\n      jump\t// out\n        /* \"#utility.yul\":4427:4543   */\n    tag_151:\n        /* \"#utility.yul\":4497:4518   */\n      tag_223\n        /* \"#utility.yul\":4512:4517   */\n      dup2\n        /* \"#utility.yul\":4497:4518   */\n      tag_150\n      jump\t// in\n    tag_223:\n        /* \"#utility.yul\":4490:4495   */\n      dup2\n        /* \"#utility.yul\":4487:4519   */\n      eq\n        /* \"#utility.yul\":4477:4537   */\n      tag_224\n      jumpi\n        /* \"#utility.yul\":4533:4534   */\n      0x00\n        /* \"#utility.yul\":4530:4531   */\n      dup1\n        /* \"#utility.yul\":4523:4535   */\n      revert\n        /* \"#utility.yul\":4477:4537   */\n    tag_224:\n        /* \"#utility.yul\":4427:4543   */\n      pop\n      jump\t// out\n        /* \"#utility.yul\":4549:4682   */\n    tag_152:\n        /* \"#utility.yul\":4592:4597   */\n      0x00\n        /* \"#utility.yul\":4630:4636   */\n      dup2\n        /* \"#utility.yul\":4617:4637   */\n      calldataload\n        /* \"#utility.yul\":4608:4637   */\n      swap1\n      pop\n        /* \"#utility.yul\":4646:4676   */\n      tag_226\n        /* \"#utility.yul\":4670:4675   */\n      dup2\n        /* \"#utility.yul\":4646:4676   */\n      tag_151\n      jump\t// in\n    tag_226:\n        /* \"#utility.yul\":4549:4682   */\n      swap3\n      swap2\n      pop\n      pop\n      jump\t// out\n        /* \"#utility.yul\":4688:5301   */\n    tag_38:\n        /* \"#utility.yul\":4762:4768   */\n      0x00\n        /* \"#utility.yul\":4770:4776   */\n      dup1\n        /* \"#utility.yul\":4778:4784   */\n      0x00\n        /* \"#utility.yul\":4827:4829   */\n      0x60\n        /* \"#utility.yul\":4815:4824   */\n      dup5\n        /* \"#utility.yul\":4806:4813   */\n      dup7\n        /* \"#utility.yul\":4802:4825   */\n      sub\n        /* \"#utility.yul\":4798:4830   */\n      slt\n        /* \"#utility.yul\":4795:4914   */\n      iszero\n      tag_228\n      jumpi\n        /* \"#utility.yul\":4833:4912   */\n      tag_229\n      tag_140\n      jump\t// in\n    tag_229:\n        /* \"#utility.yul\":4795:4914   */\n    tag_228:\n        /* \"#utility.yul\":4953:4954   */\n      0x00\n        /* \"#utility.yul\":4978:5031   */\n      tag_230\n        /* \"#utility.yul\":5023:5030   */\n      dup7\n        /* \"#utility.yul\":5014:5020   */\n      dup3\n        /* \"#utility.yul\":5003:5012   */\n      dup8\n        /* \"#utility.yul\":4999:5021   */\n      add\n        /* \"#utility.yul\":4978:5031   */\n      tag_149\n      jump\t// in\n    tag_230:\n        /* \"#utility.yul\":4968:5031   */\n      swap4\n      pop\n        /* \"#utility.yul\":4924:5041   */\n      pop\n        /* \"#utility.yul\":5080:5082   */\n      0x20\n        /* \"#utility.yul\":5106:5159   */\n      tag_231\n        /* \"#utility.yul\":5151:5158   */\n      dup7\n        /* \"#utility.yul\":5142:5148   */\n      dup3\n        /* \"#utility.yul\":5131:5140   */\n      dup8\n        /* \"#utility.yul\":5127:5149   */\n      add\n        /* \"#utility.yul\":5106:5159   */\n      tag_149\n      jump\t// in\n    tag_231:\n        /* \"#utility.yul\":5096:5159   */\n      swap3\n      pop\n        /* \"#utility.yul\":5051:5169   */\n      pop\n        /* \"#utility.yul\":5208:5210   */\n      0x40\n        /* \"#utility.yul\":5234:5284   */\n      tag_232\n        /* \"#utility.yul\":5276:5283   */\n      dup7\n        /* \"#utility.yul\":5267:5273   */\n      dup3\n        /* \"#utility.yul\":5256:5265   */\n      dup8\n        /* \"#utility.yul\":5252:5274   */\n      add\n        /* \"#utility.yul\":5234:5284   */\n      tag_152\n      jump\t// in\n    tag_232:\n        /* \"#utility.yul\":5224:5284   */\n      swap2\n      pop\n        /* \"#utility.yul\":5179:5294   */\n      pop\n        /* \"#utility.yul\":4688:5301   */\n      swap3\n      pop\n      swap3\n      pop\n      swap3\n      jump\t// out\n        /* \"#utility.yul\":5307:5636   */\n    tag_52:\n        /* \"#utility.yul\":5366:5372   */\n      0x00\n        /* \"#utility.yul\":5415:5417   */\n      0x20\n        /* \"#utility.yul\":5403:5412   */\n      dup3\n        /* \"#utility.yul\":5394:5401   */\n      dup5\n        /* \"#utility.yul\":5390:5413   */\n      sub\n        /* \"#utility.yul\":5386:5418   */\n      slt\n        /* \"#utility.yul\":5383:5502   */\n      iszero\n      tag_234\n      jumpi\n        /* \"#utility.yul\":5421:5500   */\n      tag_235\n      tag_140\n      jump\t// in\n    tag_235:\n        /* \"#utility.yul\":5383:5502   */\n    tag_234:\n        /* \"#utility.yul\":5541:5542   */\n      0x00\n        /* \"#utility.yul\":5566:5619   */\n      tag_236\n        /* \"#utility.yul\":5611:5618   */\n      dup5\n        /* \"#utility.yul\":5602:5608   */\n      dup3\n        /* \"#utility.yul\":5591:5600   */\n      dup6\n        /* \"#utility.yul\":5587:5609   */\n      add\n        /* \"#utility.yul\":5566:5619   */\n      tag_149\n      jump\t// in\n    tag_236:\n        /* \"#utility.yul\":5556:5619   */\n      swap2\n      pop\n        /* \"#utility.yul\":5512:5629   */\n      pop\n        /* \"#utility.yul\":5307:5636   */\n      swap3\n      swap2\n      pop\n      pop\n      jump\t// out\n        /* \"#utility.yul\":5642:5760   */\n    tag_153:\n        /* \"#utility.yul\":5729:5753   */\n      tag_238\n        /* \"#utility.yul\":5747:5752   */\n      dup2\n        /* \"#utility.yul\":5729:5753   */\n      tag_142\n      jump\t// in\n    tag_238:\n        /* \"#utility.yul\":5724:5727   */\n      dup3\n        /* \"#utility.yul\":5717:5754   */\n      mstore\n        /* \"#utility.yul\":5642:5760   */\n      pop\n      pop\n      jump\t// out\n        /* \"#utility.yul\":5766:5988   */\n    tag_55:\n        /* \"#utility.yul\":5859:5863   */\n      0x00\n        /* \"#utility.yul\":5897:5899   */\n      0x20\n        /* \"#utility.yul\":5886:5895   */\n      dup3\n        /* \"#utility.yul\":5882:5900   */\n      add\n        /* \"#utility.yul\":5874:5900   */\n      swap1\n      pop\n        /* \"#utility.yul\":5910:5981   */\n      tag_240\n        /* \"#utility.yul\":5978:5979   */\n      0x00\n        /* \"#utility.yul\":5967:5976   */\n      dup4\n        /* \"#utility.yul\":5963:5980   */\n      add\n        /* \"#utility.yul\":5954:5960   */\n      dup5\n        /* \"#utility.yul\":5910:5981   */\n      tag_153\n      jump\t// in\n    tag_240:\n        /* \"#utility.yul\":5766:5988   */\n      swap3\n      swap2\n      pop\n      pop\n      jump\t// out\n        /* \"#utility.yul\":5994:6468   */\n    tag_68:\n        /* \"#utility.yul\":6062:6068   */\n      0x00\n        /* \"#utility.yul\":6070:6076   */\n      dup1\n        /* \"#utility.yul\":6119:6121   */\n      0x40\n        /* \"#utility.yul\":6107:6116   */\n      dup4\n        /* \"#utility.yul\":6098:6105   */\n      dup6\n        /* \"#utility.yul\":6094:6117   */\n      sub\n        /* \"#utility.yul\":6090:6122   */\n      slt\n        /* \"#utility.yul\":6087:6206   */\n      iszero\n      tag_242\n      jumpi\n        /* \"#utility.yul\":6125:6204   */\n      tag_243\n      tag_140\n      jump\t// in\n    tag_243:\n        /* \"#utility.yul\":6087:6206   */\n    tag_242:\n        /* \"#utility.yul\":6245:6246   */\n      0x00\n        /* \"#utility.yul\":6270:6323   */\n      tag_244\n        /* \"#utility.yul\":6315:6322   */\n      dup6\n        /* \"#utility.yul\":6306:6312   */\n      dup3\n        /* \"#utility.yul\":6295:6304   */\n      dup7\n        /* \"#utility.yul\":6291:6313   */\n      add\n        /* \"#utility.yul\":6270:6323   */\n      tag_149\n      jump\t// in\n    tag_244:\n        /* \"#utility.yul\":6260:6323   */\n      swap3\n      pop\n        /* \"#utility.yul\":6216:6333   */\n      pop\n        /* \"#utility.yul\":6372:6374   */\n      0x20\n        /* \"#utility.yul\":6398:6451   */\n      tag_245\n        /* \"#utility.yul\":6443:6450   */\n      dup6\n        /* \"#utility.yul\":6434:6440   */\n      dup3\n        /* \"#utility.yul\":6423:6432   */\n      dup7\n        /* \"#utility.yul\":6419:6441   */\n      add\n        /* \"#utility.yul\":6398:6451   */\n      tag_149\n      jump\t// in\n    tag_245:\n        /* \"#utility.yul\":6388:6451   */\n      swap2\n      pop\n        /* \"#utility.yul\":6343:6461   */\n      pop\n        /* \"#utility.yul\":5994:6468   */\n      swap3\n      pop\n      swap3\n      swap1\n      pop\n      jump\t// out\n        /* \"#utility.yul\":6474:6583   */\n    tag_154:\n        /* \"#utility.yul\":6555:6576   */\n      tag_247\n        /* \"#utility.yul\":6570:6575   */\n      dup2\n        /* \"#utility.yul\":6555:6576   */\n      tag_150\n      jump\t// in\n    tag_247:\n        /* \"#utility.yul\":6550:6553   */\n      dup3\n        /* \"#utility.yul\":6543:6577   */\n      mstore\n        /* \"#utility.yul\":6474:6583   */\n      pop\n      pop\n      jump\t// out\n        /* \"#utility.yul\":6589:6799   */\n    tag_71:\n        /* \"#utility.yul\":6676:6680   */\n      0x00\n        /* \"#utility.yul\":6714:6716   */\n      0x20\n        /* \"#utility.yul\":6703:6712   */\n      dup3\n        /* \"#utility.yul\":6699:6717   */\n      add\n        /* \"#utility.yul\":6691:6717   */\n      swap1\n      pop\n        /* \"#utility.yul\":6727:6792   */\n      tag_249\n        /* \"#utility.yul\":6789:6790   */\n      0x00\n        /* \"#utility.yul\":6778:6787   */\n      dup4\n        /* \"#utility.yul\":6774:6791   */\n      add\n        /* \"#utility.yul\":6765:6771   */\n      dup5\n        /* \"#utility.yul\":6727:6792   */\n      tag_154\n      jump\t// in\n    tag_249:\n        /* \"#utility.yul\":6589:6799   */\n      swap3\n      swap2\n      pop\n      pop\n      jump\t// out\n        /* \"#utility.yul\":6805:6985   */\n    tag_155:\n        /* \"#utility.yul\":6853:6930   */\n      0x4e487b7100000000000000000000000000000000000000000000000000000000\n        /* \"#utility.yul\":6850:6851   */\n      0x00\n        /* \"#utility.yul\":6843:6931   */\n      mstore\n        /* \"#utility.yul\":6950:6954   */\n      0x22\n        /* \"#utility.yul\":6947:6948   */\n      0x04\n        /* \"#utility.yul\":6940:6955   */\n      mstore\n        /* \"#utility.yul\":6974:6978   */\n      0x24\n        /* \"#utility.yul\":6971:6972   */\n      0x00\n        /* \"#utility.yul\":6964:6979   */\n      revert\n        /* \"#utility.yul\":6991:7311   */\n    tag_74:\n        /* \"#utility.yul\":7035:7041   */\n      0x00\n        /* \"#utility.yul\":7072:7073   */\n      0x02\n        /* \"#utility.yul\":7066:7070   */\n      dup3\n        /* \"#utility.yul\":7062:7074   */\n      div\n        /* \"#utility.yul\":7052:7074   */\n      swap1\n      pop\n        /* \"#utility.yul\":7119:7120   */\n      0x01\n        /* \"#utility.yul\":7113:7117   */\n      dup3\n        /* \"#utility.yul\":7109:7121   */\n      and\n        /* \"#utility.yul\":7140:7158   */\n      dup1\n        /* \"#utility.yul\":7130:7211   */\n      tag_252\n      jumpi\n        /* \"#utility.yul\":7196:7200   */\n      0x7f\n        /* \"#utility.yul\":7188:7194   */\n      dup3\n        /* \"#utility.yul\":7184:7201   */\n      and\n        /* \"#utility.yul\":7174:7201   */\n      swap2\n      pop\n        /* \"#utility.yul\":7130:7211   */\n    tag_252:\n        /* \"#utility.yul\":7258:7260   */\n      0x20\n        /* \"#utility.yul\":7250:7256   */\n      dup3\n        /* \"#utility.yul\":7247:7261   */\n      lt\n        /* \"#utility.yul\":7227:7245   */\n      dup2\n        /* \"#utility.yul\":7224:7262   */\n      sub\n        /* \"#utility.yul\":7221:7305   */\n      tag_253\n      jumpi\n        /* \"#utility.yul\":7277:7295   */\n      tag_254\n      tag_155\n      jump\t// in\n    tag_254:\n        /* \"#utility.yul\":7221:7305   */\n    tag_253:\n        /* \"#utility.yul\":7042:7311   */\n      pop\n        /* \"#utility.yul\":6991:7311   */\n      swap2\n      swap1\n      pop\n      jump\t// out\n        /* \"#utility.yul\":7317:7482   */\n    tag_156:\n        /* \"#utility.yul\":7457:7474   */\n      0x496e636f7272656374204f776e65720000000000000000000000000000000000\n        /* \"#utility.yul\":7453:7454   */\n      0x00\n        /* \"#utility.yul\":7445:7451   */\n      dup3\n        /* \"#utility.yul\":7441:7455   */\n      add\n        /* \"#utility.yul\":7434:7475   */\n      mstore\n        /* \"#utility.yul\":7317:7482   */\n      pop\n      jump\t// out\n        /* \"#utility.yul\":7488:7854   */\n    tag_157:\n        /* \"#utility.yul\":7630:7633   */\n      0x00\n        /* \"#utility.yul\":7651:7718   */\n      tag_257\n        /* \"#utility.yul\":7715:7717   */\n      0x0f\n        /* \"#utility.yul\":7710:7713   */\n      dup4\n        /* \"#utility.yul\":7651:7718   */\n      tag_135\n      jump\t// in\n    tag_257:\n        /* \"#utility.yul\":7644:7718   */\n      swap2\n      pop\n        /* \"#utility.yul\":7727:7820   */\n      tag_258\n        /* \"#utility.yul\":7816:7819   */\n      dup3\n        /* \"#utility.yul\":7727:7820   */\n      tag_156\n      jump\t// in\n    tag_258:\n        /* \"#utility.yul\":7845:7847   */\n      0x20\n        /* \"#utility.yul\":7840:7843   */\n      dup3\n        /* \"#utility.yul\":7836:7848   */\n      add\n        /* \"#utility.yul\":7829:7848   */\n      swap1\n      pop\n        /* \"#utility.yul\":7488:7854   */\n      swap2\n      swap1\n      pop\n      jump\t// out\n        /* \"#utility.yul\":7860:8279   */\n    tag_83:\n        /* \"#utility.yul\":8026:8030   */\n      0x00\n        /* \"#utility.yul\":8064:8066   */\n      0x20\n        /* \"#utility.yul\":8053:8062   */\n      dup3\n        /* \"#utility.yul\":8049:8067   */\n      add\n        /* \"#utility.yul\":8041:8067   */\n      swap1\n      pop\n        /* \"#utility.yul\":8113:8122   */\n      dup2\n        /* \"#utility.yul\":8107:8111   */\n      dup2\n        /* \"#utility.yul\":8103:8123   */\n      sub\n        /* \"#utility.yul\":8099:8100   */\n      0x00\n        /* \"#utility.yul\":8088:8097   */\n      dup4\n        /* \"#utility.yul\":8084:8101   */\n      add\n        /* \"#utility.yul\":8077:8124   */\n      mstore\n        /* \"#utility.yul\":8141:8272   */\n      tag_260\n        /* \"#utility.yul\":8267:8271   */\n      dup2\n        /* \"#utility.yul\":8141:8272   */\n      tag_157\n      jump\t// in\n    tag_260:\n        /* \"#utility.yul\":8133:8272   */\n      swap1\n      pop\n        /* \"#utility.yul\":7860:8279   */\n      swap2\n      swap1\n      pop\n      jump\t// out\n        /* \"#utility.yul\":8285:8727   */\n    tag_85:\n        /* \"#utility.yul\":8434:8438   */\n      0x00\n        /* \"#utility.yul\":8472:8474   */\n      0x60\n        /* \"#utility.yul\":8461:8470   */\n      dup3\n        /* \"#utility.yul\":8457:8475   */\n      add\n        /* \"#utility.yul\":8449:8475   */\n      swap1\n      pop\n        /* \"#utility.yul\":8485:8556   */\n      tag_262\n        /* \"#utility.yul\":8553:8554   */\n      0x00\n        /* \"#utility.yul\":8542:8551   */\n      dup4\n        /* \"#utility.yul\":8538:8555   */\n      add\n        /* \"#utility.yul\":8529:8535   */\n      dup7\n        /* \"#utility.yul\":8485:8556   */\n      tag_147\n      jump\t// in\n    tag_262:\n        /* \"#utility.yul\":8566:8638   */\n      tag_263\n        /* \"#utility.yul\":8634:8636   */\n      0x20\n        /* \"#utility.yul\":8623:8632   */\n      dup4\n        /* \"#utility.yul\":8619:8637   */\n      add\n        /* \"#utility.yul\":8610:8616   */\n      dup6\n        /* \"#utility.yul\":8566:8638   */\n      tag_147\n      jump\t// in\n    tag_263:\n        /* \"#utility.yul\":8648:8720   */\n      tag_264\n        /* \"#utility.yul\":8716:8718   */\n      0x40\n        /* \"#utility.yul\":8705:8714   */\n      dup4\n        /* \"#utility.yul\":8701:8719   */\n      add\n        /* \"#utility.yul\":8692:8698   */\n      dup5\n        /* \"#utility.yul\":8648:8720   */\n      tag_153\n      jump\t// in\n    tag_264:\n        /* \"#utility.yul\":8285:8727   */\n      swap5\n      swap4\n      pop\n      pop\n      pop\n      pop\n      jump\t// out\n        /* \"#utility.yul\":8733:8892   */\n    tag_158:\n        /* \"#utility.yul\":8873:8884   */\n      0x4e6f74204f776e65720000000000000000000000000000000000000000000000\n        /* \"#utility.yul\":8869:8870   */\n      0x00\n        /* \"#utility.yul\":8861:8867   */\n      dup3\n        /* \"#utility.yul\":8857:8871   */\n      add\n        /* \"#utility.yul\":8850:8885   */\n      mstore\n        /* \"#utility.yul\":8733:8892   */\n      pop\n      jump\t// out\n        /* \"#utility.yul\":8898:9263   */\n    tag_159:\n        /* \"#utility.yul\":9040:9043   */\n      0x00\n        /* \"#utility.yul\":9061:9127   */\n      tag_267\n        /* \"#utility.yul\":9125:9126   */\n      0x09\n        /* \"#utility.yul\":9120:9123   */\n      dup4\n        /* \"#utility.yul\":9061:9127   */\n      tag_135\n      jump\t// in\n    tag_267:\n        /* \"#utility.yul\":9054:9127   */\n      swap2\n      pop\n        /* \"#utility.yul\":9136:9229   */\n      tag_268\n        /* \"#utility.yul\":9225:9228   */\n      dup3\n        /* \"#utility.yul\":9136:9229   */\n      tag_158\n      jump\t// in\n    tag_268:\n        /* \"#utility.yul\":9254:9256   */\n      0x20\n        /* \"#utility.yul\":9249:9252   */\n      dup3\n        /* \"#utility.yul\":9245:9257   */\n      add\n        /* \"#utility.yul\":9238:9257   */\n      swap1\n      pop\n        /* \"#utility.yul\":8898:9263   */\n      swap2\n      swap1\n      pop\n      jump\t// out\n        /* \"#utility.yul\":9269:9688   */\n    tag_89:\n        /* \"#utility.yul\":9435:9439   */\n      0x00\n        /* \"#utility.yul\":9473:9475   */\n      0x20\n        /* \"#utility.yul\":9462:9471   */\n      dup3\n        /* \"#utility.yul\":9458:9476   */\n      add\n        /* \"#utility.yul\":9450:9476   */\n      swap1\n      pop\n        /* \"#utility.yul\":9522:9531   */\n      dup2\n        /* \"#utility.yul\":9516:9520   */\n      dup2\n        /* \"#utility.yul\":9512:9532   */\n      sub\n        /* \"#utility.yul\":9508:9509   */\n      0x00\n        /* \"#utility.yul\":9497:9506   */\n      dup4\n        /* \"#utility.yul\":9493:9510   */\n      add\n        /* \"#utility.yul\":9486:9533   */\n      mstore\n        /* \"#utility.yul\":9550:9681   */\n      tag_270\n        /* \"#utility.yul\":9676:9680   */\n      dup2\n        /* \"#utility.yul\":9550:9681   */\n      tag_159\n      jump\t// in\n    tag_270:\n        /* \"#utility.yul\":9542:9681   */\n      swap1\n      pop\n        /* \"#utility.yul\":9269:9688   */\n      swap2\n      swap1\n      pop\n      jump\t// out\n        /* \"#utility.yul\":9694:9856   */\n    tag_160:\n        /* \"#utility.yul\":9834:9848   */\n      0x4e6f7420417070726f7665640000000000000000000000000000000000000000\n        /* \"#utility.yul\":9830:9831   */\n      0x00\n        /* \"#utility.yul\":9822:9828   */\n      dup3\n        /* \"#utility.yul\":9818:9832   */\n      add\n        /* \"#utility.yul\":9811:9849   */\n      mstore\n        /* \"#utility.yul\":9694:9856   */\n      pop\n      jump\t// out\n        /* \"#utility.yul\":9862:10228   */\n    tag_161:\n        /* \"#utility.yul\":10004:10007   */\n      0x00\n        /* \"#utility.yul\":10025:10092   */\n      tag_273\n        /* \"#utility.yul\":10089:10091   */\n      0x0c\n        /* \"#utility.yul\":10084:10087   */\n      dup4\n        /* \"#utility.yul\":10025:10092   */\n      tag_135\n      jump\t// in\n    tag_273:\n        /* \"#utility.yul\":10018:10092   */\n      swap2\n      pop\n        /* \"#utility.yul\":10101:10194   */\n      tag_274\n        /* \"#utility.yul\":10190:10193   */\n      dup3\n        /* \"#utility.yul\":10101:10194   */\n      tag_160\n      jump\t// in\n    tag_274:\n        /* \"#utility.yul\":10219:10221   */\n      0x20\n        /* \"#utility.yul\":10214:10217   */\n      dup3\n        /* \"#utility.yul\":10210:10222   */\n      add\n        /* \"#utility.yul\":10203:10222   */\n      swap1\n      pop\n        /* \"#utility.yul\":9862:10228   */\n      swap2\n      swap1\n      pop\n      jump\t// out\n        /* \"#utility.yul\":10234:10653   */\n    tag_93:\n        /* \"#utility.yul\":10400:10404   */\n      0x00\n        /* \"#utility.yul\":10438:10440   */\n      0x20\n        /* \"#utility.yul\":10427:10436   */\n      dup3\n        /* \"#utility.yul\":10423:10441   */\n      add\n        /* \"#utility.yul\":10415:10441   */\n      swap1\n      pop\n        /* \"#utility.yul\":10487:10496   */\n      dup2\n        /* \"#utility.yul\":10481:10485   */\n      dup2\n        /* \"#utility.yul\":10477:10497   */\n      sub\n        /* \"#utility.yul\":10473:10474   */\n      0x00\n        /* \"#utility.yul\":10462:10471   */\n      dup4\n        /* \"#utility.yul\":10458:10475   */\n      add\n        /* \"#utility.yul\":10451:10498   */\n      mstore\n        /* \"#utility.yul\":10515:10646   */\n      tag_276\n        /* \"#utility.yul\":10641:10645   */\n      dup2\n        /* \"#utility.yul\":10515:10646   */\n      tag_161\n      jump\t// in\n    tag_276:\n        /* \"#utility.yul\":10507:10646   */\n      swap1\n      pop\n        /* \"#utility.yul\":10234:10653   */\n      swap2\n      swap1\n      pop\n      jump\t// out\n        /* \"#utility.yul\":10659:10839   */\n    tag_162:\n        /* \"#utility.yul\":10707:10784   */\n      0x4e487b7100000000000000000000000000000000000000000000000000000000\n        /* \"#utility.yul\":10704:10705   */\n      0x00\n        /* \"#utility.yul\":10697:10785   */\n      mstore\n        /* \"#utility.yul\":10804:10808   */\n      0x11\n        /* \"#utility.yul\":10801:10802   */\n      0x04\n        /* \"#utility.yul\":10794:10809   */\n      mstore\n        /* \"#utility.yul\":10828:10832   */\n      0x24\n        /* \"#utility.yul\":10825:10826   */\n      0x00\n        /* \"#utility.yul\":10818:10833   */\n      revert\n        /* \"#utility.yul\":10845:11039   */\n    tag_98:\n        /* \"#utility.yul\":10885:10889   */\n      0x00\n        /* \"#utility.yul\":10905:10925   */\n      tag_279\n        /* \"#utility.yul\":10923:10924   */\n      dup3\n        /* \"#utility.yul\":10905:10925   */\n      tag_142\n      jump\t// in\n    tag_279:\n        /* \"#utility.yul\":10900:10925   */\n      swap2\n      pop\n        /* \"#utility.yul\":10939:10959   */\n      tag_280\n        /* \"#utility.yul\":10957:10958   */\n      dup4\n        /* \"#utility.yul\":10939:10959   */\n      tag_142\n      jump\t// in\n    tag_280:\n        /* \"#utility.yul\":10934:10959   */\n      swap3\n      pop\n        /* \"#utility.yul\":10983:10984   */\n      dup3\n        /* \"#utility.yul\":10980:10981   */\n      dup3\n        /* \"#utility.yul\":10976:10985   */\n      sub\n        /* \"#utility.yul\":10968:10985   */\n      swap1\n      pop\n        /* \"#utility.yul\":11007:11008   */\n      dup2\n        /* \"#utility.yul\":11001:11005   */\n      dup2\n        /* \"#utility.yul\":10998:11009   */\n      gt\n        /* \"#utility.yul\":10995:11032   */\n      iszero\n      tag_281\n      jumpi\n        /* \"#utility.yul\":11012:11030   */\n      tag_282\n      tag_162\n      jump\t// in\n    tag_282:\n        /* \"#utility.yul\":10995:11032   */\n    tag_281:\n        /* \"#utility.yul\":10845:11039   */\n      swap3\n      swap2\n      pop\n      pop\n      jump\t// out\n        /* \"#utility.yul\":11045:11236   */\n    tag_100:\n        /* \"#utility.yul\":11085:11088   */\n      0x00\n        /* \"#utility.yul\":11104:11124   */\n      tag_284\n        /* \"#utility.yul\":11122:11123   */\n      dup3\n        /* \"#utility.yul\":11104:11124   */\n      tag_142\n      jump\t// in\n    tag_284:\n        /* \"#utility.yul\":11099:11124   */\n      swap2\n      pop\n        /* \"#utility.yul\":11138:11158   */\n      tag_285\n        /* \"#utility.yul\":11156:11157   */\n      dup4\n        /* \"#utility.yul\":11138:11158   */\n      tag_142\n      jump\t// in\n    tag_285:\n        /* \"#utility.yul\":11133:11158   */\n      swap3\n      pop\n        /* \"#utility.yul\":11181:11182   */\n      dup3\n        /* \"#utility.yul\":11178:11179   */\n      dup3\n        /* \"#utility.yul\":11174:11183   */\n      add\n        /* \"#utility.yul\":11167:11183   */\n      swap1\n      pop\n        /* \"#utility.yul\":11202:11205   */\n      dup1\n        /* \"#utility.yul\":11199:11200   */\n      dup3\n        /* \"#utility.yul\":11196:11206   */\n      gt\n        /* \"#utility.yul\":11193:11229   */\n      iszero\n      tag_286\n      jumpi\n        /* \"#utility.yul\":11209:11227   */\n      tag_287\n      tag_162\n      jump\t// in\n    tag_287:\n        /* \"#utility.yul\":11193:11229   */\n    tag_286:\n        /* \"#utility.yul\":11045:11236   */\n      swap3\n      swap2\n      pop\n      pop\n      jump\t// out\n        /* \"#utility.yul\":11242:11672   */\n    tag_104:\n        /* \"#utility.yul\":11385:11389   */\n      0x00\n        /* \"#utility.yul\":11423:11425   */\n      0x60\n        /* \"#utility.yul\":11412:11421   */\n      dup3\n        /* \"#utility.yul\":11408:11426   */\n      add\n        /* \"#utility.yul\":11400:11426   */\n      swap1\n      pop\n        /* \"#utility.yul\":11436:11507   */\n      tag_289\n        /* \"#utility.yul\":11504:11505   */\n      0x00\n        /* \"#utility.yul\":11493:11502   */\n      dup4\n        /* \"#utility.yul\":11489:11506   */\n      add\n        /* \"#utility.yul\":11480:11486   */\n      dup7\n        /* \"#utility.yul\":11436:11507   */\n      tag_147\n      jump\t// in\n    tag_289:\n        /* \"#utility.yul\":11517:11589   */\n      tag_290\n        /* \"#utility.yul\":11585:11587   */\n      0x20\n        /* \"#utility.yul\":11574:11583   */\n      dup4\n        /* \"#utility.yul\":11570:11588   */\n      add\n        /* \"#utility.yul\":11561:11567   */\n      dup6\n        /* \"#utility.yul\":11517:11589   */\n      tag_147\n      jump\t// in\n    tag_290:\n        /* \"#utility.yul\":11599:11665   */\n      tag_291\n        /* \"#utility.yul\":11661:11663   */\n      0x40\n        /* \"#utility.yul\":11650:11659   */\n      dup4\n        /* \"#utility.yul\":11646:11664   */\n      add\n        /* \"#utility.yul\":11637:11643   */\n      dup5\n        /* \"#utility.yul\":11599:11665   */\n      tag_154\n      jump\t// in\n    tag_291:\n        /* \"#utility.yul\":11242:11672   */\n      swap5\n      swap4\n      pop\n      pop\n      pop\n      pop\n      jump\t// out\n        /* \"#utility.yul\":11678:11772   */\n    tag_163:\n        /* \"#utility.yul\":11711:11719   */\n      0x00\n        /* \"#utility.yul\":11759:11764   */\n      dup2\n        /* \"#utility.yul\":11755:11757   */\n      0x60\n        /* \"#utility.yul\":11751:11765   */\n      shl\n        /* \"#utility.yul\":11730:11765   */\n      swap1\n      pop\n        /* \"#utility.yul\":11678:11772   */\n      swap2\n      swap1\n      pop\n      jump\t// out\n        /* \"#utility.yul\":11778:11872   */\n    tag_164:\n        /* \"#utility.yul\":11817:11824   */\n      0x00\n        /* \"#utility.yul\":11846:11866   */\n      tag_294\n        /* \"#utility.yul\":11860:11865   */\n      dup3\n        /* \"#utility.yul\":11846:11866   */\n      tag_163\n      jump\t// in\n    tag_294:\n        /* \"#utility.yul\":11835:11866   */\n      swap1\n      pop\n        /* \"#utility.yul\":11778:11872   */\n      swap2\n      swap1\n      pop\n      jump\t// out\n        /* \"#utility.yul\":11878:11978   */\n    tag_165:\n        /* \"#utility.yul\":11917:11924   */\n      0x00\n        /* \"#utility.yul\":11946:11972   */\n      tag_296\n        /* \"#utility.yul\":11966:11971   */\n      dup3\n        /* \"#utility.yul\":11946:11972   */\n      tag_164\n      jump\t// in\n    tag_296:\n        /* \"#utility.yul\":11935:11972   */\n      swap1\n      pop\n        /* \"#utility.yul\":11878:11978   */\n      swap2\n      swap1\n      pop\n      jump\t// out\n        /* \"#utility.yul\":11984:12141   */\n    tag_166:\n        /* \"#utility.yul\":12089:12134   */\n      tag_298\n        /* \"#utility.yul\":12109:12133   */\n      tag_299\n        /* \"#utility.yul\":12127:12132   */\n      dup3\n        /* \"#utility.yul\":12109:12133   */\n      tag_146\n      jump\t// in\n    tag_299:\n        /* \"#utility.yul\":12089:12134   */\n      tag_165\n      jump\t// in\n    tag_298:\n        /* \"#utility.yul\":12084:12087   */\n      dup3\n        /* \"#utility.yul\":12077:12135   */\n      mstore\n        /* \"#utility.yul\":11984:12141   */\n      pop\n      pop\n      jump\t// out\n        /* \"#utility.yul\":12147:12226   */\n    tag_167:\n        /* \"#utility.yul\":12186:12193   */\n      0x00\n        /* \"#utility.yul\":12215:12220   */\n      dup2\n        /* \"#utility.yul\":12204:12220   */\n      swap1\n      pop\n        /* \"#utility.yul\":12147:12226   */\n      swap2\n      swap1\n      pop\n      jump\t// out\n        /* \"#utility.yul\":12232:12389   */\n    tag_168:\n        /* \"#utility.yul\":12337:12382   */\n      tag_302\n        /* \"#utility.yul\":12357:12381   */\n      tag_303\n        /* \"#utility.yul\":12375:12380   */\n      dup3\n        /* \"#utility.yul\":12357:12381   */\n      tag_142\n      jump\t// in\n    tag_303:\n        /* \"#utility.yul\":12337:12382   */\n      tag_167\n      jump\t// in\n    tag_302:\n        /* \"#utility.yul\":12332:12335   */\n      dup3\n        /* \"#utility.yul\":12325:12383   */\n      mstore\n        /* \"#utility.yul\":12232:12389   */\n      pop\n      pop\n      jump\t// out\n        /* \"#utility.yul\":12395:12933   */\n    tag_131:\n        /* \"#utility.yul\":12563:12566   */\n      0x00\n        /* \"#utility.yul\":12578:12653   */\n      tag_305\n        /* \"#utility.yul\":12649:12652   */\n      dup3\n        /* \"#utility.yul\":12640:12646   */\n      dup7\n        /* \"#utility.yul\":12578:12653   */\n      tag_166\n      jump\t// in\n    tag_305:\n        /* \"#utility.yul\":12678:12680   */\n      0x14\n        /* \"#utility.yul\":12673:12676   */\n      dup3\n        /* \"#utility.yul\":12669:12681   */\n      add\n        /* \"#utility.yul\":12662:12681   */\n      swap2\n      pop\n        /* \"#utility.yul\":12691:12766   */\n      tag_306\n        /* \"#utility.yul\":12762:12765   */\n      dup3\n        /* \"#utility.yul\":12753:12759   */\n      dup6\n        /* \"#utility.yul\":12691:12766   */\n      tag_168\n      jump\t// in\n    tag_306:\n        /* \"#utility.yul\":12791:12793   */\n      0x20\n        /* \"#utility.yul\":12786:12789   */\n      dup3\n        /* \"#utility.yul\":12782:12794   */\n      add\n        /* \"#utility.yul\":12775:12794   */\n      swap2\n      pop\n        /* \"#utility.yul\":12804:12879   */\n      tag_307\n        /* \"#utility.yul\":12875:12878   */\n      dup3\n        /* \"#utility.yul\":12866:12872   */\n      dup5\n        /* \"#utility.yul\":12804:12879   */\n      tag_168\n      jump\t// in\n    tag_307:\n        /* \"#utility.yul\":12904:12906   */\n      0x20\n        /* \"#utility.yul\":12899:12902   */\n      dup3\n        /* \"#utility.yul\":12895:12907   */\n      add\n        /* \"#utility.yul\":12888:12907   */\n      swap2\n      pop\n        /* \"#utility.yul\":12924:12927   */\n      dup2\n        /* \"#utility.yul\":12917:12927   */\n      swap1\n      pop\n        /* \"#utility.yul\":12395:12933   */\n      swap5\n      swap4\n      pop\n      pop\n      pop\n      pop\n      jump\t// out\n        /* \"#utility.yul\":12939:13119   */\n    tag_169:\n        /* \"#utility.yul\":12987:13064   */\n      0x4e487b7100000000000000000000000000000000000000000000000000000000\n        /* \"#utility.yul\":12984:12985   */\n      0x00\n        /* \"#utility.yul\":12977:13065   */\n      mstore\n        /* \"#utility.yul\":13084:13088   */\n      0x12\n        /* \"#utility.yul\":13081:13082   */\n      0x04\n        /* \"#utility.yul\":13074:13089   */\n      mstore\n        /* \"#utility.yul\":13108:13112   */\n      0x24\n        /* \"#utility.yul\":13105:13106   */\n      0x00\n        /* \"#utility.yul\":13098:13113   */\n      revert\n        /* \"#utility.yul\":13125:13301   */\n    tag_133:\n        /* \"#utility.yul\":13157:13158   */\n      0x00\n        /* \"#utility.yul\":13174:13194   */\n      tag_310\n        /* \"#utility.yul\":13192:13193   */\n      dup3\n        /* \"#utility.yul\":13174:13194   */\n      tag_142\n      jump\t// in\n    tag_310:\n        /* \"#utility.yul\":13169:13194   */\n      swap2\n      pop\n        /* \"#utility.yul\":13208:13228   */\n      tag_311\n        /* \"#utility.yul\":13226:13227   */\n      dup4\n        /* \"#utility.yul\":13208:13228   */\n      tag_142\n      jump\t// in\n    tag_311:\n        /* \"#utility.yul\":13203:13228   */\n      swap3\n      pop\n        /* \"#utility.yul\":13247:13248   */\n      dup3\n        /* \"#utility.yul\":13237:13272   */\n      tag_312\n      jumpi\n        /* \"#utility.yul\":13252:13270   */\n      tag_313\n      tag_169\n      jump\t// in\n    tag_313:\n        /* \"#utility.yul\":13237:13272   */\n    tag_312:\n        /* \"#utility.yul\":13293:13294   */\n      dup3\n        /* \"#utility.yul\":13290:13291   */\n      dup3\n        /* \"#utility.yul\":13286:13295   */\n      mod\n        /* \"#utility.yul\":13281:13295   */\n      swap1\n      pop\n        /* \"#utility.yul\":13125:13301   */\n      swap3\n      swap2\n      pop\n      pop\n      jump\t// out\n\n    auxdata: 0xa26469706673582212206fafda5ef58c27914c9aef6be7c043fa7a48afe7a559191ec725bb5871334ad164736f6c63430008120033\n}\n",
				"bytecode": {
					"linkReferences": {},
					"object": "60806040526127106007553480156200001757600080fd5b5060405162001c1e38038062001c1e83398181016040528101906200003d9190620001fc565b81600090816200004e9190620004cc565b508060019081620000609190620004cc565b505050620005b3565b6000604051905090565b600080fd5b600080fd5b600080fd5b600080fd5b6000601f19601f8301169050919050565b7f4e487b7100000000000000000000000000000000000000000000000000000000600052604160045260246000fd5b620000d28262000087565b810181811067ffffffffffffffff82111715620000f457620000f362000098565b5b80604052505050565b60006200010962000069565b9050620001178282620000c7565b919050565b600067ffffffffffffffff8211156200013a576200013962000098565b5b620001458262000087565b9050602081019050919050565b60005b838110156200017257808201518184015260208101905062000155565b60008484015250505050565b6000620001956200018f846200011c565b620000fd565b905082815260208101848484011115620001b457620001b362000082565b5b620001c184828562000152565b509392505050565b600082601f830112620001e157620001e06200007d565b5b8151620001f38482602086016200017e565b91505092915050565b6000806040838503121562000216576200021562000073565b5b600083015167ffffffffffffffff81111562000237576200023662000078565b5b6200024585828601620001c9565b925050602083015167ffffffffffffffff81111562000269576200026862000078565b5b6200027785828601620001c9565b9150509250929050565b600081519050919050565b7f4e487b7100000000000000000000000000000000000000000000000000000000600052602260045260246000fd5b60006002820490506001821680620002d457607f821691505b602082108103620002ea57620002e96200028c565b5b50919050565b60008190508160005260206000209050919050565b60006020601f8301049050919050565b600082821b905092915050565b600060088302620003547fffffffffffffffffffffffffffffffffffffffffffffffffffffffffffffffff8262000315565b62000360868362000315565b95508019841693508086168417925050509392505050565b6000819050919050565b6000819050919050565b6000620003ad620003a7620003a18462000378565b62000382565b62000378565b9050919050565b6000819050919050565b620003c9836200038c565b620003e1620003d882620003b4565b84845462000322565b825550505050565b600090565b620003f8620003e9565b62000405818484620003be565b505050565b5b818110156200042d5762000421600082620003ee565b6001810190506200040b565b5050565b601f8211156200047c576200044681620002f0565b620004518462000305565b8101602085101562000461578190505b62000479620004708562000305565b8301826200040a565b50505b505050565b600082821c905092915050565b6000620004a16000198460080262000481565b1980831691505092915050565b6000620004bc83836200048e565b9150826002028217905092915050565b620004d78262000281565b67ffffffffffffffff811115620004f357620004f262000098565b5b620004ff8254620002bb565b6200050c82828562000431565b600060209050601f8311600181146200054457600084156200052f578287015190505b6200053b8582620004ae565b865550620005ab565b601f1984166200055486620002f0565b60005b828110156200057e5784890151825560018201915060208501945060208101905062000557565b868310156200059e57848901516200059a601f8916826200048e565b8355505b6001600288020188555050505b505050505050565b61165b80620005c36000396000f3fe608060405234801561001057600080fd5b50600436106100cf5760003560e01c806342966c681161008c57806395d89b411161006657806395d89b411461020e578063a9059cbb1461022c578063c87b56dd14610248578063e985e9c514610278576100cf565b806342966c68146101925780636352211e146101ae57806370a08231146101de576100cf565b806306fdde03146100d4578063081812fc146100f2578063095ea7b31461012257806323b872dd1461013e578063367605ca1461015a57806340c10f1914610176575b600080fd5b6100dc6102a8565b6040516100e99190610f85565b60405180910390f35b61010c60048036038101906101079190610fe2565b61033a565b6040516101199190611050565b60405180910390f35b61013c60048036038101906101379190611097565b610377565b005b610158600480360381019061015391906110d7565b6104dc565b005b610174600480360381019061016f9190611162565b6107b8565b005b610190600480360381019061018b9190611097565b61088c565b005b6101ac60048036038101906101a79190610fe2565b610997565b005b6101c860048036038101906101c39190610fe2565b610ad2565b6040516101d59190611050565b60405180910390f35b6101f860048036038101906101f391906111b5565b610b0f565b60405161020591906111f1565b60405180910390f35b610216610b58565b6040516102239190610f85565b60405180910390f35b61024660048036038101906102419190611097565b610bea565b005b610262600480360381019061025d9190610fe2565b610e00565b60405161026f91906111f1565b60405180910390f35b610292600480360381019061028d919061120c565b610e1d565b60405161029f919061125b565b60405180910390f35b6060600080546102b7906112a5565b80601f01602080910402602001604051908101604052809291908181526020018280546102e3906112a5565b80156103305780601f1061030557610100808354040283529160200191610330565b820191906000526020600020905b81548152906001019060200180831161031357829003601f168201915b5050505050905090565b60006005600083815260200190815260200160002060009054906101000a900473ffffffffffffffffffffffffffffffffffffffff169050919050565b6003600082815260200190815260200160002060009054906101000a900473ffffffffffffffffffffffffffffffffffffffff1673ffffffffffffffffffffffffffffffffffffffff163373ffffffffffffffffffffffffffffffffffffffff1614610418576040517f08c379a000000000000000000000000000000000000000000000000000000000815260040161040f90611322565b60405180910390fd5b816005600083815260200190815260200160002060006101000a81548173ffffffffffffffffffffffffffffffffffffffff021916908373ffffffffffffffffffffffffffffffffffffffff1602179055507f8c5be1e5ebec7d5bd14f71427d1e84f3dd0314c0f7b2291e5b200ac8c7c3b9256003600083815260200190815260200160002060009054906101000a900473ffffffffffffffffffffffffffffffffffffffff1683836040516104d093929190611342565b60405180910390a15050565b60006003600083815260200190815260200160002060009054906101000a900473ffffffffffffffffffffffffffffffffffffffff1690508073ffffffffffffffffffffffffffffffffffffffff163373ffffffffffffffffffffffffffffffffffffffff1614610582576040517f08c379a0000000000000000000000000000000000000000000000000000000008152600401610579906113c5565b60405180910390fd5b61058c8133610e1d565b6105cb576040517f08c379a00000000000000000000000000000000000000000000000000000000081526004016105c290611431565b60405180910390fd5b3373ffffffffffffffffffffffffffffffffffffffff166105eb8361033a565b73ffffffffffffffffffffffffffffffffffffffff1614610641576040517f08c379a000000000000000000000000000000000000000000000000000000000815260040161063890611431565b60405180910390fd5b6005600083815260200190815260200160002060006101000a81549073ffffffffffffffffffffffffffffffffffffffff02191690556001600460008673ffffffffffffffffffffffffffffffffffffffff1673ffffffffffffffffffffffffffffffffffffffff16815260200190815260200160002060008282546106c79190611480565b925050819055506001600460008573ffffffffffffffffffffffffffffffffffffffff1673ffffffffffffffffffffffffffffffffffffffff168152602001908152602001600020600082825461071e91906114b4565b92505081905550826003600084815260200190815260200160002060006101000a81548173ffffffffffffffffffffffffffffffffffffffff021916908373ffffffffffffffffffffffffffffffffffffffff1602179055507fddf252ad1be2c89b69c2b068fc378daa952ba7f163c4a11628f55a4df523b3ef8484846040516107aa93929190611342565b60405180910390a150505050565b80600660008573ffffffffffffffffffffffffffffffffffffffff1673ffffffffffffffffffffffffffffffffffffffff16815260200190815260200160002060008473ffffffffffffffffffffffffffffffffffffffff1673ffffffffffffffffffffffffffffffffffffffff16815260200190815260200160002060006101000a81548160ff0219169083151502179055507f17307eab39ab6107e8899845ad3d59bd9653f200f220920489ca2b5937696c3183838360405161087f939291906114e8565b60405180910390a1505050565b6001600460008473ffffffffffffffffffffffffffffffffffffffff1673ffffffffffffffffffffffffffffffffffffffff16815260200190815260200160002060008282546108dc91906114b4565b92505081905550816003600083815260200190815260200160002060006101000a81548173ffffffffffffffffffffffffffffffffffffffff021916908373ffffffffffffffffffffffffffffffffffffffff160217905550610940600754610eb1565b60026000838152602001908152602001600020819055507fddf252ad1be2c89b69c2b068fc378daa952ba7f163c4a11628f55a4df523b3ef6000838360405161098b93929190611342565b60405180910390a15050565b60006003600083815260200190815260200160002060009054906101000a900473ffffffffffffffffffffffffffffffffffffffff1690506005600083815260200190815260200160002060006101000a81549073ffffffffffffffffffffffffffffffffffffffff02191690556001600460008373ffffffffffffffffffffffffffffffffffffffff1673ffffffffffffffffffffffffffffffffffffffff1681526020019081526020016000206000828254610a559190611480565b925050819055506003600083815260200190815260200160002060006101000a81549073ffffffffffffffffffffffffffffffffffffffff02191690557fddf252ad1be2c89b69c2b068fc378daa952ba7f163c4a11628f55a4df523b3ef81600084604051610ac693929190611342565b60405180910390a15050565b60006003600083815260200190815260200160002060009054906101000a900473ffffffffffffffffffffffffffffffffffffffff169050919050565b6000600460008373ffffffffffffffffffffffffffffffffffffffff1673ffffffffffffffffffffffffffffffffffffffff168152602001908152602001600020549050919050565b606060018054610b67906112a5565b80601f0160208091040260200160405190810160405280929190818152602001828054610b93906112a5565b8015610be05780601f10610bb557610100808354040283529160200191610be0565b820191906000526020600020905b815481529060010190602001808311610bc357829003601f168201915b5050505050905090565b3373ffffffffffffffffffffffffffffffffffffffff166003600083815260200190815260200160002060009054906101000a900473ffffffffffffffffffffffffffffffffffffffff1673ffffffffffffffffffffffffffffffffffffffff1614610c8b576040517f08c379a0000000000000000000000000000000000000000000000000000000008152600401610c8290611322565b60405180910390fd5b6005600082815260200190815260200160002060006101000a81549073ffffffffffffffffffffffffffffffffffffffff02191690556001600460003373ffffffffffffffffffffffffffffffffffffffff1673ffffffffffffffffffffffffffffffffffffffff1681526020019081526020016000206000828254610d119190611480565b925050819055506001600460008473ffffffffffffffffffffffffffffffffffffffff1673ffffffffffffffffffffffffffffffffffffffff1681526020019081526020016000206000828254610d6891906114b4565b92505081905550816003600083815260200190815260200160002060006101000a81548173ffffffffffffffffffffffffffffffffffffffff021916908373ffffffffffffffffffffffffffffffffffffffff1602179055507fddf252ad1be2c89b69c2b068fc378daa952ba7f163c4a11628f55a4df523b3ef338383604051610df493929190611342565b60405180910390a15050565b600060026000838152602001908152602001600020549050919050565b6000600660008473ffffffffffffffffffffffffffffffffffffffff1673ffffffffffffffffffffffffffffffffffffffff16815260200190815260200160002060008373ffffffffffffffffffffffffffffffffffffffff1673ffffffffffffffffffffffffffffffffffffffff16815260200190815260200160002060009054906101000a900460ff16905092915050565b6000813342600754604051602001610ecb93929190611588565b6040516020818303038152906040528051906020012060001c610eee91906115f4565b9050919050565b600081519050919050565b600082825260208201905092915050565b60005b83811015610f2f578082015181840152602081019050610f14565b60008484015250505050565b6000601f19601f8301169050919050565b6000610f5782610ef5565b610f618185610f00565b9350610f71818560208601610f11565b610f7a81610f3b565b840191505092915050565b60006020820190508181036000830152610f9f8184610f4c565b905092915050565b600080fd5b6000819050919050565b610fbf81610fac565b8114610fca57600080fd5b50565b600081359050610fdc81610fb6565b92915050565b600060208284031215610ff857610ff7610fa7565b5b600061100684828501610fcd565b91505092915050565b600073ffffffffffffffffffffffffffffffffffffffff82169050919050565b600061103a8261100f565b9050919050565b61104a8161102f565b82525050565b60006020820190506110656000830184611041565b92915050565b6110748161102f565b811461107f57600080fd5b50565b6000813590506110918161106b565b92915050565b600080604083850312156110ae576110ad610fa7565b5b60006110bc85828601611082565b92505060206110cd85828601610fcd565b9150509250929050565b6000806000606084860312156110f0576110ef610fa7565b5b60006110fe86828701611082565b935050602061110f86828701611082565b925050604061112086828701610fcd565b9150509250925092565b60008115159050919050565b61113f8161112a565b811461114a57600080fd5b50565b60008135905061115c81611136565b92915050565b60008060006060848603121561117b5761117a610fa7565b5b600061118986828701611082565b935050602061119a86828701611082565b92505060406111ab8682870161114d565b9150509250925092565b6000602082840312156111cb576111ca610fa7565b5b60006111d984828501611082565b91505092915050565b6111eb81610fac565b82525050565b600060208201905061120660008301846111e2565b92915050565b6000806040838503121561122357611222610fa7565b5b600061123185828601611082565b925050602061124285828601611082565b9150509250929050565b6112558161112a565b82525050565b6000602082019050611270600083018461124c565b92915050565b7f4e487b7100000000000000000000000000000000000000000000000000000000600052602260045260246000fd5b600060028204905060018216806112bd57607f821691505b6020821081036112d0576112cf611276565b5b50919050565b7f496e636f7272656374204f776e65720000000000000000000000000000000000600082015250565b600061130c600f83610f00565b9150611317826112d6565b602082019050919050565b6000602082019050818103600083015261133b816112ff565b9050919050565b60006060820190506113576000830186611041565b6113646020830185611041565b61137160408301846111e2565b949350505050565b7f4e6f74204f776e65720000000000000000000000000000000000000000000000600082015250565b60006113af600983610f00565b91506113ba82611379565b602082019050919050565b600060208201905081810360008301526113de816113a2565b9050919050565b7f4e6f7420417070726f7665640000000000000000000000000000000000000000600082015250565b600061141b600c83610f00565b9150611426826113e5565b602082019050919050565b6000602082019050818103600083015261144a8161140e565b9050919050565b7f4e487b7100000000000000000000000000000000000000000000000000000000600052601160045260246000fd5b600061148b82610fac565b915061149683610fac565b92508282039050818111156114ae576114ad611451565b5b92915050565b60006114bf82610fac565b91506114ca83610fac565b92508282019050808211156114e2576114e1611451565b5b92915050565b60006060820190506114fd6000830186611041565b61150a6020830185611041565b611517604083018461124c565b949350505050565b60008160601b9050919050565b60006115378261151f565b9050919050565b60006115498261152c565b9050919050565b61156161155c8261102f565b61153e565b82525050565b6000819050919050565b61158261157d82610fac565b611567565b82525050565b60006115948286611550565b6014820191506115a48285611571565b6020820191506115b48284611571565b602082019150819050949350505050565b7f4e487b7100000000000000000000000000000000000000000000000000000000600052601260045260246000fd5b60006115ff82610fac565b915061160a83610fac565b92508261161a576116196115c5565b5b82820690509291505056fea26469706673582212206fafda5ef58c27914c9aef6be7c043fa7a48afe7a559191ec725bb5871334ad164736f6c63430008120033",
					"opcodes": "PUSH1 0x80 PUSH1 0x40 MSTORE PUSH2 0x2710 PUSH1 0x7 SSTORE CALLVALUE DUP1 ISZERO PUSH3 0x17 JUMPI PUSH1 0x0 DUP1 REVERT JUMPDEST POP PUSH1 0x40 MLOAD PUSH3 0x1C1E CODESIZE SUB DUP1 PUSH3 0x1C1E DUP4 CODECOPY DUP2 DUP2 ADD PUSH1 0x40 MSTORE DUP2 ADD SWAP1 PUSH3 0x3D SWAP2 SWAP1 PUSH3 0x1FC JUMP JUMPDEST DUP2 PUSH1 0x0 SWAP1 DUP2 PUSH3 0x4E SWAP2 SWAP1 PUSH3 0x4CC JUMP JUMPDEST POP DUP1 PUSH1 0x1 SWAP1 DUP2 PUSH3 0x60 SWAP2 SWAP1 PUSH3 0x4CC JUMP JUMPDEST POP POP POP PUSH3 0x5B3 JUMP JUMPDEST PUSH1 0x0 PUSH1 0x40 MLOAD SWAP1 POP SWAP1 JUMP JUMPDEST PUSH1 0x0 DUP1 REVERT JUMPDEST PUSH1 0x0 DUP1 REVERT JUMPDEST PUSH1 0x0 DUP1 REVERT JUMPDEST PUSH1 0x0 DUP1 REVERT JUMPDEST PUSH1 0x0 PUSH1 0x1F NOT PUSH1 0x1F DUP4 ADD AND SWAP1 POP SWAP2 SWAP1 POP JUMP JUMPDEST PUSH32 0x4E487B7100000000000000000000000000000000000000000000000000000000 PUSH1 0x0 MSTORE PUSH1 0x41 PUSH1 0x4 MSTORE PUSH1 0x24 PUSH1 0x0 REVERT JUMPDEST PUSH3 0xD2 DUP3 PUSH3 0x87 JUMP JUMPDEST DUP2 ADD DUP2 DUP2 LT PUSH8 0xFFFFFFFFFFFFFFFF DUP3 GT OR ISZERO PUSH3 0xF4 JUMPI PUSH3 0xF3 PUSH3 0x98 JUMP JUMPDEST JUMPDEST DUP1 PUSH1 0x40 MSTORE POP POP POP JUMP JUMPDEST PUSH1 0x0 PUSH3 0x109 PUSH3 0x69 JUMP JUMPDEST SWAP1 POP PUSH3 0x117 DUP3 DUP3 PUSH3 0xC7 JUMP JUMPDEST SWAP2 SWAP1 POP JUMP JUMPDEST PUSH1 0x0 PUSH8 0xFFFFFFFFFFFFFFFF DUP3 GT ISZERO PUSH3 0x13A JUMPI PUSH3 0x139 PUSH3 0x98 JUMP JUMPDEST JUMPDEST PUSH3 0x145 DUP3 PUSH3 0x87 JUMP JUMPDEST SWAP1 POP PUSH1 0x20 DUP2 ADD SWAP1 POP SWAP2 SWAP1 POP JUMP JUMPDEST PUSH1 0x0 JUMPDEST DUP4 DUP2 LT ISZERO PUSH3 0x172 JUMPI DUP1 DUP3 ADD MLOAD DUP2 DUP5 ADD MSTORE PUSH1 0x20 DUP2 ADD SWAP1 POP PUSH3 0x155 JUMP JUMPDEST PUSH1 0x0 DUP5 DUP5 ADD MSTORE POP POP POP POP JUMP JUMPDEST PUSH1 0x0 PUSH3 0x195 PUSH3 0x18F DUP5 PUSH3 0x11C JUMP JUMPDEST PUSH3 0xFD JUMP JUMPDEST SWAP1 POP DUP3 DUP2 MSTORE PUSH1 0x20 DUP2 ADD DUP5 DUP5 DUP5 ADD GT ISZERO PUSH3 0x1B4 JUMPI PUSH3 0x1B3 PUSH3 0x82 JUMP JUMPDEST JUMPDEST PUSH3 0x1C1 DUP5 DUP3 DUP6 PUSH3 0x152 JUMP JUMPDEST POP SWAP4 SWAP3 POP POP POP JUMP JUMPDEST PUSH1 0x0 DUP3 PUSH1 0x1F DUP4 ADD SLT PUSH3 0x1E1 JUMPI PUSH3 0x1E0 PUSH3 0x7D JUMP JUMPDEST JUMPDEST DUP2 MLOAD PUSH3 0x1F3 DUP5 DUP3 PUSH1 0x20 DUP7 ADD PUSH3 0x17E JUMP JUMPDEST SWAP2 POP POP SWAP3 SWAP2 POP POP JUMP JUMPDEST PUSH1 0x0 DUP1 PUSH1 0x40 DUP4 DUP6 SUB SLT ISZERO PUSH3 0x216 JUMPI PUSH3 0x215 PUSH3 0x73 JUMP JUMPDEST JUMPDEST PUSH1 0x0 DUP4 ADD MLOAD PUSH8 0xFFFFFFFFFFFFFFFF DUP2 GT ISZERO PUSH3 0x237 JUMPI PUSH3 0x236 PUSH3 0x78 JUMP JUMPDEST JUMPDEST PUSH3 0x245 DUP6 DUP3 DUP7 ADD PUSH3 0x1C9 JUMP JUMPDEST SWAP3 POP POP PUSH1 0x20 DUP4 ADD MLOAD PUSH8 0xFFFFFFFFFFFFFFFF DUP2 GT ISZERO PUSH3 0x269 JUMPI PUSH3 0x268 PUSH3 0x78 JUMP JUMPDEST JUMPDEST PUSH3 0x277 DUP6 DUP3 DUP7 ADD PUSH3 0x1C9 JUMP JUMPDEST SWAP2 POP POP SWAP3 POP SWAP3 SWAP1 POP JUMP JUMPDEST PUSH1 0x0 DUP2 MLOAD SWAP1 POP SWAP2 SWAP1 POP JUMP JUMPDEST PUSH32 0x4E487B7100000000000000000000000000000000000000000000000000000000 PUSH1 0x0 MSTORE PUSH1 0x22 PUSH1 0x4 MSTORE PUSH1 0x24 PUSH1 0x0 REVERT JUMPDEST PUSH1 0x0 PUSH1 0x2 DUP3 DIV SWAP1 POP PUSH1 0x1 DUP3 AND DUP1 PUSH3 0x2D4 JUMPI PUSH1 0x7F DUP3 AND SWAP2 POP JUMPDEST PUSH1 0x20 DUP3 LT DUP2 SUB PUSH3 0x2EA JUMPI PUSH3 0x2E9 PUSH3 0x28C JUMP JUMPDEST JUMPDEST POP SWAP2 SWAP1 POP JUMP JUMPDEST PUSH1 0x0 DUP2 SWAP1 POP DUP2 PUSH1 0x0 MSTORE PUSH1 0x20 PUSH1 0x0 KECCAK256 SWAP1 POP SWAP2 SWAP1 POP JUMP JUMPDEST PUSH1 0x0 PUSH1 0x20 PUSH1 0x1F DUP4 ADD DIV SWAP1 POP SWAP2 SWAP1 POP JUMP JUMPDEST PUSH1 0x0 DUP3 DUP3 SHL SWAP1 POP SWAP3 SWAP2 POP POP JUMP JUMPDEST PUSH1 0x0 PUSH1 0x8 DUP4 MUL PUSH3 0x354 PUSH32 0xFFFFFFFFFFFFFFFFFFFFFFFFFFFFFFFFFFFFFFFFFFFFFFFFFFFFFFFFFFFFFFFF DUP3 PUSH3 0x315 JUMP JUMPDEST PUSH3 0x360 DUP7 DUP4 PUSH3 0x315 JUMP JUMPDEST SWAP6 POP DUP1 NOT DUP5 AND SWAP4 POP DUP1 DUP7 AND DUP5 OR SWAP3 POP POP POP SWAP4 SWAP3 POP POP POP JUMP JUMPDEST PUSH1 0x0 DUP2 SWAP1 POP SWAP2 SWAP1 POP JUMP JUMPDEST PUSH1 0x0 DUP2 SWAP1 POP SWAP2 SWAP1 POP JUMP JUMPDEST PUSH1 0x0 PUSH3 0x3AD PUSH3 0x3A7 PUSH3 0x3A1 DUP5 PUSH3 0x378 JUMP JUMPDEST PUSH3 0x382 JUMP JUMPDEST PUSH3 0x378 JUMP JUMPDEST SWAP1 POP SWAP2 SWAP1 POP JUMP JUMPDEST PUSH1 0x0 DUP2 SWAP1 POP SWAP2 SWAP1 POP JUMP JUMPDEST PUSH3 0x3C9 DUP4 PUSH3 0x38C JUMP JUMPDEST PUSH3 0x3E1 PUSH3 0x3D8 DUP3 PUSH3 0x3B4 JUMP JUMPDEST DUP5 DUP5 SLOAD PUSH3 0x322 JUMP JUMPDEST DUP3 SSTORE POP POP POP POP JUMP JUMPDEST PUSH1 0x0 SWAP1 JUMP JUMPDEST PUSH3 0x3F8 PUSH3 0x3E9 JUMP JUMPDEST PUSH3 0x405 DUP2 DUP5 DUP5 PUSH3 0x3BE JUMP JUMPDEST POP POP POP JUMP JUMPDEST JUMPDEST DUP2 DUP2 LT ISZERO PUSH3 0x42D JUMPI PUSH3 0x421 PUSH1 0x0 DUP3 PUSH3 0x3EE JUMP JUMPDEST PUSH1 0x1 DUP2 ADD SWAP1 POP PUSH3 0x40B JUMP JUMPDEST POP POP JUMP JUMPDEST PUSH1 0x1F DUP3 GT ISZERO PUSH3 0x47C JUMPI PUSH3 0x446 DUP2 PUSH3 0x2F0 JUMP JUMPDEST PUSH3 0x451 DUP5 PUSH3 0x305 JUMP JUMPDEST DUP2 ADD PUSH1 0x20 DUP6 LT ISZERO PUSH3 0x461 JUMPI DUP2 SWAP1 POP JUMPDEST PUSH3 0x479 PUSH3 0x470 DUP6 PUSH3 0x305 JUMP JUMPDEST DUP4 ADD DUP3 PUSH3 0x40A JUMP JUMPDEST POP POP JUMPDEST POP POP POP JUMP JUMPDEST PUSH1 0x0 DUP3 DUP3 SHR SWAP1 POP SWAP3 SWAP2 POP POP JUMP JUMPDEST PUSH1 0x0 PUSH3 0x4A1 PUSH1 0x0 NOT DUP5 PUSH1 0x8 MUL PUSH3 0x481 JUMP JUMPDEST NOT DUP1 DUP4 AND SWAP2 POP POP SWAP3 SWAP2 POP POP JUMP JUMPDEST PUSH1 0x0 PUSH3 0x4BC DUP4 DUP4 PUSH3 0x48E JUMP JUMPDEST SWAP2 POP DUP3 PUSH1 0x2 MUL DUP3 OR SWAP1 POP SWAP3 SWAP2 POP POP JUMP JUMPDEST PUSH3 0x4D7 DUP3 PUSH3 0x281 JUMP JUMPDEST PUSH8 0xFFFFFFFFFFFFFFFF DUP2 GT ISZERO PUSH3 0x4F3 JUMPI PUSH3 0x4F2 PUSH3 0x98 JUMP JUMPDEST JUMPDEST PUSH3 0x4FF DUP3 SLOAD PUSH3 0x2BB JUMP JUMPDEST PUSH3 0x50C DUP3 DUP3 DUP6 PUSH3 0x431 JUMP JUMPDEST PUSH1 0x0 PUSH1 0x20 SWAP1 POP PUSH1 0x1F DUP4 GT PUSH1 0x1 DUP2 EQ PUSH3 0x544 JUMPI PUSH1 0x0 DUP5 ISZERO PUSH3 0x52F JUMPI DUP3 DUP8 ADD MLOAD SWAP1 POP JUMPDEST PUSH3 0x53B DUP6 DUP3 PUSH3 0x4AE JUMP JUMPDEST DUP7 SSTORE POP PUSH3 0x5AB JUMP JUMPDEST PUSH1 0x1F NOT DUP5 AND PUSH3 0x554 DUP7 PUSH3 0x2F0 JUMP JUMPDEST PUSH1 0x0 JUMPDEST DUP3 DUP2 LT ISZERO PUSH3 0x57E JUMPI DUP5 DUP10 ADD MLOAD DUP3 SSTORE PUSH1 0x1 DUP3 ADD SWAP2 POP PUSH1 0x20 DUP6 ADD SWAP5 POP PUSH1 0x20 DUP2 ADD SWAP1 POP PUSH3 0x557 JUMP JUMPDEST DUP7 DUP4 LT ISZERO PUSH3 0x59E JUMPI DUP5 DUP10 ADD MLOAD PUSH3 0x59A PUSH1 0x1F DUP10 AND DUP3 PUSH3 0x48E JUMP JUMPDEST DUP4 SSTORE POP JUMPDEST PUSH1 0x1 PUSH1 0x2 DUP9 MUL ADD DUP9 SSTORE POP POP POP JUMPDEST POP POP POP POP POP POP JUMP JUMPDEST PUSH2 0x165B DUP1 PUSH3 0x5C3 PUSH1 0x0 CODECOPY PUSH1 0x0 RETURN INVALID PUSH1 0x80 PUSH1 0x40 MSTORE CALLVALUE DUP1 ISZERO PUSH2 0x10 JUMPI PUSH1 0x0 DUP1 REVERT JUMPDEST POP PUSH1 0x4 CALLDATASIZE LT PUSH2 0xCF JUMPI PUSH1 0x0 CALLDATALOAD PUSH1 0xE0 SHR DUP1 PUSH4 0x42966C68 GT PUSH2 0x8C JUMPI DUP1 PUSH4 0x95D89B41 GT PUSH2 0x66 JUMPI DUP1 PUSH4 0x95D89B41 EQ PUSH2 0x20E JUMPI DUP1 PUSH4 0xA9059CBB EQ PUSH2 0x22C JUMPI DUP1 PUSH4 0xC87B56DD EQ PUSH2 0x248 JUMPI DUP1 PUSH4 0xE985E9C5 EQ PUSH2 0x278 JUMPI PUSH2 0xCF JUMP JUMPDEST DUP1 PUSH4 0x42966C68 EQ PUSH2 0x192 JUMPI DUP1 PUSH4 0x6352211E EQ PUSH2 0x1AE JUMPI DUP1 PUSH4 0x70A08231 EQ PUSH2 0x1DE JUMPI PUSH2 0xCF JUMP JUMPDEST DUP1 PUSH4 0x6FDDE03 EQ PUSH2 0xD4 JUMPI DUP1 PUSH4 0x81812FC EQ PUSH2 0xF2 JUMPI DUP1 PUSH4 0x95EA7B3 EQ PUSH2 0x122 JUMPI DUP1 PUSH4 0x23B872DD EQ PUSH2 0x13E JUMPI DUP1 PUSH4 0x367605CA EQ PUSH2 0x15A JUMPI DUP1 PUSH4 0x40C10F19 EQ PUSH2 0x176 JUMPI JUMPDEST PUSH1 0x0 DUP1 REVERT JUMPDEST PUSH2 0xDC PUSH2 0x2A8 JUMP JUMPDEST PUSH1 0x40 MLOAD PUSH2 0xE9 SWAP2 SWAP1 PUSH2 0xF85 JUMP JUMPDEST PUSH1 0x40 MLOAD DUP1 SWAP2 SUB SWAP1 RETURN JUMPDEST PUSH2 0x10C PUSH1 0x4 DUP1 CALLDATASIZE SUB DUP2 ADD SWAP1 PUSH2 0x107 SWAP2 SWAP1 PUSH2 0xFE2 JUMP JUMPDEST PUSH2 0x33A JUMP JUMPDEST PUSH1 0x40 MLOAD PUSH2 0x119 SWAP2 SWAP1 PUSH2 0x1050 JUMP JUMPDEST PUSH1 0x40 MLOAD DUP1 SWAP2 SUB SWAP1 RETURN JUMPDEST PUSH2 0x13C PUSH1 0x4 DUP1 CALLDATASIZE SUB DUP2 ADD SWAP1 PUSH2 0x137 SWAP2 SWAP1 PUSH2 0x1097 JUMP JUMPDEST PUSH2 0x377 JUMP JUMPDEST STOP JUMPDEST PUSH2 0x158 PUSH1 0x4 DUP1 CALLDATASIZE SUB DUP2 ADD SWAP1 PUSH2 0x153 SWAP2 SWAP1 PUSH2 0x10D7 JUMP JUMPDEST PUSH2 0x4DC JUMP JUMPDEST STOP JUMPDEST PUSH2 0x174 PUSH1 0x4 DUP1 CALLDATASIZE SUB DUP2 ADD SWAP1 PUSH2 0x16F SWAP2 SWAP1 PUSH2 0x1162 JUMP JUMPDEST PUSH2 0x7B8 JUMP JUMPDEST STOP JUMPDEST PUSH2 0x190 PUSH1 0x4 DUP1 CALLDATASIZE SUB DUP2 ADD SWAP1 PUSH2 0x18B SWAP2 SWAP1 PUSH2 0x1097 JUMP JUMPDEST PUSH2 0x88C JUMP JUMPDEST STOP JUMPDEST PUSH2 0x1AC PUSH1 0x4 DUP1 CALLDATASIZE SUB DUP2 ADD SWAP1 PUSH2 0x1A7 SWAP2 SWAP1 PUSH2 0xFE2 JUMP JUMPDEST PUSH2 0x997 JUMP JUMPDEST STOP JUMPDEST PUSH2 0x1C8 PUSH1 0x4 DUP1 CALLDATASIZE SUB DUP2 ADD SWAP1 PUSH2 0x1C3 SWAP2 SWAP1 PUSH2 0xFE2 JUMP JUMPDEST PUSH2 0xAD2 JUMP JUMPDEST PUSH1 0x40 MLOAD PUSH2 0x1D5 SWAP2 SWAP1 PUSH2 0x1050 JUMP JUMPDEST PUSH1 0x40 MLOAD DUP1 SWAP2 SUB SWAP1 RETURN JUMPDEST PUSH2 0x1F8 PUSH1 0x4 DUP1 CALLDATASIZE SUB DUP2 ADD SWAP1 PUSH2 0x1F3 SWAP2 SWAP1 PUSH2 0x11B5 JUMP JUMPDEST PUSH2 0xB0F JUMP JUMPDEST PUSH1 0x40 MLOAD PUSH2 0x205 SWAP2 SWAP1 PUSH2 0x11F1 JUMP JUMPDEST PUSH1 0x40 MLOAD DUP1 SWAP2 SUB SWAP1 RETURN JUMPDEST PUSH2 0x216 PUSH2 0xB58 JUMP JUMPDEST PUSH1 0x40 MLOAD PUSH2 0x223 SWAP2 SWAP1 PUSH2 0xF85 JUMP JUMPDEST PUSH1 0x40 MLOAD DUP1 SWAP2 SUB SWAP1 RETURN JUMPDEST PUSH2 0x246 PUSH1 0x4 DUP1 CALLDATASIZE SUB DUP2 ADD SWAP1 PUSH2 0x241 SWAP2 SWAP1 PUSH2 0x1097 JUMP JUMPDEST PUSH2 0xBEA JUMP JUMPDEST STOP JUMPDEST PUSH2 0x262 PUSH1 0x4 DUP1 CALLDATASIZE SUB DUP2 ADD SWAP1 PUSH2 0x25D SWAP2 SWAP1 PUSH2 0xFE2 JUMP JUMPDEST PUSH2 0xE00 JUMP JUMPDEST PUSH1 0x40 MLOAD PUSH2 0x26F SWAP2 SWAP1 PUSH2 0x11F1 JUMP JUMPDEST PUSH1 0x40 MLOAD DUP1 SWAP2 SUB SWAP1 RETURN JUMPDEST PUSH2 0x292 PUSH1 0x4 DUP1 CALLDATASIZE SUB DUP2 ADD SWAP1 PUSH2 0x28D SWAP2 SWAP1 PUSH2 0x120C JUMP JUMPDEST PUSH2 0xE1D JUMP JUMPDEST PUSH1 0x40 MLOAD PUSH2 0x29F SWAP2 SWAP1 PUSH2 0x125B JUMP JUMPDEST PUSH1 0x40 MLOAD DUP1 SWAP2 SUB SWAP1 RETURN JUMPDEST PUSH1 0x60 PUSH1 0x0 DUP1 SLOAD PUSH2 0x2B7 SWAP1 PUSH2 0x12A5 JUMP JUMPDEST DUP1 PUSH1 0x1F ADD PUSH1 0x20 DUP1 SWAP2 DIV MUL PUSH1 0x20 ADD PUSH1 0x40 MLOAD SWAP1 DUP2 ADD PUSH1 0x40 MSTORE DUP1 SWAP3 SWAP2 SWAP1 DUP2 DUP2 MSTORE PUSH1 0x20 ADD DUP3 DUP1 SLOAD PUSH2 0x2E3 SWAP1 PUSH2 0x12A5 JUMP JUMPDEST DUP1 ISZERO PUSH2 0x330 JUMPI DUP1 PUSH1 0x1F LT PUSH2 0x305 JUMPI PUSH2 0x100 DUP1 DUP4 SLOAD DIV MUL DUP4 MSTORE SWAP2 PUSH1 0x20 ADD SWAP2 PUSH2 0x330 JUMP JUMPDEST DUP3 ADD SWAP2 SWAP1 PUSH1 0x0 MSTORE PUSH1 0x20 PUSH1 0x0 KECCAK256 SWAP1 JUMPDEST DUP2 SLOAD DUP2 MSTORE SWAP1 PUSH1 0x1 ADD SWAP1 PUSH1 0x20 ADD DUP1 DUP4 GT PUSH2 0x313 JUMPI DUP3 SWAP1 SUB PUSH1 0x1F AND DUP3 ADD SWAP2 JUMPDEST POP POP POP POP POP SWAP1 POP SWAP1 JUMP JUMPDEST PUSH1 0x0 PUSH1 0x5 PUSH1 0x0 DUP4 DUP2 MSTORE PUSH1 0x20 ADD SWAP1 DUP2 MSTORE PUSH1 0x20 ADD PUSH1 0x0 KECCAK256 PUSH1 0x0 SWAP1 SLOAD SWAP1 PUSH2 0x100 EXP SWAP1 DIV PUSH20 0xFFFFFFFFFFFFFFFFFFFFFFFFFFFFFFFFFFFFFFFF AND SWAP1 POP SWAP2 SWAP1 POP JUMP JUMPDEST PUSH1 0x3 PUSH1 0x0 DUP3 DUP2 MSTORE PUSH1 0x20 ADD SWAP1 DUP2 MSTORE PUSH1 0x20 ADD PUSH1 0x0 KECCAK256 PUSH1 0x0 SWAP1 SLOAD SWAP1 PUSH2 0x100 EXP SWAP1 DIV PUSH20 0xFFFFFFFFFFFFFFFFFFFFFFFFFFFFFFFFFFFFFFFF AND PUSH20 0xFFFFFFFFFFFFFFFFFFFFFFFFFFFFFFFFFFFFFFFF AND CALLER PUSH20 0xFFFFFFFFFFFFFFFFFFFFFFFFFFFFFFFFFFFFFFFF AND EQ PUSH2 0x418 JUMPI PUSH1 0x40 MLOAD PUSH32 0x8C379A000000000000000000000000000000000000000000000000000000000 DUP2 MSTORE PUSH1 0x4 ADD PUSH2 0x40F SWAP1 PUSH2 0x1322 JUMP JUMPDEST PUSH1 0x40 MLOAD DUP1 SWAP2 SUB SWAP1 REVERT JUMPDEST DUP2 PUSH1 0x5 PUSH1 0x0 DUP4 DUP2 MSTORE PUSH1 0x20 ADD SWAP1 DUP2 MSTORE PUSH1 0x20 ADD PUSH1 0x0 KECCAK256 PUSH1 0x0 PUSH2 0x100 EXP DUP2 SLOAD DUP2 PUSH20 0xFFFFFFFFFFFFFFFFFFFFFFFFFFFFFFFFFFFFFFFF MUL NOT AND SWAP1 DUP4 PUSH20 0xFFFFFFFFFFFFFFFFFFFFFFFFFFFFFFFFFFFFFFFF AND MUL OR SWAP1 SSTORE POP PUSH32 0x8C5BE1E5EBEC7D5BD14F71427D1E84F3DD0314C0F7B2291E5B200AC8C7C3B925 PUSH1 0x3 PUSH1 0x0 DUP4 DUP2 MSTORE PUSH1 0x20 ADD SWAP1 DUP2 MSTORE PUSH1 0x20 ADD PUSH1 0x0 KECCAK256 PUSH1 0x0 SWAP1 SLOAD SWAP1 PUSH2 0x100 EXP SWAP1 DIV PUSH20 0xFFFFFFFFFFFFFFFFFFFFFFFFFFFFFFFFFFFFFFFF AND DUP4 DUP4 PUSH1 0x40 MLOAD PUSH2 0x4D0 SWAP4 SWAP3 SWAP2 SWAP1 PUSH2 0x1342 JUMP JUMPDEST PUSH1 0x40 MLOAD DUP1 SWAP2 SUB SWAP1 LOG1 POP POP JUMP JUMPDEST PUSH1 0x0 PUSH1 0x3 PUSH1 0x0 DUP4 DUP2 MSTORE PUSH1 0x20 ADD SWAP1 DUP2 MSTORE PUSH1 0x20 ADD PUSH1 0x0 KECCAK256 PUSH1 0x0 SWAP1 SLOAD SWAP1 PUSH2 0x100 EXP SWAP1 DIV PUSH20 0xFFFFFFFFFFFFFFFFFFFFFFFFFFFFFFFFFFFFFFFF AND SWAP1 POP DUP1 PUSH20 0xFFFFFFFFFFFFFFFFFFFFFFFFFFFFFFFFFFFFFFFF AND CALLER PUSH20 0xFFFFFFFFFFFFFFFFFFFFFFFFFFFFFFFFFFFFFFFF AND EQ PUSH2 0x582 JUMPI PUSH1 0x40 MLOAD PUSH32 0x8C379A000000000000000000000000000000000000000000000000000000000 DUP2 MSTORE PUSH1 0x4 ADD PUSH2 0x579 SWAP1 PUSH2 0x13C5 JUMP JUMPDEST PUSH1 0x40 MLOAD DUP1 SWAP2 SUB SWAP1 REVERT JUMPDEST PUSH2 0x58C DUP2 CALLER PUSH2 0xE1D JUMP JUMPDEST PUSH2 0x5CB JUMPI PUSH1 0x40 MLOAD PUSH32 0x8C379A000000000000000000000000000000000000000000000000000000000 DUP2 MSTORE PUSH1 0x4 ADD PUSH2 0x5C2 SWAP1 PUSH2 0x1431 JUMP JUMPDEST PUSH1 0x40 MLOAD DUP1 SWAP2 SUB SWAP1 REVERT JUMPDEST CALLER PUSH20 0xFFFFFFFFFFFFFFFFFFFFFFFFFFFFFFFFFFFFFFFF AND PUSH2 0x5EB DUP4 PUSH2 0x33A JUMP JUMPDEST PUSH20 0xFFFFFFFFFFFFFFFFFFFFFFFFFFFFFFFFFFFFFFFF AND EQ PUSH2 0x641 JUMPI PUSH1 0x40 MLOAD PUSH32 0x8C379A000000000000000000000000000000000000000000000000000000000 DUP2 MSTORE PUSH1 0x4 ADD PUSH2 0x638 SWAP1 PUSH2 0x1431 JUMP JUMPDEST PUSH1 0x40 MLOAD DUP1 SWAP2 SUB SWAP1 REVERT JUMPDEST PUSH1 0x5 PUSH1 0x0 DUP4 DUP2 MSTORE PUSH1 0x20 ADD SWAP1 DUP2 MSTORE PUSH1 0x20 ADD PUSH1 0x0 KECCAK256 PUSH1 0x0 PUSH2 0x100 EXP DUP2 SLOAD SWAP1 PUSH20 0xFFFFFFFFFFFFFFFFFFFFFFFFFFFFFFFFFFFFFFFF MUL NOT AND SWAP1 SSTORE PUSH1 0x1 PUSH1 0x4 PUSH1 0x0 DUP7 PUSH20 0xFFFFFFFFFFFFFFFFFFFFFFFFFFFFFFFFFFFFFFFF AND PUSH20 0xFFFFFFFFFFFFFFFFFFFFFFFFFFFFFFFFFFFFFFFF AND DUP2 MSTORE PUSH1 0x20 ADD SWAP1 DUP2 MSTORE PUSH1 0x20 ADD PUSH1 0x0 KECCAK256 PUSH1 0x0 DUP3 DUP3 SLOAD PUSH2 0x6C7 SWAP2 SWAP1 PUSH2 0x1480 JUMP JUMPDEST SWAP3 POP POP DUP2 SWAP1 SSTORE POP PUSH1 0x1 PUSH1 0x4 PUSH1 0x0 DUP6 PUSH20 0xFFFFFFFFFFFFFFFFFFFFFFFFFFFFFFFFFFFFFFFF AND PUSH20 0xFFFFFFFFFFFFFFFFFFFFFFFFFFFFFFFFFFFFFFFF AND DUP2 MSTORE PUSH1 0x20 ADD SWAP1 DUP2 MSTORE PUSH1 0x20 ADD PUSH1 0x0 KECCAK256 PUSH1 0x0 DUP3 DUP3 SLOAD PUSH2 0x71E SWAP2 SWAP1 PUSH2 0x14B4 JUMP JUMPDEST SWAP3 POP POP DUP2 SWAP1 SSTORE POP DUP3 PUSH1 0x3 PUSH1 0x0 DUP5 DUP2 MSTORE PUSH1 0x20 ADD SWAP1 DUP2 MSTORE PUSH1 0x20 ADD PUSH1 0x0 KECCAK256 PUSH1 0x0 PUSH2 0x100 EXP DUP2 SLOAD DUP2 PUSH20 0xFFFFFFFFFFFFFFFFFFFFFFFFFFFFFFFFFFFFFFFF MUL NOT AND SWAP1 DUP4 PUSH20 0xFFFFFFFFFFFFFFFFFFFFFFFFFFFFFFFFFFFFFFFF AND MUL OR SWAP1 SSTORE POP PUSH32 0xDDF252AD1BE2C89B69C2B068FC378DAA952BA7F163C4A11628F55A4DF523B3EF DUP5 DUP5 DUP5 PUSH1 0x40 MLOAD PUSH2 0x7AA SWAP4 SWAP3 SWAP2 SWAP1 PUSH2 0x1342 JUMP JUMPDEST PUSH1 0x40 MLOAD DUP1 SWAP2 SUB SWAP1 LOG1 POP POP POP POP JUMP JUMPDEST DUP1 PUSH1 0x6 PUSH1 0x0 DUP6 PUSH20 0xFFFFFFFFFFFFFFFFFFFFFFFFFFFFFFFFFFFFFFFF AND PUSH20 0xFFFFFFFFFFFFFFFFFFFFFFFFFFFFFFFFFFFFFFFF AND DUP2 MSTORE PUSH1 0x20 ADD SWAP1 DUP2 MSTORE PUSH1 0x20 ADD PUSH1 0x0 KECCAK256 PUSH1 0x0 DUP5 PUSH20 0xFFFFFFFFFFFFFFFFFFFFFFFFFFFFFFFFFFFFFFFF AND PUSH20 0xFFFFFFFFFFFFFFFFFFFFFFFFFFFFFFFFFFFFFFFF AND DUP2 MSTORE PUSH1 0x20 ADD SWAP1 DUP2 MSTORE PUSH1 0x20 ADD PUSH1 0x0 KECCAK256 PUSH1 0x0 PUSH2 0x100 EXP DUP2 SLOAD DUP2 PUSH1 0xFF MUL NOT AND SWAP1 DUP4 ISZERO ISZERO MUL OR SWAP1 SSTORE POP PUSH32 0x17307EAB39AB6107E8899845AD3D59BD9653F200F220920489CA2B5937696C31 DUP4 DUP4 DUP4 PUSH1 0x40 MLOAD PUSH2 0x87F SWAP4 SWAP3 SWAP2 SWAP1 PUSH2 0x14E8 JUMP JUMPDEST PUSH1 0x40 MLOAD DUP1 SWAP2 SUB SWAP1 LOG1 POP POP POP JUMP JUMPDEST PUSH1 0x1 PUSH1 0x4 PUSH1 0x0 DUP5 PUSH20 0xFFFFFFFFFFFFFFFFFFFFFFFFFFFFFFFFFFFFFFFF AND PUSH20 0xFFFFFFFFFFFFFFFFFFFFFFFFFFFFFFFFFFFFFFFF AND DUP2 MSTORE PUSH1 0x20 ADD SWAP1 DUP2 MSTORE PUSH1 0x20 ADD PUSH1 0x0 KECCAK256 PUSH1 0x0 DUP3 DUP3 SLOAD PUSH2 0x8DC SWAP2 SWAP1 PUSH2 0x14B4 JUMP JUMPDEST SWAP3 POP POP DUP2 SWAP1 SSTORE POP DUP2 PUSH1 0x3 PUSH1 0x0 DUP4 DUP2 MSTORE PUSH1 0x20 ADD SWAP1 DUP2 MSTORE PUSH1 0x20 ADD PUSH1 0x0 KECCAK256 PUSH1 0x0 PUSH2 0x100 EXP DUP2 SLOAD DUP2 PUSH20 0xFFFFFFFFFFFFFFFFFFFFFFFFFFFFFFFFFFFFFFFF MUL NOT AND SWAP1 DUP4 PUSH20 0xFFFFFFFFFFFFFFFFFFFFFFFFFFFFFFFFFFFFFFFF AND MUL OR SWAP1 SSTORE POP PUSH2 0x940 PUSH1 0x7 SLOAD PUSH2 0xEB1 JUMP JUMPDEST PUSH1 0x2 PUSH1 0x0 DUP4 DUP2 MSTORE PUSH1 0x20 ADD SWAP1 DUP2 MSTORE PUSH1 0x20 ADD PUSH1 0x0 KECCAK256 DUP2 SWAP1 SSTORE POP PUSH32 0xDDF252AD1BE2C89B69C2B068FC378DAA952BA7F163C4A11628F55A4DF523B3EF PUSH1 0x0 DUP4 DUP4 PUSH1 0x40 MLOAD PUSH2 0x98B SWAP4 SWAP3 SWAP2 SWAP1 PUSH2 0x1342 JUMP JUMPDEST PUSH1 0x40 MLOAD DUP1 SWAP2 SUB SWAP1 LOG1 POP POP JUMP JUMPDEST PUSH1 0x0 PUSH1 0x3 PUSH1 0x0 DUP4 DUP2 MSTORE PUSH1 0x20 ADD SWAP1 DUP2 MSTORE PUSH1 0x20 ADD PUSH1 0x0 KECCAK256 PUSH1 0x0 SWAP1 SLOAD SWAP1 PUSH2 0x100 EXP SWAP1 DIV PUSH20 0xFFFFFFFFFFFFFFFFFFFFFFFFFFFFFFFFFFFFFFFF AND SWAP1 POP PUSH1 0x5 PUSH1 0x0 DUP4 DUP2 MSTORE PUSH1 0x20 ADD SWAP1 DUP2 MSTORE PUSH1 0x20 ADD PUSH1 0x0 KECCAK256 PUSH1 0x0 PUSH2 0x100 EXP DUP2 SLOAD SWAP1 PUSH20 0xFFFFFFFFFFFFFFFFFFFFFFFFFFFFFFFFFFFFFFFF MUL NOT AND SWAP1 SSTORE PUSH1 0x1 PUSH1 0x4 PUSH1 0x0 DUP4 PUSH20 0xFFFFFFFFFFFFFFFFFFFFFFFFFFFFFFFFFFFFFFFF AND PUSH20 0xFFFFFFFFFFFFFFFFFFFFFFFFFFFFFFFFFFFFFFFF AND DUP2 MSTORE PUSH1 0x20 ADD SWAP1 DUP2 MSTORE PUSH1 0x20 ADD PUSH1 0x0 KECCAK256 PUSH1 0x0 DUP3 DUP3 SLOAD PUSH2 0xA55 SWAP2 SWAP1 PUSH2 0x1480 JUMP JUMPDEST SWAP3 POP POP DUP2 SWAP1 SSTORE POP PUSH1 0x3 PUSH1 0x0 DUP4 DUP2 MSTORE PUSH1 0x20 ADD SWAP1 DUP2 MSTORE PUSH1 0x20 ADD PUSH1 0x0 KECCAK256 PUSH1 0x0 PUSH2 0x100 EXP DUP2 SLOAD SWAP1 PUSH20 0xFFFFFFFFFFFFFFFFFFFFFFFFFFFFFFFFFFFFFFFF MUL NOT AND SWAP1 SSTORE PUSH32 0xDDF252AD1BE2C89B69C2B068FC378DAA952BA7F163C4A11628F55A4DF523B3EF DUP2 PUSH1 0x0 DUP5 PUSH1 0x40 MLOAD PUSH2 0xAC6 SWAP4 SWAP3 SWAP2 SWAP1 PUSH2 0x1342 JUMP JUMPDEST PUSH1 0x40 MLOAD DUP1 SWAP2 SUB SWAP1 LOG1 POP POP JUMP JUMPDEST PUSH1 0x0 PUSH1 0x3 PUSH1 0x0 DUP4 DUP2 MSTORE PUSH1 0x20 ADD SWAP1 DUP2 MSTORE PUSH1 0x20 ADD PUSH1 0x0 KECCAK256 PUSH1 0x0 SWAP1 SLOAD SWAP1 PUSH2 0x100 EXP SWAP1 DIV PUSH20 0xFFFFFFFFFFFFFFFFFFFFFFFFFFFFFFFFFFFFFFFF AND SWAP1 POP SWAP2 SWAP1 POP JUMP JUMPDEST PUSH1 0x0 PUSH1 0x4 PUSH1 0x0 DUP4 PUSH20 0xFFFFFFFFFFFFFFFFFFFFFFFFFFFFFFFFFFFFFFFF AND PUSH20 0xFFFFFFFFFFFFFFFFFFFFFFFFFFFFFFFFFFFFFFFF AND DUP2 MSTORE PUSH1 0x20 ADD SWAP1 DUP2 MSTORE PUSH1 0x20 ADD PUSH1 0x0 KECCAK256 SLOAD SWAP1 POP SWAP2 SWAP1 POP JUMP JUMPDEST PUSH1 0x60 PUSH1 0x1 DUP1 SLOAD PUSH2 0xB67 SWAP1 PUSH2 0x12A5 JUMP JUMPDEST DUP1 PUSH1 0x1F ADD PUSH1 0x20 DUP1 SWAP2 DIV MUL PUSH1 0x20 ADD PUSH1 0x40 MLOAD SWAP1 DUP2 ADD PUSH1 0x40 MSTORE DUP1 SWAP3 SWAP2 SWAP1 DUP2 DUP2 MSTORE PUSH1 0x20 ADD DUP3 DUP1 SLOAD PUSH2 0xB93 SWAP1 PUSH2 0x12A5 JUMP JUMPDEST DUP1 ISZERO PUSH2 0xBE0 JUMPI DUP1 PUSH1 0x1F LT PUSH2 0xBB5 JUMPI PUSH2 0x100 DUP1 DUP4 SLOAD DIV MUL DUP4 MSTORE SWAP2 PUSH1 0x20 ADD SWAP2 PUSH2 0xBE0 JUMP JUMPDEST DUP3 ADD SWAP2 SWAP1 PUSH1 0x0 MSTORE PUSH1 0x20 PUSH1 0x0 KECCAK256 SWAP1 JUMPDEST DUP2 SLOAD DUP2 MSTORE SWAP1 PUSH1 0x1 ADD SWAP1 PUSH1 0x20 ADD DUP1 DUP4 GT PUSH2 0xBC3 JUMPI DUP3 SWAP1 SUB PUSH1 0x1F AND DUP3 ADD SWAP2 JUMPDEST POP POP POP POP POP SWAP1 POP SWAP1 JUMP JUMPDEST CALLER PUSH20 0xFFFFFFFFFFFFFFFFFFFFFFFFFFFFFFFFFFFFFFFF AND PUSH1 0x3 PUSH1 0x0 DUP4 DUP2 MSTORE PUSH1 0x20 ADD SWAP1 DUP2 MSTORE PUSH1 0x20 ADD PUSH1 0x0 KECCAK256 PUSH1 0x0 SWAP1 SLOAD SWAP1 PUSH2 0x100 EXP SWAP1 DIV PUSH20 0xFFFFFFFFFFFFFFFFFFFFFFFFFFFFFFFFFFFFFFFF AND PUSH20 0xFFFFFFFFFFFFFFFFFFFFFFFFFFFFFFFFFFFFFFFF AND EQ PUSH2 0xC8B JUMPI PUSH1 0x40 MLOAD PUSH32 0x8C379A000000000000000000000000000000000000000000000000000000000 DUP2 MSTORE PUSH1 0x4 ADD PUSH2 0xC82 SWAP1 PUSH2 0x1322 JUMP JUMPDEST PUSH1 0x40 MLOAD DUP1 SWAP2 SUB SWAP1 REVERT JUMPDEST PUSH1 0x5 PUSH1 0x0 DUP3 DUP2 MSTORE PUSH1 0x20 ADD SWAP1 DUP2 MSTORE PUSH1 0x20 ADD PUSH1 0x0 KECCAK256 PUSH1 0x0 PUSH2 0x100 EXP DUP2 SLOAD SWAP1 PUSH20 0xFFFFFFFFFFFFFFFFFFFFFFFFFFFFFFFFFFFFFFFF MUL NOT AND SWAP1 SSTORE PUSH1 0x1 PUSH1 0x4 PUSH1 0x0 CALLER PUSH20 0xFFFFFFFFFFFFFFFFFFFFFFFFFFFFFFFFFFFFFFFF AND PUSH20 0xFFFFFFFFFFFFFFFFFFFFFFFFFFFFFFFFFFFFFFFF AND DUP2 MSTORE PUSH1 0x20 ADD SWAP1 DUP2 MSTORE PUSH1 0x20 ADD PUSH1 0x0 KECCAK256 PUSH1 0x0 DUP3 DUP3 SLOAD PUSH2 0xD11 SWAP2 SWAP1 PUSH2 0x1480 JUMP JUMPDEST SWAP3 POP POP DUP2 SWAP1 SSTORE POP PUSH1 0x1 PUSH1 0x4 PUSH1 0x0 DUP5 PUSH20 0xFFFFFFFFFFFFFFFFFFFFFFFFFFFFFFFFFFFFFFFF AND PUSH20 0xFFFFFFFFFFFFFFFFFFFFFFFFFFFFFFFFFFFFFFFF AND DUP2 MSTORE PUSH1 0x20 ADD SWAP1 DUP2 MSTORE PUSH1 0x20 ADD PUSH1 0x0 KECCAK256 PUSH1 0x0 DUP3 DUP3 SLOAD PUSH2 0xD68 SWAP2 SWAP1 PUSH2 0x14B4 JUMP JUMPDEST SWAP3 POP POP DUP2 SWAP1 SSTORE POP DUP2 PUSH1 0x3 PUSH1 0x0 DUP4 DUP2 MSTORE PUSH1 0x20 ADD SWAP1 DUP2 MSTORE PUSH1 0x20 ADD PUSH1 0x0 KECCAK256 PUSH1 0x0 PUSH2 0x100 EXP DUP2 SLOAD DUP2 PUSH20 0xFFFFFFFFFFFFFFFFFFFFFFFFFFFFFFFFFFFFFFFF MUL NOT AND SWAP1 DUP4 PUSH20 0xFFFFFFFFFFFFFFFFFFFFFFFFFFFFFFFFFFFFFFFF AND MUL OR SWAP1 SSTORE POP PUSH32 0xDDF252AD1BE2C89B69C2B068FC378DAA952BA7F163C4A11628F55A4DF523B3EF CALLER DUP4 DUP4 PUSH1 0x40 MLOAD PUSH2 0xDF4 SWAP4 SWAP3 SWAP2 SWAP1 PUSH2 0x1342 JUMP JUMPDEST PUSH1 0x40 MLOAD DUP1 SWAP2 SUB SWAP1 LOG1 POP POP JUMP JUMPDEST PUSH1 0x0 PUSH1 0x2 PUSH1 0x0 DUP4 DUP2 MSTORE PUSH1 0x20 ADD SWAP1 DUP2 MSTORE PUSH1 0x20 ADD PUSH1 0x0 KECCAK256 SLOAD SWAP1 POP SWAP2 SWAP1 POP JUMP JUMPDEST PUSH1 0x0 PUSH1 0x6 PUSH1 0x0 DUP5 PUSH20 0xFFFFFFFFFFFFFFFFFFFFFFFFFFFFFFFFFFFFFFFF AND PUSH20 0xFFFFFFFFFFFFFFFFFFFFFFFFFFFFFFFFFFFFFFFF AND DUP2 MSTORE PUSH1 0x20 ADD SWAP1 DUP2 MSTORE PUSH1 0x20 ADD PUSH1 0x0 KECCAK256 PUSH1 0x0 DUP4 PUSH20 0xFFFFFFFFFFFFFFFFFFFFFFFFFFFFFFFFFFFFFFFF AND PUSH20 0xFFFFFFFFFFFFFFFFFFFFFFFFFFFFFFFFFFFFFFFF AND DUP2 MSTORE PUSH1 0x20 ADD SWAP1 DUP2 MSTORE PUSH1 0x20 ADD PUSH1 0x0 KECCAK256 PUSH1 0x0 SWAP1 SLOAD SWAP1 PUSH2 0x100 EXP SWAP1 DIV PUSH1 0xFF AND SWAP1 POP SWAP3 SWAP2 POP POP JUMP JUMPDEST PUSH1 0x0 DUP2 CALLER TIMESTAMP PUSH1 0x7 SLOAD PUSH1 0x40 MLOAD PUSH1 0x20 ADD PUSH2 0xECB SWAP4 SWAP3 SWAP2 SWAP1 PUSH2 0x1588 JUMP JUMPDEST PUSH1 0x40 MLOAD PUSH1 0x20 DUP2 DUP4 SUB SUB DUP2 MSTORE SWAP1 PUSH1 0x40 MSTORE DUP1 MLOAD SWAP1 PUSH1 0x20 ADD KECCAK256 PUSH1 0x0 SHR PUSH2 0xEEE SWAP2 SWAP1 PUSH2 0x15F4 JUMP JUMPDEST SWAP1 POP SWAP2 SWAP1 POP JUMP JUMPDEST PUSH1 0x0 DUP2 MLOAD SWAP1 POP SWAP2 SWAP1 POP JUMP JUMPDEST PUSH1 0x0 DUP3 DUP3 MSTORE PUSH1 0x20 DUP3 ADD SWAP1 POP SWAP3 SWAP2 POP POP JUMP JUMPDEST PUSH1 0x0 JUMPDEST DUP4 DUP2 LT ISZERO PUSH2 0xF2F JUMPI DUP1 DUP3 ADD MLOAD DUP2 DUP5 ADD MSTORE PUSH1 0x20 DUP2 ADD SWAP1 POP PUSH2 0xF14 JUMP JUMPDEST PUSH1 0x0 DUP5 DUP5 ADD MSTORE POP POP POP POP JUMP JUMPDEST PUSH1 0x0 PUSH1 0x1F NOT PUSH1 0x1F DUP4 ADD AND SWAP1 POP SWAP2 SWAP1 POP JUMP JUMPDEST PUSH1 0x0 PUSH2 0xF57 DUP3 PUSH2 0xEF5 JUMP JUMPDEST PUSH2 0xF61 DUP2 DUP6 PUSH2 0xF00 JUMP JUMPDEST SWAP4 POP PUSH2 0xF71 DUP2 DUP6 PUSH1 0x20 DUP7 ADD PUSH2 0xF11 JUMP JUMPDEST PUSH2 0xF7A DUP2 PUSH2 0xF3B JUMP JUMPDEST DUP5 ADD SWAP2 POP POP SWAP3 SWAP2 POP POP JUMP JUMPDEST PUSH1 0x0 PUSH1 0x20 DUP3 ADD SWAP1 POP DUP2 DUP2 SUB PUSH1 0x0 DUP4 ADD MSTORE PUSH2 0xF9F DUP2 DUP5 PUSH2 0xF4C JUMP JUMPDEST SWAP1 POP SWAP3 SWAP2 POP POP JUMP JUMPDEST PUSH1 0x0 DUP1 REVERT JUMPDEST PUSH1 0x0 DUP2 SWAP1 POP SWAP2 SWAP1 POP JUMP JUMPDEST PUSH2 0xFBF DUP2 PUSH2 0xFAC JUMP JUMPDEST DUP2 EQ PUSH2 0xFCA JUMPI PUSH1 0x0 DUP1 REVERT JUMPDEST POP JUMP JUMPDEST PUSH1 0x0 DUP2 CALLDATALOAD SWAP1 POP PUSH2 0xFDC DUP2 PUSH2 0xFB6 JUMP JUMPDEST SWAP3 SWAP2 POP POP JUMP JUMPDEST PUSH1 0x0 PUSH1 0x20 DUP3 DUP5 SUB SLT ISZERO PUSH2 0xFF8 JUMPI PUSH2 0xFF7 PUSH2 0xFA7 JUMP JUMPDEST JUMPDEST PUSH1 0x0 PUSH2 0x1006 DUP5 DUP3 DUP6 ADD PUSH2 0xFCD JUMP JUMPDEST SWAP2 POP POP SWAP3 SWAP2 POP POP JUMP JUMPDEST PUSH1 0x0 PUSH20 0xFFFFFFFFFFFFFFFFFFFFFFFFFFFFFFFFFFFFFFFF DUP3 AND SWAP1 POP SWAP2 SWAP1 POP JUMP JUMPDEST PUSH1 0x0 PUSH2 0x103A DUP3 PUSH2 0x100F JUMP JUMPDEST SWAP1 POP SWAP2 SWAP1 POP JUMP JUMPDEST PUSH2 0x104A DUP2 PUSH2 0x102F JUMP JUMPDEST DUP3 MSTORE POP POP JUMP JUMPDEST PUSH1 0x0 PUSH1 0x20 DUP3 ADD SWAP1 POP PUSH2 0x1065 PUSH1 0x0 DUP4 ADD DUP5 PUSH2 0x1041 JUMP JUMPDEST SWAP3 SWAP2 POP POP JUMP JUMPDEST PUSH2 0x1074 DUP2 PUSH2 0x102F JUMP JUMPDEST DUP2 EQ PUSH2 0x107F JUMPI PUSH1 0x0 DUP1 REVERT JUMPDEST POP JUMP JUMPDEST PUSH1 0x0 DUP2 CALLDATALOAD SWAP1 POP PUSH2 0x1091 DUP2 PUSH2 0x106B JUMP JUMPDEST SWAP3 SWAP2 POP POP JUMP JUMPDEST PUSH1 0x0 DUP1 PUSH1 0x40 DUP4 DUP6 SUB SLT ISZERO PUSH2 0x10AE JUMPI PUSH2 0x10AD PUSH2 0xFA7 JUMP JUMPDEST JUMPDEST PUSH1 0x0 PUSH2 0x10BC DUP6 DUP3 DUP7 ADD PUSH2 0x1082 JUMP JUMPDEST SWAP3 POP POP PUSH1 0x20 PUSH2 0x10CD DUP6 DUP3 DUP7 ADD PUSH2 0xFCD JUMP JUMPDEST SWAP2 POP POP SWAP3 POP SWAP3 SWAP1 POP JUMP JUMPDEST PUSH1 0x0 DUP1 PUSH1 0x0 PUSH1 0x60 DUP5 DUP7 SUB SLT ISZERO PUSH2 0x10F0 JUMPI PUSH2 0x10EF PUSH2 0xFA7 JUMP JUMPDEST JUMPDEST PUSH1 0x0 PUSH2 0x10FE DUP7 DUP3 DUP8 ADD PUSH2 0x1082 JUMP JUMPDEST SWAP4 POP POP PUSH1 0x20 PUSH2 0x110F DUP7 DUP3 DUP8 ADD PUSH2 0x1082 JUMP JUMPDEST SWAP3 POP POP PUSH1 0x40 PUSH2 0x1120 DUP7 DUP3 DUP8 ADD PUSH2 0xFCD JUMP JUMPDEST SWAP2 POP POP SWAP3 POP SWAP3 POP SWAP3 JUMP JUMPDEST PUSH1 0x0 DUP2 ISZERO ISZERO SWAP1 POP SWAP2 SWAP1 POP JUMP JUMPDEST PUSH2 0x113F DUP2 PUSH2 0x112A JUMP JUMPDEST DUP2 EQ PUSH2 0x114A JUMPI PUSH1 0x0 DUP1 REVERT JUMPDEST POP JUMP JUMPDEST PUSH1 0x0 DUP2 CALLDATALOAD SWAP1 POP PUSH2 0x115C DUP2 PUSH2 0x1136 JUMP JUMPDEST SWAP3 SWAP2 POP POP JUMP JUMPDEST PUSH1 0x0 DUP1 PUSH1 0x0 PUSH1 0x60 DUP5 DUP7 SUB SLT ISZERO PUSH2 0x117B JUMPI PUSH2 0x117A PUSH2 0xFA7 JUMP JUMPDEST JUMPDEST PUSH1 0x0 PUSH2 0x1189 DUP7 DUP3 DUP8 ADD PUSH2 0x1082 JUMP JUMPDEST SWAP4 POP POP PUSH1 0x20 PUSH2 0x119A DUP7 DUP3 DUP8 ADD PUSH2 0x1082 JUMP JUMPDEST SWAP3 POP POP PUSH1 0x40 PUSH2 0x11AB DUP7 DUP3 DUP8 ADD PUSH2 0x114D JUMP JUMPDEST SWAP2 POP POP SWAP3 POP SWAP3 POP SWAP3 JUMP JUMPDEST PUSH1 0x0 PUSH1 0x20 DUP3 DUP5 SUB SLT ISZERO PUSH2 0x11CB JUMPI PUSH2 0x11CA PUSH2 0xFA7 JUMP JUMPDEST JUMPDEST PUSH1 0x0 PUSH2 0x11D9 DUP5 DUP3 DUP6 ADD PUSH2 0x1082 JUMP JUMPDEST SWAP2 POP POP SWAP3 SWAP2 POP POP JUMP JUMPDEST PUSH2 0x11EB DUP2 PUSH2 0xFAC JUMP JUMPDEST DUP3 MSTORE POP POP JUMP JUMPDEST PUSH1 0x0 PUSH1 0x20 DUP3 ADD SWAP1 POP PUSH2 0x1206 PUSH1 0x0 DUP4 ADD DUP5 PUSH2 0x11E2 JUMP JUMPDEST SWAP3 SWAP2 POP POP JUMP JUMPDEST PUSH1 0x0 DUP1 PUSH1 0x40 DUP4 DUP6 SUB SLT ISZERO PUSH2 0x1223 JUMPI PUSH2 0x1222 PUSH2 0xFA7 JUMP JUMPDEST JUMPDEST PUSH1 0x0 PUSH2 0x1231 DUP6 DUP3 DUP7 ADD PUSH2 0x1082 JUMP JUMPDEST SWAP3 POP POP PUSH1 0x20 PUSH2 0x1242 DUP6 DUP3 DUP7 ADD PUSH2 0x1082 JUMP JUMPDEST SWAP2 POP POP SWAP3 POP SWAP3 SWAP1 POP JUMP JUMPDEST PUSH2 0x1255 DUP2 PUSH2 0x112A JUMP JUMPDEST DUP3 MSTORE POP POP JUMP JUMPDEST PUSH1 0x0 PUSH1 0x20 DUP3 ADD SWAP1 POP PUSH2 0x1270 PUSH1 0x0 DUP4 ADD DUP5 PUSH2 0x124C JUMP JUMPDEST SWAP3 SWAP2 POP POP JUMP JUMPDEST PUSH32 0x4E487B7100000000000000000000000000000000000000000000000000000000 PUSH1 0x0 MSTORE PUSH1 0x22 PUSH1 0x4 MSTORE PUSH1 0x24 PUSH1 0x0 REVERT JUMPDEST PUSH1 0x0 PUSH1 0x2 DUP3 DIV SWAP1 POP PUSH1 0x1 DUP3 AND DUP1 PUSH2 0x12BD JUMPI PUSH1 0x7F DUP3 AND SWAP2 POP JUMPDEST PUSH1 0x20 DUP3 LT DUP2 SUB PUSH2 0x12D0 JUMPI PUSH2 0x12CF PUSH2 0x1276 JUMP JUMPDEST JUMPDEST POP SWAP2 SWAP1 POP JUMP JUMPDEST PUSH32 0x496E636F7272656374204F776E65720000000000000000000000000000000000 PUSH1 0x0 DUP3 ADD MSTORE POP JUMP JUMPDEST PUSH1 0x0 PUSH2 0x130C PUSH1 0xF DUP4 PUSH2 0xF00 JUMP JUMPDEST SWAP2 POP PUSH2 0x1317 DUP3 PUSH2 0x12D6 JUMP JUMPDEST PUSH1 0x20 DUP3 ADD SWAP1 POP SWAP2 SWAP1 POP JUMP JUMPDEST PUSH1 0x0 PUSH1 0x20 DUP3 ADD SWAP1 POP DUP2 DUP2 SUB PUSH1 0x0 DUP4 ADD MSTORE PUSH2 0x133B DUP2 PUSH2 0x12FF JUMP JUMPDEST SWAP1 POP SWAP2 SWAP1 POP JUMP JUMPDEST PUSH1 0x0 PUSH1 0x60 DUP3 ADD SWAP1 POP PUSH2 0x1357 PUSH1 0x0 DUP4 ADD DUP7 PUSH2 0x1041 JUMP JUMPDEST PUSH2 0x1364 PUSH1 0x20 DUP4 ADD DUP6 PUSH2 0x1041 JUMP JUMPDEST PUSH2 0x1371 PUSH1 0x40 DUP4 ADD DUP5 PUSH2 0x11E2 JUMP JUMPDEST SWAP5 SWAP4 POP POP POP POP JUMP JUMPDEST PUSH32 0x4E6F74204F776E65720000000000000000000000000000000000000000000000 PUSH1 0x0 DUP3 ADD MSTORE POP JUMP JUMPDEST PUSH1 0x0 PUSH2 0x13AF PUSH1 0x9 DUP4 PUSH2 0xF00 JUMP JUMPDEST SWAP2 POP PUSH2 0x13BA DUP3 PUSH2 0x1379 JUMP JUMPDEST PUSH1 0x20 DUP3 ADD SWAP1 POP SWAP2 SWAP1 POP JUMP JUMPDEST PUSH1 0x0 PUSH1 0x20 DUP3 ADD SWAP1 POP DUP2 DUP2 SUB PUSH1 0x0 DUP4 ADD MSTORE PUSH2 0x13DE DUP2 PUSH2 0x13A2 JUMP JUMPDEST SWAP1 POP SWAP2 SWAP1 POP JUMP JUMPDEST PUSH32 0x4E6F7420417070726F7665640000000000000000000000000000000000000000 PUSH1 0x0 DUP3 ADD MSTORE POP JUMP JUMPDEST PUSH1 0x0 PUSH2 0x141B PUSH1 0xC DUP4 PUSH2 0xF00 JUMP JUMPDEST SWAP2 POP PUSH2 0x1426 DUP3 PUSH2 0x13E5 JUMP JUMPDEST PUSH1 0x20 DUP3 ADD SWAP1 POP SWAP2 SWAP1 POP JUMP JUMPDEST PUSH1 0x0 PUSH1 0x20 DUP3 ADD SWAP1 POP DUP2 DUP2 SUB PUSH1 0x0 DUP4 ADD MSTORE PUSH2 0x144A DUP2 PUSH2 0x140E JUMP JUMPDEST SWAP1 POP SWAP2 SWAP1 POP JUMP JUMPDEST PUSH32 0x4E487B7100000000000000000000000000000000000000000000000000000000 PUSH1 0x0 MSTORE PUSH1 0x11 PUSH1 0x4 MSTORE PUSH1 0x24 PUSH1 0x0 REVERT JUMPDEST PUSH1 0x0 PUSH2 0x148B DUP3 PUSH2 0xFAC JUMP JUMPDEST SWAP2 POP PUSH2 0x1496 DUP4 PUSH2 0xFAC JUMP JUMPDEST SWAP3 POP DUP3 DUP3 SUB SWAP1 POP DUP2 DUP2 GT ISZERO PUSH2 0x14AE JUMPI PUSH2 0x14AD PUSH2 0x1451 JUMP JUMPDEST JUMPDEST SWAP3 SWAP2 POP POP JUMP JUMPDEST PUSH1 0x0 PUSH2 0x14BF DUP3 PUSH2 0xFAC JUMP JUMPDEST SWAP2 POP PUSH2 0x14CA DUP4 PUSH2 0xFAC JUMP JUMPDEST SWAP3 POP DUP3 DUP3 ADD SWAP1 POP DUP1 DUP3 GT ISZERO PUSH2 0x14E2 JUMPI PUSH2 0x14E1 PUSH2 0x1451 JUMP JUMPDEST JUMPDEST SWAP3 SWAP2 POP POP JUMP JUMPDEST PUSH1 0x0 PUSH1 0x60 DUP3 ADD SWAP1 POP PUSH2 0x14FD PUSH1 0x0 DUP4 ADD DUP7 PUSH2 0x1041 JUMP JUMPDEST PUSH2 0x150A PUSH1 0x20 DUP4 ADD DUP6 PUSH2 0x1041 JUMP JUMPDEST PUSH2 0x1517 PUSH1 0x40 DUP4 ADD DUP5 PUSH2 0x124C JUMP JUMPDEST SWAP5 SWAP4 POP POP POP POP JUMP JUMPDEST PUSH1 0x0 DUP2 PUSH1 0x60 SHL SWAP1 POP SWAP2 SWAP1 POP JUMP JUMPDEST PUSH1 0x0 PUSH2 0x1537 DUP3 PUSH2 0x151F JUMP JUMPDEST SWAP1 POP SWAP2 SWAP1 POP JUMP JUMPDEST PUSH1 0x0 PUSH2 0x1549 DUP3 PUSH2 0x152C JUMP JUMPDEST SWAP1 POP SWAP2 SWAP1 POP JUMP JUMPDEST PUSH2 0x1561 PUSH2 0x155C DUP3 PUSH2 0x102F JUMP JUMPDEST PUSH2 0x153E JUMP JUMPDEST DUP3 MSTORE POP POP JUMP JUMPDEST PUSH1 0x0 DUP2 SWAP1 POP SWAP2 SWAP1 POP JUMP JUMPDEST PUSH2 0x1582 PUSH2 0x157D DUP3 PUSH2 0xFAC JUMP JUMPDEST PUSH2 0x1567 JUMP JUMPDEST DUP3 MSTORE POP POP JUMP JUMPDEST PUSH1 0x0 PUSH2 0x1594 DUP3 DUP7 PUSH2 0x1550 JUMP JUMPDEST PUSH1 0x14 DUP3 ADD SWAP2 POP PUSH2 0x15A4 DUP3 DUP6 PUSH2 0x1571 JUMP JUMPDEST PUSH1 0x20 DUP3 ADD SWAP2 POP PUSH2 0x15B4 DUP3 DUP5 PUSH2 0x1571 JUMP JUMPDEST PUSH1 0x20 DUP3 ADD SWAP2 POP DUP2 SWAP1 POP SWAP5 SWAP4 POP POP POP POP JUMP JUMPDEST PUSH32 0x4E487B7100000000000000000000000000000000000000000000000000000000 PUSH1 0x0 MSTORE PUSH1 0x12 PUSH1 0x4 MSTORE PUSH1 0x24 PUSH1 0x0 REVERT JUMPDEST PUSH1 0x0 PUSH2 0x15FF DUP3 PUSH2 0xFAC JUMP JUMPDEST SWAP2 POP PUSH2 0x160A DUP4 PUSH2 0xFAC JUMP JUMPDEST SWAP3 POP DUP3 PUSH2 0x161A JUMPI PUSH2 0x1619 PUSH2 0x15C5 JUMP JUMPDEST JUMPDEST DUP3 DUP3 MOD SWAP1 POP SWAP3 SWAP2 POP POP JUMP INVALID LOG2 PUSH5 0x6970667358 0x22 SLT KECCAK256 PUSH16 0xAFDA5EF58C27914C9AEF6BE7C043FA7A BASEFEE 0xAF 0xE7 0xA5 MSIZE NOT 0x1E 0xC7 0x25 0xBB PC PUSH18 0x334AD164736F6C6343000812003300000000 "
				},
				"gasEstimates": {
					"creation": {
						"codeDepositCost": "1144600",
						"executionCost": "infinite",
						"totalCost": "infinite"
					},
					"external": {
						"approve(address,uint256)": "infinite",
						"balanceOf(address)": "2908",
						"burn(uint256)": "infinite",
						"getApproved(uint256)": "2888",
						"isApprovedForAll(address,address)": "infinite",
						"mint(address,uint256)": "infinite",
						"name()": "infinite",
						"ownerOf(uint256)": "2910",
						"setApprovalForAll(address,address,bool)": "infinite",
						"symbol()": "infinite",
						"tokenURI(uint256)": "infinite",
						"transfer(address,uint256)": "infinite",
						"transferFrom(address,address,uint256)": "infinite"
					},
					"internal": {
						"randomNft(uint256)": "infinite"
					}
				},
				"methodIdentifiers": {
					"approve(address,uint256)": "095ea7b3",
					"balanceOf(address)": "70a08231",
					"burn(uint256)": "42966c68",
					"getApproved(uint256)": "081812fc",
					"isApprovedForAll(address,address)": "e985e9c5",
					"mint(address,uint256)": "40c10f19",
					"name()": "06fdde03",
					"ownerOf(uint256)": "6352211e",
					"setApprovalForAll(address,address,bool)": "367605ca",
					"symbol()": "95d89b41",
					"tokenURI(uint256)": "c87b56dd",
					"transfer(address,uint256)": "a9059cbb",
					"transferFrom(address,address,uint256)": "23b872dd"
				}
			},
			"storageLayout": {
				"storage": [
					{
						"astId": 3,
						"contract": "solidity-study-main/4.example/erc721/erc721_random.sol:ERC721",
						"label": "_name",
						"offset": 0,
						"slot": "0",
						"type": "t_string_storage"
					},
					{
						"astId": 5,
						"contract": "solidity-study-main/4.example/erc721/erc721_random.sol:ERC721",
						"label": "_symbol",
						"offset": 0,
						"slot": "1",
						"type": "t_string_storage"
					},
					{
						"astId": 9,
						"contract": "solidity-study-main/4.example/erc721/erc721_random.sol:ERC721",
						"label": "_tokenInfo",
						"offset": 0,
						"slot": "2",
						"type": "t_mapping(t_uint256,t_uint256)"
					},
					{
						"astId": 13,
						"contract": "solidity-study-main/4.example/erc721/erc721_random.sol:ERC721",
						"label": "_owners",
						"offset": 0,
						"slot": "3",
						"type": "t_mapping(t_uint256,t_address)"
					},
					{
						"astId": 17,
						"contract": "solidity-study-main/4.example/erc721/erc721_random.sol:ERC721",
						"label": "_balances",
						"offset": 0,
						"slot": "4",
						"type": "t_mapping(t_address,t_uint256)"
					},
					{
						"astId": 21,
						"contract": "solidity-study-main/4.example/erc721/erc721_random.sol:ERC721",
						"label": "_tokenApprovals",
						"offset": 0,
						"slot": "5",
						"type": "t_mapping(t_uint256,t_address)"
					},
					{
						"astId": 27,
						"contract": "solidity-study-main/4.example/erc721/erc721_random.sol:ERC721",
						"label": "_operatorApprovals",
						"offset": 0,
						"slot": "6",
						"type": "t_mapping(t_address,t_mapping(t_address,t_bool))"
					},
					{
						"astId": 30,
						"contract": "solidity-study-main/4.example/erc721/erc721_random.sol:ERC721",
						"label": "totalSupply",
						"offset": 0,
						"slot": "7",
						"type": "t_uint256"
					}
				],
				"types": {
					"t_address": {
						"encoding": "inplace",
						"label": "address",
						"numberOfBytes": "20"
					},
					"t_bool": {
						"encoding": "inplace",
						"label": "bool",
						"numberOfBytes": "1"
					},
					"t_mapping(t_address,t_bool)": {
						"encoding": "mapping",
						"key": "t_address",
						"label": "mapping(address => bool)",
						"numberOfBytes": "32",
						"value": "t_bool"
					},
					"t_mapping(t_address,t_mapping(t_address,t_bool))": {
						"encoding": "mapping",
						"key": "t_address",
						"label": "mapping(address => mapping(address => bool))",
						"numberOfBytes": "32",
						"value": "t_mapping(t_address,t_bool)"
					},
					"t_mapping(t_address,t_uint256)": {
						"encoding": "mapping",
						"key": "t_address",
						"label": "mapping(address => uint256)",
						"numberOfBytes": "32",
						"value": "t_uint256"
					},
					"t_mapping(t_uint256,t_address)": {
						"encoding": "mapping",
						"key": "t_uint256",
						"label": "mapping(uint256 => address)",
						"numberOfBytes": "32",
						"value": "t_address"
					},
					"t_mapping(t_uint256,t_uint256)": {
						"encoding": "mapping",
						"key": "t_uint256",
						"label": "mapping(uint256 => uint256)",
						"numberOfBytes": "32",
						"value": "t_uint256"
					},
					"t_string_storage": {
						"encoding": "bytes",
						"label": "string",
						"numberOfBytes": "32"
					},
					"t_uint256": {
						"encoding": "inplace",
						"label": "uint256",
						"numberOfBytes": "32"
					}
				}
			},
			"userdoc": {
				"kind": "user",
				"methods": {},
				"version": 1
			}
		}
	}
}