{
	"data": {
		"bytecode": {
			"linkReferences": {},
			"object": "6080604052600560005560056001556007600255600060035534801561002457600080fd5b50610496806100346000396000f3fe608060405234801561001057600080fd5b506004361061009e5760003560e01c8063a040188511610066578063a040188514610139578063b129842814610157578063b87f328014610175578063c3da42b814610193578063deee4403146101b15761009e565b806303d5a26b146100a35780630dbe671f146100c15780634df7e3d0146100df57806367e06858146100fd5780638a054ac21461011b575b600080fd5b6100ab6101cf565b6040516100b8919061030c565b60405180910390f35b6100c96101ed565b6040516100d6919061030c565b60405180910390f35b6100e76101f3565b6040516100f4919061030c565b60405180910390f35b6101056101f9565b604051610112919061030c565b60405180910390f35b610123610217565b604051610130919061030c565b60405180910390f35b61014161021d565b60405161014e919061030c565b60405180910390f35b61015f61023b565b60405161016c919061030c565b60405180910390f35b61017d610259565b60405161018a919061030c565b60405180910390f35b61019b610277565b6040516101a8919061030c565b60405180910390f35b6101b961027d565b6040516101c6919061030c565b60405180910390f35b60006101e860035460005461029b90919063ffffffff16565b905090565b60005481565b60015481565b60006102126001546000546102b190919063ffffffff16565b905090565b60035481565b60006102366002546000546102c790919063ffffffff16565b905090565b60006102546001546000546102dd90919063ffffffff16565b905090565b60006102726001546000546102c790919063ffffffff16565b905090565b60025481565b600061029660015460005461029b90919063ffffffff16565b905090565b600081836102a99190610385565b905092915050565b600081836102bf91906103b6565b905092915050565b600081836102d591906103ea565b905092915050565b600081836102eb919061041e565b905092915050565b6000819050919050565b610306816102f3565b82525050565b600060208201905061032160008301846102fd565b92915050565b7f4e487b7100000000000000000000000000000000000000000000000000000000600052601260045260246000fd5b7f4e487b7100000000000000000000000000000000000000000000000000000000600052601160045260246000fd5b6000610390826102f3565b915061039b836102f3565b9250826103ab576103aa610327565b5b828204905092915050565b60006103c1826102f3565b91506103cc836102f3565b92508282019050808211156103e4576103e3610356565b5b92915050565b60006103f5826102f3565b9150610400836102f3565b925082820390508181111561041857610417610356565b5b92915050565b6000610429826102f3565b9150610434836102f3565b9250828202610442816102f3565b9150828204841483151761045957610458610356565b5b509291505056fea2646970667358221220856e0dd3b1535b1617414b65fb3ca40450acc31deeb077a6d18ee1a954298bac64736f6c63430008120033",
			"opcodes": "PUSH1 0x80 PUSH1 0x40 MSTORE PUSH1 0x5 PUSH1 0x0 SSTORE PUSH1 0x5 PUSH1 0x1 SSTORE PUSH1 0x7 PUSH1 0x2 SSTORE PUSH1 0x0 PUSH1 0x3 SSTORE CALLVALUE DUP1 ISZERO PUSH2 0x24 JUMPI PUSH1 0x0 DUP1 REVERT JUMPDEST POP PUSH2 0x496 DUP1 PUSH2 0x34 PUSH1 0x0 CODECOPY PUSH1 0x0 RETURN INVALID PUSH1 0x80 PUSH1 0x40 MSTORE CALLVALUE DUP1 ISZERO PUSH2 0x10 JUMPI PUSH1 0x0 DUP1 REVERT JUMPDEST POP PUSH1 0x4 CALLDATASIZE LT PUSH2 0x9E JUMPI PUSH1 0x0 CALLDATALOAD PUSH1 0xE0 SHR DUP1 PUSH4 0xA0401885 GT PUSH2 0x66 JUMPI DUP1 PUSH4 0xA0401885 EQ PUSH2 0x139 JUMPI DUP1 PUSH4 0xB1298428 EQ PUSH2 0x157 JUMPI DUP1 PUSH4 0xB87F3280 EQ PUSH2 0x175 JUMPI DUP1 PUSH4 0xC3DA42B8 EQ PUSH2 0x193 JUMPI DUP1 PUSH4 0xDEEE4403 EQ PUSH2 0x1B1 JUMPI PUSH2 0x9E JUMP JUMPDEST DUP1 PUSH4 0x3D5A26B EQ PUSH2 0xA3 JUMPI DUP1 PUSH4 0xDBE671F EQ PUSH2 0xC1 JUMPI DUP1 PUSH4 0x4DF7E3D0 EQ PUSH2 0xDF JUMPI DUP1 PUSH4 0x67E06858 EQ PUSH2 0xFD JUMPI DUP1 PUSH4 0x8A054AC2 EQ PUSH2 0x11B JUMPI JUMPDEST PUSH1 0x0 DUP1 REVERT JUMPDEST PUSH2 0xAB PUSH2 0x1CF JUMP JUMPDEST PUSH1 0x40 MLOAD PUSH2 0xB8 SWAP2 SWAP1 PUSH2 0x30C JUMP JUMPDEST PUSH1 0x40 MLOAD DUP1 SWAP2 SUB SWAP1 RETURN JUMPDEST PUSH2 0xC9 PUSH2 0x1ED JUMP JUMPDEST PUSH1 0x40 MLOAD PUSH2 0xD6 SWAP2 SWAP1 PUSH2 0x30C JUMP JUMPDEST PUSH1 0x40 MLOAD DUP1 SWAP2 SUB SWAP1 RETURN JUMPDEST PUSH2 0xE7 PUSH2 0x1F3 JUMP JUMPDEST PUSH1 0x40 MLOAD PUSH2 0xF4 SWAP2 SWAP1 PUSH2 0x30C JUMP JUMPDEST PUSH1 0x40 MLOAD DUP1 SWAP2 SUB SWAP1 RETURN JUMPDEST PUSH2 0x105 PUSH2 0x1F9 JUMP JUMPDEST PUSH1 0x40 MLOAD PUSH2 0x112 SWAP2 SWAP1 PUSH2 0x30C JUMP JUMPDEST PUSH1 0x40 MLOAD DUP1 SWAP2 SUB SWAP1 RETURN JUMPDEST PUSH2 0x123 PUSH2 0x217 JUMP JUMPDEST PUSH1 0x40 MLOAD PUSH2 0x130 SWAP2 SWAP1 PUSH2 0x30C JUMP JUMPDEST PUSH1 0x40 MLOAD DUP1 SWAP2 SUB SWAP1 RETURN JUMPDEST PUSH2 0x141 PUSH2 0x21D JUMP JUMPDEST PUSH1 0x40 MLOAD PUSH2 0x14E SWAP2 SWAP1 PUSH2 0x30C JUMP JUMPDEST PUSH1 0x40 MLOAD DUP1 SWAP2 SUB SWAP1 RETURN JUMPDEST PUSH2 0x15F PUSH2 0x23B JUMP JUMPDEST PUSH1 0x40 MLOAD PUSH2 0x16C SWAP2 SWAP1 PUSH2 0x30C JUMP JUMPDEST PUSH1 0x40 MLOAD DUP1 SWAP2 SUB SWAP1 RETURN JUMPDEST PUSH2 0x17D PUSH2 0x259 JUMP JUMPDEST PUSH1 0x40 MLOAD PUSH2 0x18A SWAP2 SWAP1 PUSH2 0x30C JUMP JUMPDEST PUSH1 0x40 MLOAD DUP1 SWAP2 SUB SWAP1 RETURN JUMPDEST PUSH2 0x19B PUSH2 0x277 JUMP JUMPDEST PUSH1 0x40 MLOAD PUSH2 0x1A8 SWAP2 SWAP1 PUSH2 0x30C JUMP JUMPDEST PUSH1 0x40 MLOAD DUP1 SWAP2 SUB SWAP1 RETURN JUMPDEST PUSH2 0x1B9 PUSH2 0x27D JUMP JUMPDEST PUSH1 0x40 MLOAD PUSH2 0x1C6 SWAP2 SWAP1 PUSH2 0x30C JUMP JUMPDEST PUSH1 0x40 MLOAD DUP1 SWAP2 SUB SWAP1 RETURN JUMPDEST PUSH1 0x0 PUSH2 0x1E8 PUSH1 0x3 SLOAD PUSH1 0x0 SLOAD PUSH2 0x29B SWAP1 SWAP2 SWAP1 PUSH4 0xFFFFFFFF AND JUMP JUMPDEST SWAP1 POP SWAP1 JUMP JUMPDEST PUSH1 0x0 SLOAD DUP2 JUMP JUMPDEST PUSH1 0x1 SLOAD DUP2 JUMP JUMPDEST PUSH1 0x0 PUSH2 0x212 PUSH1 0x1 SLOAD PUSH1 0x0 SLOAD PUSH2 0x2B1 SWAP1 SWAP2 SWAP1 PUSH4 0xFFFFFFFF AND JUMP JUMPDEST SWAP1 POP SWAP1 JUMP JUMPDEST PUSH1 0x3 SLOAD DUP2 JUMP JUMPDEST PUSH1 0x0 PUSH2 0x236 PUSH1 0x2 SLOAD PUSH1 0x0 SLOAD PUSH2 0x2C7 SWAP1 SWAP2 SWAP1 PUSH4 0xFFFFFFFF AND JUMP JUMPDEST SWAP1 POP SWAP1 JUMP JUMPDEST PUSH1 0x0 PUSH2 0x254 PUSH1 0x1 SLOAD PUSH1 0x0 SLOAD PUSH2 0x2DD SWAP1 SWAP2 SWAP1 PUSH4 0xFFFFFFFF AND JUMP JUMPDEST SWAP1 POP SWAP1 JUMP JUMPDEST PUSH1 0x0 PUSH2 0x272 PUSH1 0x1 SLOAD PUSH1 0x0 SLOAD PUSH2 0x2C7 SWAP1 SWAP2 SWAP1 PUSH4 0xFFFFFFFF AND JUMP JUMPDEST SWAP1 POP SWAP1 JUMP JUMPDEST PUSH1 0x2 SLOAD DUP2 JUMP JUMPDEST PUSH1 0x0 PUSH2 0x296 PUSH1 0x1 SLOAD PUSH1 0x0 SLOAD PUSH2 0x29B SWAP1 SWAP2 SWAP1 PUSH4 0xFFFFFFFF AND JUMP JUMPDEST SWAP1 POP SWAP1 JUMP JUMPDEST PUSH1 0x0 DUP2 DUP4 PUSH2 0x2A9 SWAP2 SWAP1 PUSH2 0x385 JUMP JUMPDEST SWAP1 POP SWAP3 SWAP2 POP POP JUMP JUMPDEST PUSH1 0x0 DUP2 DUP4 PUSH2 0x2BF SWAP2 SWAP1 PUSH2 0x3B6 JUMP JUMPDEST SWAP1 POP SWAP3 SWAP2 POP POP JUMP JUMPDEST PUSH1 0x0 DUP2 DUP4 PUSH2 0x2D5 SWAP2 SWAP1 PUSH2 0x3EA JUMP JUMPDEST SWAP1 POP SWAP3 SWAP2 POP POP JUMP JUMPDEST PUSH1 0x0 DUP2 DUP4 PUSH2 0x2EB SWAP2 SWAP1 PUSH2 0x41E JUMP JUMPDEST SWAP1 POP SWAP3 SWAP2 POP POP JUMP JUMPDEST PUSH1 0x0 DUP2 SWAP1 POP SWAP2 SWAP1 POP JUMP JUMPDEST PUSH2 0x306 DUP2 PUSH2 0x2F3 JUMP JUMPDEST DUP3 MSTORE POP POP JUMP JUMPDEST PUSH1 0x0 PUSH1 0x20 DUP3 ADD SWAP1 POP PUSH2 0x321 PUSH1 0x0 DUP4 ADD DUP5 PUSH2 0x2FD JUMP JUMPDEST SWAP3 SWAP2 POP POP JUMP JUMPDEST PUSH32 0x4E487B7100000000000000000000000000000000000000000000000000000000 PUSH1 0x0 MSTORE PUSH1 0x12 PUSH1 0x4 MSTORE PUSH1 0x24 PUSH1 0x0 REVERT JUMPDEST PUSH32 0x4E487B7100000000000000000000000000000000000000000000000000000000 PUSH1 0x0 MSTORE PUSH1 0x11 PUSH1 0x4 MSTORE PUSH1 0x24 PUSH1 0x0 REVERT JUMPDEST PUSH1 0x0 PUSH2 0x390 DUP3 PUSH2 0x2F3 JUMP JUMPDEST SWAP2 POP PUSH2 0x39B DUP4 PUSH2 0x2F3 JUMP JUMPDEST SWAP3 POP DUP3 PUSH2 0x3AB JUMPI PUSH2 0x3AA PUSH2 0x327 JUMP JUMPDEST JUMPDEST DUP3 DUP3 DIV SWAP1 POP SWAP3 SWAP2 POP POP JUMP JUMPDEST PUSH1 0x0 PUSH2 0x3C1 DUP3 PUSH2 0x2F3 JUMP JUMPDEST SWAP2 POP PUSH2 0x3CC DUP4 PUSH2 0x2F3 JUMP JUMPDEST SWAP3 POP DUP3 DUP3 ADD SWAP1 POP DUP1 DUP3 GT ISZERO PUSH2 0x3E4 JUMPI PUSH2 0x3E3 PUSH2 0x356 JUMP JUMPDEST JUMPDEST SWAP3 SWAP2 POP POP JUMP JUMPDEST PUSH1 0x0 PUSH2 0x3F5 DUP3 PUSH2 0x2F3 JUMP JUMPDEST SWAP2 POP PUSH2 0x400 DUP4 PUSH2 0x2F3 JUMP JUMPDEST SWAP3 POP DUP3 DUP3 SUB SWAP1 POP DUP2 DUP2 GT ISZERO PUSH2 0x418 JUMPI PUSH2 0x417 PUSH2 0x356 JUMP JUMPDEST JUMPDEST SWAP3 SWAP2 POP POP JUMP JUMPDEST PUSH1 0x0 PUSH2 0x429 DUP3 PUSH2 0x2F3 JUMP JUMPDEST SWAP2 POP PUSH2 0x434 DUP4 PUSH2 0x2F3 JUMP JUMPDEST SWAP3 POP DUP3 DUP3 MUL PUSH2 0x442 DUP2 PUSH2 0x2F3 JUMP JUMPDEST SWAP2 POP DUP3 DUP3 DIV DUP5 EQ DUP4 ISZERO OR PUSH2 0x459 JUMPI PUSH2 0x458 PUSH2 0x356 JUMP JUMPDEST JUMPDEST POP SWAP3 SWAP2 POP POP JUMP INVALID LOG2 PUSH5 0x6970667358 0x22 SLT KECCAK256 DUP6 PUSH15 0xDD3B1535B1617414B65FB3CA40450 0xAC 0xC3 SAR 0xEE 0xB0 PUSH24 0xA6D18EE1A954298BAC64736F6C6343000812003300000000 "
		},
		"gasEstimates": {
			"creation": {
				"codeDepositCost": "234800",
				"executionCost": "71599",
				"totalCost": "306399"
			},
			"external": {
				"Add()": "infinite",
				"Div()": "infinite",
				"Div2()": "infinite",
				"Mul()": "infinite",
				"Sub()": "infinite",
				"Sub2()": "infinite",
				"a()": "2452",
				"b()": "2474",
				"c()": "2495",
				"d()": "2518"
			}
		},
		"methodIdentifiers": {
			"Add()": "67e06858",
			"Div()": "deee4403",
			"Div2()": "03d5a26b",
			"Mul()": "b1298428",
			"Sub()": "b87f3280",
			"Sub2()": "a0401885",
			"a()": "0dbe671f",
			"b()": "4df7e3d0",
			"c()": "c3da42b8",
			"d()": "8a054ac2"
		}
	},
	"abi": [
		{
			"inputs": [],
			"name": "Add",
			"outputs": [
				{
					"internalType": "uint256",
					"name": "",
					"type": "uint256"
				}
			],
			"stateMutability": "view",
			"type": "function"
		},
		{
			"inputs": [],
			"name": "Div",
			"outputs": [
				{
					"internalType": "uint256",
					"name": "",
					"type": "uint256"
				}
			],
			"stateMutability": "view",
			"type": "function"
		},
		{
			"inputs": [],
			"name": "Div2",
			"outputs": [
				{
					"internalType": "uint256",
					"name": "",
					"type": "uint256"
				}
			],
			"stateMutability": "view",
			"type": "function"
		},
		{
			"inputs": [],
			"name": "Mul",
			"outputs": [
				{
					"internalType": "uint256",
					"name": "",
					"type": "uint256"
				}
			],
			"stateMutability": "view",
			"type": "function"
		},
		{
			"inputs": [],
			"name": "Sub",
			"outputs": [
				{
					"internalType": "uint256",
					"name": "",
					"type": "uint256"
				}
			],
			"stateMutability": "view",
			"type": "function"
		},
		{
			"inputs": [],
			"name": "Sub2",
			"outputs": [
				{
					"internalType": "uint256",
					"name": "",
					"type": "uint256"
				}
			],
			"stateMutability": "view",
			"type": "function"
		},
		{
			"inputs": [],
			"name": "a",
			"outputs": [
				{
					"internalType": "uint256",
					"name": "",
					"type": "uint256"
				}
			],
			"stateMutability": "view",
			"type": "function"
		},
		{
			"inputs": [],
			"name": "b",
			"outputs": [
				{
					"internalType": "uint256",
					"name": "",
					"type": "uint256"
				}
			],
			"stateMutability": "view",
			"type": "function"
		},
		{
			"inputs": [],
			"name": "c",
			"outputs": [
				{
					"internalType": "uint256",
					"name": "",
					"type": "uint256"
				}
			],
			"stateMutability": "view",
			"type": "function"
		},
		{
			"inputs": [],
			"name": "d",
			"outputs": [
				{
					"internalType": "uint256",
					"name": "",
					"type": "uint256"
				}
			],
			"stateMutability": "view",
			"type": "function"
		}
	]
}