{
	"solidity-study-main/4.example/upgradable/Proxy.sol": {
		"Proxy": {
			"abi": [
				{
					"stateMutability": "payable",
					"type": "fallback"
				},
				{
					"inputs": [],
					"name": "implementation",
					"outputs": [
						{
							"internalType": "address",
							"name": "",
							"type": "address"
						}
					],
					"stateMutability": "view",
					"type": "function"
				},
				{
					"inputs": [
						{
							"internalType": "address",
							"name": "_implementation",
							"type": "address"
						}
					],
					"name": "setImplementation",
					"outputs": [],
					"stateMutability": "nonpayable",
					"type": "function"
				},
				{
					"inputs": [],
					"name": "x",
					"outputs": [
						{
							"internalType": "uint256",
							"name": "",
							"type": "uint256"
						}
					],
					"stateMutability": "view",
					"type": "function"
				},
				{
					"stateMutability": "payable",
					"type": "receive"
				}
			],
			"devdoc": {
				"kind": "dev",
				"methods": {},
				"version": 1
			},
			"evm": {
				"assembly": "    /* \"solidity-study-main/4.example/upgradable/Proxy.sol\":68:989  contract Proxy {... */\n  mstore(0x40, 0x80)\n  callvalue\n  dup1\n  iszero\n  tag_1\n  jumpi\n  0x00\n  dup1\n  revert\ntag_1:\n  pop\n  dataSize(sub_0)\n  dup1\n  dataOffset(sub_0)\n  0x00\n  codecopy\n  0x00\n  return\nstop\n\nsub_0: assembly {\n        /* \"solidity-study-main/4.example/upgradable/Proxy.sol\":68:989  contract Proxy {... */\n      mstore(0x40, 0x80)\n      jumpi(tag_1, lt(calldatasize, 0x04))\n      shr(0xe0, calldataload(0x00))\n      dup1\n      0x0c55699c\n      eq\n      tag_3\n      jumpi\n      dup1\n      0x5c60da1b\n      eq\n      tag_4\n      jumpi\n      dup1\n      0xd784d426\n      eq\n      tag_5\n      jumpi\n      jump(tag_2)\n    tag_1:\n      jumpi(tag_2, calldatasize)\n        /* \"solidity-study-main/4.example/upgradable/Proxy.sol\":970:978  revert() */\n      0x00\n      dup1\n      revert\n        /* \"solidity-study-main/4.example/upgradable/Proxy.sol\":68:989  contract Proxy {... */\n    tag_2:\n        /* \"solidity-study-main/4.example/upgradable/Proxy.sol\":901:915  implementation */\n      sload(0x00)\n        /* \"solidity-study-main/4.example/upgradable/Proxy.sol\":891:916  _delegate(implementation) */\n      tag_10\n      swap1\n      sub(shl(0xa0, 0x01), 0x01)\n        /* \"solidity-study-main/4.example/upgradable/Proxy.sol\":901:915  implementation */\n      and\n        /* \"solidity-study-main/4.example/upgradable/Proxy.sol\":891:900  _delegate */\n      tag_11\n        /* \"solidity-study-main/4.example/upgradable/Proxy.sol\":891:916  _delegate(implementation) */\n      jump\t// in\n    tag_10:\n        /* \"solidity-study-main/4.example/upgradable/Proxy.sol\":68:989  contract Proxy {... */\n      stop\n        /* \"solidity-study-main/4.example/upgradable/Proxy.sol\":153:166  uint public x */\n    tag_3:\n      callvalue\n      dup1\n      iszero\n      tag_12\n      jumpi\n      0x00\n      dup1\n      revert\n    tag_12:\n      pop\n      tag_13\n      sload(0x01)\n      dup2\n      jump\n    tag_13:\n      mload(0x40)\n        /* \"#utility.yul\":160:185   */\n      swap1\n      dup2\n      mstore\n        /* \"#utility.yul\":148:150   */\n      0x20\n        /* \"#utility.yul\":133:151   */\n      add\n        /* \"solidity-study-main/4.example/upgradable/Proxy.sol\":153:166  uint public x */\n    tag_15:\n      mload(0x40)\n      dup1\n      swap2\n      sub\n      swap1\n      return\n        /* \"solidity-study-main/4.example/upgradable/Proxy.sol\":90:119  address public implementation */\n    tag_4:\n      callvalue\n      dup1\n      iszero\n      tag_17\n      jumpi\n      0x00\n      dup1\n      revert\n    tag_17:\n      pop\n      sload(0x00)\n      tag_18\n      swap1\n      sub(shl(0xa0, 0x01), 0x01)\n      and\n      dup2\n      jump\n    tag_18:\n      mload(0x40)\n      sub(shl(0xa0, 0x01), 0x01)\n        /* \"#utility.yul\":360:392   */\n      swap1\n      swap2\n      and\n        /* \"#utility.yul\":342:393   */\n      dup2\n      mstore\n        /* \"#utility.yul\":330:332   */\n      0x20\n        /* \"#utility.yul\":315:333   */\n      add\n        /* \"solidity-study-main/4.example/upgradable/Proxy.sol\":90:119  address public implementation */\n      tag_15\n        /* \"#utility.yul\":196:399   */\n      jump\n        /* \"solidity-study-main/4.example/upgradable/Proxy.sol\":175:287  function setImplementation(address _implementation) external {... */\n    tag_5:\n      callvalue\n      dup1\n      iszero\n      tag_22\n      jumpi\n      0x00\n      dup1\n      revert\n    tag_22:\n      pop\n      tag_10\n      tag_24\n      calldatasize\n      0x04\n      tag_25\n      jump\t// in\n    tag_24:\n        /* \"solidity-study-main/4.example/upgradable/Proxy.sol\":247:261  implementation */\n      0x00\n        /* \"solidity-study-main/4.example/upgradable/Proxy.sol\":247:279  implementation = _implementation */\n      dup1\n      sload\n      not(sub(shl(0xa0, 0x01), 0x01))\n      and\n      sub(shl(0xa0, 0x01), 0x01)\n      swap3\n      swap1\n      swap3\n      and\n      swap2\n      swap1\n      swap2\n      or\n      swap1\n      sstore\n        /* \"solidity-study-main/4.example/upgradable/Proxy.sol\":175:287  function setImplementation(address _implementation) external {... */\n      jump\n        /* \"solidity-study-main/4.example/upgradable/Proxy.sol\":295:763  function _delegate(address _implementation) internal {... */\n    tag_11:\n        /* \"solidity-study-main/4.example/upgradable/Proxy.sol\":401:415  calldatasize() */\n      calldatasize\n        /* \"solidity-study-main/4.example/upgradable/Proxy.sol\":398:399  0 */\n      0x00\n        /* \"solidity-study-main/4.example/upgradable/Proxy.sol\":396:397  0 */\n      dup1\n        /* \"solidity-study-main/4.example/upgradable/Proxy.sol\":383:416  calldatacopy(0,0, calldatasize()) */\n      calldatacopy\n        /* \"solidity-study-main/4.example/upgradable/Proxy.sol\":500:501  0 */\n      0x00\n        /* \"solidity-study-main/4.example/upgradable/Proxy.sol\":498:499  0 */\n      dup1\n        /* \"solidity-study-main/4.example/upgradable/Proxy.sol\":483:497  calldatasize() */\n      calldatasize\n        /* \"solidity-study-main/4.example/upgradable/Proxy.sol\":481:482  0 */\n      0x00\n        /* \"solidity-study-main/4.example/upgradable/Proxy.sol\":465:480  _implementation */\n      dup5\n        /* \"solidity-study-main/4.example/upgradable/Proxy.sol\":459:464  gas() */\n      gas\n        /* \"solidity-study-main/4.example/upgradable/Proxy.sol\":446:502  delegatecall(gas(),_implementation,0,calldatasize(),0,0) */\n      delegatecall\n        /* \"solidity-study-main/4.example/upgradable/Proxy.sol\":538:554  returndatasize() */\n      returndatasize\n        /* \"solidity-study-main/4.example/upgradable/Proxy.sol\":535:536  0 */\n      0x00\n        /* \"solidity-study-main/4.example/upgradable/Proxy.sol\":533:534  0 */\n      dup1\n        /* \"solidity-study-main/4.example/upgradable/Proxy.sol\":518:555  returndatacopy(0,0, returndatasize()) */\n      returndatacopy\n        /* \"solidity-study-main/4.example/upgradable/Proxy.sol\":576:582  result */\n      dup1\n        /* \"solidity-study-main/4.example/upgradable/Proxy.sol\":596:663  case 0 {... */\n      dup1\n      iszero\n      tag_29\n      jumpi\n        /* \"solidity-study-main/4.example/upgradable/Proxy.sol\":713:729  returndatasize() */\n      returndatasize\n        /* \"solidity-study-main/4.example/upgradable/Proxy.sol\":711:712  0 */\n      0x00\n        /* \"solidity-study-main/4.example/upgradable/Proxy.sol\":704:730  return(0,returndatasize()) */\n      return\n        /* \"solidity-study-main/4.example/upgradable/Proxy.sol\":596:663  case 0 {... */\n    tag_29:\n        /* \"solidity-study-main/4.example/upgradable/Proxy.sol\":631:647  returndatasize() */\n      returndatasize\n        /* \"solidity-study-main/4.example/upgradable/Proxy.sol\":629:630  0 */\n      0x00\n        /* \"solidity-study-main/4.example/upgradable/Proxy.sol\":622:648  revert(0,returndatasize()) */\n      revert\n        /* \"#utility.yul\":404:690   */\n    tag_25:\n        /* \"#utility.yul\":463:469   */\n      0x00\n        /* \"#utility.yul\":516:518   */\n      0x20\n        /* \"#utility.yul\":504:513   */\n      dup3\n        /* \"#utility.yul\":495:502   */\n      dup5\n        /* \"#utility.yul\":491:514   */\n      sub\n        /* \"#utility.yul\":487:519   */\n      slt\n        /* \"#utility.yul\":484:536   */\n      iszero\n      tag_35\n      jumpi\n        /* \"#utility.yul\":532:533   */\n      0x00\n        /* \"#utility.yul\":529:530   */\n      dup1\n        /* \"#utility.yul\":522:534   */\n      revert\n        /* \"#utility.yul\":484:536   */\n    tag_35:\n        /* \"#utility.yul\":558:581   */\n      dup2\n      calldataload\n      sub(shl(0xa0, 0x01), 0x01)\n        /* \"#utility.yul\":610:641   */\n      dup2\n      and\n        /* \"#utility.yul\":600:642   */\n      dup2\n      eq\n        /* \"#utility.yul\":590:660   */\n      tag_36\n      jumpi\n        /* \"#utility.yul\":656:657   */\n      0x00\n        /* \"#utility.yul\":653:654   */\n      dup1\n        /* \"#utility.yul\":646:658   */\n      revert\n        /* \"#utility.yul\":590:660   */\n    tag_36:\n        /* \"#utility.yul\":679:684   */\n      swap4\n        /* \"#utility.yul\":404:690   */\n      swap3\n      pop\n      pop\n      pop\n      jump\t// out\n\n    auxdata: 0xa26469706673582212202eb8d50ed076b253f550f606a115a340f6697fd12fc0f75ee7a228fa6421105364736f6c63430008120033\n}\n",
				"bytecode": {
					"linkReferences": {},
					"object": "608060405234801561001057600080fd5b50610181806100206000396000f3fe6080604052600436106100385760003560e01c80630c55699c146100595780635c60da1b14610082578063d784d426146100ba57610042565b3661004257600080fd5b600054610057906001600160a01b03166100f7565b005b34801561006557600080fd5b5061006f60015481565b6040519081526020015b60405180910390f35b34801561008e57600080fd5b506000546100a2906001600160a01b031681565b6040516001600160a01b039091168152602001610079565b3480156100c657600080fd5b506100576100d536600461011b565b600080546001600160a01b0319166001600160a01b0392909216919091179055565b3660008037600080366000845af43d6000803e808015610116573d6000f35b3d6000fd5b60006020828403121561012d57600080fd5b81356001600160a01b038116811461014457600080fd5b939250505056fea26469706673582212202eb8d50ed076b253f550f606a115a340f6697fd12fc0f75ee7a228fa6421105364736f6c63430008120033",
					"opcodes": "PUSH1 0x80 PUSH1 0x40 MSTORE CALLVALUE DUP1 ISZERO PUSH2 0x10 JUMPI PUSH1 0x0 DUP1 REVERT JUMPDEST POP PUSH2 0x181 DUP1 PUSH2 0x20 PUSH1 0x0 CODECOPY PUSH1 0x0 RETURN INVALID PUSH1 0x80 PUSH1 0x40 MSTORE PUSH1 0x4 CALLDATASIZE LT PUSH2 0x38 JUMPI PUSH1 0x0 CALLDATALOAD PUSH1 0xE0 SHR DUP1 PUSH4 0xC55699C EQ PUSH2 0x59 JUMPI DUP1 PUSH4 0x5C60DA1B EQ PUSH2 0x82 JUMPI DUP1 PUSH4 0xD784D426 EQ PUSH2 0xBA JUMPI PUSH2 0x42 JUMP JUMPDEST CALLDATASIZE PUSH2 0x42 JUMPI PUSH1 0x0 DUP1 REVERT JUMPDEST PUSH1 0x0 SLOAD PUSH2 0x57 SWAP1 PUSH1 0x1 PUSH1 0x1 PUSH1 0xA0 SHL SUB AND PUSH2 0xF7 JUMP JUMPDEST STOP JUMPDEST CALLVALUE DUP1 ISZERO PUSH2 0x65 JUMPI PUSH1 0x0 DUP1 REVERT JUMPDEST POP PUSH2 0x6F PUSH1 0x1 SLOAD DUP2 JUMP JUMPDEST PUSH1 0x40 MLOAD SWAP1 DUP2 MSTORE PUSH1 0x20 ADD JUMPDEST PUSH1 0x40 MLOAD DUP1 SWAP2 SUB SWAP1 RETURN JUMPDEST CALLVALUE DUP1 ISZERO PUSH2 0x8E JUMPI PUSH1 0x0 DUP1 REVERT JUMPDEST POP PUSH1 0x0 SLOAD PUSH2 0xA2 SWAP1 PUSH1 0x1 PUSH1 0x1 PUSH1 0xA0 SHL SUB AND DUP2 JUMP JUMPDEST PUSH1 0x40 MLOAD PUSH1 0x1 PUSH1 0x1 PUSH1 0xA0 SHL SUB SWAP1 SWAP2 AND DUP2 MSTORE PUSH1 0x20 ADD PUSH2 0x79 JUMP JUMPDEST CALLVALUE DUP1 ISZERO PUSH2 0xC6 JUMPI PUSH1 0x0 DUP1 REVERT JUMPDEST POP PUSH2 0x57 PUSH2 0xD5 CALLDATASIZE PUSH1 0x4 PUSH2 0x11B JUMP JUMPDEST PUSH1 0x0 DUP1 SLOAD PUSH1 0x1 PUSH1 0x1 PUSH1 0xA0 SHL SUB NOT AND PUSH1 0x1 PUSH1 0x1 PUSH1 0xA0 SHL SUB SWAP3 SWAP1 SWAP3 AND SWAP2 SWAP1 SWAP2 OR SWAP1 SSTORE JUMP JUMPDEST CALLDATASIZE PUSH1 0x0 DUP1 CALLDATACOPY PUSH1 0x0 DUP1 CALLDATASIZE PUSH1 0x0 DUP5 GAS DELEGATECALL RETURNDATASIZE PUSH1 0x0 DUP1 RETURNDATACOPY DUP1 DUP1 ISZERO PUSH2 0x116 JUMPI RETURNDATASIZE PUSH1 0x0 RETURN JUMPDEST RETURNDATASIZE PUSH1 0x0 REVERT JUMPDEST PUSH1 0x0 PUSH1 0x20 DUP3 DUP5 SUB SLT ISZERO PUSH2 0x12D JUMPI PUSH1 0x0 DUP1 REVERT JUMPDEST DUP2 CALLDATALOAD PUSH1 0x1 PUSH1 0x1 PUSH1 0xA0 SHL SUB DUP2 AND DUP2 EQ PUSH2 0x144 JUMPI PUSH1 0x0 DUP1 REVERT JUMPDEST SWAP4 SWAP3 POP POP POP JUMP INVALID LOG2 PUSH5 0x6970667358 0x22 SLT KECCAK256 0x2E 0xB8 0xD5 0xE 0xD0 PUSH23 0xB253F550F606A115A340F6697FD12FC0F75EE7A228FA64 0x21 LT MSTORE8 PUSH5 0x736F6C6343 STOP ADDMOD SLT STOP CALLER "
				},
				"gasEstimates": {
					"creation": {
						"codeDepositCost": "77000",
						"executionCost": "129",
						"totalCost": "77129"
					},
					"external": {
						"": "infinite",
						"implementation()": "2337",
						"setImplementation(address)": "24546",
						"x()": "2262"
					},
					"internal": {
						"_delegate(address)": "infinite"
					}
				},
				"methodIdentifiers": {
					"implementation()": "5c60da1b",
					"setImplementation(address)": "d784d426",
					"x()": "0c55699c"
				}
			},
			"storageLayout": {
				"storage": [
					{
						"astId": 3,
						"contract": "solidity-study-main/4.example/upgradable/Proxy.sol:Proxy",
						"label": "implementation",
						"offset": 0,
						"slot": "0",
						"type": "t_address"
					},
					{
						"astId": 5,
						"contract": "solidity-study-main/4.example/upgradable/Proxy.sol:Proxy",
						"label": "x",
						"offset": 0,
						"slot": "1",
						"type": "t_uint256"
					}
				],
				"types": {
					"t_address": {
						"encoding": "inplace",
						"label": "address",
						"numberOfBytes": "20"
					},
					"t_uint256": {
						"encoding": "inplace",
						"label": "uint256",
						"numberOfBytes": "32"
					}
				}
			},
			"userdoc": {
				"kind": "user",
				"methods": {},
				"version": 1
			}
		}
	}
}